:020000041000EA
:4000000000400208310100100D000000950100100000000000000000000000000000000000000000000000000000000091010010000000000000000091010010910100109B
:4000400091010010A5040010910100109101001091010010910100109101001091010010910100109101001091010010910100109101001091010010910100109101001049
:400080009101001091010010910100109101001091010010910100109101001091010010910100109101001091010010910100109101001091010010910100109101001020
:4000C00010B5064C2378002B07D1054B002B02D0044800E000BF0123237010BD5404000800000000C4270010084B10B5002B03D00749084800E000BF07480368002B00D129
:4001000010BD064B002BFBD09847F9E70000000058040008C4270010EC000008000000007047EFF3108072B6704780F310887047FFF7F6FF72B6104C104DAC4209DA2168A9
:400140006268A368043B02DBC858D050FAE70C34F3E70B490B4A0020521A02DD043A8850FCDC094809490860BFF34F8F00F000F900F01EF8FEE70000C8270010E0270010CC
:4001800054040008200600080000000808ED00E0FEE7FEE700B504207146084202D0EFF3098001E0EFF30880043001F06FFAFEE710B562B6014800F04FF9FEE700000810DA
:4001C00070B56249E0239B00CB580F2213401A00D0329200525807210A40032A05D0042A06D0002A12D15A4814E05A4A106811E01A00C0329200554952581F210A40112ABF
:4002000006D0132A04D0FA20C00103E0524801E080200002002B36D14C4BB222D2009A5801211140B125ED005A59120F032422405B591B0F1C4207D0444C63591B0F032458
:400240002340012B02D102E0012300E00023002B01D0002901D1032A4BD13C4BB022D2009D58AD03AD0B3D495958C904C90C9C58240E01231C40013401F0C8FA6843210018
:4002800001F0C4FA35E0012B33D1304BC822D2009A5801251540C024E4001A59120F03210A401B591B0F194207D028490B591B0F03210B40012B02D102E0012300E0002396
:4002C000002B01D0002D01D1032A12D11F4DC022D200AB587F210B40A958090A1F263140AC58240C3440584301F090FA210001F08DFAE0239B00154AD3581B090322134000
:40030000D840144C6060164B1D692D0AFC32154001351969090E013101F078FAA060290001F074FA0500E06020610E4BC0180E4901F06CFA20750D4BE818FA21890001F0D1
:4003400065FAA061C003E06170BDC0460000264000127A00C000000800366E0184050000000021403F420F0040420F00E703000010B5234BB021C9005A58520052085A50BD
:40038000E02080001A583024A2431A50802252045A501C491C4A9950A021890104329950FF211A4A995081315A58920092088020C00502435A505A588020000602435A5050
:4003C0005A58012082435A5000F0A4F9FFF7F8FE00F070F800F078F800F0FAFFB0235B055B78002B04D0B0235B055B78DBB200E02123212B03D1064B0022DA605A6010BD91
:400400000000264001000200840500008C050000E00023408023024AD3580320184070470000214010B5FFF77CFE084980228C58074B2340074C23438B508823034AD358D1
:40044000DB06FAD5FFF771FE10BDC04600002140FCFF00000100FA0570B50500FFF761FE0400FFF7D7FF032801D1FFF7DBFF0A4AB0239B00D55080215058084B0340084806
:40048000034353508823044AD358DB06FAD52000FFF74BFE70BDC04600002140FCFF00000300FA0510B5024800F064FD10BDC0467004000810B5034A60328021042000F087
:4004C00049FB10BD7005000810B501F04AF90400044800F0FFFB044800F066FC200001F044F910BD7004000884190010FEE7C046F0B50025002711E0BB00C658F3B2FF22ED
:40050000964308E06A008A181478A419527822700135013BDBB2002BF4D10137002FEBD0F0BDC04630B587B05E4BA021C9005A58032082435A505C4990240A595B48024051
:400540000A510A691202120A8024640422430A610A6910400861E022920099580F20814399509958213081439950995880200006014399500021012000F05EFD0021022091
:4005800000F05AFD0021032000F056FD0021042000F052FD0021002000F04EFD01A8444903000A0032CA32C312CA12C300F06CFD002802D00420FFF799FF3A493D4A8B5896
:4005C0008020000603438B503B4800F017FE002802D00420FFF78AFF324C384BE158384A0A40E250E158374A0A40E250E25880252D062A43E250043BE158334A0A40E2507F
:40060000E158324A0A40802189010A43E250E258802109020A43E2502D4A11682D4B0B40802149000B431360002001F0D5F82A4AA3581D43A550A3580125AB432B43A3503C
:400640006421002001F03AF8244B0021244A9950802000011958154A1140F8246401214319508021C9001F48585058581E481D501E4C185910408C25AD01284318511C48FD
:400680005850585802241B481C501B481C582240C424A40122431A50184A5A505B5807B030BDC0460000264000002140FF00FFFFB8190010087F0000400D0300040500006A
:4006C000FEFCFFFFFFFF00FFFFF0FFFFFF8FFFFF00002740FFFCFFFF0C05000000000140080C000000FF0080140C00000408000001FF00804C0C00000808000002FF0080B2
:4007000010B50A00002101F016F910BD10B501F009F910BD70B58AB09621002000F0CEFF00F0A4FF002801D100F090FF012000F00FFF484A516C484B0B40E82189010B434B
:400740005364536C1B0AFF2213403A2B07D1414A516C424B0B40E82189010B435364002300223F493F4801F003F8002300223E493E4800F0FDFFFFF7D5FE3D4A3D4B1A60A5
:4007800000240CE06200121953003B4AD318198B9A8AD88A00041043FFF7B2FF01340B2CF0D900240AE0620012199300324AD3185A6E196ED86DFFF7A9FF0134112CF2D978
:4007C0002E4D2900343128003830FFF791FE0F222B4B1A602B4A2C4B1A602C4A1368812149000B43136001AC22002B003C3343CB43C243CB43C243CB43C22100244800F098
:40080000F1FD22002B00603323CB23C223CB23C223CB23C221001F4800F0E4FD1E4D22002B1D43CB43C243CB43C243CB43C221001A4800F0D7FD22002B00283323CB23C248
:4008400023CB23C223CB23C22100154800F0CAFD0AB070BD00002740FF00FFFFFFC5FFDF0F0E0040050E0000010700402A0700000300FA05F0012140B8190010B81A0010B0
:40088000000063400701010000026340007934408002324000033240381B0010800432408006324010B583089A00801AC000FF228240D44381400A40072B32D89B001949BE
:4008C000CB589F46184B196A0C4022431A6228E0154B596A0C4022435A6222E0124B996A0C4022439A621CE00F4BD96A0C402243DA6216E00C4B196B0C4022431A6310E0C1
:40090000094B596B0C4022435A630AE0064B996B0C4022439A6304E0034BD96B0C402243DA6310BDB42400100000214083089A00801AC100FF228A40072B2BD89B00174830
:40094000C3589F46164B186A1040C84023E0144B586A1040C8401EE0114B986A1040C84019E00F4BD86A1040C84014E00C4B186B1040C8400FE00A4B586B1040C8400AE0B0
:40098000074B986B1040C84005E0054BD86B1040C84000E00020C0B27047C046D42400100000214070B504000D000B4B9A680B4B9A420BD1002903D1FC21094800F038FEF5
:4009C0001034064BA400E058E55003E01034A400044BE05870BDC04600ED00E000000008F424001000000010F0B583B0041E019150D04368032B03D93621294800F018FE90
:400A00000023E05E002802DBA178FFF74BFF0023E25E6368002A12DB9008224EC0308000875903210A40D200FF25290091408F4399012B000B4093403B43835117E092B2BA
:400A40000F21114008398908063189001648844661444E6803200240D200FF2738009040864398013B000340934033434B600E4B9A680E4B9A420FD1019B002B03D1452136
:400A8000074800F0D5FD0023E05E0199FFF78AFF002002E0064800E0002003B0F0BDC046F424001000E100E000ED00E0000000080100560070B504000D000369002B0ADA2F
:400AC0000B0C03D00549064800F0B2FD2D042D0C6560002000E0034870BDC046A70200003825001001008A0070B505000C000368002B01DA002300E0084B002B0BD1EA6035
:400B0000230C03D00649074800F092FD2404240CAC60002000E0014870BDC04601008A008E0200003825001070B505000C1E03D19921064800F07CFD2B69002B03DAEB68A6
:400B40002360002000E0024870BDC0467825001001008A00F8B504000E0015000F283FD8002A10D100290ED10F2804D99E21FF31214800F05DFD6401204B9C466444204B8D
:400B80001C60002037E0002D2CD0002E2CD0F3062CD10F2C04D99E21FF31174800F048FD6401164B9C466444154F3C607E60BD60F2080021280000F0BEFE00212000FFF72D
:400BC00079FF3A0001CA0021FFF78EFF00280FD10B4B18680021FFF76DFF00280AD10AE0084808E0074806E0064804E0054802E0054800E00448F8BDB8250010000023403A
:400C00000006000803018A0001018A00F0B583B00D001C4B1B68DC68236883422DD947097B01C01A012383401E00002903D100F098FD019001E000230193124B1868036885
:400C4000002B01DA002300E00F4B002B0ED16368BF00DF193B68334203D0B3433B60002400E00A4C0021FFF725FF00E0084C002D04D1019800F079FD00E0064C200003B03A
:400C8000F0BDC0460006000801008A00020188000301880004018A000A4B1B68DA68136883420BD943095901401A0121814052689B009B580B4203D0034802E0034800E061
:400CC00003487047000600080101880004018A0000018800034B1B68002B01D1014B18607047C0460C060008F0B5474680B404000F0090461E00072803D9B421254800F02F
:400D000097FC254B1B682C2060431C18FF22150035402560330A13406360330CA3600F2D04D99E21FF311D4800F082FC6B011C4A94466344236165680F2D04D9DC21490067
:400D4000164800F075FC6D01164B9C4665446561A668330C04D0EB214900104800F068FC330C04D0D821FF310C4800F061FC3604330C1E43AE604346E36127620023A36130
:400D8000069B002B02D000229B5EA38104BC9046F0BDC046F82500100C060008B82500100000234000102340F0B58FB0041E03D150212E4800F03CFC6368032B03D95221D2
:400DC0002A4800F035FCE36A002B03D15621274800F02EFCE368072B03D95721234800F027FC236A072B03D95821204800F020FC236B002B03D159211C4800F019FC07AA1C
:400E00001300210061C961C321C921C302AD290023001433C1CBC1C141CB41C10821535E0CAE3380079B1933B370089B0D930B9B0A980096A26AE16AFFF756FF2B69E86805
:400E4000002200920021FFF74FFF216B3000FFF7CBFD0023F25E002A05DB1F231A401E3B9340034A13600FB0F0BDC046F825001000E100E0F8B505000F0016001C00002A5D
:400E800003D1FC21244800F0D3FB072D03D9FD21214800F0CDFB072F03D9FE211E4800F0C7FB1E4B1B682C2128004843181879435918012213004D68AB401B044568AA40AA
:400EC00015000269002A20D08F69002F1FD11268002A01DA002200E0114A002A19D132681204120C134333600369DE6001238B614C6204692B0C03D00A490B4800F098FB92
:400F00002A04120CA260002004E0084802E0084800E00748F8BDC046F82500100C06000801008A008E020000B825001004028A0007028A0070B505000C001600072804D929
:400F40006021FF31084800F073FB084B1B682C2068431818C369B34204D9036AB6009C51002000E0024870BDF82500100C0600080A028A0070B582B0040000230193002879
:400F800004D1D92149002B4800F052FB2369002B04D1B421FF31274800F04AFB6369002B04D1DA214900234800F042FB236A002B04D1B621FF311F4800F03AFB6269D56864
:400FC0002B0C1FD01B041360136820690369002B18DA01A9FFF7A8FD00280ED1019803681E0CFF221340E269934207D29B00226AD358002B02D0984700E0002631002069D7
:40100000FFF758FD2D042D0C0FD063691D601B68636A002B03D098470023636203E0A36A002B00D098470023A36163691B6802B070BDC046F825001004281DD8042904D941
:401040004B1EFF3B9BB2132B18D8FF290CD91F2319400B4A0300C0339B009950D03080000423835000200AE007231940D0308000034BC150002002E0024800E001487047C9
:401080000000264001004A0070B5041E04D1EF2149004C4800F0CCFAB023DB004A4AD358002B01DB002500E0484D002D00D086E0474B22689A4204D9EE21FF31414800F0C2
:4010C000B7FA23689B03990BE3791B068022520413400B43B022D2003B498B50A2883D4B9A4204D9FA214900364800F0A1FA2289394B9A4204D9F621FF31324800F098FA56
:40110000A388DB04D90C23891B04344A13400B43334A2D498B50A37A0F2B04D9FC21FF31284800F085FAE37A0F2B04D9FE214900244800F07DFAA289264B9A4204D9FE2185
:40114000FF31204800F074FAA37A0F211940E27A1201FF2313400B43A289120221490A401343A27B1207C02189050A401343B122D20015498B50A379072B03D91A4911484F
:4011800000F056FA228A144B9A4203D917490D4800F04EFA0C4816494658164B1E40A3791B02E022D2001340334343504658124B1E40238A1B04094A1340334343502800CA
:4011C00070BDC046382600100000264003004A00FFFF0300FF1F0000FF0100000000FF018405000000FF1F0005020000060200008C050000FFF8FFFFFFFF00FE70B505001A
:401200002D492E4A8B588020000603438B502C0003E0012000F000FA013CB223DB00264AD3585B0701D4002CF3D12349B122D2008858234B03408020800503438B50002D38
:4012400002D00ED0002C0CD01B49B022D2008B588020000603438B5003E0012000F0DCF9013CB223DB00144AD358DB0701D4002CF3D1002D0ED0002C0CD10F4AB021C90017
:4012800053585B005B0853500C4953585B005B0853500BE0084B0221B222D2009950B121C9005A58C020800502435A50002C01D1044800E0002070BD000026408C050000C2
:4012C000FFFFFFCF02004A00214B984230D00ED8402831D004D800281FD010282AD031E080282BD080235B00984229D02AE0194B984229D007D8A0231B0698420DD0164B7B
:40130000984212D01EE0154B98420AD0144B984209D0144B984215D101E0002016E0124814E0124812E0124810E0A020C0030DE007480BE00F4809E00F4807E00F4805E06F
:40134000034803E00E4801E0A420C0037047C04606005200010000F0090000A0040000F0050000F0030000F001005200020052000300520001005000020050000500520000
:40138000FF00520010B50C4B1B69002B11DB0B4B1868FFF799FF0121094B0A4AD150084B084AD358002BFAD1074BD358002BF6D100E0064810BDC04600002340100600081F
:4013C0000C040000000025408C0400000200500010B5022202490020FFF7ACFD10BDC0463501000870B505000C00002848D0002948D0FF230A689A4303D08D21224800F08F
:4014000017F9FF2322699A4303D08E211E4800F00FF9A3685B0D03D08F211B4800F008F963685B0A03D09021174800F001F9E3695B0F03D09121144800F0FAF8236A5B0F7B
:4014400003D09221104800F0F3F8104BEB18DB090F4A944663441B0122682A60E268AA622269EA6262692A63A2686A626268AA61A2696A63E2691A60226A5A60002002E052
:40148000044800E0034870BDC02600100000CEBF0010030401005A00034A9369802149040B4393617047C04600F02540024A9169024B0B409361704700F02540FFFFFFFE2F
:4014C00010B5074A074813580F24A34302210B43135004381358A3431943115010BDC0460000214004F0000010B5074A074813580F24A34303210B43135004381358A34372
:401500001943115010BDC0460000214004F000000449054A8858054B0340C020C00103438B5070470000214004F00000FF8FFFFF0449054A8858054B03408020C0010343A7
:401540008B5070470000214004F00000FF8FFFFF70B50500012803D92A492B4800F068F800F0FFF80400294B294AD3581F221340E822D200B02149058A5CD31A5A1E9341E8
:40158000DBB29D4239D0002D14D1FFF785FFFFF797FF1F481D4943581F229343143A13434350FFF7B5FFE823DB00B0225205D35CDAB211E01648154943581F229343143AC7
:4015C00013434350092000F027F8FFF7B1FF114BB0225205D35CDAB20D4E0C4831581F23994313400B433350012D06D1092000F013F8FFF779FFFFF759FF200000F0B5F8C8
:4016000070BDC046ED060000402700101CFF0000000026404107000010B5034B1B78584300F096F810BDC046D400000801BEFEE770B50D00044C18220100200000F083F9E9
:40164000A5610020FFF7F2FF18040008054B802212069A649B6C002B01DB002000E002487047C0460000274003004600054B8022120198585B68FF221A4202D08023DB02E5
:401680001843704700002640FEE7C04610B50A4B0268DA6142681A6282685A62C2689A620269DA6242691A6382695A63C2699A63FFF7EAFF10BDC04618040008F0B50028D4
:4016C00001D0192200E064228A42924152421C4BE8256D005C590327BC433A4014435C515C59184E34405C51D03D5C59BC4322435A515A5916405E51002805D010290DD927
:4017000021290DD8012014E01D290BD93A290BD957290BD978290BD803200AE0002008E0022006E0002004E0012002E0022000E00420054A13680F218B4303431360F0BD94
:4017400000002140FFFCFFFF00002540000000000230800803D001300238FCD1C046C0467047EFF3108072B6704780F310887047F8B506000C0015001F00012B03D93621BD
:401780001248FFF755FF32006240F0231B01134019D1220A0F210A40D20170310C401419A4000B4A94466444FF221640002D01D00133FF3333437F028026B60037403B4314
:4017C0002360002000E00348F8BDC04680270010002001400100CE00042805D1094A116804230B4313600CE00006C0239B04184090239B00044AD050024A136804218B4381
:401800001360704710E000E000002140002243088B4274D303098B425FD3030A8B4244D3030B8B4228D3030C8B420DD3FF22090212BA030C8B4202D31212090265D0030B23
:401840008B4219D300E0090AC30B8B4201D3CB03C01A5241830B8B4201D38B03C01A5241430B8B4201D34B03C01A5241030B8B4201D30B03C01A5241C30A8B4201D3CB02D9
:40188000C01A5241830A8B4201D38B02C01A5241430A8B4201D34B02C01A5241030A8B4201D30B02C01A5241CDD2C3098B4201D3CB01C01A524183098B4201D38B01C01AEB
:4018C000524143098B4201D34B01C01A524103098B4201D30B01C01A5241C3088B4201D3CB00C01A524183088B4201D38B00C01A524143088B4201D34B00C01A5241411AC2
:4019000000D20146524110467047FFE701B5002000F006F802BDC0460029F7D076E770477047C046002310B59A4203D0CC5CC4540133F9E710BD03008218934202D0197039
:401940000133FAE77047030030B5002A0DD00C7801335D1E013A2C700131002CF5D19A189A4202D01C700133FAE730BDF8B5C046F8BC08BC9E467047F8B5C046F8BC08BC9F
:401980009E4670470300000001000000010000000000000005036000040000000100000000000000010000000604600008000000E0050008A5040010F401000014000401F3
:4019C0000A0009050800000063010000002034407400802034407400002234407400802234407400002434407400802434407400002634407400802634407400002834406F
:401A00007400802834407400002A34407400802A3440740000213440841B00109000000000233440141C00109000000000253440A41C00109000000000273440341D0010CE
:401A40009000000000293440C41D001090000000002B3440541E00109000000000603440E41E00107C00000080603440601F00107C00000000613440DC1F00107C000000EA
:401A800080613440582000107C00000000623440D42000107C00000080623440502100107C00000000633440CC2100107C00000080633440482200107C00000000643440AF
:401AC000C42200107C00000080643440402300107C00000000653440BC2300107C00000080653440382400107C000000ACC000000171344003000000000000000000000053
:401B0000680000000000000000000000000000001212000000000000000000000000000000000000000000BA0000000000000000000000000000000000001D1D0300000022
:401B40000000000000000000CC0000000000000000000000000000001313000000000000800000000000000000000000000000600000000000000000000000000000000093
:401B800000000003000020000000000000000000FFFFFFFFFFFFFFFFFFFFFFFFFFFFFFFFFFFFFFFFFF000000FFFFFFFFFFFFFFFFFFFFFFFFFFFFFFFFFFFFFFFFFF0000002C
:401BC00000000000061F000000000000000000000F0000000F0F0000FFFFFFFFFFFFFFFFFFFFF7FF11111111111111111111111111111111111111111111111111111111CB
:401C00001111111111111111111111111111111111111111000050080000000000000001FFFFFFFFFFFFFFFFFFFFFFF7FFFFFFFFFFFFFFFFFF000000FFFFFFFFFFFFFFFF1C
:401C4000FFFFFFFFFFFFFFFFFFFFFFFFFF00000004001F001F061F000000001F000700000000000000000000FFFFFFFFFFFFFFFFFFEFFFFF11111111111111111111111134
:401C8000111111111111111111111111111111611111111111111111111111110111011111111111000021110000000000000000FF6FFFFFFFFFFFFFFFFFFFFFFFFFFFFFFE
:401CC000FFFFFFFFFF000000FFFFFFFFFFFFFFFFFFFFFFFFFFFFFFFFFFFFFFFFFF0000001F1F0000001F1F001F1F001F1F0000000000000000000000FFFFFFFFFFFFFFFF0E
:401D0000FFFFFDFF11111111111111111111111111111111111111111111111111111111111111111111111101111111111101111111111110000222000000000000000065
:401D4000FFFFFFFFFFFFFFFFFFFFFFFF0FFFFFFFF4FFFFFFFF000000FFFFFFFFFFFFFFFFFFFFFFFFFFFFFFFFFFFFFFFFFF0000001F1F0C07001F0000071F1F00071F1F008E
:401D80000F000F0000000000FFFFFFFFFFFFFFFFFFFDDFFD1111111011111111111111111111111111111111111111111111111711111111111111111111119111111011C5
:401DC000111101113200A0850000000000000000FFFFFFFFFFFFFFFFFFFFFFFFFFFFFFFFFFFFFFFFFF000000FFFFFFFFFFFFFFFFFFFFFFFFFFFFFFFFFFFFFFFFFF00000082
:401E00000E001F00061F071F1F1F1F00061F001FF000FF0000000000BFFFFFFFFFFFFFFFFFFFF3DD111111110111111111111111111111D111111111111111111111111188
:401E40001111111111111111111111111111101111111111000044100000000000000010FFFFF7F7656FFFFFFFFFFFFFF6F6FFF7FFFFFF7F7F0000002FFFFFFFFFFFFFFFEC
:401E8000FFFFFFFFFFFFFFFFFFFFFFFFFF00000006071F1F00001F1F000000001F1F001F0006000600000000FFFFFFFFFFFFFFFFFFFFEFFE1111111111111111111111118E
:401EC000111111F111111111111111111111111111111111111111B1131111E1E87211111191E17200000000000000001F1F1F071F1F1F1F1F1F1F1F1F1F1F1F1F1F1F1FEF
:401F00001F1F1F171F1F1F1F1F1F1F1F000E000E0000000000040000000000000700000007070000FFFFFFFFFFFFFFFFFFFFFFFF11111111111111111111111111111111FC
:401F400011111111111111111111111114111111111111111111111111151111EE1BE11100000000000002001F1F1F1F1F1F1F1F1F1F1F1F1F1F1F1F1F1F1F1F1F1F1F1F99
:401F80001F08071F1F1F1F1F1F040F00001F1F000000001F000000000000000000000000FFFFFFFFFFFFDFDFFFF7F7FF11111111E111111111111111111111111111111101
:401FC00011111111111111111111111111111111B1111111111B11111111111F00000000000000401F1F071F1F1F1F1F1F1F1F1F1F1F1F1F1F1F1F1F1F1F1F1F1F1F1F1FC1
:402000001F1F1F1F1F0D0000061F0E00000600021F0E05000000000000000000FFFFFFFFBFFFFFFFFFEFAFFF1111111111111111111111111111115111111111111111115F
:40204000111111111111011111111111110111111101E1111111111E00000000000000001F1F1F1F1F1F011F1F1F1F1F1F1F1F1F1F1F1F1F171F1F1F1F1F1F1F1F1F1F1F61
:402080000F001F00000F000000000F0000000E0006700F0000704030FFFFFFFFFFFFFFFFFBFFFFFF11111111D11111D11111111111111111111111101111111161111111C6
:4020C000111111111111111D111FD1911F11101011D1111100000000000000001F1F1F1F1F1F1F1F1F1F1F1F1F1F1F1F1F1F1F1F1F0D1F1F1F1F1F1F1F1F1F1F0000010097
:402100001F001F001F041F000005001FF000F00000000000FFFDFFFFFFFFFFFFFFFFFFFF111111111111110111111111111111111111111111111111111F11111611111106
:4021400011101111D11E11111E1111D1110E111E00000000000000321F1F1F1F1F1F1F071F1F1F1F1F1F1F0C1F1F1F0F1F1F1F1F1F1F1F1F1F1F1F1F001F1F0607001F0764
:4021800000000000000404070000000000000000FFFFFFFFFFFFFFFFFFDFFFFC111111110111111111111111111111111111111111111111911E1116111111111111E11189
:4021C00011111111151111111101111E00002000000000001F1F1F1F1F1F1F1F1F1F1F1F1F1F1F1F1F1F161F1F1F1F171F1F1F1F1F1F1F1F000000001F0200000000000002
:40220000000000000F0000000F0F0000FFFFFFFFFFFFFFFFFFFFFFFF11111111E11111111111D1111161111111111D11111111111111111111111111D11111111111111129
:40224000111101111111011100000000000000001F1F1F1F1F1F1F1F071F1F1F1F1F1F1F1F1F1F1F1F1F161F061F1F1F1F1F1F1F00001F000D00070B00000008051F0000E6
:402280000000000000000000FFFFFFFFFFFFFFFFFEFFDFDD11111111171111111111F11191111111111111111111111111111111111111111111111101111111111111112B
:4022C0001110110100000000000000801F1F1F1F1F1F1F1F1F1F1F1F1F1F1F1F1F1F1F1F1F1F1F1F171F1F1F1F1F1F1F091F000000081F00071F061F060A000000000000A9
:4023000000000000FFFFFFFFFFFFFFFFFFDDF779111111111111111111111111111111111111111111111111111111111111117111111111111111111111111110111111CA
:4023400000000000000000541F1F1F1F1F1F1F1F1F1F1F1F1F1F1F1F1F1F1F1F1F1F1F1F1F1F1F1F1F1F1F1F1F07001F001F00001F0D1F001F061F000F0006000000000021
:40238000FFFFFFFFFFFFFFFFFFFFFBBE111111E11111111111111111111111111111111111111111111111111111111111111111111111D1E1E111E111111111000000003E
:4023C000000000001F1F1F1F1F1F1F1F1F1F1F1F1F1F1F1F1F041F1F1F0E1F1F1F1F1F1F1F1F1F1F1F000000000F000E071F051F0000000E7000770000000000FFFFFFFFB2
:40240000FFFFFFFFFDFFFFFD111111F11111111111111111111111111111111111111111111111111111111111B111111E11111111111136101111110000000000000010B7
:402440001F1F1F1F1F1F1F1F1F1F1F1F1F1F1F1F1F1F1F161F1F1F1F1F1F061F1F1F1F1F000007000607060000000000061F0600000F000F00000004FFFFFFFFFFFFFFFF3F
:40248000FFFFF3FE111111F111111111111111111111111111111111111111111111111C1111111111111111D1D111111111DD1111E91111C4080010D0080010DC08001036
:4024C000E8080010F4080010000900100C09001018090010440900104E09001058090010620900106C09001076090010800900108A09001047656E6572617465645F536FB1
:40250000757263655C50536F43365C70646C5C647269766572735C7065726970686572616C5C737973696E745C63795F737973696E742E630000000047656E657261746583
:40254000645F536F757263655C50536F43365C70646C5C647269766572735C7065726970686572616C5C6970635C63795F6970635F6472762E68000047656E6572617465EA
:40258000645F536F757263655C50536F43365C70646C5C647269766572735C7065726970686572616C5C6970635C63795F6970635F6472762E63000047656E6572617465AF
:4025C000645F536F757263655C50536F43365C70646C5C647269766572732F7065726970686572616C2F6970632F63795F6970635F6472762E68000047656E6572617465F1
:40260000645F536F757263655C50536F43365C70646C5C647269766572735C7065726970686572616C5C6970635C63795F6970635F706970652E630047656E6572617465CC
:40264000645F536F757263655C50536F43365C70646C5C647269766572735C7065726970686572616C5C737973636C6B5C63795F737973636C6B2E630000000047656E658B
:4026800072617465645F536F757263655C50536F43365C70646C5C647269766572735C7065726970686572616C5C737973636C6B5C63795F737973636C6B2E680000000019
:4026C00047656E6572617465645F536F757263655C50536F43365C70646C5C647269766572735C7065726970686572616C5C6770696F5C63795F6770696F2E630000000033
:4027000047656E6572617465645F536F757263655C50536F43365C70646C5C647269766572735C7065726970686572616C5C6770696F5C63795F6770696F2E6800000000ED
:4027400047656E6572617465645F536F757263655C50536F43365C70646C5C647269766572735C7065726970686572616C5C737973706D5C63795F737973706D2E63000098
:4027800047656E6572617465645F536F757263655C50536F43365C70646C5C647269766572735C7065726970686572616C5C747269676D75785C63795F747269676D757841
:4027C0002E630000000000000000001000000008C0000000E8270010C00000085803000054040008CC0100000048E80100127A0000093D0000093D0000093D00040000006E
:40280000A00F00000000D00702FF0000E9000010C1000010000000000004400B12D03E22094B1A60094A0A4B1A600A4B0621A322D2009950084A98509B58074B054AD358D1
:40284000002BFADA7047C046040126401E1F000008012640000026401C05000010B54378FF2B0DD100F02CF9064BDB685A68116801230B4313601368DB07FCD400F038F95F
:4028800010BDC04680002340F0B583B006000F0000F03EF90500032824D12B4B1B69002B22DB002000F03CF9284B98421ED00023274A0021012000F013F9002803D0254C49
:4028C00017E0013400E00024002000F029F91F4B984202D0204B9C42F3D91F4B9C4207D91C4C06E0002404E01A4C02E0194C00E00024002C24D100F0E3F80190174A01211C
:40290000174800F015F900280ED1002E04D13800FFF782FF134C08E0114B1B69002BFBDB00F0EEF8040000E00A4C032D05D10121002000F0CDF80028F9D1019800F0D8F801
:40294000200003B0F0BDC046C000234001018800E000000805005200EF49020010060008000023400100500070B5304B1B68002BFBDA2E4BD96802220A43DA60DB68DB072C
:402980001FD52A4EF2681204150C294B1A69120A1204FF2424042240110090241A59120A12060A432A43F2601969224A114090252D012943196119590A402A431A511A69AD
:4029C0001B591A4B00225A605B681B4A116904230B431361012801D030BF00E020BF134B1B68002BFBDA114BDB68DB0715D510480269104B1A4014000C4DEA68120C12023A
:402A0000FF2109020A4022430261902142581340EA68120E120213434350044BDA6802218A43DA6000225A6070BDC046E000234000002140FF00FFFF00ED00E0164A11693A
:402A400004230B431361012801D030BF00E020BF124B1B68002BFBDA86235B00104AD358002B14D10F4A104B1A6006220F4B1A6038320F4B1A6006320E4B1A600D4B1B68FE
:402A8000002BFBDA0C4986235B00054AD1500022024B5A607047C04600ED00E0E0002340000025401E1F00000801264018052640040126401C052640AAAAAAAA0000000029
:402AC00001B40248844601BC604700BF6317001001B40248844601BC604700BF0D0C001001B40248844601BC604700BF750E001001B40248844601BC604700BF6B1700104E
:402B000001B40248844601BC604700BF8513001001B40248844601BC604700BF1504001001B40248844601BC604700BF990C001001B40248844601BC604700BFE90A00105C
:402B40000000000000000000000000000000000000000000000000000000000000000000000000000000000000000000000000000000000000000000000000000000000055
:402B80000000000000000000000000000000000000000000000000000000000000000000000000000000000000000000000000000000000000000000000000000000000015
:402BC00000000000000000000000000000000000000000000000000000000000000000000000000000000000000000000000000000000000000000000000000000000000D5
:0200000490303A
:02000000F26F9D
:0200000490501A
:0C0000000005E20721002101E214136F4B
:00000001FF