:020000041008E2
:4000000000780408EB0208100D00000051030810510308105103081051030810000000000000000000000000000000004D0308104D030810000000004D0308104D030810DA
:400040004D0308104D0308104D0308104D0308104D0308104D0308104D0308104D0308104D0308104D0308104D0308104D0308104D0308104D0308104D0308104D03081000
:400080004D0308104D0308104D0308104D0308104D0308104D0308104D0308104D0308104D0308104D0308104D0308104D0308104D0308104D0308104D0308104D030810C0
:4000C0004D0308104D0308104D0308104D0308104D0308104D0308104D0308104D0308104D0308104D0308104D0308104D0308104D0308104D0308104D0308104D03081080
:400100004D0308104D0308104D0308104D0308104D0308104D0308104D0308104D0308104D0308104D0308104D0308104D0308104D0308104D0308104D0308104D0308103F
:400140004D0308104D0308104D0308104D0308104D0308104D0308104D0308104D0308104D0308104D0308104D0308104D0308104D0308104D0308104D0308104D030810FF
:400180004D0308104D0308104D0308104D0308104D0308104D0308104D0308104D0308104D0308104D0308104D0308104D0308104D0308104D0308104D0308104D030810BF
:4001C0004D0308104D0308104D0308104D0308104D0308104D0308104D0308104D0308104D0308104D0308104D0308104D0308104D0308104D0308104D0308104D0308107F
:400200004D0308104D0308104D0308104D0308104D0308104D0308104D0308104D0308104D0308104D0308104D0308104D0308104D0308104D0308104D0308104D0308103E
:400240004D0308104D0308104D0308104D0308104D0308104D0308104D0308104D0308104D0308104D0308104D0308104D0308104D0308104D0308104D0308104D030810FE
:400280004D0308104D0308104D03081010B5054C237833B9044B13B10448AFF300800123237010BD84490208000000008C780A10084B10B51BB108490848AFF30080084878
:4002C000036803B910BD074B002BFBD0BDE81040184700BF00000000884902088C780A1050430208000000007047FFF7FDFF72B6104C114DAC4209DA21686268A368043B20
:40030000A2BFC858D050FAE70C34F3E70B490C4A00209142BCBF41F8040BFAE709480A490860BFF34F8F00F057FD00F031FD00F02FFCFEE790780A10A8780A1084490208AF
:40034000FCC902080040020808ED00E0FEE7FEE700B504207146084202D0EFF3098001E0EFF30880043002F007FAFEE7F8B506460F4601F0EBFB0546064C3B463246014655
:40038000204601F047FA41F2B062294620460BF023F9F8BDA049020808B52A4803F00CFD6FF07F4003F0FCFC002003F0FDFC002003F030FD03F0AAFD022003F021FD052258
:4003C0008421214803F08CFF204803F0F5FC1E220A211F4803F084FF1E4803F0EDFC28220A211D4803F07CFF1C4803F0E5FC34220A211B4803F074FF1A4803F0DDFC43223E
:400400000A21194803F06CFF184803F0D5FC55220A21174803F064FF164803F0CDFC6B220A21154803F05CFF144803F0C5FC85220A21134803F054FF01210846FFF796FF5C
:4004400008BD00BFC8F70810D8B90810ACCC0810F0B9081004D90810FCB9081038E708100CBA0810CC1B09101CBA0810144709102CBA0810448809103CBA08102CD50910E3
:400480004CBA081010B52A4C204603F095FC6FF07F4003F085FC002003F086FC002003F0B9FC03F033FD022003F0AAFC05228421204803F015FF204603F07EFC19220521BD
:4004C0001D4803F00DFF1D4803F076FC282205211B4803F005FF1B4803F06EFC37220521194803F0FDFE194803F066FC49220521174803F0F5FE174803F05EFC5D22052199
:40050000154803F0EDFE154803F056FC73220521134803F0E5FE134803F04EFC8D220521114803F0DDFE01210846FFF71FFF10BDC8F708105CBA081070BA0810280909107C
:4005400080BA0810AC31091090BA081038550A10A0BA081070670910B4BA081094AE0910C4BA0810A40F0A10D4BA081008B54C4803F022FC002003F017FC6FF07F4003F045
:400580000FFC002003F046FC002003F04DFC03F0BDFC022003F034FC05228421414803F09FFE002003F02CFC1E2200213E4803F097FE022003F024FC2D2284213B4803F060
:4005C0008FFE012003F01CFC3C2240F20711384803F086FE012003F027FC002003F010FC4B220021334803F07BFE042003F01CFC002003F005FC5A2200212F4803F070FE20
:40060000022003F011FC002003F0FAFB692200212A4803F065FE002003F0C6FBAF2340F207127821002004F07FF96FF07F4003F0BBFB032003F086FBAF2340F207127821F2
:40064000002004F0B7FB782340F20712AF21002004F0B0FB002003F0A7FB6FF07F4003F09FFB002003F0E0FB022003F0C9FB002003F0D0FB87228421114803F031FE02204F
:4006800003F0BEFB042003F0C5FB962284210D4803F026FE01210846FFF768FE08BD00BFC8F70810E4BA081010BB081024BB08103CBB081054BB08106CBB081080BB08106F
:4006C0009CBB0810B0BB081030B5DDB0354B5AAA1868596803C258AA194651F8080F496803C256AA194651F8100F496803C254AA53F8180F596803C24FAC2B4D0FCD0FC480
:400700002B682370294B4BAC0FCB84E80F0040F21D12274903A80AF05FFF264803F04CFB002003F041FB6FF07F4003F039FB002003F070FB002003F077FB03F0E7FB0220C9
:4007400003F05EFB052284211B4803F0C9FD5AA802F0B6F958A802F0B3F956A802F0B0F94FA80AF067FF154B009303460E225AA94FA803F0FDFF20460AF05CFF104B009316
:4007800003460E2258A9204603F0F2FF0123002254A903A803F0EAFE01210846FFF7E6FD5DB030BDB8B90810E4BB0810F8BB081008BC0810C8F70810C4BB081014430208B3
:4007C0002043020830B583B0002003F0EDFA6FF07F4003F0E5FA002003F01CFB002003F023FB03F093FB704C204603F0E5FA022003F006FB052288216C4803F071FD204659
:4008000003F0DAFA022003F0FBFA55224421684803F066FD022003F0F3FA5522CC21654803F05EFD022003F0EBFAA3224421624803F056FD022003F0E3FAA322CC215F4845
:4008400003F04EFD012003F07DFA19237D2219460A2004F0AFFA022003F074FA23237D2219460A2004F0A6FA032003F06BFA2D237D2219460A2004F09DFA042003F062FA38
:4008800037237D2219460A2004F094FA052003F059FA41237D2219460A2004F08BFA062003F050FA4B237D2219460A2004F082FA012003F047FA5023A8221421104604F04A
:4008C00079FA022003F03EFA5023B4221421104604F070FA032003F035FA5023C0221421104604F067FA042003F02CFA5023CC221421104604F05EFA052003F023FA50236F
:40090000D8221421104604F055FA062003F01AFA5023E4221421104604F04CFA072003F011FA5023F0221421104604F043FA022003F008FAB4250195002400940A231A4653
:40094000A021442002F06CFD0195009414231A46A021442002F064FD019500941E231A46A021442002F05CFD0195009428231A46A021442002F054FD0195009432231A4667
:40098000A021442002F04CFD05230093A0234FF483726C21922004F039FB01210846FFF7E5FC03B030BD00BFC8F7081028BD081040BD081048BD081050BD081058BD0810BC
:4009C00010B5002003F0F0F96FF07F4003F0E8F9002003F01FFA002003F026FA03F096FA2A4C204603F0E8F9022003F009FA05228421274803F074FC204603F0DDF90220AB
:400A000003F0FEF955224421224803F069FC022003F0F6F95522CC211F4803F061FC1E223321442002F016FF19223321442002F011FF14223321442002F00CFF0F223321AB
:400A4000442002F007FF0A223321442002F002FF1E2332223321CC2003F03AF8192328223321CC2003F034F814231E223321CC2003F02EF80F2314223321CC2003F028F8D9
:400A800001210846FFF772FC10BD00BFC8F7081068BD081080BD081088BD081008B5174803F08AF9002003F07FF96FF07F4003F077F903F02BFA02221146114803F0FCFE99
:400AC000022003F09DF9552284210E4803F008FC022003F095F9692284210B4803F000FC022003F08DF97D228421084803F0F8FB01210846FFF73AFC08BD00BFAC310910A2
:400B000074BE081090BD081098BD0810A8BD081008B5164803F050F96FF07F4003F040F9002003F041F9002003F074F903F0EEF9022003F065F93A2284210D4803F0D0FB4D
:400B4000022003F05DF94E2284210A4803F0C8FB022003F055F962228421074803F0C0FB01210846FFF702FC08BD00BFAC310910BCBD0810D4BD0810E8BD081008B501F0E1
:400B800001F80028FBD100F0FDFF0028FBD008BD70B562B603F0EAF9142000F027FE012000F02CFEFFF77AFF4FF4FA6001F0BAFDFFF7AEFFFFF7E2FF00240A4D02266E606E
:400BC000094B53F824309847AE60FFF7D7FF0134064BA3FB0423F34003EB43035A00A31ADCB2EAE7800032408C420208ABAAAAAA08B5012001F07EFB08BD00BF704700BF6C
:400C00005C4AD2F8803303F00F0303F1D00152F8212002F00702032A04D0042A05D092B9554914E0554A116811E003F1C002514951F8222002F01F02112A06D0132A04D047
:400C40004FF4FA4103E04E4901E04FF400418BBB484BD3F8902502F00100D3F88825C2F30172D3F8883513F0405F07D0414BD3F88835C3F30173012B02D102E0012300E007
:400C8000002303B108B9032A46D13A48D0F88025C2F31103D0F88425C2F30C02D0F88005C0F300600130B1FBF2F202FB03F2B2FBF0F131E0012B2FD12E4BD3F8402602F0F2
:400CC0000100D3F80026C2F30172D3F8003613F0405F07D0274BD3F80036C3F30173012B02D102E0012300E0002303B108B9032A12D12048D0F8002602F07F02D0F800366F
:400D0000C3F30423D0F80006C0F3044002FB01F2B2FBF3F2B2FBF0F1164BD3F88033C3F3011321FA03F215494A601648D0F89030C3F3072301330069000E0130B2FBF0F011
:400D40008860B2FBF3F3CB600B6103F5742202F23F220D48A0FB0202C2F387420A7503F2E7330A4AA2FB03239B098B61DB03CB61704700BF0000264000127A00A442020875
:400D800000366E010000214083DE1B43D34D621008B50D4801F054FEFFF730FFFFF730FF00221146042001F06DF8084801F000F9074B1B6893F8513013B1064801F068F9CB
:400DC00000F0AAFF08BD00BFF4CB08105060020880C80208F4BD081008B501F02AFD074AD2F8883043F47003C2F88830BFF34F8FBFF36F8F01F021FD08BD00BF00ED00E0C6
:400E00002DE9F04180460E4617460A4C08256560702000F06FFD404600F06CFDA5606560722000F067FD3946304600F0C7FDA560BDE8F0810006324000B583B002AB03F865
:400E4000011D01221946FFF7DBFF03B05DF804FBF8B507460E46094C08256560702000F049FD384600F046FDA5606560732000F041FD304600F06EFDA560F8BD0006324061
:400E800038B50425084B5D60084C402363601023636000F0FFFC0822054B5A6065602023636000F0E1FC38BD00003240800232400006324010B5434C6F22002120460AF0AC
:400EC000B1FB631C236704F14E03636704F12203A36700F0C9FC03E000F0D0FC032868D800F0AEFD0028F7D100F0CEFC00217220FFF7AEFF00F00F0002285CD14021FFF702
:400F00009BFF00210F20FFF7A3FF10F0800F54D002210B20FFF790FF08222B490120FFF76FFFD1210720FFF787FF02210820FFF783FFC2210920FFF77FFF03210420FFF770
:400F40007BFF01210320FFF777FF00210320FFF773FF0A2001F0E6FB002400E01C4601210520FFF769FF642001F0DCFB03210520FFF762FF322001F0D5FB0F210520FFF749
:400F80005BFF322001F0CEFB00210F20FFF760FF10F0400F05D040210220FFF74DFF234603E0631C9BB2042CD8D1032B07D9052010BD012010BD022010BD032010BD00205F
:400FC00010BD00BFD061020828BE081010F1090F0EDB10F1040F0EDB05280FDD0A2810DD0F2811DD142811DD282811DC5A2210E04FF496620DE04FF461720AE04FF416720A
:4010000007E04FF4A57204E0DC2202E0B42200E03C22034BA3F87C20A3F87E20704700BFD06102082DE9F84F06460D46047828B1CA4B984205D10127002403E00127FF2498
:4010400000E0002700F010FC4FF00008D0E1C8EBC80AC8EB0A1ADFF80C930AEB090B6F22002158460AF0DEFA0BF1010EBC4BC3F870E00AF148004844063058670AF1200A72
:40108000D14409F10209C3F878902022002397E10FB934780136032D00F29081DFE815F004006500C600270100EB030C14F0400F01D0C02100E080218CF8001049B214F062
:4010C000100F02D04FF0300A01E04FF0200A4AEA01018CF8001014F0040F02D04FF00C0A01E04FF0080A4AEA01018CF8001014F0010F02D04FF0030A01E04FF0020A4AEAA6
:4011000001018CF800100EEB020C14F0800F01D0032100E002218CF8001049B214F0200F02D04FF00C0A01E04FF0080A4AEA01018CF8001014F0080F02D04FF0300A01E05B
:401140004FF0200A4AEA01018CF80010013A92B214F0020F02D06FF03F0A01E06FF07F0A4AEA01018CF8001028E100EB030C14F0400F01D0802100E040218CF8001049B203
:4011800014F0100F02D04FF0200A01E04FF0100A4AEA01018CF8001014F0040F02D04FF0080A01E04FF0040A4AEA01018CF8001014F0010F02D04FF0020A01E04FF0010A3F
:4011C0004AEA01018CF800100EEB020C14F0800F01D0022100E001218CF8001049B214F0200F02D04FF0080A01E04FF0040A4AEA01018CF8001014F0080F02D04FF0200A62
:4012000001E04FF0100A4AEA01018CF80010013A92B214F0020F02D06FF07F0A01E04FF0400A4AEA01018CF80010C7E000EB030C14F0400F01D0C02100E040218CF80010AD
:4012400049B214F0100F02D04FF0300A01E04FF0100A4AEA01018CF8001014F0040F02D04FF00C0A01E04FF0040A4AEA01018CF8001014F0010F02D04FF0030A01E04FF079
:40128000010A4AEA01018CF800100EEB020C14F0800F01D0032100E001218CF8001049B214F0200F02D04FF00C0A01E04FF0040A4AEA01018CF8001014F0080F02D04FF0BB
:4012C000300A01E04FF0100A4AEA01018CF80010013A92B214F0020F02D06FF03F0A01E04FF0400A4AEA01018CF8001066E000EB030C14F0400F01D0802100E0C0218CF824
:40130000001049B214F0100F02D04FF0200A01E04FF0300A4AEA01018CF8001014F0040F02D04FF0080A01E04FF00C0A4AEA01018CF8001014F0010F02D04FF0020A01E0D4
:401340004FF0030A4AEA01018CF800100EEB020C14F0800F08D0022107E000BFFFFF0F10D0610208087C020803218CF8001049B214F0200F02D04FF0080A01E04FF00C0AF7
:401380004AEA01018CF8001014F0080F02D04FF0200A01E04FF0300A4AEA01018CF80010013A92B214F0020F02D06FF07F0A01E06FF03F0A4AEA01018CF8001001339BB2C7
:4013C000202B7FF665AEC8F1AF031BB299101A4A134003D5013B63F003030133174A02FA83F31B7A09F8013008F101081FFA88F8B8F1AF0F7FF62BAE00240FE0C4EBC4036E
:40140000C4EB03136F220E4919440A20FFF7F8FC07210220FFF710FD0134A4B2AF2CEDD9084BB3F87C4000F029FA8442E4D800F02BFABDE8F88F00BF0300008028BE081045
:40144000087C0208D06102082DE9F04706460D4600F00AFAD2210920FFF7EEFC0024C6E0C4EBC407C4EB0717DFF8008207EB08096F22002148460AF0D5F809F1010C784B89
:40148000C3F870C007F1480EC6440EF1060EC3F874E02037B84408F10208C3F87880202000218EE0771C32786E1C95F800900EEB010582EA090212F0400F04D019F0400F18
:4014C00003D0802302E0402300E0C0232B705BB212F0100F05D019F0100F05D04FF0200A04E04FF0100A01E04FF0300A4AEA03032B7012F0040F05D019F0040F05D04FF0E4
:40150000080A04E04FF0040A01E04FF00C0A4AEA03032B7012F0010F05D019F0010F05D04FF0020A04E04FF0010A01E04FF0030A4AEA03032B700CEB000512F0800F04D0AC
:4015400019F0800F03D0022302E0012300E003232B705BB212F0200F05D019F0200F05D04FF0080A04E04FF0040A01E04FF00C0A4AEA03032B7012F0080F05D019F0080F79
:4015800005D04FF0200A04E04FF0100A01E04FF0300A4AEA03032B70013880B212F0020F05D019F0020F04D06FF07F0203E0402201E06FF03F0213432B70013189B23546C1
:4015C0003E4620297FF66EAFC4F1AF031BB29910244A134003D5013B63F003030133224A02FA83F31B7A08F801300134A4B2AF2C7FF636AF002421E0C4EBC405C4EB051583
:401600001A4B1D446F2229460A20FFF7F9FB07210220FFF711FCC4F1AF0343F38D032B44002283F822206F2229460A20FFF7E8FB07210220FFF700FC0134A4B2AF2CDBD9AF
:40164000074BB3F87E4000F019F98442D2D800F01BF9C2210920FFF7EFFBBDE8F08700BFD06102080300008028BE0810087C0208002307E01349086F5522C254496FCA54E8
:4016800001339BB2202BF5D970B5002416E0A6080C4DAA6F04F003030B490B441B7A93556F2229460A20FFF7ABFB07210220FFF7C3FBAB6F00229A550134A4B2AF2CE6D903
:4016C00070BD00BFD061020828BE081008B5002304E00021094AD1540133DBB2152BF8D900210420FFF7A8FB6F2204490A20FFF787FB07210220FFF79FFB08BDD06102085E
:4017000038B50E4C1023A360142001F00BF800F0D9F808220A4B9A604023A3600425A5600A2000F0FFFF65600A2000F0FBFFA5600A2000F0F7FFFFF7BDFB38BD8002324099
:401740000006324038B5FFF793FFFFF7BFFF1E2000F0E8FF234C40256560322000F0E2FFA56000210F20FFF773FB10F0400F36D000210B20FFF760FB01210320FFF75CFBBA
:4017800003210520FFF758FB01210520FFF754FB322000F0C7FF80210420FFF74DFB00210520FFF749FB01210720FFF745FB1E2000F0B8FF00F094F81023636065601420B1
:4017C00000F0B0FF0822084B5A60042363602025A5601E2000F0A6FF6560002038BD042038BD00BF800232400006324010B50446FFF746FB2046FFF7E9FB10BD08B510B11D
:40180000FFF77EFF01E0FFF79DFF08B9012008BD002008BDF8B507460E4614461D4613B10120FFF7EBFF24B931463846FFF70CFE15E0631EDBB2012B11D800213846FFF7E7
:40184000F1FB012C07D101213846FFF7EBFB02213046FFF7E7FB03213046FFF7E3FB15B10020FFF7CBFFF8BD08B50022024BC3F8082100F06FF908BD00003840014BD3F805
:4018800008017047000038400122014B5A6070470000384010B5074C074A0849204600F09DFD236843F0004323600822044B9A6010BD00BF000067405CC80208F4C80810C2
:4018C000000632400822044B9A60044A136843F000431360704700BF000632400000674008B50249024800F0ADFE08BD5CC802080000674008B50146154800F011FD144B71
:40190000D3F8C03F13F0040FF9D0114BD3F8042242F48032C3F80422D3F8042222F48032C3F80422D3F80422D3F8042342F48032C3F80423D3F8042322F48032C3F8042305
:40194000D3F804230422C3F8C02FD3F8C03F08BD0000674008B50146174800F0E1FC164BD3F8C03F13F0040FF9D0134BD3F84003D3F8042242F48032C3F80422D3F804221E
:4019800022F48032C3F80422D3F80422D3F8042342F48032C3F80423D3F8042322F48032C3F80423D3F804230422C3F8C02FD3F8C03FC0B208BD00BF0000674038B50C46CD
:4019C000054600B121B940F2E6511B4800F0C4FE22462946194800F0E9FC184AD2F80832C3F30803D2F80822C2F3C032D342F4D1124BD3F8042242F48032C3F80422D3F808
:401A0000042222F48032C3F80422D3F80422D3F8042342F48032C3F80423D3F8042322F48032C3F80423D3F804230422C3F8C02FD3F8C03F204638BD34BE081000006740F6
:401A4000044B1B6913F0080F01D0012070470020704700BF8002324008B54FF48071034801F048F9024802F01DFA08BD50620208204E0A10024A136801331360704700BF98
:401A800058C8020810B52021002000F017FF002409E0204600F042FF20B90849204600F02FFF02E00134042CF3D9042C03D9A421034800F051FE00F0D9FE10BD751A0810D5
:401AC000ECC8081008B5FFF7DDFF08BD10B582B002AC012344F8043D00231A461449154802F060FB214604F0BAFA05F0A7F860B14FF48472B021002005F0ADFE4FF484723F
:401B0000B021002005F0D3FE0BE0B0224FF48471002005F0A0FEB0224FF48471002005F0C6FE0549002005F0ADFE02B010BD00BF8C740A10C0740A10C4420208012901D1A3
:401B4000002070474FF0FF30704700BF004870475063020808B5084B1B783BB9074A0021074800F0E5FE0122034B1A70044B01229A609A6108BD00BF007A020828C9081050
:401B800000003840014B1878704700BF041634401F4B98422DD00CD840282ED003D8E8B1102828D02FE0802829D0B0F5807F28D029E0184B984228D006D8B0F1204F0DD049
:401BC000154B984212D01EE0144B98420AD00133984209D0023B984215D101E0002070470F4870470F4870470F4870474FF4A0007047074870470D4870470D4870470D48E5
:401C00007047034870470C4870474FF4A400704706005200010000F0090000A0040000F0010052000200520003005200010050000200500005005200FF00520038B5124BCB
:401C40001B6893F83130012B04D840F2C3110F4800F082FD0C4B1D682A6AB5F8B03013442C46D5F8B420D358002B0BDB084B1868FFF78EFF6B6801229A6063689B68002B3F
:401C8000FBD138BD034838BD80C8020874C90810047A0208020050001A4B186128B102230370FF23437000234380174B1B6893F850202AB300B583B0B3F93830ADF800300A
:401CC000002301931149684600F0F2FCBDF90030002B08DB590903F01F03012202FA03F30B4A42F82130084B1B6893F8513023B102220849012000F077FA03B05DF804FB33
:401D0000704700BF047A020880C80208C143020800E100E07944020808B50248FFF7BCFF08BD00BF187A020838B50B4B1B68D3F8B4301B58002B0DDA0D4604460B0C1B0418
:401D400023B140F2D521054800F006FDA9B26160002038BD024838BD80C80208B4C9081001008A0038B50368002B01DA002300E0094B73B90D460446C2600B0C1B0423B19B
:401D800040F2BB21054800F0E7FCA9B2A160002038BD014838BD00BF01008A00B4C9081038B504460D4619B99921084800F0D4FC074B1B68D3F8B4301B59002B03DAE368F6
:401DC0002B60002038BD034838BD00BFF4C9081080C8020801008A00254B1B6893F8313083423AD900293AD00B6813F01F0F38D170B50D4604461E4B1B6893F83130984287
:401E000004D340F2C3111B4800F0A6FC184B1B68186AB3F8B03004FB0304174E34602A68D2080021686809F0FDFB00212046FFF77BFF346825B940F293310E4800F08CFC5B
:401E40002A4600212046FFF78DFF60B900210A4B1868FFF769FF40B970BD084870470748704706487047064870BD054870BD00BF80C80208B4C908101C7A020803018A007B
:401E800001018A0010B504461346B2B9A9B9124B1B6893F83130984204D340F2C3110F4800F05AFC0C4B1B681A6AB3F8B03004FB03240B4B1C60002010BD43B149B1084A33
:401EC00051609360111D2046FFF786FF10BD054810BD044810BD00BF80C80208B4C908101C7A020803018A002DE9F0411B4B1B68DC68236883422CD90D464609A0EB46100F
:401F0000012303FA00F819B900F093FC074600E00027124B18680368002B01DA002300E00F4B83B9626852F8263018EA030F05D023EA080342F82630002400E0094C002187
:401F4000FFF7F2FE00E0084C25B9384600F075FC00E0064C2046BDE8F08100BF1C7A020801008A00020188000301880004018A000B4B1B68DB681A6882420CD94109A0EB30
:401F80004110012202FA00F05B6853F82130184203D004487047044870470448704700BF1C7A02080101880004018A0000018800024B1B680BB9014B18607047287A020870
:401FC0002DE9F8430446884691461D46089F2C4B1B681BB9B5212B4800F0BEFB284B1B682C2000FB04F01C18EEB21E50C5F3072363602D0CA560244B1B6893F831309E42C3
:4020000004D340F2C311214800F0A6FB1E4B1B68196AB3F8B02006FB02162661666893F832309E4204D340F2DF11184800F094FB154B1B681D6A803605EB46156561A6688D
:40204000330C1B0423B14FF4FF71104800F084FB330C1B0423B140F2FF110C4800F07CFBB3B243EA0646AE60C4F81C90C4F820800023A36117B1B7F90030A381BDE8F883C2
:40208000287A020834CA081080C80208B4C90810F0B58FB0044618B95221274800F05CFBA369072B03D95621234800F055FBE36A1BB95821204800F04FFB236B1BB95921FB
:4020C0001D4800F049FB07AD04F114060FCE0FC537682F6002AD26460FCE0FC533682B60164B1B68B3F93620079B1344ADF83030089B0D93A26AE16A0CAD00953B460A98C4
:40210000FFF75EFF00210091069B0A460598FFF757FF216B284600F0CBFABDF93030002B08DB590903F01F03012202FA03F3044A42F821300FB0F0BD34CA081080C80208B4
:4021400000E100E0F8B506460F461D4614461AB9FD211F4800F000FB1E4B1B681BB9FE211B4800F0F9FA1B4B1B682C2101FB063001FB07314B68012202FA03F31B044668FA
:4021800002FA06F60269EAB18F69EFB91268002A01DA002200E0104AC2B92288134323600369DC6001238B614D620469330C1B0423B140F2BB21094800F0CEFAB2B2A26025
:4021C0000020F8BD0648F8BD0648F8BD0548F8BD34CA0810287A020801008A00B4C9081004028A0007028A00F8B505460F4616460E4B1B6823B94FF4AF710D4800F0ACFA4E
:402200000A4B1B682C2404FB0534236A23B94FF4B171074800F0A0FAE369B34204D9236A43F826700020F8BD0248F8BD287A020834CA08100A028A0070B582B000230193E1
:40224000044620B940F2D111284800F085FA236923B94FF4E971254800F07EFA636923B940F2D311214800F077FA236A23B94FF4EA711E4800F070FA6369DD682A0C20D0E8
:4022800012041A601B682069194B1B68D3F8B430C358002B15DA01A9FFF782FD60B9019803681E0CDBB2E269934206D2226A52F8233013B1984700E0002631462069FFF704
:4022C00033FDADB275B16369ADB21D601B68636A1BB198470023636202E0A36A03B198470023A36163691B6802B070BD34CA081080C8020810B50446074B1B6823B940F26D
:40230000B111064800F028FA034B1B682C2000FB0430FFF791FF10BD287A020834CA0810036813F4006F01D0802200E04022D0F80832C3F30803934203D0C0F840120120EE
:4023400070470020704700BF10B4D0F8003203F00F03072B06D900230DE0CC5CC0F84042013300E000239342F7D306E031F81340C0F8404201339342F8D35DF8044B704729
:4023800010B51446036813F4006F01D0802200E04022D0F80832C3F30803D31AA34200D81C462246FFF7D0FF204610BDF8B507460D461446D0F8006206F00F060BE022460A
:4023C00029463846FFF7DCFF072E01D9430000E003461D44241A002CF1D1F8BD002800F02481F8B50546002900F0218117460C460B78012B03D93F218F4800F0ADF9637810
:40240000012B07D9052B05D0022B03D040218A4800F0A2F9A378032B03D94121864800F09BF92378012B07D16368023B0E2B03D94321814800F090F9A36933F00F0303D07E
:4024400044217D4800F088F9A368043B0C2B03D94521794800F080F9E368043B0C2B03D94621754800F078F96378022B07D0A268E3689A4203D047216F4800F06DF9636A8D
:4024800033F06D0303D049216B4800F065F9E36A33F0730303D04A21674800F05DF9236B33F4206303D04B21634800F055F96378A678052B07D8DFE803F0060305060603F3
:4024C000022600E00026A368082B04D8E368082B03D9002302E0002300E0012313B14FF4006200E00022237F13B14FF4807300E000231A436368013B03F00F03134343F012
:4025000080732B60226A2B6813F4006F01D0802300E040239A4203D35821474800F01CF9A26A2B6813F4006F01D0802300E040239A4203D35921404800F00EF9237D0BB937
:40254000012100E000216278052A01D1022300E000230B43E17C09B1102100E000210B43617C09B1202100E000210B432178012902D14FF0004100E000210B43B60006F018
:402580000C063343A169090201F470610B43120602F0407213432B62237C13B14FF4807200E00022A37C13B14FF4007300E000231A43A368013B03F00F031343C5F80033A6
:4025C00094F82030C5F80433237C13B14FF4807200E00022E368013B03F00F031343C5F8003294F82830C5F80432636A03F06D03C5F8C83FE36A03F07303C5F8883F236B0D
:4026000003F40073C5F8003F236B03F40063C5F8403F0023C5F8C83E5FB118463B60BB61FB60FB61054B3B62F8BD054870470448F8BD0020F8BD00BFB8CA0810EFCDAB0012
:402640000140AA00036823F00043036019B100220A60CA608A61036A002B04DB0023C0F8C83FC0F8883F704738B50D4B9A680D4B9A420FD10D46044621B940F237110A48B3
:4026800000F06AF804F11003064A52F8230042F8235038BD1030054B53F8200038BD00BF00ED00E000400208F8CA08100000081048B338B504460D464368072B03D9322118
:4026C000134800F049F8B4F900306268002B08DB5201D2B203F1604303F5614383F8002305E003F00F035201D2B20A49CA540A4B9A680A4B9A4208D12946B4F90000FFF74C
:40270000B3FF002038BD06487047002038BD00BFF8CA081014ED00E000ED00E0004002080100560010B5044605E0084B186800F077F8A4F50044B4F5004FF6D8044B186838
:4027400000FB04F000F06CF810BD00BFC0420208BC42020801BEFEE738B50D46044C18220146204608F06EFFA5610020FFF7F2FFF0480208FEE700BF08B50268254BDA6131
:4027800042681A6282685A62C2689A620269DA6242691A6382695A63C2699A631E4A916AD963D16A1964516A5964516B9964926BDA64F1EE103A13F0900F27D0026A154B37
:4027C0001A65426A5A65826A9A65C26ADA65026B1A66426B5A66826B9A66C26BDA66026C1A67426C5A67826C9A67C26CDA67026DC3F88020426DC3F88420826DC3F88820FF
:40280000C26DC3F88C20026EC3F89020FFF7B2FF08BD00BFF048020800ED00E0000000000230800803D001300238FCD100BF00BF7047EFF3108072B6704780F310887047E0
:40284000084B1B6813F4803F07D17047064B53F8243003B19847013401E010B50024042CF4D910BD10E000E0687A0208044B1A6842F002021A601A6842F001021A607047BC
:4028800010E000E0042805D10A4A136843F0040313607047084B1B681A68D3F8A030000600F04070D050034A136823F004031360704700BF10E000E080C8020810B50C4656
:4028C000002304E000210A4A42F823100133042BF8D9084A084BDA63FFF7D4FF24F07F44064B5C6000229A60FFF7C0FF10BD00BF687A0208412808100040020810E000E048
:402900000346042805D8044A52F8200042F8231070470020704700BF687A0208042803D8024B53F82000704700207047687A020800287DD00346002A7CD070B4506800029C
:4029400080B29568AD0405F480252843D468240404F4403404431069000600F0E0602043147F0CB1012400E0002420430C1DA4011851D06828B903EB81100024C0F8084175
:402980000CE0012805D1146803EB8110C0F8084104E003EB81100124C0F80841106938B9546903EB8110C0F80C419469C0F81041146803EB8110C0F81441906CB0F1FF3F13
:4029C00017D0946A04F00F04166B360206F470663443956B2D0405F470252543146C2403A4B22C430001C0B2204303EB8114C4F82001506A00F00300D66A360106F03006D2
:402A00003043556B2D0205F440752843D46BA401E4B20443506C800000F00C00204303EB8113C3F82401126AC3F83821002003E0024870470148704770BC70470100B6002F
:402A4000014B1860704700BF80C80208F0B51B4C85B02668F76C3D18306DBC1841180191C718337E02A9013B9BB2EA1A0A801A198A80019A0800D21ADB194A80CB8005F0CB
:402A80000DFC002818D022000199280003F03EFB22003900280003F039FB019B7A1E5E1C3100280003F058FB7A1E3100200003F053FB05F043FBE4E705B0F0BDE44202083C
:402AC00010B50622835E0421425E0224015F0024005FFFF7BBFF10BD064B5A68596B01325A60C2008A18596A51600021117058627047C04684C802080F2330B542680E4C97
:402B0000D90009190D6C2100AA4202D2013BF7D211E00F2B0FD82468A21A0A608268C068002A00D05060002801D0026003E00833DB00CB185A6030BD84C80208F8B5284C66
:402B40000600E368A26B013B0818D3180D00984206D80368002B03D14368F618FFF7CCFFA36B9D420BD92B1F1F68EF1B3B68002B05D17B683800F6183D00FFF7BDFF0F236D
:402B8000DA00A218126C964202D2013BF8D225E00F2B23D80833DA00A21850680022A91904392A606E60A8602D610E6029000831904200D04160EA602200DB00E318A86024
:402BC000596023682932F31823601278002A05D1E268D31AA268934200D9A3603000F8BD84C80208F0B5234B87B09C6BDB680490013BE318039323686568002B30D1039BDA
:402C00006719BB422CD93B680293002B28D0194EDB00726B9B5C012B22D17B6820000193F36A0593FFF768FF3B68726BDB00D3185C60019A3900200008F0D9FC029B059A9A
:402C4000934202D1736B5B1B7363019B2800E118FFF774FF049B002B01D0984206D2019D039B6419A342C6D8012000E0002007B0F0BDC04684C80208002806D0034BDA6B61
:402C80000260002A00D05060D863704784C80208034BC0005B6B1818406808307047C04684C80208064A10B5D3690133D361526BC300D3181A7801321A70FFF7E9FF10BDAB
:402CC00084C80208036810B5083B094C1B68626BDB00D3181A78012A04D9E169002901D00139E161013A1A7000230360180010BD84C802080322024B914318605960704792
:402D00007C7A020810B5041E0BD0064B5A6BC300D3185B6819005868FFF710FF2000FFF7DBFE10BD84C80208F7B5224DEB6A002B07D1214B99685868083107F029FF841CC2
:402D400003E02B691C1DDB08E418E00000F0CAF80126071E2CD06A6BC300D3185E68EB6A083601932B69696BDA00144B30001B68984729696E630B00CA000432EF62B218BE
:402D8000601E834203D2013313600832F9E7DB00F31800265E60074B5A685962511A091959601C61019BB34202D01800FFF7AAFF3000FEBD84C802087C7A02083443020802
:402DC00070B5184C230028331A78002A29D101321A70154B0F32DA609A68002A02D15A6892089A605A2210252262002228009040D100611801320864102AF7D158681968AE
:402E000003000125143BCB180E3A22616363A163E0605D6065626560FFF790FEFFF784FF256370BD84C802087C7A0208F0B5040085B0FFF7C5FF0323294E03349C43376C23
:402E4000201DB84200D30700F26B1400002C06D0231F196823688F4232D01C00F6E7F268B36B944663440193043B02931B680393039A019B9D1A2B68002B06D02000FFF7A0
:402E8000B1FE029B1D68019B5D1B2B68002B23D16B689F4220DC28001C1DFFF72DFEF368E41BDB1BF36073692C19DB1973616B68D81B02D02900FFF741FE231F1F600BE01B
:402EC000002B01D0616859606168002900D00B60A24201D12368F363200005B0F0BDC04684C80208F0B585B00400FFF769FF3C4D2E6CB44203D3032303349C4326002B6892
:402F00000C360196B34241D32B6B6A689A420FD96B686F6A013B6B60FB0003936B6BFA009B185A686A6201221A70002F0AD12DE0013B2B63FFF7F8FE2B6B01332B63002834
:402F4000E6D023E00F23DA00AA18126C964201D2013BF8D21A00DB004433EB180F2A0DD81968002907D08C68002C04D061688E420ED9A168F5E701320833EFE73000FFF7CA
:402F800031FE0028DED03800FFF7A6FD002723E0636802939E1B2B6C0C339E4201D2029B01932000FFF7A8FD6B6B039A9B185C60019B019A63600023A360019B2760E11865
:402FC0000B1F24611A601300029A934204DA1300019A981AFFF7B2FD380005B0F0BDC04684C80208002310B5984202D0FFF77AFF0300180010BD000037B50500FFF7F2FF88
:40300000041E0AD0FFF74EFE054B01901B682A000021984701A8FFF755FE20003EBDC04638430208F0B591B00690100003911E0008F072F8B94B051C1B680193187E08F0C2
:4030400067F8FC21890508F0BBF8071C011C281C07F0ACFF041C281CFA25391C07F0A8FFAD006E43071C300005F086FC169B01905D43280005F080FC0290300005F0BCFCED
:403080000600280005F0B8FC211C0490201C08F097F808F081FA391C0990381C08F090F808F07AFA0A90019808F036F8011C051C201C08F085F808F049FA001408F02CF851
:4030C000291C0190381C08F07BF808F03FFA001408F022F80790029808F01EF8011C051C201C08F06DF808F031FA001408F014F8291C0290381C08F063F808F027FA0014E8
:4031000008F00AF80890300008F006F8011C051C201C08F055F808F019FA001407F0FCFF291C0B90381C08F04BF808F00FFA001407F0F2FF0C90049807F0EEFF011C051C41
:40314000201C08F03DF808F001FA001407F0E4FF291C0D90381C08F033F808F0F7F9001407F0DAFF0E90019807F0A0FE08F080FA07F0F0FE0700089807F098FE08F000FB96
:4031800007F0E8FE654B04001B685B69002B22D0189A012A0ED106215A5E0399521A904200DD140002229B5E039A9B1A9F4212DA1F0010E0189A01320DD106215A5E03992B
:4031C000521A974200DD170002229B5E039A9B1A9C4200DA1C000026189B039A63439B1805930496BC4200DA95E023006343099AD01A9A4207D9049A0132110051438842B3
:4032000003D90492F7E7002204920A9A9A4207D9D31A721C110051438B4202D91600F8E700260C9808F092F9751E2E00854200DD0600200007F070FF0390011C079808F0E4
:403240007BF93500002823D00799019808F04CF9031E019819D10B990C9807F0A7FE0199051C079807F0A2FE011C281C08F05CF80199051C039807F099FE011C281C07F0B2
:403280009FFF011C0B9807F093FE08F05FF905000399029808F032F9002823D00899029808F022F9031E029819D10D990E9807F07DFE02990F90089807F078FE011C0F98A3
:4032C00008F032F802990F90039807F06FFE011C0F9807F075FF011C0D9807F069FE08F035F900E00498179A0C4B002A04DD069A06995219401803E0069A0699121A481BBC
:403300001B6805991B6E013C1B689847059B189A9B1A059366E711B0F0BDC046E4420208F0B587B00C9B17000D9A1C00D31A68220E0069340590FF34FF321D1994421DDD36
:40334000693CFF3CF9E7592C1BDD2B005A3B5A3C002B63DD592C28DD2B00B43B5A3C002B5CDD592C35DD2B000F3BFF3B5A3C002B54DD592C3FDD693DFF3D5A3C002DE2DC75
:403380004CE0E343DB171C4001235B420293023301932B005A2D00DD5A2300933A00230031000598FFF73EFECFE7E243D21714405A22934200DD13000121D31A4942121B32
:4033C00002910191009231003A000598FFF72AFEC2E7E243D217144001220292023A01925A2B00DD5A2300933A00230031000598FFF718FEB7E7E243D21714405A22934265
:4034000000DD13000121D31A121B02910191009231003A000598FFF705FEACE707B0F0BDF0B51D000F4B14001B6885B0DA6C1B6D060000200F000292039304F02FFF002852
:403440000ED0039B2200D919029B98190B9B01930A9B00932B00FFF763FF04F06FFEEEE705B0F0BDE4420208514BF0B51B688FB0DA69D469A589A84208DBE189814205D32E
:403480002168451B09910121494215E0A168002900D184E00D88A84200DA80E04E8886427DD3451B4968A8B266688000081809960021455E0221415E0891691C6FD022213B
:4034C0005E5E2420195E0691127E0A92A27C0A9951430C91227C0B922A229B5E1800079302F0DEFD324F0D903A680699D369926B300005920C9A5543099A55190495012534
:40350000A27C02950392DA7E01929B7E0B9A00930A9B02F057FF089B01331BD00220079B184302F0BDFD3B680899DA699B6B300005930C9B4B430999CB180493A37C02952F
:403540000393D37E06990193937E0B9A00930A9B02F038FF164D2B68DB695A7E1B7E9A4217D9079B022B14D00420584002F098FD2B68069AD8690B99437E057E9B18827E9E
:4035800051438A19C17E069869430918300002F009FE6B4634229B18187802F081FD044B617C1A68538CCB1853840FB0F0BDC046E4420208044B1B68DB69DB69002901D00A
:4035C0001A7C0A60587C7047E442020802230B80704710B5C3699A89914203DBDA8901208A4210D29B68181E0DD01A880020914209D35C888C4206D3891A5B688900C85A8F
:40360000C04380B2C00B10BD002807D003888B4202D843888B4201D28068F5E770470000F0B5334F8BB03B6804002A215A5EDB690100D8690792FFF7E7FF002855D00388C7
:40364000E41A4368E4001E190798B47802F028FD39680990CD6932782B7E08932423C85E84462223C85E896B089B059171680394049101210291E97E0191A97E0091614665
:4036800002F0A0FE3B68DB695C7E1A7E089294421FD9079A022A1CD0DD7E00F0FDFA079000F0F4FA00F080FB3A682423D15E2223D05E2300D2696B43D47E32785B18624333
:4036C000089C12186543691802F06CFD079800F06BFB099802F0E4FC054B71781B68DA69927E4A43598C52185A840BB0F0BDC046E44202080C4B70B51B680400DE690D0052
:403700000100F069FFF780FF00280CD002884368A41AE4001C196078B37E5843002D02D0227853432B6070BDE442020801230B80704710B5C069FFF767FF431E9841C0B293
:4037400010BD0000F0B515000E0087B001938318234C0393019B0290CF18236839001B6E03985B689847029B39005B1B0493236804981B6E5B689847029B019AA9199F18C4
:40378000AB190593236838001B6E751B5B689847236829001B6E38005B689847019B002B1BD0F61A236831001B6E03985B689847236831001B6E04985B689847029B019A19
:4037C00005999E1A236830001B6E5B689847236829001B6E30005B68984707B0F0BDC046E4420208F7B50F00FA211400060018488900504307F0DEF92200431C62430093F1
:40380000E30F1B195B10D31801932200002339003000FFF797FF0125009B9D4216DC23002A0063436A43D318019A9A4206DA23002A0039003000FFF785FF013C2A00230010
:4038400039003000FFF77EFF0135E5E7F7BDC046C3020000104B73B51B681600DA6C1B6D84186846B2B2CD18A3B2991A9B188380ABB20180991AD3184180C38004F00EFD31
:40388000002807D0320029002000FFF7ABFF04F055FCF5E773BDC046E4420208F0B587B00391FA21140002902D488900504307F081F92200431C62430493E30F1B195B10E6
:4038C000D3180593029B0399E218181B254B1B681B6E1B68984701230193019B049A93423CDC2300019A634311005243D318059A9A421ADA049B9C4216DD029B194E5F1CCF
:40390000029B7F1A5D1E039B6D18E11833682A001B6E38001B689847039B2A00191B336838001B6E1B689847013C029B019A1D1BE6180C4F039B280099183B6832001B6E3D
:403940001B689847039B019A2800991A3B6832001B6E1B689847019B0133BDE707B0F0BDC3020000E4420208F0B5160089B001935B43079333000500002473430691029346
:40398000019B671CBB4232DB38007843029B0799584307F0FDF8029B181A04F0DCFF00900300864200D0731EEA1A5B190493069B03921B1B0593069B049A059928006E1E29
:4039C000E41802F0A3FB32000599039802F09EFB012F09DD32002100039802F097FB049A2100280002F092FB3C00009EC8E709B0F0BDF0B517008FB00493149A0B910499EF
:403A0000BB1A8A1A013203920A004A430C923A0001335B4307930023060001247A430692039A0293524301930D92049B9C424CDC2300634308930B9B069801331B1B09937A
:403A40000B9B0C99013B1B190A93089B584307F09FF8069B181A04F07EFF05900500874200D07D1E039B771BAD199C420EDA079B08980D99584307F08BF8079B181A04F08F
:403A80006AFF331A02933318019305E0039B9C4202D1731E029301962A000999019802F035FB029A0999380002F030FB012C09DD029A0A99380002F029FB2A000A990198CB
:403AC00002F024FB0134059FAFE70FB0F0BD0000F0B587B015001C000700039100F02CF9431C5B105D190600A84231DC1C19A0422EDC184B04A81B68DA6CBA181F6D039BEB
:403B00000292DF196B461A89ABB2D11AD3188380BAB2A3B20180D11AD3184180C38004F0BDFB002814D0AE4201D0A64206D123002A0039000298FFF717FF06E00096230050
:403B40002A0039000298FFF754FF04F0F7FAE8E707B0F0BDE442020870B5244E040032680D00D37E002B40D0917CC9070FD5D069411CC97F007E814200DB411E2420125E1B
:403B8000200051185B18013B2A0002F00BFB33689A7C920711D5DA69D11CC97F0132D27F01314910511A24201A5EDB7E89185B18013B2A00200002F0F5FA3268937C5B07EE
:403BC00013D5D1694B1C0331DB7FC97F591A01392423D05ECB43DB171940D37E41185B18013B2A00200002F0DDFA70BDE442020810B5044B1B682221595E0139FFF7ACFFB6
:403C000010BDC046E442020810B5074B00211B6822229C5EDB69013C5B689847201A01302100FFF799FF10BDE4420208FF2230B5040014400A40A21A92B213B2002B01DADB
:403C4000524213B25B431D00FF23020A1A4014000A0A1340E21A92B213B2002B01DA524213B2000C5B43090C411A89B208B25B19002801DA494208B280B24043C01830BD84
:403C800010B5002801D004F07DFC10BD10B502F071FF02F007FD10BD10B502F073FF02F001FD10BD70B500282CD0002926D0002A25D013880D881C1C2EB21BB2B34200DDCE
:403CC0002C1C048053884D881C1C2EB21BB2B34200DD2C1C448093888D881C1C2EB21BB2B34200DA2C1C8480D388C9881A1C0CB21BB2A34200DA0A1CC28003E011000822A3
:403D000007F06AFC70BD00280DD0038889B2CB180380838892B2C91843888180D3184380C388D218C2807047024B1B685884998400207047E4420208014B1B68187E704704
:403D4000E4420208024B1B681A7E187610007047E442020830B503000222845E06200A5E0020944213DC02228C5E06255A5F94420DDC00229C5E04254A5F944207DC00224B
:403D80008A5E0421595ED00FCB179142584130BD10B503F027FD03F0A1FD04F0FFFA10BD10B502F0C3FC10BD10B502F0C7FC10BD10B502F075F910BD034B021E1B68D86950
:403DC00000D0DA617047C046E4420208084B10B51880084B0A001980074B08491B685B7C9B005B58D9680C6A01001800A04710BD6CC902085CC90208E442020894C9020851
:403E0000034B1B682C215A5E988510007047C046E4420208034B1B682A215A5E588510007047C046E442020810B5084A08491268084C0300907C0C600749002B01D10B607B
:403E400001E0064C0C60937410BDC046E442020870C90208093C081064C90208F13B081070B50024094D0A4E10C53368210028007022984733680422210006489847064BFD
:403E80001D60064B1C70064B1C6070BD8C7A02083843020894C90208E44202087CC9020858C90208014BD8607047C046E4420208F0B50700160085B00C000420019302F0EA
:403EC000EFF8114B00901A68D36CDD199E19176D019B3C19FF1802AB18001D809E805C80DF8004F0DBF9002804D1009802F0D8F805B0F0BD3B0032002100280002F052F9C6
:403F000004F01CF9EFE7C046E4420208002110B50800FFF709FF034A034813000100FFF7C7FF10BDFF3F000001C0FFFF024BDA6FD86742607047C0468C7A0208084B10B5F2
:403F40001A68002A0AD101321A60FDF785FDFDF7BDFD0448044B0360FFF7E8FF10BDC0468C7A02080C7B0208613E081070B5FFF7E5FF2E22314B1A70FDF7A4FD304C314DFF
:403F80002100314B0C3123672B681A1DDA630432A2619B631B645B7C2C4A9B009858C3681B6B98472A4B6366EB6823622B680833A36101232377E37704F0F4FA230003224E
:403FC00068331A70234BE064606F6363A36302F0ADFBA86802F0B2FB1F4A204B1A6002F007FB050002F074FE060002F077FE002E01D0002808D102F05BFE060002F05DFE50
:404000000100300002F05EFE00210800FFF7DEFE04F012FAA36F002B0AD0A36F002B07D01B68002B00D09847A36F5B68A367F4E701220B4B28001A7070BDC0464DC9020846
:404040008C7A0208E442020824740A1094C902081C740A10785634FF7C740A108CC9020874C902080300002083420ADC054A9B009858002805D0C3681B68002B01D00068D5
:40408000F7E7704794C9020810B5FEF7F5FD10BDF8B506000D0017001C1E01DD00201BE01C20FEF7C3FE0028F8D0002D01D005610BE00A4BA200D358002B06D01A68002A81
:4040C00001D01300FAE71B690361002384618782C660036043608360F8BDC04694C9020883690C499A0010B554580368A04204D15350002B01D000225A604268002A00D044
:4041000013600368002B00D05A6000230360436010BDC04694C9020830B5002801D101203BE08269002AFADC1C4B19788A4201DB012119701A49920053580D00002B02D18D
:404140005050180029E05968002901D00B00FAE7C1680968DC6824688C4203DD1B68002BF8D1DCE78C420AD1848A012C07D11C68002C04D02300E4682468A142F7DD5968D2
:40418000002902D00860416000E0A85058600022984200D01A000260002030BD45C9020894C9020870B51C00FFF772FF051E0AD0FFF7B2FFEB681B68002B04D1034B1634DD
:4041C0001B68A400E550280070BDC046E4420208F0B5040087B0002800D17BE004F0DAFC3D4D02902B6822229B5E039304F0BCFC2A6883B20093938C00995B1A9384237873
:40420000002B5AD03549200004F030FD01000600200004F055FD304B1A680323918D19400300012905D00023022902D1C30F1B185B10518C04ADCB1A9BB219B251842980C7
:4042400081B2019101395B18AB802423D35E6A4617896B80013BFB182A0020003100EB8004F05CFD1C4D04AB5B882A6820009384310000F053FF241823780A2B01D00D2B20
:4042800012D103212B689A8D0A40013A012A02D86A46928900E01A8C5A8422780A2A09D19A8CBF189F8405E004AA1088019A2B68101858842378002B0AD10321064B009AAF
:4042C0001B68988C10189A8D98848A439A8501E0013494E707B0F0BDE4420208FF7F000010B5034B1B6859849A84FFF771FF10BDE4420208F0B58BB0059004920C000822E8
:40430000002106A8009307F08DF904F043FC059B0290039308AD002C05D008222100280007F05AF902E02800FFF7AAFC0C24049B1C4002D10223EC5E33E00025009E002E19
:4043400011D03100059804F091FC0100361A059800F0E4FE059B01351818059005A804F097FA0028EBD0082C03D00C2C09D0042C16D108AB06229B5E029A55435C1B0134BA
:404380000FE008AB02229C5E06229B5E029A1B1B554301335D1BEB0F5D196D102C1900E000240026039B0593009B002B00D187E00099059804F05AFC009B01901B1A010094
:4043C0000598009304F07CFC0322049B1340012B13D0022B05D0002B14D108AB00269E5F10E008AB00215A5E04215B5E9B1A1B1AD90FCB185B109E1804E008AB04229B5E2D
:404400001B1A5E1C3D4F06AD396823B28B846B80029B013832B28019013B4A841B192A80A8802A0001990598EB8004F077FC344B1B78002B34D002223B685B8D13422FD143
:40444000039B059A93420DD108A80222AB5E0222815E8B4206DD0425425F013B0025405FFFF726FD06A90023CA5E08AB0020185E824206DD06254B5F013A0225495FFFF71A
:4044800017FD06A90423C85E08AB04229A5E904206DA06254B5F01300225495FFFF708FD0199059800F03AFE059B1818059004F071FB241805A804F0EBF9002800D173E761
:4044C0000F4B1B78002B17D00C4B1B685B8D9B0712D4039B059A93420ED006AB08A80621595E0622835E994206DA0424025F01310024005FFFF7DCFC0BB0F0BDE4420208DC
:404500001C7B0208F0B585B006000C0017000193002817D00D1E0CD0080004F0BBF8051E07D00200210002A804F0E1F902A804F0B1F83000019B3A002100FFF7DBFE280084
:4045400004F0A8F805B0F0BDF8B505000E00170000243A003100280004F0FCFA002802D02D180134F5E72000F8BD0000F0B591B0019008920C00082200210EA8079307F0F9
:4045800051F8019B002B00D1EBE00022A35E0C2606930223E55E0422A35E069A05930623E75E059B9B1A0133029304F0F3FA089B03901E401AD0079A02990198FFF7C4FF21
:4045C000082E03D00C2E07D0042E0FD1039B7D1C5843281A05B209E0039A7B1B50430133181AC30F1818401045192DB2200004F051F80490002810D06A46128B0CAB1A8089
:404600006A46928A5D809A80DF8002002100180004F06DF90CA804F03DF80323089A019F1A400892079A0299380004F063FA6B469B890EAE0A93ABB20B936B461B8B0B9AA0
:4046400033806B469B8A0990B3800A9B0100013BD318F3807580380004F032FB089B012B12D0022B04D0002B12D1238833800FE00022A35E0421625ED21A101A0130C20F2A
:4046800010184010C01802E0A3880133181A30800EAD2A000999380004F040FB324B1B78002B32D00222314B1B685B8D13422CD1019B9F420CD10222AB5E0222A15E8B4288
:4046C00006DD0420225E013B0025605FFFF7F0FB0EA90023CA5E0023E05E824206DD06254B5F013A0225495FFFF7E2FB1F4B1B682220185E0423E25E904206DC0EA90625D4
:404700004B5F0225495FFFF7D3FB079A3800029904F020FA0B9A0A9B94463F1863441DB23B78002B00D07DE70F4B1B78002B15D00E4B1B685B8D9B0710D4019BBB420DD0FA
:404740000EAB0621595E0622A35E994206DA0420225E01310020205EFFF7AAFB049803F099FF11B0F0BDC0461C7B0208E4420208F0B589B003930E9B02900D001700002B45
:4047800003D1039BFFF7BEFE3DE0082206A8002903D106F047FF2C0013E006F01DFF082206A91A4806F018FF280003F073FF041E07D00200290004A804F099F804A803F0AD
:4047C00069FF0022124E134D336806A801932B685A610E9B33605B689847039B3A0006A90298FFF787FD200003F054FF019A3300002A02D02A68002102E02A68110008312A
:404800005161019A1A6009B0F0BDC046A0C9020850C90208E4420208F0B5C76889B00400002007911600FFF7C3FA05000220002F04D03B79002B01D0284302E02B008343D5
:404840001800FFF7B5FA216900290DD001206388228803900290E0680190A06800900C6807983100A0471DE0114F21003B68E0685A7C104B1B689847E188002803D10129E9
:4048800001D13B68986B638822880590A0680490A088029101210390019100910798310001F090FD2800FFF783FA09B0F0BDC046E4420208E8420208104B73B51B68060062
:4048C000D86C1B6D0C18D5186B466A461C8033885580013BE318938073886846013BEB18D38003F0DBFC002807D02A0021003000FFF792FF03F022FCF5E773BDE4420208B1
:4049000010B5084B1B681A7E012A03D11B6E5B68984705E0013AD30F9A185210FEF7BEFF10BDC046E4420208F7B50E4C2568EE6C3418286DB618C7186B46451868461C807C
:404940009E805D80DF8003F0A9FC002808D03B0032002900200001F025FC03F0EFFBF4E7F7BDC046E442020810B51F4A030012680020927E013A032A35D8100006F0F4F899
:40498000020F1D25194A0633134004D51022013B524213430133D80F00210B220AE0144A134004D50422013B52421343013300210122D80F9A42484115E01421180006F05F
:4049C00007F901200B2909DC0DE01821180006F0FFF801200B2906DD042399430023103988425B41180010BDE44202080F000080030000808023000530B5000D1B01002147
:404A0000984202DD104A013180188022D200904200DD181A3F23402482111840201A0B4D83B25000405B5843A34207D0102A05D001325200525BE31A5343C0182030800905
:404A4000002900D0404230BD00F8FFFF38740A10802310B5DB00C018FFF7CCFF10BD0000F0B587B002910299141A5F1A210001900C9D394303D10299FFF742FFBFE0F9178C
:404A8000E61778184840A11971400026049688420BDD21003C000F0011001A000B00019902980291012101900491E0172118414001200390A14208D00293019B01921A0055
:404AC00001235B4264427F4203932E68002F3FD14C4B04991B6800291BD09B7E3700002B13D10199029801F037FB88E03800FFF73BFF002808D1019B0298991B414BC91979
:404B00001B681B6E5B6898470137BB1BA342EDDD1BE0997E3700002914D11B6E02991B68019898476BE03800FFF71EFF002808D1019B0299981B334BC0191B681B6E5B68ED
:404B400098470137BB1B9C42EDDA013F2F6056E0E30F1B195B10002F00DA5B42294A1268927E002A19D11D00019E019BF31A9C4245DB2100280006F01DF8029B049AC0188C
:404B8000204B31001B681B6E5B68002A01D10100300098470136ED19E7E7039A013201D1A6192E60019E0593019B2868F31A9C421CDB039B18182860FFF7D6FE002810D116
:404BC0002100059805F0F6FF029B049AC0180D4B31001B681B6E5B68002A01D1010030009847059B0136DB190593DDE7039B013301D104192C602B68039A9B1A2B6007B0FB
:404C0000F0BDC046E4420208F0B58BB00593634B03901B6804921E7E0F00012E05D1109B0093059BFFF71CFFB5E0039B049A991A059BF81A0B00034300D1ACE00024013ED9
:404C4000A14201DA49420134002802DA022340421C43814204DA04231C430B00010018004B108002181805F0A5FF10254C4983119C46800622315B00000F5B5E2D1A6B438A
:404C8000102D05D0624601325200525E50431B180F220833DD171540ED182D11630702D58023DB005D1BE30702D580231B015D1BA30702D580235B015D1B8023DB00ED189D
:404CC0002800FFF7C5FE704304002800FFF792FE4643002C05DA80208000041BA412644203E080239B00E418A412002E05DA80208000861BB612764203E080239B00F618EF
:404D0000B612002C02DD621C521005E0E20F1219013CE00F521004196410002E02DD731C5B1005E0F30F9B19013EF00F5B1086196946898992B206A894468A1802809DB2B6
:404D4000BAB2531943806B467610B6B2921BC2801A8A9B8AA4B29E1BEB18C3810023091B141B624481800481828146811A00042100F062F8094C23685B7E002B03D1390005
:404D80000398FFF7BDFD23685B7E002B03D105990498FFF7B5FD0BB0F0BDC046E442020838740A101FB50024039403AC0094FFF72BFF1FBDF7B51F000B4B00901B680020DD
:404DC00001911600DD6C1C6D03F068FA00280AD001990098E319AA1961182818FFF7E2FF03F0ACF9F2E7F7BDE4420208F7B511490A6801910B2A1BDC002A01DC002311E0BB
:404E0000019B00251C1D5300E41813005E1EB446AE1EA75F874205DB634667533500002BF4D1EBE701995B00CB18013298800A60F7BDC046207B0208F0B587B0029200224D
:404E400004936E4B039001936D4B059105998A420DDA0398910041180220095E8B4200DD0B000198884200DA01910132EEE7654A1268516900290ED006200A5E0498121A42
:404E80000198904200DD019202228A5E0499521A934200DA1300049A9B180093009B049A9C1A019BA34200DAA6E00025564B039E1D60059B9D425CDA059B00215F1EBD42B6
:404EC00000DA691C0223F25E039B8900591802200B5E94461800A24239D1A34203D000212A008C461EE00023F75E029BFF180023C85E029B3A00C018424B1B681B6E1B68C8
:404F0000874221DA0200009938001EE0002A0CD0013A0398910041180220095EA14206D101218C446745F1DC20E03A00F1E7091B1B1B0022B05E59404BD4029BC01802009D
:404F4000304B1B681B6E1B68009998470EE0A3420CD002DBA2423FDD02E0A24206DB01E0A34203DC9A423DDCA2421FDD013504369FE7002420002500234B1A68954212DAF0
:404F800004336A00D65E002C08D0029B00999A1918181C4B1B681B6E1B689847012330005C40ED18E8E7009B013376E7A342DDDB0023F75E0023C95E63466246C91BE31AA9
:404FC0004B43811A4810002B13DDC01805F0F2FDC019FFF70BFFC9E79A42E9DDA342C5DCA242C3DB0027CF5F9C460020315E1000E2E70138181AE9E707B0F0BD01C0FFFF09
:40500000FF3F0000E4420208207B0208F0B5324C8BB02568109EEC6CA21802926A4620180090286D1288C318039308AB1A806A46128941189A806A460191928818005A80AD
:405040006A469289DA8003F029F9002842D07300049333007343019A0693039B9B1A01330793079B049A934230DB009A029B9B1A049A01339A4229DC3500019C019B9B1993
:405080009C421BDC28006843069B181A03F063FC009B21009F19029B3F1A9B1B1B181A003800059301F032F8039B059A991B4919380001F02BF80134013DDFE7039B029AB9
:4050C0009B1B013B2100009801F06CF803F036F80028C6D10BB0F0BDE4420208044B10B51A68002A00D1186000F036F810BDC0463C7B0208F8B5084F06683B6804001B68E1
:40510000300098473B6805005B6830009847301820602800F8BDC0468CC9020870B506000D000024002D08D0054B30001B68013D5B68984736182418F4E7200070BDC046E0
:405140008CC902080078704701207047012070470170012070470000034B10B51B68002B00D0984710BDC0469C7B02080200FF231100000A194010B51840120C40181340C6
:40518000C0188030FF30024905F014FD10BDC046FD020000002800D000487047FFFFFF0001207047F7B58068C46A856B624307245218D2080192026A0C409200002D18D091
:4051C00080212141CCB2A446C94301248218151F019E2D68AD192F783E000E40234201D066463E436400043A2E70E4B29042EED117E001210D00A540ECB2A446ED438218F1
:40520000141F019E2468A41927783E002E400B4201D066463E434900043A2670C9B29042EED1F7BD70B5072584680D40E36AA06B5A43236A5218D2089B00002810D080214C
:4052400029410020CDB20121E318043B1E68B65C2E4200D008434900C9B29C42F5D10EE001210E00AE40E318F5B2043B1E68B65C2E4200D008434900C9B29C42F5D170BD99
:40528000F8B50D0016000400FFF7CCFF070023699B6898473B003200434029002000FFF781FFF8BDF0B580688BB00090066AC06A5B1A42435F1CA44B5218D2081B680190D2
:4052C000039200981A7C806BD20779D50722082311405B1A002839D0F8321000DD1B0841AA40C4B21040C2B238009F4200DD1800381A009D0190B00028189F4200DB221C77
:40530000D3B29C46FF25031F039A1B689B183A00002905D064461A7862401A70019A0133072A05DD1E78083AF6431E700133F7E7002A06D00824A21A2C0094401E78664096
:405340001E70009B04388342DDD1FAE0FF221000DD1B88402A41C4B21040C2B238009F4200DD1800381A009D0190B00028189F4200DB221CD3B29C46FF25031F039A1B68A0
:405380009B183A00002905D064461A7862401A70019A0133072A05DD1E78083AF6431E700133F7E7002A06D00824A21A2C0014411E7866401E70009B04388342DDD1C0E0EA
:4053C0000722DB6B11401B68FF22019308230491591A130000285AD00498CC1B0341A2401A40D8B2D3B23A008F4200DD0A00BA1A09928F4200DB031CDAB2DB435BB208938D
:40540000012307920293013E009AB300D458039B3D00E418049B002B0BD02278089B019902981340014201D0079B1343099D23700134072D14DD029A0199444B11404A1E05
:4054400091412B400593059A414B49421B68D2102000C9B206929847069BE418059BED1A002D0DD0082321785D1BF733AB400A000198029D9A43284201D00B43DAB22270C5
:40548000029B5B00DBB20293002EBCD159E00498CC1B834022411A40D8B2D3B23A008F4200DD0A00BA1A09928F4200DB031CDAB2DB435BB20893012307920293013E009A23
:4054C000B300D458039B3D00E418049B002B0BD02278089B019902981340014201D0079B1343099D23700134072D14DD029A0199164B11404A1E91412B400593059A144BCB
:4055000049421B68D2102000C9B206929847069BE418059BED1A002D0DD0082321785D1BF7332B410A000198029D9A43284201D00B43DAB22270029B5B00DBB20293002E3B
:40554000BCD10BB0F0BDC046E4420208F8FF000038430208F8B505000E0014001F00069B9C4207DC22003B0031002800FFF79AFE0134F4E7F8BD002382680B804B80D36A86
:40558000013B8B80136B013BCB80704700B58368481E0D2818D805F0E7FA090B0D0F17171711131A1A070707002011E0586A0FE0986A0DE0D86A0BE0186B09E0186A07E052
:4055C00001201B6A984003E00120404200E0012000BD000009390020062902D8014B8900C8587047A4740A1010B501290FD1094B1B68587CFEF736FD03699B68984701F0BF
:40560000ACFB054B012803D0044B082800D00023180010BDE4420208A4760A1018770A1010B5002206218069FCF788FA10BD10B5002205218069FCF781FA10BD73B504007D
:405640000E00150000210822684605F0EBFF6A460321A06900960195FCF770FA73BD0000F7B51D000F4B14001B6806001A7C0F00D20708D5A54213DB220039003000FFF728
:40568000FFFD0134F6E7DB6B1B680193AC4207DC2200019B39003000FFF784FD0134F5E7F7BDC046E4420208F0B591B00193179B0390581E06910592072801D900F05EFC5F
:4056C00005F05CFA230021005C041F005C045C045C0408000723069A1340802211001941C9B29A40099101219940D3B2199A0A939446019BC9B263440293059B079108938B
:40570000FBE2059B50E2059BB0E11A9A069B9446634409930723099A134080221A41D2B20A9201229A40D3B20C93059B0793059A079B9B1A169A9A4201DC00F01FFC1B9B5F
:40574000BE4C5B680693039B9B680293D96A1A6A079B5943099BC918CB08049303232168087C1840022800D1A1E0984200D10FE1012800D10CE11B9B06981B6808938342D9
:4057800010D1CB6B089A1D681A60099A019B09999B18013B079A0398FFF784FD2368DB6B1D6043E1029B92009B6B002B3ED00127029B9E1808990FAA394011700699049BC1
:4057C00039405170321F12680A99D218019B1A989C46199B0B936346002B20D08025054113780D930B9B1C782C40651EAC410FAD2D5D0D9C8C43002D01D00D9C0C430130C0
:405800001470082803D10B9801300B900020490801D10132803101235B429C44DBE7029B7A00043ED7B2B342C4D1FFE00127029B9E1808990FAA394011700699049B394016
:405840005170321F11681A98C918019B0C9A9C46199B0B936346002B22D0802505410B780D930B9B1C782C40651EAC410FAD2D5D0D9C9443002D01D00D9C144301300C7039
:40588000082803D10B9801300B9000205200D2B2002A01D10131013201235B429C44D9E7029B7A00043ED7B2B342C2D1BEE0029B92009B6B002B34D0029B9A180123089343
:4058C000089B06990A9819400B91111F0968049B019D1A9C199EC918002D19D08023234137783B4209D00B781F009C460B9B8743002B01D0674607430F700134082C01D1E0
:4059000000240136400801D101318030013DE3E7089B043A5900CBB20893029B9342CFD184E0029B9A18012308930899069B019D0B40111F08680B93049B0C991A9C199E18
:40594000C018002D1BD08023234137783B4209D003781F009C460B9B8F43002B01D067460F4307700134082C01D1002401364900C9B2002901D101300131013DE1E7089B64
:40598000043A5900CBB20893029B9342CDD14DE0029B92009B6B002B23D0029B9A18111F0968049B0A9C019D1A98199EC918002D12D08023034137783B4202D00F78674069
:4059C0000F700130082801D100200136640801D101318034013DEAE7029B043A9342DED124E0029B9A18111F0868049B0C99019D1A9C199EC018002D14D08023234137782B
:405A00003B4202D007784F4007700134082C01D1002401364900C9B2002901D101300131013DE8E7029B043A9342DCD1189A199B944663441993079B013377E6E44202087A
:405A40001A9A199B944603221C78069B63440493C34B1B681B7C134010D0022B4DD0189A199B944663441993029B01330293059A029B9B1A169A9A42E2DC7FE21B9B1A9DA5
:405A8000199E0499002B23D003235A1B5200DB18981ABA3303412340D3401B9A9B009B580398029A01354F1CFFF77CFB042D02D1002574780136019B049A39009B189F4260
:405AC000E2D1CCE7019B049A39009B189F42C6D003235A1B5200DB18981ABA3303412340D3400398029A01354F1CFFF75BFB042DE8D1747800250136E4E71B9B1A9D019E3D
:405B0000199F002B27D0019B049A991803235A1B5200DB18981ABA3303412340891BD34006D01B9A9B009B580398029AFFF73AFB0135042D02D100257C780137013E002E50
:405B4000E1D18CE70135042D02D100257C780137013E002E83D0019B049A991803235A1B5200DB18981ABA3303412340891BD340E8D0029A0398FFF715FBE3E71A9A199BC6
:405B8000944603221F78069B63440493744B1B681B7C134010D0022B4DD0189A199B944663441993029B01330293059A029B9B1A169A9A42E2DCE1E11B9B1A9C199D049965
:405BC000002B23D001231A1B9200CE180333981AEC3303413B40D3401B9A9B009B580398029A0134FFF7DEFA022C02D100246F780135019B049A31009B189E42E2D1CCE7BA
:405C0000049B019A31009B189E42C6D001231A1B9200CE180333981AEC3303413B40D3400398029A0134FFF7BDFA022CE8D16F7800240135E4E71B9B1A9C019D199E002B2E
:405C400027D0019B049A991801231A1B92000333981AEC3303413B40491BD34006D01B9A9B009B580398029AFFF79CFA0134022C02D1002477780136013D002DE1D18CE72E
:405C80000134022C02D1002477780136013D002D83D0049B019A991801231A1B92000333981AEC3303413B40491BD340E8D0029A0398FFF777FAE3E7039B08989B6801939E
:405CC000019A1B6AD16A4143069809180320C9080491234909680B91097C014014D0022900D1ABE0189A199B944663441993089B01330893029B63440293059A089B9B1AFE
:405D0000169A9A42D8DC39E1019A1B98916B9B0000284ED0002925D00124D318191F04980968199D09180998029A954211D02E780F781B9AB600B2583E008643224201D0C1
:405D40003E0006430E70400801D1013180300135EAE7019A6400043BE4B29A42DED1C1E7E44202080124019AD318191F0868049A199D07998018029A954213D02E7807788A
:405D80001B9AB600B2583E008E43224201D03E000E434900C9B20670002901D1013001310135E8E7019A6400043BE4B29A42DCD198E7019A0124D318002938D0191F09689D
:405DC000049A199D09988918029A95420ED00F782A783E008643224201D03E0006430E70400801D1013180300135EDE7019A6400043BE4B29A42E1D174E707782A783E0030
:405E00008E43224201D03E000E434900C9B20670002901D1013001310135029A9542ECD1019A6400043BE4B29A4200D15AE7191F0868049A199D80180799EEE7019A9B00CE
:405E4000916B1B9A002A4FD0019A0124D318002937D0191F0968049A199D09988918029A954213D02E78002E0AD00F781B9AB600B2583E008643224201D03E0006430E70CD
:405E8000400801D1013180300135E8E7019A6400043BE4B29A42DCD124E72E78002E17D14900C9B2002901D1013001310135029A9542F2D1019A6400043BE4B29A4200D1AE
:405EC00010E7191F0868049A199D80180799EEE707781B9AB600B2583E008E43224201D03E000E430670DBE7019A0124D318002934D0191F0968049A199D0A988918029AEF
:405F0000954210D02A78002A07D00F783E008643144201D03E0006430E70400801D1013180300135EBE7019A6400043BE4B29A42DFD1D7E62A78002A17D14900C9B200298B
:405F400001D1013001310135029A9542F2D1019A6400043BE4B29A4200D1C3E6191F0868049A199D80180799EEE707783E008E43144201D03E000E430670DEE711B0F0BD60
:405F800070B505680400002D0AD13C20FCF74EFF2060002804D0044B3C221B682900984720684342584170BD3843020870B504000830FFF7E5FF002205000121A069FBF71C
:405FC000BDFD284370BD73B504000D00160000210822684605F026FB20000830FFF7D0FFA368002B0CD05A6B002A00D15D635D629E626A460721A06900950196FBF79EFDE9
:4060000073BD70B5050008300C001600FFF7B8FFAB68002B02D0DC621E635C6370BDF7B50500002708300E000197FFF7A9FFAC68BC4213D02B699B68984700F055FE3B0007
:406040002062F258E2500433202BFAD1E36A01AA63630221A8690196FBF770FDF7BD70B5040008300D00FFF78BFFA368002B01D02A689A6370BD000070B5084B1B681A7CF7
:4060800011004140490705D59C6BD96B25680E6826600D601874100070BDC046E442020810B5024B1B689B68984710BDF442020870B5144B05001B680A000A20195E9142D6
:4060C0001EDC0E20195E8A421ADC0820195EA94216DC0C20195E8D4212DC5C7C187C0A49A400C00705D508592900C368DB69984706E00859DB6BC1681B688C692900A04749
:4061000070BDC046E442020894C9020870B5104B0D001C680A21635EAB4217DC0E21635E9D4213DC0823E15E814200DA01000C20235E934200DD1300994207DC627C054897
:4061400092001058C26894682A00A04770BDC046E442020894C9020870B5104B15001C680822A35E834218DC0C22A35E984214DC0A23E25E8A4200DA0A000E21635EAB4234
:4061800000DD2B009A4208DC617C054C89000D59E968CC6801002800A04770BDE442020894C9020873B51E00114B0D001C680823E15E814200DA01000C20235E934200DD07
:4061C00013008B4213DB0A20225EAA4200DA2A000E20255EB54200DD3500AA4207DC607C044C80000059C46800952469A04773BDE442020894C90208F0B517006E4A91B0F8
:406200001268069308900C001C9B002A10D01B9B05931A9B0493199B0393189B0293179B0193169B00931568069B3A00A847C1E016991798014301294FD1604A069D106897
:406240000A21425E111B002909DD6D1A002D00DCB0E0199E71431A9E71181A9100E02200069964180E26815F013C641A002C03DD2D1B002D00DC9DE008990C26845FC91943
:406280000139091B002900DD7F1A08990826845FC91AA1420CDA641A1B199C46DE101A9B3F1B9E191A9607266346B44309193340002F7FDD407C424C800000591B9EC46896
:4062C00004931A9B05960393199B00950293189B019364683B00A0476CE00823160018990A925B1A0E930A9B069A934262DA179BE3180C93013B0D93304B1B680A215A5EBF
:406300000D998A424CDC0E229B5E9C4248DC00251A9B09950B93089B0793099BBB423FDA002D04D10B9B08351E7801330B9333000E9A1899134132008A40D6B2DAB26D1AC7
:40634000002A05D102211D4A1268127C0A421ED11A4A1268D26B11680F911B99002905D0FF210B401B999B005B5801E0FF210B401360169B21005A1E079B0798D2180D9B21
:40638000FFF710FF0D4B0F9A1B68DB6B1A60169A099B944601330993079B63440793BCE7199A0A9B944601330A931A9B0C9C63441A9398E711B0F0BD50C90208E44202081C
:4063C00094C90208F0B593B008937E4B06001B680C0006921A9D1C9F002B0ED01D9A049705921B9A02950392199A0192189A00921D68069A089BA847E1E0189A19990A43C5
:40640000012A6DD1704B19680A228B5E089A9C461B1B002B07DDD21A002A00DCCFE01B984343FF1800E0A446089BE4180E200B5E013CE41A002C03DD121B002A00DCBEE0D0
:40644000069B0C24085FF318013B1B1A002B02DD0698C31A06930823C85E0023864228DA069C831BE41A0694082D1FD009DC022D0FD0042D15D0012D1BD1D8103F18072087
:406480000AE0182D11D0202D0FD0102D11D15B000CE098103F1803201C0084433619034007E058103F180120F6E79B00FF18060000230698002800DC81E0497C4348890048
:4064C00008581D9CC16804931B9B009202930594039701954C68069B62463100A0476EE00822521B109207930C930C9B089A934265DA199BE3180E93013B0F93324B1B68BD
:406500000A215A5E0F998A4252DC0E229B5E9C424EDC00230D9709960A930B930B9B069A934245DA0A9B002B07D10D9B1B7807930D9B01330D9308230A93079B109A134169
:40654000079AAA40D2B207920A9A521B0A92DAB2002A05D102211C4A1268127C0A421ED1194A1268D26B116811911D99002905D0FF210B401D999B005B5801E0FF210B40CA
:406580001360189B21005A1E099B0998D2180F9BFFF708FE0C4B119A1B68DB6B1A60189A0B9B944601330B93099B63440993B5E70C9B0E9C01330C931B9BFF1895E713B04B
:4065C000F0BDC04650C90208E442020894C9020810B5054B054A19684B7C08319B009858C3681B6B984710BDE442020894C9020807B5FFF7EDFF00F027FA00283AD1FDF7F4
:4066000031FD0190002807D100F076FA1A4A1B4B12689A420ED12CE0C3680C215B6A01A8984703000120002B24D0019898470028EAD01FE00020FDF715FD0190002818D028
:40664000002002F0B9FB0420FFF72AFD00210C4B08001A00FFF7A6FD0020FFF721FD019B0E21DB6801A85B6A9847031E01D00198984700200EBDC046007B0208785634FF70
:40668000FF3F000010B5054B054A1B685B7C9B009B581B691B68984710BDC046E442020894C9020810B5054B054A1B685B7C9B009B581B695B68984710BDC046E44202088B
:4066C00094C90208044B1B681A7C520701D59B6B00E0DB6B18607047E4420208054B10B51B681A6B824204D01863FFF7CBFFFFF7E9FF10BDE4420208044B1B681A7C520785
:4067000001D5DB6B00E09B6B18607047E4420208054B10B51B685A6B824204D05863FFF7B1FFFFF7E9FF10BDE442020810B5024B1B685B68984710BDF442020810B5024B71
:406740001B681B68984710BDF4420208F7B5244E0D00336817000A215A5E0400AA423DDC0E215A5E954239DC08215A5E824235DC0C215A5E904231DC002F08D15A7C1949D1
:40678000920088589B6BC2681B68966923E0DA6B0F2F07D15B7C13499B00C858C3689E69136818E01068FFF77DFF336801909B6B1868FFF777FF0C4B01001B683A0001980E
:4067C0009847FFF75FFF32680649527C030092008858C26896692A002100B047F7BDC046E442020894C90208F842020810B50B0E0C4CFF2B0CD1030E06D1113B534319001A
:40680000FF310906084309E0FF2B01D1606906E011235A43044BD2B21B6898476169084010BDC046F84202082C430208F7B504000D00161E37D01C4F3B680A215A5E9542D2
:4068400031DB0E215A5E95422DDC08215A5E904229DB0C215A5E904225DCDA6B0E2E07D95B7C12499B00C858C3689E69136817E01068FFF717FF29000190200000F0BAFAE2
:406880000B4B010032001B6801989847FFF7FAFE3A680649527C030092008858C26896692A002100B047F7BDE442020894C90208F8420208034B10B51B689847024B5B69B2
:4068C000184010BD2C430208F8420208F7B504000D00161E36D01C4F3B680A215A5E954230DB0E215A5E95422CDC08215A5E904228DB0C215A5E904224DCDA6BFF2E07D16F
:406900005B7C12499B00C858C3689E69136816E01068FFF7C7FE29000190200000F06AFA320001000198FFF7C5FFFFF7ABFE3A680649527C030092008858C26896692A00BA
:406940002100B047F7BDC046E442020894C90208F7B5234E0D00336817000A215A5E0400AA423CDC0E215A5E954238DC08215A5E824234DC0C215A5E904230DC002F08D195
:406980005A7C1849920088589B6BC2681B68966922E0DA6BFF2F07D15B7C12499B00C858C3689E69136817E01068FFF77BFE336801909B6B1868FFF775FE3A0001000198C8
:4069C000FFF778FFFFF75EFE32680649527C030092008858C26896692A002100B047F7BDE442020894C90208042803D0082809D002280FD1084B09481B681B7C9B070AD5A5
:406A0000074808E0044B07481B681B7C9B0702D5054800E000207047E44202084D6708102D68081051690810CD68081010B5044C2068FCF721F90023024A2360136010BD46
:406A4000A8C90208A47B020870B500240A4D2B68A3420FD1094B18688000FCF7E7F92860A04206D00648074B04300360FDF75EFA00E00124200070BDA8C902081043020866
:406A8000A47B02082D6A0810F7B5051E28D08768381E25D0134C2068002821D080232A685B0000209A421BDC0F4B00921B689A4200DD00930026009B9E420ADA2268B300FD
:406AC000D218F8580192FFF7DDFD019B01361860F1E7064B1B68002B01D0280098472068FEBDC046A8C9020810430208A47B020810B5FFF7C9FF10BDF7B500F043F9002469
:406B00000090009B9C422EDA2000FDF7ABFA002827D0154E200033685A7C5C74019200F060F8082804DD6A46336812795A7418E00E4AA300D2580E4B12699A42F3D0200068
:406B400000F054F800250700BD42ECDAFF202840FFF7A8FDE9B20200200000F065FE0135F2E70134CDE7F7BDE442020894C902088C760A10024B1B689B6B18687047C04644
:406B8000E4420208024B1B68DB6B18687047C046E442020810B50C00FDF764FA002803D0C2682100926A904710BD002310B5984202DCFFF7EFFF0300180010BD10B50100E7
:406BC0000020FFF7E7FFC343DB17184010BD10B50121FFF7EAFF10BD10B50221FFF7E5FF10BD10B50821FFF7E0FF10BD10B50921FFF7DBFF10BD10B50E21FFF7D6FF10BDB2
:406C000010B5034B1B68587CFFF7E1FF10BDC046E442020810B5034B1B68587CFFF7DCFF10BDC046E442020810B5034B1B68587CFFF7DCFF10BDC046E442020810B5034B82
:406C40001B68587CFFF7D7FF10BDC046E4420208044B800010B5C0580821C3689B6A984710BDC04694C9020810B5FDF7FBF9002803D0C2680221D26A904710BD10B5034BE8
:406C80001B68587CFFF7F0FF10BDC046E4420208024B8000C3581B695868704794C90208024B8000C3581B691868704794C9020810B50120FFF782FF10BD10B50220FFF73A
:406CC0007DFF10BD014B03C37047C046B07B0208014B18687047C046B07B0208014B58687047C046B07B02080023984233D0020001339A432FD003220100013391432AD051
:406D00000100053399431300002924D002000C339A430B3B002A1ED002001B339A431A3B002A18D00200FA339A43F73B002A12D0420A0833002A0ED0020B0CD0C20B0AD095
:406D4000020C08D0820C0233002A04D0000E0633002800D008331800704710B5FFF7C4FF030001280DD0821E0820062A09D9073A0018072A05D900200F22113B9A42404160
:406D8000400110BD10B50020FDF76CF9431E984110BD0000F7B5154F154E3B6804005B7C0D009B0098596946C3681B6B98476B4600229B5E0020A34217DC6B4604229B5E23
:406DC0009C4212DC6B4602229B5EAB420DDC6B4606229B5E9D4208DC3B682A005B7C21009B009859C3685B699847FEBDE442020894C9020810B5FFF7CDFFFFF753FC10BD84
:406E000010B5C18804880423C25E43886118C91A9B181B1B8180C38010BD0000F7B5082205000C006846002104F0FCFB684601F00DFCFFF7E5FEFFF7EDFE6B4606229B5E7B
:406E40000138984201DA6B46D8806A460021525E21682B688A182A606A460620105EC31A23600A4B0022995E2A680227DE5F8A18921B2A6006229B5E22689A186B4602253A
:406E80005B5FC31AD31A5B182360F7BDA0C902081FB504000022835E01A900930222835E01930422835E02930622835E68460393FFF7B4FF03A902A8FFF7B0FF009B2380B5
:406EC000039B6380029BA380019BE3801FBD0000F0B5050093B00B905818551901380A910D900AA90BA8013D1C0001920C95FFF795FF0DA90CA8FFF791FF189B012B00D082
:406F00008CE1199B012B00D088E1C14B1A680C23D15E0C9B994201DA5B1AE41A0823D15E0B9B994207DD1B98CB1A58431C9D0B9128181C90E41A0A21535E0D998B4203DDAF
:406F40005B1A0199CB1A01930E23D35E0A9A0027934220DAD71A019BDB1B01931A9B022B09D0042B0DD0012B15D11C99FB10CB181C9307210AE01C99BB10CB181C93032103
:406F800004E01C997B10CB1801211C933B008B43D31A0A930F40019B002B00DCACE1002C00DCA9E10A9B03930B9B0293E31809931A9B581E072800D91CE103F0DFFD080041
:406FC000AA001B01DF001B011B011B010A011D9B5B680693039BDB1B05938D4B1A680323117C0B40012B57D0002B07D0022B00D000E11C9B019D3C00049336E03C001D9B90
:40700000019D1B6807931C9B0493059B019A81499A1A7F4B52191B685B7C9B0058588021C36821419B690893049B1B789C466646069B314200D1079B0299089E0134B04733
:40704000082C03D10024049B01330493013D002DDBD1CFE00134082C03D10024049B01330493013D002D00D1C4E080212141059B019A9A1A049B52191B781942EAD0644BB6
:4070800064491B685B7C9B0058580299C3689B691E00069BB047DDE7537C5E4A9B009B583C001B699B689847019B089004931C9B0693059B019A9D1A80222241049BEB18DF
:4070C0000793069B1B781A4216D0514D514E2B68079A5B7C02999B009859C3685B69984702002B6802995B7C9B009859089B5340C2689669079AB0470134082C03D1002458
:40710000069B01330693049B013B0493002BD0D170E0414B0EAA13CB13C21B68022013601C9B3C001B780493039BDB1B0593FFF75BFC019D1C9E069003231A1B5200DB1820
:40714000991ABA330B41049902980B40D34012AA9B00D318103B1A680199059BD2B2591A4919069B01349847042C03D10024737801360493013D002DDED13BE01C9B042046
:407180001B783C000493039BDB1B0593FFF72CFC019D1C9E069001230422F0211B1B9B00D21A11410A00049902980A40DA400199059BD2B2591A4919069B01349847022CAC
:4071C00003D10024737801360493013D002DE2D110E00820FFF708FC06001C9D019C039B01992A78591A09190298013CB0470135002CF4D11B9A1C9B944663441C93029BB5
:40720000099A01330293934200D0D1E674E0C046E442020894C9020800750A10002708233E001A9A9B1A08930B9B0293A74263DA199A029B944663440693013B07932F4B57
