:020000041008E2
:4000000000780408EB0208100D0000005103081051030810510308105103081000000000000000000000000000000000A18008104D0308100000000041810810A5810810C1
:400040004D0308104D0308104D0308104D0308104D0308104D0308104D0308104D0308104D0308104D0308104D0308104D0308104D0308104D0308104D0308104D03081000
:400080004D0308104D0308104D0308104D0308104D0308104D0308104D0308104D0308104D0308104D0308104D0308104D0308104D0308104D0308104D0308104D030810C0
:4000C0004D0308104D0308104D0308104D0308104D0308104D0308104D0308104D0308104D0308104D0308104D0308104D0308104D0308104D0308104D0308104D03081080
:400100004D0308104D0308104D0308104D0308104D0308104D0308104D0308104D0308104D0308104D0308104D0308104D0308104D0308104D0308104D0308104D0308103F
:400140004D0308104D0308104D0308104D0308104D0308104D0308104D0308104D0308104D0308104D0308104D0308104D0308104D0308104D0308104D0308104D030810FF
:400180004D0308104D0308104D0308104D0308104D0308104D0308104D0308104D0308104D0308104D0308104D0308104D0308104D0308104D0308104D0308104D030810BF
:4001C0004D0308104D0308104D0308104D0308104D0308104D0308104D0308104D0308104D0308104D0308104D0308104D0308104D0308104D0308104D0308104D0308107F
:400200004D0308104D0308104D0308104D0308104D0308104D0308104D0308104D0308104D0308104D0308104D0308104D0308104D0308104D0308104D0308104D0308103E
:400240004D0308104D0308104D0308104D0308104D0308104D0308104D0308104D0308104D0308104D0308104D0308104D0308104D0308104D0308104D0308104D030810FE
:400280004D0308104D0308104D03081010B5054C237833B9044B13B10448AFF300800123237010BDDC76020800000000FCFD0810084B10B51BB108490848AFF30080084800
:4002C000036803B910BD074B002BFBD0BDE81040184700BF00000000E0760208FCFD08109C470208000000007047FFF7FDFF72B6104C114DAC4209DA21686268A368043B58
:40030000A2BFC858D050FAE70C34F3E70B490C4A00209142BCBF41F8040BFAE709480A490860BFF34F8F00F0A9FF00F083FF00F01DF8FEE758E3091070E30910DC76020834
:40034000244503080040020808ED00E0FEE7FEE700B504207146084202D0EFF3098001E0EFF30880043003F0C1FDFEE780B582B062B608F043F90225374B9D600822803BB6
:400380005A600A2003F07EFD06F0F4FA334B1860294606F021FB324E30460BF041FD31480BF03EFD304C20460BF0C0FD30460BF037FD2E480BF034FD20460BF0B7FD304646
:4003C0000BF02EFD2A4F38460BF02AFD20460BF0ADFD30460BF024FD26480BF021FD20460BF0A4FD30460BF01BFD38460BF018FD20460BF09BFD204B186800232A461946AB
:4004000040680BF0C7FD002401940123009323464FF4005219491A4807F0F2F80194009523464FF480621749174807F0E9F80194009523464FF480621449154807F0E0F8B2
:400440000194009523464FF480621249124807F0D7F807F007F9FEE780003240E442030828E8081034E8081040E8081044E8081058E8081080E8081054470208A8E8081045
:40048000C1070810B4E80810A1080810C0E808100D0B0810D0E80810C90D081000B583B002A9002341F8043D084B186806F068FD019B3BB14FF08052054B1A60BFF34F8FE8
:4004C000BFF36F8F03B05DF804FB00BFE842030804ED00E0014B1878704700BFF876020830B589B08DF807202B4B1B88ADF80C309DF80D3013B9294AD35C00E00023072B7D
:4005000022D027480BF08CFC26480BF089FC26480BF00CFD3DE003EB4302244CA25C824210D103EB4302224452788A420AD1204AD46803EB43021D4D2A4492781201A25A40
:40054000ADF81820013300E00023072BE3DD0123ADF814300DF1070304930F4B1B88ADF81C30002410E00FF07FFD01344FF6FE739C4209D90A480BF053FC0E480BF050FC68
:4005800009480BF0D3FC04E004A817F057F80028E9D109B030BD00BF0043030810430308E0E80810F4E8081040E808108C420208C843020804E9081030B4134A002313606A
:4005C00053609360D3601BE01C46C2185278072A02D0092A08D00EE09A1C02440A4D6A60C25C013A2A7306E09A1C0244064D2A60C25C013AAA60025D1344DBB20133DBB2EC
:400600008B42E1D330BC7047EC42030830B583B0B0F5A04F00F0A9800C460BD8B0F5804F3AD044F2080398420ED0B0F5805F40F0A58009E045F2020398425FD071D3504B06
:40064000984200F0888099E04E4D28460BF0E8FB4D480BF0E5FB4D4C20460BF067FC28460BF0DEFB4A480BF0DBFB20460BF05EFC28460BF0D5FB47480BF0D2FB20460BF02A
:4006800055FC0021084603F063FF0222424B9A600822803B5A6071E03A480BF0C1FB0D200BF0D6FB217AE068FFF786FF3B4B1A7B002A63D03A4B5968384B58680AF01CFFE4
:4006C00000285BD12F480BF0ABFB344B1A68996834480BF0A5FB2D480BF028FC6368186800909B88ADF8043063788DF806300021684603F0F3FF03F08FFF3FE00222264B8B
:400700009A600822803B5A600022274B1A701D480BF086FB25480BF083FB1C480BF006FC2CE002221C4B5A600822803B9A6015480BF076FB1E480BF073FB14480BF0F6FBCA
:400740000122194B1A701B4B1A78587842EA002004F0A8F912E00B480BF062FB16480BF05FFB0A480BF0E2FB08E006480BF058FB12480BF055FB05480BF0D8FB03B030BD61
:4007800013000100E0E808101CE9081040E8081048E9081090E9081080003240EC420308C8430208A0E90810F8760208B0E90810C0E9081000430308F0E9081004EA0810FE
:4007C00008B513480BF02CFB12480BF029FB12480BF0ACFB03220021012006F071FA0F4B18600F4801F08EF901E00FF03DFC0D4B1B78022BF9D10C4803F0AAFD4FF0FF3189
:40080000064B186806F0C6FC0FF02EFCF6E700BFE0E808101CEA081040E80810E84203080D060810044303089D04081000B583B0164B0022C3F8C82F0422C3F8C02FD3F809
:40084000C03F134BB3F90030002B09DB5A0903F01F03012101FA03F360320E4941F8223002A9002341F8043D0B4B186806F088FB019B43B13BB14FF08052084B1A60BFF38E
:400880004F8FBFF36F8F03B05DF804FB00006640A8EC081000E100E0FC76020804ED00E038B5874B186800230222194640680BF071FB844D28460BF0B3FA83480BF0B0FAF8
:4008C000824C20460BF032FB28460BF0A9FA80480BF0A6FA20460BF029FB012003F0D2FA03220021012006F0EBF97A4B18607A4C7A49204603F08CFAB4F90030002B08DBF7
:40090000590903F01F03012202FA03F3744A42F821300422734BC3F8C82F4FF0FF316D4B186806F037FCBDE0654B186842685368013B5360002B04DA41680BF0FFFAC0B243
:4009400004E042681368591C116018782C38442800F2A880DFE800F047A64DA6A6A6A6A6A6A6A6A6A6A6A6A6A6A6A653A6A6A6A6A6A6A6A6A6A6A6A6A6A6A6A6A6A6A6A672
:40098000A6A6A6A6A6A6A6A6A6A6A6A6A6A6A6A6A6A6A6A6A6A6A6352F413B2923000A2201210020FFF79CFD7CE0F62201210020FFF796FD76E00A2201210846FFF790FD70
:4009C00070E0F62201210846FFF78AFD6AE0F62201210220FFF784FD64E00A2201210220FFF77EFD5EE0F62201210320FFF778FD58E00A2201210320FFF772FD52E0314D9C
:400A000028460BF00DFA38480BF00AFA2F4C20460BF08CFA28460BF003FA34480BF000FA20460BF083FA28460BF0FAF930480BF0F7F920460BF07AFA28460BF0F1F92D4854
:400A40000BF0EEF920460BF071FA28460BF0E8F929480BF0E5F920460BF068FA28460BF0DFF926480BF0DCF920460BF05FFA28460BF0D6F922480BF0D3F920460BF056FA1E
:400A800028460BF0CDF91F480BF0CAF920460BF04DFA28460BF0C4F91B480BF0C1F920460BF044FA0F4BD3F80833C3F30803002B7FF43AAF04220B4BC3F8C82F2DE700BFB4
:400AC0005447020828E8081030EA081040E8081048EA0810FC760208A8EC08102D08081000E100E00000664070EA081080EA08108CEA081098EA0810A4EA0810B0EA08101D
:400B0000BCEA0810C8EA0810D4EA081038B507F0B9FD08F04DFA39480BF082F938480BF07FF938480BF002FA002408F0D1F900285FD107F0C1FD002007F0FCFF05464FF688
:400B4000FE73984219DC00212F4B186805F020FF022812D1FFF7BEFC20B1EAB200212046FFF7BEFC25480BF05BF92A46611C27480BF056F923480BF0D9F9012007F0C6FF2E
:400B8000A0B1234B1B7863B3022C2AD80134E4B200221F4B1A7019480BF042F9611C1D480BF03EF917480BF0C1F91AE0022007F0ADFF98B1164B1B789BB194B1013CE4B29D
:400BC0000022134B1A700D480BF02AF9611C11480BF026F90B480BF0A9F902E001220C4B1A70032C00D9032408F0D0F808F0E0F99BE7322006F07AFE97E700BFE0EA081091
:400C0000F0EA081040E80810E442030808EB0810A44202081CEB081010B5C82006F066FE104C114BE361114B2362114B636268236370204600F0A6FE0B2363730423A37399
:400C40000023E373152222730C2262710322A271E37111232371204600F0E4FE636A3220984710BD00770208210D0810B50C0810ED78081038B5054600240EE0AB430BD1A6
:400C800009480BF0CDF8094B03EBC40358680BF0C7F807480BF04AF90134044B53F83430002BEBD138BD00BF28E80810A842020840E8081070B582B00C4616461D46164B20
:400CC000009300231A460146144802F085FA08B1FFF7D0FF104B14222146104802F0EAFB08B1FFF7C7FF002409E00B4B1422315D0A4802F0DFFB08B1FFF7BCFF0134AC42DE
:400D0000F3DB054A1421054802F048FB08B1FFF7B1FF002002B070BDD444030800006440F0B583B004460F4616461D46234B0093142300220146224802F04EFA08B1FFF790
:400D400099FF1E4B142239461D4802F0B3FB08B1FFF790FF194B0093142301222146184802F0B2FA08B1FFF785FF00240BE0134B0093142332190021114802F041FB08B1AE
:400D8000FFF778FF01346B1E9C42F0DB1A460B4B0093142332440121094802F031FB08B1FFF768FF054A1421054802F0F7FA08B1FFF760FF002003B0F0BD00BFD44403089E
:400DC00000006440000000002DE9F04F2DED028B8BB0A34F38460BF023F8A2480BF020F8A14E30460BF0A2F838460BF019F89F480BF016F830460BF099F809F001FEFFF731
:400E00000BFF06F077FC00F5FA6A5746984B002207A9012000F028FEBDF91C3007EE103AB8EEC77ADFED937A27EE277A37EE077ABDF91E3008EE103AB8EEC88A28EE278AFD
:400E400038EE088AF7EE007AB4EEE77AF1EE10FA01DDB0EE677AFFEE007AB4EEE77AF1EE10FA01D5B0EE677AF7EE007AB4EEE78AF1EE10FA01DDB0EE678AFFEE007AB4EE99
:400E8000E78AF1EE10FA01D5B0EE678A17EE100A0AF01CF80DF03CF90022774B0AF06AF869A3D3E900230AF08FF982468B4618EE100A0AF00BF80DF02BF900226E4B0AF0BB
:400EC00059F861A3D3E900230AF07EF9CDE9000100226A4B5046594609F098FE21F000490022674B49460AF0D5FA68B90022634BDDE9000109F08AFE21F000450022604B19
:400F000029460AF0C7FA10B106F0F4FB074606F0F1FBC01BB0F57A7F0CD95A4E0221306805F05AFD0121306805F032FD2022564B5A600BE0534E0121306805F04DFD022182
:400F4000306805F025FD20224F4B9A6000214D4B186805F01DFD012872D152465B46DDE902010AF06FFA30BB0022484B504659460AF090FA18B14FF0000ADFF810B10022AE
:400F80000023504659460AF067FA18B14FF0000A4FF0000BFFF79EFA40B1504659460AF083FAC2B200210846FFF79AFA322006F09DFCCDE902ABDDE90023DDE904010AF098
:400FC00041FA40BB0022314BDDE900010AF062FA18B19FED1F7B8DED007B00220023DDE900010AF039FA18B19FED1B7B8DED007BFFF770FA40B1DDE900010AF055FAC2B22E
:4010000000210120FFF76CFA322006F06FFC9DED007B8DED047B12480AF002FFDDE900010AF042FA0646504659460AF03DFA3246014617480AF0F4FE0B480AF077FFE5E6C5
:40104000322006F053FCE1E6CFF753E3A59B26400000000000005940000000000000000028E8081034E8081040E8081030EB08100077020800000038008076400000494090
:4010800000000840E4420308800032400000594048EB081008B5012001F094F908BD00BF704700BF5C4AD2F8803303F00F0303F1D00152F8212002F00702032A04D0042AE9
:4010C00005D092B9554914E0554A116811E003F1C002514951F8222002F01F02112A06D0132A04D04FF4FA4103E04E4901E04FF400418BBB484BD3F8902502F00100D3F8B1
:401100008825C2F30172D3F8883513F0405F07D0414BD3F88835C3F30173012B02D102E0012300E0002303B108B9032A46D13A48D0F88025C2F31103D0F88425C2F30C02EE
:40114000D0F88005C0F300600130B1FBF2F202FB03F2B2FBF0F131E0012B2FD12E4BD3F8402602F00100D3F80026C2F30172D3F8003613F0405F07D0274BD3F80036C3F338
:401180000173012B02D102E0012300E0002303B108B9032A12D12048D0F8002602F07F02D0F80036C3F30423D0F80006C0F3044002FB01F2B2FBF3F2B2FBF0F1164BD3F889
:4011C0008033C3F3011321FA03F215494A601648D0F89030C3F3072301330069000E0130B2FBF0F08860B2FBF3F3CB600B6103F5742202F23F220D48A0FB0202C2F38742C4
:401200000A7503F2E7330A4AA2FB03239B098B61DB03CB61704700BF0000264000127A00F042020800366E010000214083DE1B43D34D621008B50D4802F01CFFFFF730FF30
:40124000FFF730FF00221146042000F06DFE084800F000FF074B1B6893F8513013B1064800F068FF00F02EFD08BD00BFB0F2081030770208FC4203086CEC081008B502F056
:4012800090FE074AD2F8883043F47003C2F88830BFF34F8FBFF36F8F02F087FE08BD00BF00ED00E040B1C2694AB1026A52B1436A5BB94FF0FF3070474FF0FF3070474FF0D9
:4012C000FF3070474FF0FF3070470020704700BF0222C271082343711021017103218171C2734373142303730023837343688360C3680361704700BF4B790C2B0BD84A7A78
:4013000093420BD0027802F0F00203F00F0313430370002070476FF00300704700207047CB79072B0CD8CA7A93420CD0027802F08F021B0103F0700313430370002070479C
:401340006FF0030070470020704700BF8B790C2B0BD88A7A93420BD0027802F0F00203F00F0313430370002070476FF003007047002070474B7B0D2B0BD84A7C93420BD0A2
:40138000027802F0F00203F00F0313430370002070476FF00300704700207047CB7B022B09D8027802F0CF021B0103F0300313430370002070476FF0030070478B7B042B79
:4013C0000BD88A7C93420BD0027802F0F80203F0070313430370002070476FF003007047002070477BB138B51C46DD6975B182B19B78012B01D140F0800013460A46014696
:401400006078A84738BD4FF0FF3070474FF0FF3038BD6FF00B0038BD38B504460D460B46022201464020FFF7DDFF034680B929462046FFF761FF034650B929462046FFF7C7
:401440006FFF034620B92946601CFFF77FFF0346184638BD38B504460D460B46022201464220FFF7BFFF034680B929462046FFF781FF034650B929462046FFF78FFF0346C4
:4014800020B92946601CFFF799FF0346184638BD00B583B002A9002301F8013D034601220220FFF79FFF9DF80730C3F34303012B06D0022B07D0032B08D0072B0BD108E065
:4014C0006FF0050007E06FF0060004E06FF0070001E06FF0080003B05DF804FB30B585B005460C460023019302938DF80C301346821D01A91220FFF775FF48BB02469DF8C1
:4015000005301B021BB29DF804100B4323809DF807301B021BB29DF806100B4363809DF809301B021BB29DF808100B43A380032D0BD19DF80A009DF80B309DF80C10090451
:4015400041EA03230343A36004E00023A36001E06FF00102104605B030BD00BF10B584B00C4613460021009101910291CDF80B1010BB062269460C20FFF734FF014600280C
:4015800046D19DF801301B021BB29DF80020134323809DF803301B021BB29DF80220134363809DF805301B021BB29DF804201343A3800023A36030E002460C3269460C2097
:4015C000FFF710FF014630BB9DF801301B021BB29DF80020134323809DF803301B021BB29DF80220134363809DF805301B021BB29DF804201343A3809DF80C009DF80D305B
:401600009DF80E20120442EA03230343A36004E06FF0010101E06FF00101084604B010BD70B584B006460D4614460022009201920292CDF80B2000F10C0269460C20FFF7F3
:40164000D1FE002843D102469DF801301B021BB29DF800100B4323809DF803301B021BB29DF802100B4363809DF805301B021BB29DF804100B43A3809DF807301B021BB2C3
:401680009DF806100B432B809DF809301B021BB29DF808100B436B809DF80B301B021BB29DF80A100B43AB80032E0CD19DF80C009DF80D309DF80E10090441EA032303432E
:4016C000AB60A36005E00023AB60A36001E06FF00102104604B070BD2DE9F843002B34D00546894690461E461C6A002C30D0002A31D09B78012B01D100F07F05337A112B2D
:4017000002D0337C152B19D143464A4629467078A0470746736A0120984714E0376A012309EB040229467078B84707460135EDB2736A012098470134E4B201E00024274638
:40174000A3B29845EAD85FB108E04FF0FF3707E04FF0FF3704E06FF00B0701E06FF001073846BDE8F88300BF10B582B0044602A8002320F8043D2146FFF74EFE0346B0B9F0
:401780002346012201A94020FFF7A6FF034670B963796372E379E372234601220DF105014120FFF799FF034608B9A279A272184602B010BD10B582B0044602A8002320F869
:4017C000043D2146FFF746FE0346B0B92346012201A94220FFF780FF034670B9637B6374E37BE374234601220DF105014320FFF773FF034608B9A27BA274184602B010BDF7
:4018000030B583B004460D460023ADF804300B46012201464020FFF7E5FD034620BB2A79122A13D1237863F07F0323702B46012221464020FFF750FF0346A8B92B4602223B
:4018400001A95820FFF748FF03460DE0227812F0800F09D002F07F0222702B46012221464020FFF739FF0346184603B030BD00BF30B583B000238DF807300279A2F1100323
:40188000DBB2022B1AD8037A9A421AD0044601460DF10700FFF7B4FF054698B923460122211D7E20FFF718FF0546237A102B02D1636A052098472379237203E06FF00C059E
:4018C00000E00025284603B030BD00BF38B5027BA2F11403DBB2012B01D9172A1DD1037C9A421DD004460346012200F10C017E20FFF7F2FE0546237C142B03D1636A502086
:40190000984707E0172B05D1237B152B02D1636A0A209847237B237403E06FF00C0500E00025284638BD00BF30B583B0B6238DF80730F0B10446436AF3B1034601220DF140
:4019400007017E20FFF7C8FE0546636A0120984755B9A378012B07D1234601220DF107017F20FFF73FFD054645B92046FFF7B0FC04E04FF0FF3501E04FF0FF35284603B040
:4019800030BD00BF30B583B00446FFF78BFC014650B9A378012B07D1234601220DF107017F20FFF71FFD014609BB00232370032207E02346012221460020FFF713FD0146BD
:4019C0002A46531EDDB212B12378D12BF1D149B92378D12B09D1FF23E3702046FFF7A4FF014604E06FF0020101E06FF00201084603B030BD60B1426A6AB110B50446FFF7D9
:401A000037FF034658B92046FFF760FF034606E04FF0FF3301E04FF0FF3318467047184610BD00BFB0B1426ABAB110B50446FFF79BFE0346A8B92046FFF7BCFE034680B912
:401A40002046FFF7D7FF034658B92046FFF720FD034606E04FF0FF3301E04FF0FF3318467047184610BD00BF38B500F0030510F0040F01D1002000E00320B3B11446022D96
:401A800008D0032D0CD0012D12D1A1B11A46FFF725FD38BD92B11A462146FFF75FFD38BD7AB189B1FFF7BCFD38BD4FF0FF3038BD6FF0040038BD4FF0FF3038BD4FF0FF308C
:401AC00038BD4FF0FF3038BD4FF0FF3038BD00BF10B504462146034800F002FD0028F9D010BD00BF00006640054BD3F80833C3F30803002BF8D0024BD3F84003704700BFBE
:401B00000000664008B518B1094AD062002000E0084858B9084B1B782BB9054802F032FB0122054B1A7008B902F078FB08BD00BF1043020801001600B07802081F4B9842CC
:401B40002DD00CD840282ED003D8E8B1102828D02FE0802829D0B0F5807F28D029E0184B984228D006D8B0F1204F0DD0154B984212D01EE0144B98420AD00133984209D011
:401B8000023B984215D101E0002070470F4870470F4870470F4870474FF4A0007047074870470D4870470D4870470D487047034870470C4870474FF4A4007047060052007F
:401BC000010000F0090000A0040000F0010052000200520003005200010050000200500005005200FF00520038B5124B1B6893F83130012B04D840F2C3110F4802F066F9A1
:401C00000C4B1D682A6AB5F8B03013442C46D5F8B420D358002B0BDB084B1868FFF78EFF6B6801229A6063689B68002BFBD138BD034838BDFC420308F0EE0810B878020848
:401C4000020050001A4B186128B102230370FF23437000234380174B1B6893F850202AB300B583B0B3F93830ADF80030002301931149684602F0CCF8BDF90030002B08DB11
:401C8000590903F01F03012202FA03F30B4A42F82130084B1B6893F8513023B102220849012000F0F3FA03B05DF804FB704700BFB8780208FC4203080D48020800E100E06F
:401CC000C548020808B50248FFF7BCFF08BD00BFCC7802082DE9F04104460D46174698469DF81860072903D9D921354802F0EEF837F00F0303D0DA21314802F0E7F8B8F1C2
:401D0000010F03D9DB212E4802F0E0F836F01F0303D0DC212A4802F0D9F822680123AB4022EA030308F0010808FA05F843EA08032360244B1B6893F87D100B59A8000F2281
:401D4000824023EA020207F00F0303FA00F717430F51072D04D94FF422711B4802F0B6F836F01F0304D040F28921174802F0AEF8144B1B689A69A41AE4095B692401191955
:401D8000032D0DD81959ED001F22AA4021EA020206F01F0606FA05F515431D51BDE8F081043D4A68ED001F23AB4022EA030306F01F0606FA05F51D434D60BDE8F08100BF6E
:401DC00030EF0810FC42030870EF081038B50B4B1B68D3F8B4301B58002B0DDA0D4604460B0C1B0423B140F2D521054802F06EF8A9B26160002038BD024838BDFC420308C5
:401E0000B0EF081001008A0038B50368002B01DA002300E0094B73B90D460446C2600B0C1B0423B140F2BB21054802F04FF8A9B2A160002038BD014838BD00BF01008A0029
:401E4000B0EF081038B504460D4619B99921084802F03CF8074B1B68D3F8B4301B59002B03DAE3682B60002038BD034838BD00BFF0EF0810FC42030801008A00254B1B6877
:401E800093F8313083423AD900293AD00B6813F01F0F38D170B50D4604461E4B1B6893F83130984204D340F2C3111B4802F00EF8184B1B68186AB3F8B03004FB0304174E74
:401EC00034602A68D2080021686809F02FFB00212046FFF77BFF346825B940F293310E4801F0F4FF2A4600212046FFF78DFF60B900210A4B1868FFF769FF40B970BD0848D1
:401F000070470748704706487047064870BD054870BD00BFFC420308B0EF0810D078020803018A0001018A0010B504461346B2B9A9B9124B1B6893F83130984204D340F2DB
:401F4000C3110F4801F0C2FF0C4B1B681A6AB3F8B03004FB03240B4B1C60002010BD43B149B1084A51609360111D2046FFF786FF10BD054810BD044810BD00BFFC420308BB
:401F8000B0EF0810D078020803018A002DE9F0411B4B1B68DC68236883422CD90D464609A0EB4610012303FA00F819B901F0F9FF074600E00027124B18680368002B01DAC8
:401FC000002300E00F4B83B9626852F8263018EA030F05D023EA080342F82630002400E0094C0021FFF7F2FE00E0084C25B9384601F0DBFF00E0064C2046BDE8F08100BF25
:40200000D078020801008A00020188000301880004018A000B4B1B68DB681A6882420CD94109A0EB4110012202FA00F05B6853F82130184203D004487047044870470448C3
:40204000704700BFD07802080101880004018A0000018800024B1B680BB9014B18607047DC7802082DE9F8430446884691461D46089F2C4B1B681BB9B5212B4801F026FF12
:40208000284B1B682C2000FB04F01C18EEB21E50C5F3072363602D0CA560244B1B6893F831309E4204D340F2C311214801F00EFF1E4B1B68196AB3F8B02006FB021626613E
:4020C000666893F832309E4204D340F2DF11184801F0FCFE154B1B681D6A803605EB46156561A668330C1B0423B14FF4FF71104801F0ECFE330C1B0423B140F2FF110C48E2
:4021000001F0E4FEB3B243EA0646AE60C4F81C90C4F820800023A36117B1B7F90030A381BDE8F883DC78020830F00810FC420308B0EF0810F0B58FB0044618B95221274892
:4021400001F0C4FEA369072B03D95621234801F0BDFEE36A1BB95821204801F0B7FE236B1BB959211D4801F0B1FE07AD04F114060FCE0FC537682F6002AD26460FCE0FC50D
:4021800033682B60164B1B68B3F93620079B1344ADF83030089B0D93A26AE16A0CAD00953B460A98FFF75EFF00210091069B0A460598FFF757FF216B284601F029FEBDF963
:4021C0003030002B08DB590903F01F03012202FA03F3044A42F821300FB0F0BD30F00810FC42030800E100E0F8B506460F461D4614461AB9FD211F4801F068FE1E4B1B68B8
:402200001BB9FE211B4801F061FE1B4B1B682C2101FB063001FB07314B68012202FA03F31B04466802FA06F60269EAB18F69EFB91268002A01DA002200E0104AC2B9228829
:40224000134323600369DC6001238B614D620469330C1B0423B140F2BB21094801F036FEB2B2A2600020F8BD0648F8BD0648F8BD0548F8BD30F00810DC78020801008A0097
:40228000B0EF081004028A0007028A00F8B505460F4616460E4B1B6823B94FF4AF710D4801F014FE0A4B1B682C2404FB0534236A23B94FF4B171074801F008FEE369B34273
:4022C00004D9236A43F826700020F8BD0248F8BDDC78020830F008100A028A0038B504460D46074B1B6823B94FF4C871054801F0EDFD034B1B682C2202FB0434A56238BD74
:40230000DC78020830F0081070B582B000230193044620B940F2D111284801F0D7FD236923B94FF4E971254801F0D0FD636923B940F2D311214801F0C9FD236A23B94FF4D3
:40234000EA711E4801F0C2FD6369DD682A0C20D012041A601B682069194B1B68D3F8B430C358002B15DA01A9FFF76CFD60B9019803681E0CDBB2E269934206D2226A52F8A3
:40238000233013B1984700E0002631462069FFF71DFDADB275B16369ADB21D601B68636A1BB198470023636202E0A36A03B198470023A36163691B6802B070BD30F00810F2
:4023C000FC42030810B50446074B1B6823B940F2B111064801F07AFD034B1B682C2000FB0430FFF791FF10BDDC78020830F0081010B50446104B1B6823B940F22B210F4857
:4024000001F064FD0C4B1B682C2202FB0434B4F90C30002B0DDB5A0903F01F03012101FA03F32032064941F82230BFF34F8FBFF36F8F002010BD00BFDC78020830F00810B8
:4024400000E100E010B504460D4B1B6823B940F24B210C4801F03AFD094B1B682C2202FB0434B4F90C30002B08DB590903F01F03012202FA03F3044A42F82130002010BD18
:40248000DC78020830F0081000E100E010B4D0F8003303F00F03072B06D900230DE0D0F84043CC54013300E000239342F7D306E0D0F8404321F8134001339342F8D35DF8D9
:4024C000044B704710B51446D0F80833C3F308039A4200D31C462246FFF7D8FF204610BD036813F4006F01D0802200E04022D0F80832C3F30803934203D0C0F8401201204E
:4025000070470020704700BF10B4D0F8003203F00F03072B06D900230DE0CC5CC0F84042013300E000239342F7D306E031F81340C0F8404201339342F8D35DF8044B704767
:4025400010B51446036813F4006F01D0802200E04022D0F80832C3F30803D31AA34200D81C462246FFF7D0FF204610BD02E0C0F84012013A002AFAD1704700BF10B51446C6
:40258000036813F4006F01D0802200E04022D0F80832C3F30803D31AA34200D81C462246FFF7E4FF204610BD10B5546841F201039C4236D1D0F80833C3F30803DBB11378CA
:4025C00093B1136A43F040031362D0F8043343F48033C0F80433D0F8043323F48033C0F80433D0F8043306E029B9136A43F040031362D0F84033136A43F020031362136A70
:4026000023F010031362036E23F4204303660023C0F8C83F0123C0F8C03FD0F8C03F202121E0D0F80832C3F30801D0F80832C3F3C0330B44116BC91A5163116A11F0080F84
:4026400005D1D16A1944D162916ACB1A9362136A43F004031362136A23F0010313620023C0F8883F1021D0F84C4F40F201131C420DD0036823F00043036000238366C3669F
:40268000036843F000430360036841F040014FF080535360536C0BB10846984710BD00BFD0F80C3F13F0020F1DD00222C0F8002FD0F8002FD0F8002F12F0040F02D04FF4C9
:4026C000001001E04FF480108A6802438A604A68B2F5B81F07D00A7B12B14FF4C01201E04FF4B0124A6013F4807F03D08A6842F400028A6013F0010F03D08A6842F4800284
:402700008A6040F21112134202D04FF4C0134B60704700BF0023C0F8C83FC0F8883F836E23B140F21713C0F8083F704740F21313C0F8083F182383664FF4B8134B607047D9
:4027400038B5D0F80C4F036E23F4807303660023C0F8C83FC0F8883FC0F8083F40F21713C0F8003FD0F8003F8B6823F480338B604B7B13B18B69CB610BE08D69D0F8082286
:40278000C2F30802D0F80832C3F3C0331344EB1ACB6140F201131C421BD0036E9B0F032B05D114F4827F14BF0123002300E001235BB1036823F00043036000238366C366ED
:4027C000036843F00043036003684FF080534B601BE00B7893B1D0F8043343F48033C0F80433D0F8043323F48033C0F80433D0F804330123C0F8C03FD0F8C03F0B7B0BB138
:402800000B4B01E04FF080534B604A6C72B14B7B13B14FF4802001E04FF400308B6813F0F87301D04FF400231843904738BD00BF000010100346002940DB11F0C00F06D039
:40284000002181664FF0805050602F4844E011F4807F36D111F0010F0ED050682B49884232D1196E11F0804F0CBF012100214FF08050506026482FE011F0020F06D05068C2
:402880002249884223D10021224825E011F0100F05D04FF080515160002108461CE050681A49884216D1517B11B14FF4881101E04FF4A0115160002108460DE001211648A6
:4028C0000AE00121154807E00121114804E00021134801E00021084679B1196821F00041196000219966D966196841F0004119601B684FF080535360704740F21712C3F807
:40290000002FD3F8003F70470820AA00000013100620AA000420AA000320AA000720AA000520AA00036853B110B50446012001F0C1FA2368013B23601BB1002010BD002039
:4029400070474FF0004010BD70B505460C4691F8243013F0FF0F0ED1CB6A63B94B6C0BB108209847E36AB3FA83F35B0984F824300123C5F8883F94F8243013F0FF0F16D0D7
:4029800063783BB12B6813F4006F01D0802202E0402200E00122FF212846FFF7EFFD236B18442063236A43F00803236270BDE26A012A11D963780BB1013A00E00122A16AF2
:4029C0002846FFF7BDFD236B03442363E36A1B1AE362A36A1844A062D5F80832C3F30803802B23D0E36A012B20D101F0DAFAA36A1B78C5F840324026C5F8806FD5F8803F2A
:402A000001F0D3FA236B013323630023E362A36A0133A362C5F8886F63783BB1236A43F002032362636C0BB10420984770BD00BF38B54B68B3F5A81F03D14FF4C0134B60FF
:402A400038BD4B68B3F5A01F4DD10C4605464A69012A11D94B780BB1013A00E0012221692846FFF76DFDA3690344A36163691B1A6361236903442361D5F80832C3F3080374
:402A8000802B14D06369012B11D101F08AFA23691B78C5F840324023C5F8803FD5F8803F01F083FAA3690133A361002363616369CBB9237B33B14023C5F8883F4FF4A8132F
:402AC000636005E00023C5F8883F4FF4B0136360637843B1A36843F40033A360636C13B14FF48030984738BD70B504460D468A6C82B3036813F4803F06D0D0F84C3F13F0D3
:402B0000400F03D0022002E0002000E00020236E13F4006F06D1D4F84C3F13F0800300D001231843C0B190470123C4F8C03FD4F8C03F024648B91023C4F8403FD4F8403F51
:402B400040F2D113C4F8483F07E040F2C113C4F8483F02E0002200E00022D4F8043243F48033C4F80432D4F8043223F48033C4F80432D4F804320AB9012300E00223E366F3
:402B8000002A59D1666E06F010066B6C23B10EB1012000E0022098477EB141F202036B602B6A43F001032B626B6B2B63002385F824300123C4F8883F70BD41F201036B60BC
:402BC0002B6A43F010032B620123C4F8C83F2B78BBB1EB6BBBB1236E43F400532366ED6B802D05D9A5F18003802B0ED8813D0DE0013D236E43F4004323660023C4F8C83F21
:402C000004E0002502E0002500E03F25236813F4006F01D0802300E040239D4204D34FF42371064801F052F9D4F8043323F0FF03EDB21D43C4F8045370BD00BF70F00810E3
:402C400038B54B68B3F5881F03D0B3F5901F1AD038BD0B69D0F840231A708B6901338B614B69013B4B612BB10B6901330B610423836638BD0B7B13B14FF4C01301E04FF40A
:402C8000B0134B6038BD0C4605464A690969FFF719FCA3690344A36163691B1A6361226910442061012B24D82B6E23F480732B666369012B16D12B6813F4006F01D08023B0
:402CC00000E0402323B94FF42371184801F0FEF8D5F8043323F0FF03C5F804334FF48813636038BD0023C5F8C83F4FF4B013636038BD402B01D89C1E00E03F242B6813F474
:402D0000006F01D0802300E040239C4204D34FF42371064801F0DAF8D5F8043323F0FF02E3B21343C5F8043338BD00BF70F0081038B5CB6B002B50D00B78002B3FD00C4630
:402D40000546D0F80423D2B20132896BFFF7BAFB236C03442364E36B1B1AE363A26B1044A063802B06D9A3F18002802A0FD8A3F181040DE02B6E43F400432B66E36B0BB154
:402D80005C1E00E000240023C5F8C83F00E03F242B6813F4006F01D0802300E040239C4204D34FF42371104801F090F8D5F8043323F0FF02E3B21343C5F8043338BD01233E
:402DC000C3668A6B0B6CD0F84003D0540B6C01330B64CB6B013BCB6338BD0223C3660023C0F8C83F38BD00BF70F00810F8B50B78012B03D00C7A1CB9002702E0002700E06A
:402E00000127002800F0A780002900F0A680002A00F0A58016460C460546013BDBB2022B03D950214F4801F051F8637803B163791BB151214B4801F049F894F90330002B47
:402E400003DA5221474801F041F8237913F0010F03D05321434801F039F82369102B03D95421404801F032F8E368102B03D955213C4801F02BF8637913B14FF4803100E007
:402E80000021E27912B14FF4807300E000230B4343F400632B60A37913B94FF4006300E000232269013A02F00F021A43E368013B1B01DBB21343227843EA82732B6617B1D5
:402EC00040F2073301E040F20713C5F800330FB1254B00E0254B2B6763780BB17F2300E00023C5F80433E3785B00DBB2227943EA0243C5F810331E4BC5F80032A3780BB188
:402F0000402300E00123C5F804320023C5F8C83EC5F8883EC5F8C83FC5F8883FC5F8083F2378022B02D040F2D11300E00023C5F8483F63783370A37873704FF0805373602A
:402F40000020B060B06130623064F0633063F0627064B064F8BD0748F8BD0648F8BD0548F8BD00BFB4F0081003002A0013102A00070101000120AA0038B505460C4621B9DF
:402F80004FF43171194800F0A1FF2B6E9B0F012B17D1174B2344174A93421ED9A4F5BD13A3F5D66302F5611202F56162934216D9A4F57104A4F533440F4B9C4211D80F4836
:402FC00038BD84B1286EC0F303102B6E03F00F0318440230B4FBF0F038BD094838BD094838BD002038BD002038BD00BFB4F0081020AD88FF405B730040555C0440420F0082
:40300000801A0600A08601002DE9F84307468846914622B940F21321624800F057FF08F1FF34614B9C4204D94FF405715D4800F04DFF3B6E9B0F012B0DD149463846FFF7C8
:403040009BFF0546D7F8003323F40073C7F80033564B3B67A2E0544B9C421FD8544B984509D8A9F5BD13A3F5D663524A934218D90021012328E0504B984507D84F4B4B44E9
:403080004F4A934213D9002101231DE04D4B4B444D4A934212D90021012315E00021012312E0002141F288352E460B460CE000214FF461754FF4C8660B4605E001214FF47D
:4030C000BE754FF41B760023002B66D13F4BB3FBF9F3B6FBF3F404FB03F2964200D90134102C00D910240F2C8CBF00220122B5FBF3F606FB03F39D4200D90136102E00D904
:403100001026A519B9FBF5F50FE022B10F2C09D80134002206E00F2E04D801360F2C8CBF00220122A519B9FBF5F5454502D9A3191F2BEAD941B1D7F8003343F40073C7F8E0
:403140000033234B3B6707E0D7F8003323F40073C7F80033154B3B67E31F092B04D940F28D511C4800F0B2FE3B6E23F0F003013C2401E4B223433B66731F0B2B04D940F2F9
:40318000AA51144800F0A2FE3B6E23F00F03013E06F00F061E433E6600E000252846BDE8F88300BFB4F008103F420F0013102A00A0860100502D1900801A060020AD88FF6F
:4031C000A0432100807E25FFC02BAF0000CA9A3B03002A00F4F008102DE9F04182B005460C4617469846089E11F0800F04D040F2C961314800F06AFE304B984504D940F258
:40320000CA612D4800F062FE012F04D940F2CB61294800F05BFE0023C5F8483F7368B3F1805F41D14FF47A7303FB08F30193244B7360012F14BF00230123737340F2171317
:40324000C5F8003FD5F8003F0423C5F8C03FD5F8C03FD5F8043243F48033C5F80432D5F8043223F48033C5F80432D5F804326400E4B23C43C5F840420223AB66D5F8004FEA
:4032800024F0F804E405E40DD5F8403F03F0C0031C4301A8FFF746FB54EA0001EED032462846FFF7C7FA00E0064840F2D113C5F8483F02B0BDE8F081B4F00810378941003C
:4032C000000013100220AA002DE9F04182B005460F4614469846089E11F0800F04D040F22A712A4800F0F2FD294B984504D940F22B71264800F0EAFD012C04D940F22C714C
:40330000224800F0E3FD736813F4801F39D04FF47A7303FB08F301931E4B7360012C14BF0023012373736B6E13F0200F01D0092300E00123AB666B6E13F0200F05D0002086
:4033400009E001A8FFF7EEFA00E0002018B9AB6E13F0010FF5D170B97F00FFB23C43C5F84042D5F8000F40F20714044001A8FFF7D9FA2043F5D0324601462846FFF75AFA85
:4033800000E0054802B0BDE8F08100BFB4F0081037894100000013100220AA0070B582B005460C461646134B994204D940F28D71114800F08BFD736813F4801F17D04FF49B
:4033C0007A7303FB04F401941823AB66D5F8004F24F0EE04E405E40D01A8FFF7A3FA54EA0001F3D032462846FFF724FA00E0034802B070BD37894100B4F008100220AA0042
:403400002DE9F04383B0074688461C460A9D914622B940F2D971244800F058FD234B9C4204D940F2DA71204800F050FDB8F1010F04D940F2DB711C4800F048FD6B68B3F59A
:40344000881F2BD14FF47A7303FB04F40194D7F8C06F06F00406D7F8001F40F201140C4001A8FFF75FFA44EA00010EB90029EED046B1D7F8403389F800300523C7F8C03FCA
:40348000D7F8C03F2A463846FFF7D4F9034630B9B8F1000F03D10422BA6600E0044B184603B0BDE8F08300BFB4F00810378941000220AA00F0B583B005460F4614461E46B3
:4034C000134B9A4204D940F63301124800F0FEFC7368B3F5A01F17D14FF47A7303FB04F40194C5F84072D5F8004F24F0F804E405E40D01A8FFF716FA54EA0001F3D0324684
:403500002846FFF797F900E0034803B0F0BD00BF37894100B4F008100220AA00F8B504460E46D0F88C3E13F0010F07D04FF480534B600123C0F8803ED0F8803ED4F84C5FA5
:4035400040F201131D420FD0336A15F4807F02D04FF4807200E08022134333620023C4F8C83F45F010050EE015F0100F0BD0D4F80833C3F3080333B1F36B23B10123C4F8D3
:40358000C43FC4F8C83FD4F8CC3F13F0010F17D0236813F4803F07D0062000F08BFCD4F84C7FC7F3801700E0002757B931462046FFF7BEFB0123C4F8C03FD4F8C03F00E09A
:4035C000002715F0100F0BD0324639462046FEF7EBFF1023C4F8403FD4F8403FD4F84C5F15F0C00F0DD031462046FFF77DFA0123C4F8803ED4F8803EC023C4F8403FD4F82C
:40360000403FD4F88C3F13F0410F08D031462046FFF79AF90123C4F8803FD4F8803FF8BD70B506460D46D0F8004E14F0020F0AD0836E2BB1002383668B6843F080738B605E
:403640004FF4C0136B6014F0010F05D029463046FFF726F824F0040414F0080F08D029463046FFF7EDFA0123C6F8C03FD6F8C03F14F0040F08D029463046FFF7D9F9012348
:40368000C6F8803FD6F8803F6B68B3F5C01F03D129463046FFF754F86B68B3F5B01F03D129463046FFF736F870BD00BF08B54B6813F4801F02D0FFF7B3FF08BDFFF72EFF20
:4036C00008BD00BF2DE9F84305460C46036813F4006F02D04FF0800801E04FF04008D5F8007207F00F07A26A012A19D9D4F82490E262561EB9F1000F00D026B940F273516B
:40370000254800F0E3FB324649462846FEF718FFA36A1B1AA362072F00D9400048446062D5F80832C3F30803984533D0A36A012B30D10023A362072F02D8636A1E7801E08B
:40374000636A1E8800F02DFCC5F840624FF40073C5F8803FD5F8803F00F027FCD5F8883F23F4007222F0010242F4007623F4EE6323F0030323B140F23641084800F0A6FBD0
:40378000C5F8886F236843F002032360236B0BB101209847BDE8F88334F1081070F008102DE9F04105460C46036813F4006F01D0802600E040267608A769D4F81C8017B1B0
:4037C000B8F1000F04D14FF49961314800F07EFB424639462846FEF775FE236A03442362E3691B1AE36173BBA368FBB1E3689E4201D8013E00E05E1E2B6813F4006F01D0C4
:40380000802300E040239E4204D34FF42371214800F05CFBD5F8043323F0FF03F6B21E43C5F804630123C5F8C83F02E00023C5F8C83F636823F001036360236B33B3042030
:403840009847BDE8F081A169D5F8002302F00F02072A00D940000844A0619E4216D95C1E2B6813F4006F01D0802300E040239C4204D34FF42371074800F028FBD5F80433C4
:4038800023F0FF02E3B21343C5F80433BDE8F08134F1081070F00810002800F0A48170B50546002900F0A18116460C460B78022B03D93F21A24800F009FB637B023BDBB242
:4038C000062B03D940219E4800F000FBA37B3BB1022B05D0032B03D04121994800F0F6FA94F82130012B03D94221954800F0EEFA94F82830012B03D94321914800F0E6FA63
:403900002378012B06D86368083B082B94BF0023012307E0A37F2BB16368013B062B94BF002301231BB14521854800F0CFFAA368053B042B03D94621814800F0C7FA636995
:40394000FF2B03D947217E4800F0C0FAA369FF2B03D948217A4800F0B9FAA37C6BB1237833B9A368092B05D1A37B2BB1012304E0012302E0012300E000231BB14A21704894
:4039800000F0A4FA636B23F4366323F00D031BB14C216B4800F09AFAE36B23F4EE6323F003031BB14D21664800F090FA2378022B01D1A37F13B16268013A00E00022237F0E
:4039C00013B14FF4803100E00021A368082B02D84FF4006300E000230B4302F00F02134343F000732B60226B2B6813F4006F01D0802300E040239A4203D36221504800F06B
:403A000065FAA26B2B6813F4006F01D0802300E040239A4203D36321494800F057FA626A2B6813F4006F01D0802300E040239A4203D36421424800F049FA23781B0603F023
:403A400040732B64637F0BB1402200E00022A37C13B14FF4806300E000231343227C12B14FF4807200E000221343627C12B14FF4007200E000221A43E36A013B1B0403F45E
:403A800070231343627B013A02F007021343A27B120102F030021343AB64237B13B14FF4807200E00022E37B23B92378022B03D1012302E0012300E0002313B14FF40073E5
:403AC00000E000231A43A368013B03F00F031343C5F80033227DA3691B0403F47F031343C5F81033E26AD5F8003303F00F0303339A4201D3102A03D97A21114800F0E6F92B
:403B0000E37F23B12378012B03D0002302E0002300E0012313B14FF4807200E00022637B013B03F007031A43A37B1B0103F0300313436B64237B2BB14FF4807203E000BF44
:403B400074F108100022A368013B03F00F0313432278012A02D14FF4803200E000221343C5F8003294F83030C5F8043394F8203013B14FF0007200E0002294F82130012BF4
:403B800002D14FF0807300E00023134394F82820012A02D14FF4803200E00022134394F8242013432B6594F83830C5F80432636B23F4926323F002031B051B0DC5F8C83FED
:403BC000E36B23F08C035B055B0DC5F8883F76B1002070603060B060F0603062F0623063044B736370BD04487047034870BD002070BD00BFEFCDAB000160AA000B694A6999
:403C0000934202D34869181A7047CA684869101A184470472DE9F04107460D46036813F4006F02D04FF0800801E04FF040084FEA5808D7F80863C6F308062C6926E00134ED
:403C4000EB689C4200D100246B699C420FD12B6B0BB1082098476B699C4208D10023C7F8C83F0CB1013C13E0EC68013C10E0D7F84023D7F8003303F00F03072B02D8AB68F9
:403C80001A5502E0AB6823F81420013E002ED6D12C61EC6829463846FFF7B0FF201A804519D908B1441E00E000243B6813F4006F01D0802300E040239C4204D34FF423715E
:403CC000064800F003F9D7F8040320F0FF03E0B21843C7F80403BDE8F08100BF70F0081038B504460D46D0F8003E13F0080F35D0D0F8CC3F13F448730AD04A681A434A60CB
:403D0000C0F8C03FD0F8C03F0B6B0BB110209847D4F8CC3F13F4006F09D06B6843F400636B604FF40063C4F8C03FD4F8C03FD4F8CC3F13F0010F11D0EB6923B12946204672
:403D4000FFF72EFD05E0AB681BB129462046FFF761FF0123C4F8C03FD4F8C03FD4F8003E13F0040F2ED0D4F88C3F13F4A0630AD02A681A432A60C4F8803FD4F8803F2B6BDB
:403D80000BB120209847D4F88C3F13F0010F08D029462046FFF796FC0123C4F8803FD4F8803FD4F88C3F13F4007F0BD00022C4F8882F2B6823F001032B60EA622B6B0BB1BF
:403DC0000220984738BD00BF38B50D4B9A680D4B9A420FD10D46044621B940F237110A4800F074F804F11003064A52F8230042F8235038BD1030054B53F8200038BD00BFFE
:403E000000ED00E000400208B4F108100000081048B338B504460D464368072B03D93221134800F053F8B4F900306268002B08DB5201D2B203F1604303F5614383F8002312
:403E400005E003F00F035201D2B20A49CA540A4B9A680A4B9A4208D12946B4F90000FFF7B3FF002038BD06487047002038BD00BFB4F1081014ED00E000ED00E00040020848
:403E80000100560010B5044605E0084B186800F07FF8A4F50044B4F5004FF6D8044B186800FB04F000F074F810BD00BF0C4302080843020808B5034B1B7800FB03F000F00A
:403EC00067F808BD0443020801BEFEE738B50D46044C18220146204608F00EF9A5610020FFF7F2FF384D0208FEE700BF08B50268254BDA6142681A6282685A62C2689A622F
:403F00000269DA6242691A6382695A63C2699A631E4A916AD963D16A1964516A5964516B9964926BDA64F1EE103A13F0900F27D0026A154B1A65426A5A65826A9A65C26A90
:403F4000DA65026B1A66426B5A66826B9A66C26BDA66026C1A67426C5A67826C9A67C26CDA67026DC3F88020426DC3F88420826DC3F88820C26DC3F88C20026EC3F89020F7
:403F8000FFF7B2FF08BD00BF384D020800ED00E00230800803D001300238FCD100BF00BF7047EFF3108072B6704780F31088704710B30246C3680BB303680BB330B40579EE
:403FC000114B03EB85035C682346002103E0934205D019465B69002BF9D1012000E0002080B124B9084B03EB85056A6000E04A6111610023536105E00020704700207047D1
:404000000020704730BC7047E078020850B310B402460479164B03EB840359680B4602E0934204D05B69002BFAD1002000E00120D0B18A420ED14B6933B10D4A02EB84043A
:40404000636000221A610FE0094B03EB84040023636009E01A69596951615A6922B11B69136101E0002070475DF8044B704700BFE0780208014B1860704700BFFC4203081C
:4040800010B5012902D0082929D02EE01A4B1B78012B2CD00320FDF7BDFF184B984228D0FFF77FFF164B186002200BF0DFFF04460BF0E7FF022C05D1032805D0052805D165
:4040C000002404E00F4C02E0002400E00D4C0D4B9C420FD10A4B1868FFF767FF0AE0084B1868FFF762FF002404E0064C02E0054C00E0044C204610BD0443030801018800F7
:404100001C790208FF00420008B502291CD0082914D001291ED1124B1B78012B1CD0FFF740FF104B586002200BF0A0FF022815D00C4B5868FFF739FF0B4808BD094B586811
:40414000FFF733FF002008BD064B5868FFF72DFF054808BD044808BD034808BD002008BD044303081C790208FF00420010B5044C2046FFF74BFF04F11800FFF747FF10BDE4
:40418000E8440208002831D010B5194A9060C36A03B1D3600024174B1C70174B1C70174B1C60174B1C605C609C60DC601C824FF6FF72144B1A8044222146134807F0B6F9A9
:4041C00007E004EB041293000F4A1344FF221A640134002CF5D000240C4B1C7000F072F90B4B1C700B4B1C70204610BD0A4870471C790208344303083843030894430308E0
:404200003C43030800430308504303083543030802430308084303080100160070B59AB0424D15AC28686968AA68EB680FC4286920604C22002102A807F078F93C4B0293A2
:4042400015AB049342F61013ADF8143005238DF81630384B9B681B69069341F2960307931B23ADF82030ADF8223003238DF8243004238DF8253006238DF8263010238DF8C1
:4042800027308DF828308DF829307223ADF84C3001238DF85030284C2046FFF789FE04F11800FFF785FE0BF0DDFE08A80BF034FF0346002836D1214B03931E4B9B68996B92
:4042C00089B10B460DF12A0220311E685D689C68D868166055609460D060103310328B42F3D11B88138002A80BF0DEFE0346B0B90122134B1A700023124A1370124A13706F
:404300000C4B9B681A6A00929B6ADB88ADF804300923ADF80630684614F06CFE034600210A4A116018461AB070BD00BF68F30810215A08101C790208E8440208CC4D020868
:404340000443030810430308034303089443030818B1034A1061002070470248704700BF1C7902080100160008B5044B1B689847034B1B6803B1984708BD00BF407902086D
:404380002C79020808B510B1034A52689047034B1B6803B1984708BD407902082C79020870B5C0B006460C4615464FF480720849684607F0B0F805E016F8012B6A401DF818
:4043C0000250013C002CF7D1284640B070BD00BF7CF3081008B50022FFF7E2FF08BD00BF08B5FFF7DEFD08BD08B5FFF7DEFD08BD08B50120FEF726F808BD00BF08B5012036
:40440000FDF7F6FF08BD00BF08B5094B58601960012208491046FDF739FF034628B9002205490120FDF732FF0346184608BD00BF40790208854308106943081038B515461D
:404440000B46024601210020FDF7CEFE044618B129460120FDF742FF204638BD704700BF704700BF0020704700487047110016000048704711001600004870471100160039
:4044800000487047110016000048704711001600004870471100160000487047110016000048704711001600004870471100160000487047110016000048704711001600CC
:4044C000704700BF08B5002335E003EBC3014A001C498A5AAAB903EB0312910020311A4A11440022C1F80620C1F80A20C1F80E204A8203EBC3014A0012490A444FF4C0517B
:40450000918003EBC3014A000E490A44D2888AB903EB03118A0002F130010B4A0A4400215160118103EBC3014A0006490A4441F6010151810133002BC7D0044802F094F910
:4045400008BD00BF3C43030850430308C4430208F8B502284FD82A4B1B78002B4DD1294B1970D0B9284F3C68A36801EB4105AA009D18E668162303FB01F31E44B6882E812A
:40458000A5681544E468E45A6C803C68A5682A44E46823445B8893801CE001281AD11A4F3C68A36801EB4105AA009D18E668162303FB01F31E44B6892E81A5681544E46823
:4045C0001C4424896C803C68A5682A44E46823445B8993800D4B18700B4B1B68986801EB41018B00184410F0B7F9034630B90121034A117002E0064B00E0064B1846F8BDE2
:404600000343030811430308247902083543030801001600FF00160008B5074B1B78022B07D110F0C7F9034620B90321024A117000E0024B184608BD03430308FF00160044
:4046400010B50A4B1B78032B0DD110F023F90446074B5B7813B106480CF0FEFE24B90222024B1A7000E0034C204610BD044303080C430308FF00160030B585B00546002468
:4046800022E0144B33F81430ADF804309DF8053013B9114AD35C00E00023012B13D90023029303930B4B13F814308DF80F3002A811F008FD38B90622294602A806F01CFF6C
:4046C00008B9012003E00134002CDAD0002005B030BD00BF004303081043030870B504460D46FFF7C9FF002859D1002C59D00022134606E02D49C95C012901D90132D2B2DF
:404700000133002BF6D0012A4DD0294B1968886805EB4502930018444688264A1680868856808079107388680344DB791371C868162303FB05F52844C389D381CB682B44AF
:404740001B8A1382CB682B445B8A5382CB681D44AB8A93820023D3824FF6FF7111831E21154A517004E0E15C124A1A4451710133052BF8D9A2790F4BDA720F480CF04CFE75
:40478000044640B90B4810F097F8044660B903220A4B1A7008E008480CF05EFE04E0084C02E0084C00E0084C204670BD1043030824790208144303080C4303080443030895
:4047C000FF001600010016000200160070B5044614F02AFC054620BB134B1968086A228902EB82029300143B03445A6812F0007F17D0E67B1B695A68CB69D21A06EB4606F2
:40480000B318A28821680948184406F084FEE37B074AD35C012B04D1064A137843F002031370284670BD00BF2479020830430308084303080243030830B587B002891A4B2F
:404840001B685B699B889A4229D1044601AB07C883E807000022ADF81020A289ADF8122040228DF814201846FFF7B0FF054680B923681B7803F002039BB22BB10B4B1B680E
:4048800021460B48984704E0084B1B68214609489847094A137803F0FE03137000E00025284607B030BD00BF24790208287902080500010006000100344303084288531EC7
:4048C0009BB20C2B1AD84178D1B910B40F4B1868046A02EB82029300143B23445A6812F0007F0FD01B695A68C369D31A01EB41011944074B5B5A1380002004E001207047B7
:404900000120704700205DF8044B7047247902083043030810B483B0ADF804000023FF2110E003EB031082001F480244126CFF2A07D01E4810F812009DF80420904200D1A2
:40494000194601330BB9FF29EBD0FF2923D11EE002EB02108300144803441B6CFF2B14D10FE0124810F813409DF80400844206D102EB021081000C4801440B64114601333B
:4049800000E000230BB9FF29EBD0013200E000220AB9FF29DCD0FF2901D0002000E0044803B05DF8044B704750430308004303080300160070B582B0ADF80400C5B2FF2D86
:4049C0001AD122E004EB0413244A02EB83031A6C234B13F812309D420CD104EB04161F4B03EB860644220021304606F09FFDFF2333642146013401E00024FF210CB9FF2903
:404A0000E0D0FF2914D0002013E044220021134806F08CFD002307E003EB03110F4A02EB8102FF2111640133002BF5D0002000E00C4800230EE00A4A12F813109DF8042019
:404A4000914206D1064AFF2102F8131002EB430251700133002BEED002B070BD50430308004303080700160082B0ADF80400012000230EE003EB03118A0008490A44116C52
:404A8000074A12F811109DF80420914200D1184601330BB90128EDD002B07047504303080043030830B587B0ADF80400C0F3072010B9284B1B5C00E00023022B01D0072B07
:404AC00017D10198FFF726FF05460198FFF7CCFF044600220AE002EB420104EBC4035B0003EB410300201C4958500132022AF2D900E01A4D5DBBBDF80430ADF8143004EB35
:404B00000413174A02EB830301225A874FF6FF729A87D3F83A000490FFF7D4FC04A812F0E1FC054698B9BDF804301B0A03D10321084AD15405E023B940F286310948FFF7BB
:404B4000C5F904EB04140122054B03F82420284607B030BD104303083C430308FF001600504303087CF4081070B504460088FFF77BFF237E012B37D100EB001293001B4A58
:404B800013445A6802EB4202510000EBC00253000B44174A13449A8841F601039A4223D1228942F605239A4219D100EB001293000E4A1344DB8E6BB9E688114603011D188B
:404BC000AA0015460A44D68622792B460B4483F8342004E0074B1B68214607489847074A137803F0FE03137070BD00BF504303083C430308287902080D00010034430308EC
:404C000010B504460088FFF72FFF00EB00129300114A13445B68012B1DD1A28842F602139A4213D100EB001293000B4A13441B8F3BB9628800EB0010830007490B441A87E1
:404C400004E0064B1B68214605489847054A137803F0FE03137010BD50430308287902080E0001003443030810B504460068FFF7FBFE00EB00129300174A13445B68012B54
:404C800029D1A3683BB1020102449300124A13449A6801329A6000EB001293000E4A13449B689BB90201024493000B4A1344DA8E013262805A6802EB4202510000EBC000BB
:404CC00043000B44054A13445B88A380044A137803F0FE03137010BD504303083C4303083443030810B50446C068FFF7BDFE90B900EB00139A00084B1A44D28E23899A424D
:404D000009D1064B1B68214605489847054A137803F0FE03137010BD5043030828790208070001003443030810B504460088FFF79BFE237E012B40F0BE8000EB0012930050
:404D40005D4A13445B68002B40F0B580238942F60322934257D008D842F60122934228D03CD8B3F5285F0FD0A0E042F6A622934273D042F6C922934200F0848042F60422D1
:404D8000934240F0938053E000EB001293004A4A1344DB8C3BB9E28800EB0010830046490B44DA8482E0454B1B682146444898477CE000EB001293003F4A13441B8D3BB9FF
:404DC000E28800EB001083003B490B441A856DE03A4B1B6821463A48984767E000EB00129300354A13445B8D3BB9E28800EB0010830031490B445A8558E0304B1B68214686
:404E00002F48984752E000EB001293002A4A13449B8D3BB9E28800EB0010830026490B449A8543E0254B1B682146254898473DE000EB00129300204A1344DB8D3BB9E288B1
:404E400000EB001083001C490B44DA852EE01B4B1B6821461A48984728E000EB00129300154A13441B8E3BB9E28800EB0010830011490B441A8619E0104B1B682146104850
:404E8000984713E000EB001293000B4A13445B8E3BB9E28800EB0010830007490B445A8604E0064B1B68214605489847054A137803F0FE03137010BD5043030828790208EE
:404EC0000D0001003443030830B583B004460378032B4FD14378807843EA0020FFF7C4FD0546002846D100EB00129300294AD35C002B3FD0B4F80130ADF800309DF80130D2
:404F000013B9254AD35C00E00023033B032B1AD8DFE803F002080E14204B1B68611C2048984710E01D4B1B68611C1E4898470AE01A4B1B68611C1C48984704E0174B1B6816
:404F4000611C1A48984705EB0515AB000021114AD154B4F80130ADF804309DF805301BB902210D4AD15405E023B940F286311048FEF7ACFF2378042B0AD10E4B1A78E3789D
:404F80009A4205D10C4B1B78032B01D1FFF758FB03B030BD50430308104303082879020808000100090001000A0001000B0001007CF408100C4303080443030800B583B07F
:404FC0000023ADF804308389ADF800300389ADF8023012238DF80430084B1B7813F0010F09D129B18DF80510684613F047F902E0C06813F063F903B05DF804FB3443030859
:4050000010B4044688B10023194606E0104A52F82320944200D1012101330D4A1279934206D20029F2D0002003E00021094800E0002050B949B9064B1B792BB9044A42F892
:4050400023400133137100E003485DF8044B704798430308010016000300160070B506460D460020044606E0084B53F824302946304698470134054B1B799C4204D2044B93
:405080001B7813F0010FEFD170BD00BF984303083443030883792BB100207047C25C32B9013300E00023052BF8D9002070470120704700BF2DE9F04385B005460023019358
:4050C000029303930389ADF804308068FFF7CCFC04462B89ADF80030C3F3072313B9574AD35C00E00023032B40F0A480002C40F0A18004EB0413524A12F82330002B00F00F
:405100009980AF88062F02D0142F40F08D80B5F8068000267FE04B4A137843F0010313702B689A190292995B04EB0413444A02EB83035B8F99425FD304EB041302EB8303C1
:405140009B8F99425AD8062F4DD143E001238DF80C3009EB490304EBC402520002EB4303394A13449888029B9A8890422FD109EB490004EBC40E4FEA4E0E0EEB4000DFF8F5
:40518000C8E03EF8000058B909EB490204EBC401490001EB420219684EF80210012116E0B9F1010F0DD809F1010303EB430004EBC4035B0003EB4003234803449B889A42E2
:4051C00005D0224B1B6801A921489847012109F1010902E04FF000094946B9F1020F0ED80029B3D00BE002238DF80C3001A91948FFF734FF002102E0002100E0002149B9A0
:40520000104B1B7813F0010F04D0104B1B6801A9114898473E444645FFF47DAF094A137803F0FE03137005E0084B1B6805F108010A48984705B0BDE8F08300BF1043030883
:4052400050430308344303083C430308287902080C0001002F01010012000100080001002DE9F04F8BB007468068FFF7FDFB002840F0F280064600EB0013794A12F8233098
:40528000002B00F0E980BD88B7F806903C683B89ADF80430C3F3072313B9724AD35C00E00023052B4DD13B89ADF80C30002640E06D4A137843F0010313702378627843EA2E
:4052C0000223ADF80E30A3788DF81030E378227943EA0223ADF81230671D152D0DD102238DF8243005AF234653F8050F59689A68DB680FC704F115070BE0072D09D101236F
:405300008DF824306379A27943EA0223ADF81430E71D152D01D0072D09D103A8FFF704FD03A8FFF721FC03A95048FFF797FE2E443C464E45BCD34C4A137803F0FE03137060
:405340008AE03B89ADF80830C3F3072313B9454AD35C00E00023042B7ED13B89ADF80C304FF0000BD8466DE03F4A137843F0010313702378627843EA0223ADF80E30A3784A
:40538000E27843EA0223ADF810302379627943EA0223ADF8123004F1060A062D1AD13B89ADF8003002238DF82430684612F03AF906EB06142A4B03EB84040C340DF10C0EC1
:4053C000BEE80F000FC49EE8070003C422804FF0010B31E0082D2FD101238DF82430A379E07943EA0020ADF8140004F1080A002120E001EB410306EBC602520002EB430390
:405400001B4A13449B88834213D101EB410306EBC602520002EB4303154AD35A4BB901EB410106EBC6035B0003EB41010498505002E001310229DCD903A90E48FFF70EFE3F
:40544000A8445446C84502D2BBF1000F8CD0064A137803F0FE0313700BB0BDE8F08F00BF504303081043030834430308310101003C43030830010100F0B589B00446806841
:40548000FFF7F2FA0023ADF80A302389ADF80430C3F3072313B9284AD35C00E00023062B48D1002846D100EB0010244B13F82030002B3FD0A688A37A8DF81C302289ADF83F
:4054C0000820012B01D1042700E012272468002529E01B4A137843F0010313702378627843EA0223ADF80A309DF81C30022B0BD10DF10C0E234653F8020F59689A68DB686B
:40550000AEE80F00123406E0A378E27843EA0223ADF80C30043402A8FFF772FB02A90948FFF79CFD3D44B542D3D3054A137803F0FE03137009B0F0BD104303085043030851
:40554000344303083201010030B589B0ADF804000D460198FFF788FA0446002305930693BDF80430ADF814300795464A137843F0010313700023ADF81630ADF8183045B970
:4055800004EB0413404A02EB830300225A609A60012505A8FFF768FB05A93C48FFF75EFDBDF8163013B1BDF818305BB904EB0413354A02EB83035A6801325A6000229A60D0
:4055C000079201E001230793BDF8161004EB04132D4A02EB83035B8F99420DD904EB0412294800EB8202928F914205D8BDF81820934201D8914207D904EB0413224A02EB9A
:4056000083035B68022BB0D904EB04131E4A02EB83035B68022B16D8DDF816000390BDF80430ADF8103003A811F0F0FE38B3184B1B6801A91748984704EB0414A300002142
:40564000114AD1541BE0BDF80430ADF80C30C3F307231BB90721104AD15405E023B940F286310E48FEF732FC094B1B6801A90C48984704EB0414A4000022034B1A5509B070
:4056800030BD00BF344303085043030833010100287902080B000100104303087CF408101300010030B589B0ADF804000D460198FFF7DAF9044645B100EB00133E4A02EB09
:4056C00083035A6801325A600EE000EB00133A4A02EB830300225A6006E004EB0412364901EB82020133536004EB0413324A02EB83035B68022B17D803EB430204EBC4013A
:40570000490001EB42022D49885A04EB04122A4901EB8202528F9042DFD304EB041201EB8202928F9042D8D8022B23D800220392049205920692079203EB430304EBC4020D
:40574000520002EB43031D4AD0580290BDF80430ADF81D3002A811F07DFE50B3184B1B6801A91848984704EB0414A3000021124AD1541EE0144B1B7813F0100F04D0104B23
:405780001B6801A911489847BDF80430ADF80830C3F307231BB906210D4AD15405E023B940F286310B48FEF791FB00210198FFF7CBFE09B030BD00BF504303083C430308E3
:4057C000287902080A0001003443030811000100104303087CF4081030B589B0ADF804000D460198FFF740F9044645B100EB00133E4A02EB83035A6801325A600FE000EBD5
:4058000000133A4A02EB830300225A60DA8106E004EB0412354901EB82020133536004EB0413324A02EB83035B68022B17D803EB430204EBC401490001EB42022C49885ADC
:4058400004EB0412294901EB8202528F9042DFD304EB041201EB8202928F9042D8D8022B23D800220392049205920692079203EB430304EBC402520002EB43031C4AD0588B
:405880000290BDF80430ADF81D3002A811F072FE50B3184B1B6801A91748984704EB0414A3000021114AD1541EE0144B1B7813F0100F04D00F4B1B6801A911489847BDF8EA
:4058C0000430ADF80830C3F307231BB905210D4AD15405E023B940F286310B48FEF7F6FA00210198FFF7DEFE09B030BD504303083C430308287902080900010034430308CE
:4059000010000100104303087CF4081000B585B0ADF804000198FFF7A7F800285AD100EB00132E4A12F82330002B53D0BDF80430ADF80830C3F3072313B9294AD35C00E047
:405940000023033B032B45D8DFE803F00227313B244B1B7813F0100F04D0234B1B6801A922489847BDF80430ADF80C30C3F307231BB904211A4AD15405E023B940F286317A
:405980001B48FEF7A3FA00210198FFF725FF154A137803F0FE0313701CE001210198FFF71BFF104A137803F0FE03137012E001210198FFF777FE0B4A137803F0FE0313702B
:4059C00008E001210198FFF7BFFD064A137803F0FE03137005B05DF804FB00BF504303081043030834430308287902080F0001007CF4081010B504460088FFF735F858B9AC
:405A000000EB00139A00054B9B5C2BB163790A2B02D12088FFF77AFF10BD00BF5043030870B58EB004460D46CA4A137843F00103137045F20303984200F0958371D8B0F520
:405A4000804F00F09A8336D841F20403984200F05A8417D841F20103984200F0528105D8B0F5805F00F0C78000F052BC41F20203984200F04E8141F20303984200F0998113
:405A800000F046BC43F20103984200F0FE8006D842F20403984200F00A8100F039BC43F21203984200F0F18043F21903984200F09C8000F02DBC44F20B03984200F04F82AC
:405AC00018D844F20703984200F0FE8106D844F20403984200F0808100F01ABC44F20803984200F0388244F20A03984200F0E98100F00EBCB0F5A04F00F0A18306D844F2CF
:405B00001003984200F0E08100F002BC45F20103984200F0628245F20203984200F0F182F6E345F20F03984200F062832ED845F20A03984200F0758316D845F20603984232
:405B400000F06B8305D845F20503984200F06183DEE345F20703984200F06D8345F20903984200F08A83D3E345F20C03984200F00783C0F0858345F20D03984200F0838388
:405B800045F20E03984200F03083C1E345F21403984200F0338311D845F21103984200F07583C0F0288345F21203984200F04F8345F21303984200F04D83A9E345F21703B1
:405BC000984200F01E8305D845F21603984200F060839DE345F21803984200F0258346F20103984200F0F68192E35A4A137803F0FE0313708CE3584B1E683046FFF74AFA3C
:405C000018B130460FF048FE2DE0544B1A68936A1B791BB34FF0B05191F8043603F03F0391F8050600F03F0043EA801391F8030600F01F0043EA003391F8001601F07F0187
:405C400043EA4143126B1370444A1168096BC3F3072048701268126B1B0C93703F4B1B68186B0FF019FE3D4B1B68986A023010F041FA3B4A07AB1068516803C307A80FF046
:405C80002FFE0222374B1A7042E30023354A1370354A1370354A13700A20FEF7F3F843F212039C4240F03483FEF760FA30E3304B1B6813F0010F40F02B830023ADF81C30BB
:405CC0008DF81E30254E33689B6A93F900308DF81C3007A80FF01EFE33689B6A93F901308DF81C3001238DF81D30FF238DF81E3007A80FF00FFE1E4A136843F00103136006
:405D000006E30846FFF7E0F829462046FFF7A6F9FEE24978174B1B88ADF81C30002330E0154A32F81320ADF810209DF8112012B91248825C00E00022012A21D90E4A12F847
:405D4000132091421CD10C4A32F81330ADF81C3019E000BF344303081845020824790208B4F4081004430308034303085879020894430308BCF408100043030810430308A0
:405D80000133002BCCD09DF81D30FF2B05D104D140F2CA31A948FEF799F8BDF81C30ADF82830ADF82430C3F307232978A44AD154AEE20B78002B40F0AB820B7A33B9A14B0A
:405DC0000022DA809A80A04A1A604B609F4A137803F0FE0313709BE249799D4B1B88ADF81C30002319E09B4A32F81320ADF814209DF8152012B99848825C00E00022012AA1
:405E00000AD9944A12F81320914205D1914A32F81330ADF81C3002E00133002BE3D09DF81D30FF2B05D104D140F2CA318348FEF74DF8BDF81C30ADF82C30ADF81C30C3F3FC
:405E400007236978854AD154EB78002B40F0608269797F4B1B88ADF81C30002319E07D4A32F81320ADF818209DF8192012B97A48825C00E00022012A0AD9764A12F81320E0
:405E8000914205D1734A32F81330ADF81C3002E00133002BE3D09DF81D30FF2B05D104D140F2CA316548FEF711F8BDF81C30ADF83030ADF81C30C3F307230121684AD154CB
:405EC00026E2FFF7CBF823E2AB7E002B3FD1654B5B7813B163480BF0BFFAE97E5C4B1B88ADF81830002319E05A4A32F81320ADF81C209DF81D2012B95748825C00E000221A
:405F0000012A0AD9534A12F81320914205D1514A32F81330ADF8183002E00133002BE3D09DF81930FF2B05D104D140F2CA314348FDF7CCFFBDF81830ADF83430ADF81830CA
:405F4000C3F30723FF2B02D0297E474AD1540222464B1A70DCE10222444B1A70D8E1FFF77DF83A4B1B7813F0010F00F0D181404B1B78012B03D102223D4B1A70C8E1032BF3
:405F800003D100223A4B1A70C2E1022B40F0C0810022374B1A70374B1B68DA68364B1978162303FB01239A79002A00F0B1819B88002B00F0AD81314B1B78002B40F0A8815B
:405FC0000120FEF7C5FA002840F0A2810122284B1A709DE1FFF742F89AE10B88ADF800309DF8013013B91C4AD35C00E00023012B13D129786B78174A12F8132091420CD194
:406000001BB90721144AD15445E0002B43D140F286310A48FDF75AFF3DE02B78687843EA0020FEF7C7FC2B88ADF804309DF8053033BB0221084AD15428E000BF7CF4081023
:406040003843030860790208DC76020834430308BCF40810004303081043030808430308587902080C4303085C7902080443030803430308247902081143030835430308CF
:4060800023B940F28631AB48FDF720FF6A782988A94B23F812106B780021A84AD15403EB4302A74E9119A74B1B6818692B7803EB430303F584531033034433F8060F9B78EB
:4060C00090538B70687800EB400002213044FEF781F96B7803EB430333449B7898420BD0994B1B680021994898476B7803EB4303981900229A53827029462046FEF7AEFFD3
:4061000006E10B88ADF808309DF8093013B9904AD25C00E00022072A0BD11BB901218C4AD15417E0B3B940F286318248FDF7CEFE10E01BB90021864AD15405E023B940F2C3
:4061400086317C48FDF7C2FE2B78687843EA0020FEF730FC6B7800217E4AD15429462046FEF77CFFD4E00B88ADF81C301723ADF81E3007A812F08EF8CAE0FEF76FFFC7E079
:406180000846FEF759FB014620B929462046FEF765FF01462846FEF711FF6F4B1B7813F0110F04D0684B1B682946204698472A89694B1B7813F0010F11D0531E9BB20C2B2F
:4061C0000DD912238DF82030ADF81E20AB89ADF81C3001238DF8213007A812F04FF85E4A137803F0FE03137092E0FEF737FF8FE0FEF734FF8CE0FEF731FF89E0FEF72EFFBB
:4062000086E00846FEF75AFB29462046FEF726FF7EE00846FEF74EFF7AE00846FFF720F876E0FEF71BFF73E00B78487843EA0020FFF76CFB6CE00846FFF71EF968E00846EB
:40624000FFF7D8FB29462046FEF708FF60E0FEF705FF5DE00846FEF745FD29462046FEF7FDFE3D4B1B7813F0010F51D1AB890EA820F81C3D11F0BEF84AE0FEF7EFFE47E02F
:40628000FEF7ECFE44E0FEF7E9FE41E0FEF7E6FE3EE00B78487843EA0020FEF7E5FB06462B88ADF80C309DF80D3013B9284AD35C00E00023042B2BD156BB06EB0613274AA9
:4062C00012F8233023B306EB0612244B03EB82031B8AADF81C302B88ADF81E3007A811F093F950B1184B1B6829461D489847442303FB06F60022194B9A55174A137803F0B9
:40630000FE03137004E0174A137843F001031370114B1B7813F0110F09D00F4A137803F0FE031370084B1B682946204698470EB070BD00BF7CF40810004303083843030879
:4063400030430308247902082879020804000100104303085879020834430308504303080900010002430308F8B504460068FEF77BFB00EB00129300234A13445D68022D83
:4063800040D1023DA3683BB10201024493001E4A13449A6801329A6000271EE0D9681301194491F80AE0BEF1000F0FD031F8102001326280154A126812681644F268134419
:4063C00003EB40035B88A380012706E000EB00118B000D490B4401329A6000EB00129300094A13449A68094B1B681B682E013344597A8A4201D2002FD0D0054A137803F0B5
:40640000FE031370F8BD00BF504303086C790208344303082DE9F04F83B082460088FEF723FB00EB001293004E4A13445B68022B40F095800746A3F1020B4B4B03EB8003C1
:406440005A6872B1484B03EB80039B689B4503D1BAF80230013B1380434B03EB870300225A600025019553E09AF81860022E0FD1E36803EB05131A7A022A0CD110220AF1C4
:406480000801586805F038F840B14FF0000907E04FF0000904E04FF0000901E04FF00109012E0ED1E36803EB05131A7A012A08D102220AF10801586805F01EF808B94FF046
:4064C0000109B9F1000F22D0E2682B011A4432F81710E1B9BAF8061022F81710224A106801684144C96819449AF8044039444C7201688844D8F80C100B4403EB47030233D1
:4065000002EB87025360C2F808B0012301930135154B1B681C684FEA0B184444637A9D4202D2019B002B9FD00F4B03EB8703596881B107EB071293000A4A13445A6802EB04
:406540004202500007EBC7077B000344074A13445B880B80064A137803F0FE03137003B0BDE8F08F504303086C7902083C430308344303082DE9F04F83B080460088FEF762
:4065800073FA00EB001293002F4A13445B68022B57D18246A3F1020900EB001293002A4A1344D3F808B0002301931D463BE098F81460022E10D1E16805EB450293000B4405
:4065C0001A7A022A0AD1102208F10401586804F093FF28B1002704E0002702E0002700E00127012E0FD1E16805EB450293000B441A7A012A07D1022208F10401586804F090
:406600007BFF00B901276FB1E16805EB450293000B4433F81A202AB9B8F8022023F81A20012301930135094B1B681B6803EB0913DC6804EB0B14A37A9D4202D2019B002BD3
:40664000B5D003B0BDE8F08F504303086C7902082DE9F04105460068FEF706FA07460024264644E0244B1B681B6803EB04131A7A022A3BD1D5F80480102208F104015868BA
:4066800004F03AFF90BBA31C03EB4302510007EBC70042000A4419498A5A12BBB8F8008008465E00F2184FEA420EFA0002EB070C4FEA4C018C46714420F801806968B1F83A
:4066C00002E03344590063460B440344A3F802E03A013A4493000A4A13445A6801325A600126084A137803F0FE03137001340CB9002EB7D0BDE8F0816C7902083C430308CD
:40670000504303083443030870B590B00C46B0F5803F1BD3A0F58030A0F22F10042800F29380DFE800F00391070B0F000846FFF78FFF89E00846FFF76DFE85E00846FFF7EA
:4067400019FF81E00846FFF70FFE7DE080B245F20903984203D045F20B03984274D12389ADF800300098FEF77FF90546BDF80030ADF80430C3F3072313B9354AD35C00E0A3
:406780000023042B60D1002D5ED105EB0513314A02EB8303DB89002B56D0002302930493BDF80030ADF8083005AB039305EB051602EB860633690593A288216806A804F0EB
:4067C000AAFE02A8FFF744FFF289013292B2ADF81420736803EB430105EBC5035B0003EB41031D490B445B88ADF816309A421BD800230B930C930D930E930F93059B0A931F
:406800002389ADF83D300AA810F0B4FE80B1134B1B6804F108011248984705EB05139B0000210C4AD15403E00121A068FEF7D4FF0C4A137803F0FE03137005EB0515054B27
:4068400003EB85050023EB81002010B070BD00BF10430308504303083C4303082879020809000100344303082DE9F041002873D03C4A10603C48FEF7C3FB8046002168E07A
:406880000EF1020707EB47035A0001EBC10463001344364AD35A4BB332E0DA6835012A44002322F811300AE0D06803EB430C4FEA8C0202444FF0000C22F811C00133294A65
:4068C000126812682244D2682A4492F80AC06345EAD307EB47035A0001EBC10463001344224A134400229A80013600E000261D4B1B681B684FEA0E1423445A7A9642CCD325
:40690000184B1B681B6803EB0E131A7A012A0CD15B681D8807EB47077A0001EBC10463001344124A13449D800AE007EB47077A0001EBC104630013440C4A134400229A80EE
:406940000EF1010E01E04FF0000EBEF1000F97D001310029F7D001E0DFF814804046BDE8F08100BF6C790208096708103C4303080100160010B5182001F04CFD044620B183
:40698000002340F8043B00F075F8204610BD00BF40B94FF0200383F31188BFF36F8FBFF34F8FFEE770B5054611F07F4F08D04FF0200383F31188BFF36F8FBFF34F8FFEE7B2
:4069C0000C4601F07FFB2E6826EA0401296001F09BFB304670BD00BFF8B540B94FF0200383F31188BFF36F8FBFF34F8FFEE7044611F07F4F08D04FF0200383F31188BFF36D
:406A00006F8FBFF34F8FFEE70D4600F10C0600F067FE206921682943216000251FE04768016821F07F4211F0806F04D123681A4207D1002308E0236832EA030303D00023F9
:406A400002E0012300E0012343B111F0807F00D01543216841F0007101F050F83846B042DDD1236823EA0503236000F0C7FE2068F8BD00BF00F1080343604FF0FF328260A9
:406A8000C360036100230360704700BF00230361704700BF43684B609A688A609A68516099600861036801330360704730B40D68B5F1FF3F01D1026907E000F1080200E00A
:406AC0001A4653681C68A542FAD253684B6099608A605160086103680133036030BC704703694268816891608268416851605A68904201D182685A60002202611A68013ABC
:406B00001A601868704700BF10B5044601F0DAFAA26BE36B9A4201D1012400E0002401F0F3FA204610BD00BF10B5044601F0CAFAA36B0BB9012400E0002401F0E5FA20461A
:406B400010BD00BF70B504461646856B026CFAB166B9806804F0DFFCA268236C1344A3606268934214D32368A36011E0C06804F0D2FC236C5B42E2681A44E26021688A4292
:406B800002D262681344E360022E01D105B1013D0135A563002070BD026C72B110B50346C4681444C4604068844201D31868D8600846D96804F0AFFC10BD704738B50546F1
:406BC00001F080FA95F8454064B20AE06B6A53B105F1240000F04EFF08B101F01BF8013C64B2002CF2DCFF2385F8453001F08CFA01F068FA95F8444064B20AE02B6953B157
:406C000005F1100000F036FF08B101F003F8013C64B2002CF2DCFF2385F8443001F074FA38BD00BF38B540B94FF0200383F31188BFF36F8FBFF34F8FFEE704460D4601F007
:406C400041FA2168E26B236C03FB021060600020A063A160013A02FB0313E360FF2384F8443084F845307DB92369ABB104F1100000F000FF80B14FF08052094B1A60BFF318
:406C80004F8FBFF36F8F07E004F11000FFF7F2FE04F12400FFF7EEFE01F036FA012038BD04ED00E010B5029B0C4609B91B6000E01A60D8631C6401211846FFF7B3FF10BD76
:406CC00040B94FF0200383F31188BFF36F8FBFF34F8FFEE7F0B583B0034611B101FB00F000E000201D4617460C46483001F092FB064638B100903B4600F1480221462846D8
:406D0000FFF7D0FF304603B0F0BD00BFF0B585B0019240B94FF0200383F31188BFF36F8FBFF34F8FFEE7044619B9026C1AB9012202E0012200E0002242B94FF0200383F3A3
:406D40001188BFF36F8FBFF34F8FFEE7022B03D1E26B012A02D102E0012200E0002242B94FF0200383F31188BFF36F8FBFF34F8FFEE71D460E4600F055FF18B9019B1BB935
:406D8000012302E0012300E0002343B94FF0200383F31188BFF36F8FBFF34F8FFEE7002701F090F9A26BE36B9A4201D3022D21D12A4631462046FFF7C5FE636A6BB104F163
:406DC000240000F057FE88B14FF08052324B1A60BFF34F8FBFF36F8F08E038B14FF080522D4B1A60BFF34F8FBFF36F8F01F08CF901204EE0019B1BB901F086F9002048E0A8
:406E00001FB902A800F0BCFE012701F07DF900F067FC01F057F994F844305BB2B3F1FF3F02D1002384F8443094F845305BB2B3F1FF3F02D1002384F8453001F065F901A95E
:406E400002A800F0A7FEF0B92046FFF75DFEA0B1019904F1100000F0D5FD2046FFF7AEFE00F0CCFC00289BD14FF080520A4B1A60BFF34F8FBFF36F8F92E72046FFF79EFEDC
:406E800000F0BCFC8CE72046FFF798FE00F0B6FC002005B0F0BD00BF04ED00E02DE9F84340B94FF0200383F31188BFF36F8FBFF34F8FFEE7044619B9006C18B9012002E0D5
:406EC000012000E0002040B94FF0200383F31188BFF36F8FBFF34F8FFEE7022B03D1E06B012802D102E0012000E0002040B94FF0200383F31188BFF36F8FBFF34F8FFEE708
:406F00001F469046894601F0EFF9EFF311864FF0200383F31188BFF36F8FBFF34F8FA26BE36B9A4201D3022F1ED194F845506DB23A4649462046FFF705FEB5F1FF3F0DD1A9
:406F4000636A9BB104F1240000F094FD80B1B8F1000F0FD00120C8F800000CE06B1C5BB284F84530012006E0002004E0012002E0012000E0012086F31188BDE8F88300BF23
:406F800040B94FF0200383F31188BFF36F8FBFF34F8FFEE770B50446036C43B14FF0200383F31188BFF36F8FBFF34F8FFEE703681BB943681BB9012302E0012300E00023EF
:406FC00043B94FF0200383F31188BFF36F8FBFF34F8FFEE70E4601F087F9EFF311854FF0200383F31188BFF36F8FBFF34F8FA26BE36B9A4218D294F845305BB20132A263AA
:40700000B3F1FF3F0AD1636A83B104F1240000F031FD68B176B1012030600CE001335BB284F84530012006E0002004E0012002E0012000E0012085F3118870BDF0B585B004
:40704000019240B94FF0200383F31188BFF36F8FBFF34F8FFEE7044619B9036C1BB9012302E0012300E0002343B94FF0200383F31188BFF36F8FBFF34F8FFEE70E4600F08C
:40708000D1FD18B9019B1BB9012302E0012300E0002343B94FF0200383F31188BFF36F8FBFF34F8FFEE7002701F00CF8A56BC5B131462046FFF770FD013DA563236963B13A
:4070C00004F1100000F0D6FC38B14FF08052304B1A60BFF34F8FBFF36F8F01F015F8012053E0019B1BB901F00FF800204DE01FB902A800F045FD012701F006F800F0F0FAEE
:4071000000F0E0FF94F844305BB2B3F1FF3F02D1002384F8443094F845305BB2B3F1FF3F02D1002384F8453000F0EEFF01A902A800F030FDF0B92046FFF7F6FCA0B10199A4
:4071400004F1240000F05EFC2046FFF737FD00F055FB0028A8D14FF080520D4B1A60BFF34F8FBFF36F8F9FE72046FFF727FD00F045FB99E72046FFF721FD00F03FFB204658
:40718000FFF7D2FC00288FD0002005B0F0BD00BF04ED00E030B585B0019140B94FF0200383F31188BFF36F8FBFF34F8FFEE70446036C43B14FF0200383F31188BFF36F8F69
:4071C000BFF34F8FFEE700F02DFD18B9019B1BB9012302E0012300E0002343B94FF0200383F31188BFF36F8FBFF34F8FFEE7002500F068FFA36BA3B1013BA363236963B140
:4072000004F1100000F036FC38B14FF08052304B1A60BFF34F8FBFF36F8F00F075FF012053E0019B1BB900F06FFF00204DE01DB902A800F0A5FC012500F066FF00F050FA5F
