:020000041008E2
:4000000000780408EB0208100D0000005103081051030810510308105103081000000000000000000000000000000000916008104D03081000000000316108109561081051
:400040004D0308104D0308104D0308104D0308104D0308104D0308104D0308104D0308104D0308104D0308104D0308104D0308104D0308104D0308104D0308104D03081000
:400080004D0308104D0308104D0308104D0308104D0308104D0308104D0308104D0308104D0308104D0308104D0308104D0308104D0308104D0308104D0308104D030810C0
:4000C0004D0308104D0308104D0308104D0308104D0308104D0308104D0308104D0308104D0308104D0308104D0308104D0308104D0308104D0308104D0308104D03081080
:400100004D0308104D0308104D0308104D0308104D0308104D0308104D0308104D0308104D0308104D0308104D0308104D0308104D0308104D0308104D0308104D0308103F
:400140004D0308104D0308104D0308104D0308104D0308104D0308104D0308104D0308104D0308104D0308104D0308104D0308104D0308104D0308104D0308104D030810FF
:400180004D0308104D0308104D0308104D0308104D0308104D0308104D0308104D0308104D0308104D0308104D0308104D0308104D0308104D0308104D0308104D030810BF
:4001C0004D0308104D0308104D0308104D0308104D0308104D0308104D0308104D0308104D0308104D0308104D0308104D0308104D0308104D0308104D0308104D0308107F
:400200004D0308104D0308104D0308104D0308104D0308104D0308104D0308104D0308104D0308104D0308104D0308104D0308104D0308104D0308104D0308104D0308103E
:400240004D0308104D0308104D0308104D0308104D0308104D0308104D0308104D0308104D0308104D0308104D0308104D0308104D0308104D0308104D0308104D030810FE
:400280004D0308104D0308104D03081010B5054C237833B9044B13B10448AFF300800123237010BD94760208000000007CD30810084B10B51BB108490848AFF300800848F2
:4002C000036803B910BD074B002BFBD0BDE81040184700BF00000000987602087CD3081050470208000000007047FFF7FDFF72B6104C114DAC4209DA21686268A368043B96
:40030000A2BFC858D050FAE70C34F3E70B490C4A00209142BCBF41F8040BFAE709480A490860BFF34F8F00F097F900F071F900F01DF8FEE7D8B80910F0B809109476020802
:40034000584403080040020808ED00E0FEE7FEE700B504207146084202D0EFF3098001E0EFF30880043001F07BFEFEE780B582B062B606F03BF902262F4B9E600822803BDA
:400380005A600A2001F038FE2C4D284609F04AFC2B4809F047FC2B4C204609F0B5FC284609F040FC284809F03DFC204609F0ACFC284609F037FC254F384609F033FC204670
:4003C00009F0A2FC284609F02DFC214809F02AFC204609F099FC284609F024FC384609F021FC204609F090FC1A4B1868002332461946406809F0BCFC002401940096234664
:400400004FF400521449154805F036F901940125009523464FF480621149124805F02CF90194009523464FF480620F490F4805F023F905F053F9FEE780003240FCBF08103A
:4004400008C0081014C0081018C008102CC0081054C008100C4702087CC008107909081088C00810590A081094C00810C50C081008B5012001F00CF908BD00BF704700BF47
:400480005C4AD2F8803303F00F0303F1D00152F8212002F00702032A04D0042A05D092B9554914E0554A116811E003F1C002514951F8222002F01F02112A06D0132A04D0CF
:4004C0004FF4FA4103E04E4901E04FF400418BBB484BD3F8902502F00100D3F88825C2F30172D3F8883513F0405F07D0414BD3F88835C3F30173012B02D102E0012300E08F
:40050000002303B108B9032A46D13A48D0F88025C2F31103D0F88425C2F30C02D0F88005C0F300600130B1FBF2F202FB03F2B2FBF0F131E0012B2FD12E4BD3F8402602F079
:400540000100D3F80026C2F30172D3F8003613F0405F07D0274BD3F80036C3F30173012B02D102E0012300E0002303B108B9032A12D12048D0F8002602F07F02D0F80036F6
:40058000C3F30423D0F80006C0F3044002FB01F2B2FBF3F2B2FBF0F1164BD3F88033C3F3011321FA03F215494A601648D0F89030C3F3072301330069000E0130B2FBF0F099
:4005C0008860B2FBF3F3CB600B6103F5742202F23F220D48A0FB0202C2F387420A7503F2E7330A4AA2FB03239B098B61DB03CB61704700BF0000264000127A008C42020815
:4006000000366E010000214083DE1B43D34D621008B50D4801F0EAFDFFF730FFFFF730FF00221146042000F0E5FD084800F078FE074B1B6893F8513013B1064800F0E0FE49
:4006400000F0A6FC08BD00BF4CC80810B07602087C420308A4C0081008B501F05EFD074AD2F8883043F47003C2F88830BFF34F8FBFF36F8F01F055FD08BD00BF00ED00E0F7
:4006800000B583B002A9002341F8043D084B186804F0B2FC019B3BB14FF08052054B1A60BFF34F8FBFF36F8F03B05DF804FB00BF6842030804ED00E030B589B004460D46EB
:4006C0008DF80720314B1B88ADF80C309DF80D3013B92F4AD35C00E00023072B09D02D4809F0A0FA2C4809F09DFA2C4809F00CFB4AE0284809F096FA9DF807302A462146B4
:40070000274809F08FFA254809F0FEFA002317E003EB430223498A5C944210D103EB43020A44527895420AD11F4AD16803EB43021C480244927812018A5AADF81820013386
:40074000072BE5DD0123ADF814300DF1070304930E4B1B88ADF81C30002410E00CF044FF01344FF6FE739C4209DD0A4809F05AFA0E4809F057FA094809F0C6FA04E004A811
:4007800014F01CFA0028E9D109B030BD8042030890420308D8C00810ECC0081014C00810FCC00810AC4202088043020820C1081030B4134A0023136053609360D3601BE050
:4007C0001C46C2185278072A02D0092A08D00EE09A1C02440A4D6A60C25C013A2A7306E09A1C0244064D2A60C25C013AAA60025D1344DBB20133DBB28B42E1D330BC70479A
:400800006C42030830B583B0B0F5A04F00F08F800C460BD8B0F5804F25D044F2080398420DD0B0F5805F40F08B8008E045F2020398424BD05AD3434B98426ED080E0424829
:4008400009F0F0F9414809F0EDF9414809F05CFA0021084601F038FF02223E4B9A600822803B5A606CE0384809F0DCF9384809F04BFA217AE068FFF79BFF374B1B6813B1E5
:40088000314809F0CFF9344D2A68A968334809F0C9F92F4809F038FA2A7B002A50D0304B5968686808F02AFD002849D16368186800909B88ADF8043063788DF80630002118
:4008C000684601F0C7FF01F063FF39E00222214B9A600822803B5A601B4809F0A3F9214809F0A0F91A4809F00FFA29E00222194B5A600822803B9A60134809F093F91A483B
:4009000009F090F9124809F0FFF9184B1A78587842EA002002F082F912E00B4809F082F9134809F07FF90A4809F0EEF908E0064809F078F90F4809F075F9054809F0E4F934
:4009400003B030BD13000100D8C0081038C1081014C00810800032406C42030848C108108043020858C1081068C108108042030898C10810ACC1081008B5134809F052F9EC
:40098000124809F04FF9124809F0BEF903220021012004F0D1F90F4B18600F4800F018FA01E00CF021FE0D4B1B78022BF9D10C4801F08AFD4FF0FF31064B186804F026FC42
:4009C0000CF012FEF6E700BFD8C00810C4C1081014C008106842030805080810844203088106081000B583B0164B0022C3F8C82F0422C3F8C02FD3F8C03F134BB3F90030DB
:400A0000002B09DB5A0903F01F03012101FA03F360320E4941F8223002A9002341F8043D0B4B186804F0E8FA019B43B13BB14FF08052084B1A60BFF34F8FBFF36F8F03B067
:400A40005DF804FB00006640CCC2081000E100E03078020804ED00E038B5874B1868002302221946406809F083F9844D284609F0D9F8834809F0D6F8824C204609F044F98B
:400A8000284609F0CFF8804809F0CCF8204609F03BF9012001F0B0FA03220021012004F04BF97A4B18607A4C7A49204601F06AFAB4F90030002B08DB590903F01F0301228F
:400AC00002FA03F3744A42F821300422734BC3F8C82F4FF0FF316D4B186804F097FBBDE0654B186842685368013B5360002B04DA416809F011F9C0B204E042681368591C32
:400B0000116018782C38442800F2A880DFE800F047A64DA6A6A6A6A6A6A6A6A6A6A6A6A6A6A6A653A6A6A6A6A6A6A6A6A6A6A6A6A6A6A6A6A6A6A6A6A6A6A6A6A6A6A6A6FE
:400B4000A6A6A6A6A6A6A6A6A6A6A6A6A6A6A6352F413B2923000A2201210020FFF7ACFD7CE0F62201210020FFF7A6FD76E00A2201210846FFF7A0FD70E0F62201210846D6
:400B8000FFF79AFD6AE0F62201210220FFF794FD64E00A2201210220FFF78EFD5EE0F62201210320FFF788FD58E00A2201210320FFF782FD52E0314D284609F033F8384850
:400BC00009F030F82F4C204609F09EF8284609F029F8344809F026F8204609F095F8284609F020F8304809F01DF8204609F08CF8284609F017F82D4809F014F8204609F026
:400C000083F8284609F00EF8294809F00BF8204609F07AF8284609F005F8264809F002F8204609F071F8284608F0FCFF224808F0F9FF204609F068F8284608F0F3FF1F48C8
:400C400008F0F0FF204609F05FF8284608F0EAFF1B4808F0E7FF204609F056F80F4BD3F80833C3F30803002B7FF43AAF04220B4BC3F8C82F2DE700BF0C470208FCBF0810C1
:400C8000D8C1081014C00810F0C1081030780208CCC20810E509081000E100E00000664018C2081028C2081034C2081040C208104CC2081058C2081064C2081070C208100D
:400CC0007CC2081010B505F0D5FC06F069F92E4808F0A8FF2D4808F0A5FF2D4809F014F8002406F0EDF8002849D105F0DDFC002005F018FF4FF6FE73984204DCC2B20021DB
:400D00002046FFF7D9FC012005F0F8FEA0B1214B1B7863B3022C2AD80134E4B200221D4B1A70194808F07EFF21461B4808F07AFF174808F0E9FF1AE0022005F0DFFE98B17A
:400D4000144B1B789BB194B1013CE4B20022114B1A700D4808F066FF21460F4808F062FF0B4808F0D1FF02E001220A4B1A70032C00D9032406F002F806F012F9B1E7322043
:400D800004F0F0FDADE700BF88C2081098C2081014C00810C4420208B0C2081010B504462146034800F002FD0028F9D010BD00BF00006640054BD3F80833C3F30803002B90
:400DC000F8D0024BD3F84003704700BF0000664008B518B1094AD062002000E0084858B9084B1B782BB9054801F088FA0122054B1A7008B901F0CEFA08BD00BFC8420208AF
:400E000001001600347802081F4B98422DD00CD840282ED003D8E8B1102828D02FE0802829D0B0F5807F28D029E0184B984228D006D8B0F1204F0DD0154B984212D01EE047
:400E4000144B98420AD00133984209D0023B984215D101E0002070470F4870470F4870470F4870474FF4A0007047074870470D4870470D4870470D487047034870470C487F
:400E800070474FF4A400704706005200010000F0090000A0040000F0010052000200520003005200010050000200500005005200FF00520038B5124B1B6893F83130012BCB
:400EC00004D840F2C3110F4801F0BAF80C4B1D682A6AB5F8B03013442C46D5F8B420D358002B0BDB084B1868FFF78EFF6B6801229A6063689B68002BFBD138BD034838BD33
:400F00007C4203080CC508103C780208020050001A4B186128B102230370FF23437000234380174B1B6893F850202AB300B583B0B3F93830ADF80030002301931149684698
:400F400001F020F8BDF90030002B08DB590903F01F03012202FA03F30B4A42F82130084B1B6893F8513023B102220849012000F0F3FA03B05DF804FB704700BF3C780208A4
:400F80007C420308C147020800E100E07948020808B50248FFF7BCFF08BD00BF507802082DE9F04104460D46174698469DF81860072903D9D921354801F042F837F00F03A9
:400FC00003D0DA21314801F03BF8B8F1010F03D9DB212E4801F034F836F01F0303D0DC212A4801F02DF822680123AB4022EA030308F0010808FA05F843EA08032360244BED
:401000001B6893F87D100B59A8000F22824023EA020207F00F0303FA00F717430F51072D04D94FF422711B4801F00AF836F01F0304D040F28921174801F002F8144B1B68ED
:401040009A69A41AE4095B6924011919032D0DD81959ED001F22AA4021EA020206F01F0606FA05F515431D51BDE8F081043D4A68ED001F23AB4022EA030306F01F0606FACE
:4010800005F51D434D60BDE8F08100BF4CC508107C4203088CC5081038B50B4B1B68D3F8B4301B58002B0DDA0D4604460B0C1B0423B140F2D521054800F0C2FFA9B2616016
:4010C000002038BD024838BD7C420308CCC5081001008A0038B50368002B01DA002300E0094B73B90D460446C2600B0C1B0423B140F2BB21054800F0A3FFA9B2A16000208C
:4011000038BD014838BD00BF01008A00CCC5081038B504460D4619B99921084800F090FF074B1B68D3F8B4301B59002B03DAE3682B60002038BD034838BD00BF0CC60810D0
:401140007C42030801008A00254B1B6893F8313083423AD900293AD00B6813F01F0F38D170B50D4604461E4B1B6893F83130984204D340F2C3111B4800F062FF184B1B6899
:40118000186AB3F8B03004FB0304174E34602A68D2080021686808F0CBF800212046FFF77BFF346825B940F293310E4800F048FF2A4600212046FFF78DFF60B900210A4B0F
:4011C0001868FFF769FF40B970BD084870470748704706487047064870BD054870BD00BF7C420308CCC508105478020803018A0001018A0010B504461346B2B9A9B9124B31
:401200001B6893F83130984204D340F2C3110F4800F016FF0C4B1B681A6AB3F8B03004FB03240B4B1C60002010BD43B149B1084A51609360111D2046FFF786FF10BD054851
:4012400010BD044810BD00BF7C420308CCC508105478020803018A002DE9F0411B4B1B68DC68236883422CD90D464609A0EB4610012303FA00F819B900F04FFF074600E051
:401280000027124B18680368002B01DA002300E00F4B83B9626852F8263018EA030F05D023EA080342F82630002400E0094C0021FFF7F2FE00E0084C25B9384600F031FF15
:4012C00000E0064C2046BDE8F08100BF5478020801008A00020188000301880004018A000B4B1B68DB681A6882420CD94109A0EB4110012202FA00F05B6853F82130184245
:4013000003D004487047044870470448704700BF547802080101880004018A0000018800024B1B680BB9014B18607047607802082DE9F8430446884691461D46089F2C4BE8
:401340001B681BB9B5212B4800F07AFE284B1B682C2000FB04F01C18EEB21E50C5F3072363602D0CA560244B1B6893F831309E4204D340F2C311214800F062FE1E4B1B68CF
:40138000196AB3F8B02006FB02162661666893F832309E4204D340F2DF11184800F050FE154B1B681D6A803605EB46156561A668330C1B0423B14FF4FF71104800F040FEB3
:4013C000330C1B0423B140F2FF110C4800F038FEB3B243EA0646AE60C4F81C90C4F820800023A36117B1B7F90030A381BDE8F883607802084CC608107C420308CCC50810BE
:40140000F0B58FB0044618B95221274800F018FEA369072B03D95621234800F011FEE36A1BB95821204800F00BFE236B1BB959211D4800F005FE07AD04F114060FCE0FC527
:4014400037682F6002AD26460FCE0FC533682B60164B1B68B3F93620079B1344ADF83030089B0D93A26AE16A0CAD00953B460A98FFF75EFF00210091069B0A460598FFF7D4
:4014800057FF216B284600F07DFDBDF93030002B08DB590903F01F03012202FA03F3044A42F821300FB0F0BD4CC608107C42030800E100E0F8B506460F461D4614461AB9EB
:4014C000FD211F4800F0BCFD1E4B1B681BB9FE211B4800F0B5FD1B4B1B682C2101FB063001FB07314B68012202FA03F31B04466802FA06F60269EAB18F69EFB91268002A67
:4015000001DA002200E0104AC2B92288134323600369DC6001238B614D620469330C1B0423B140F2BB21094800F08AFDB2B2A2600020F8BD0648F8BD0648F8BD0548F8BD57
:401540004CC608106078020801008A00CCC5081004028A0007028A00F8B505460F4616460E4B1B6823B94FF4AF710D4800F068FD0A4B1B682C2404FB0534236A23B94FF48E
:40158000B171074800F05CFDE369B34204D9236A43F826700020F8BD0248F8BD607802084CC608100A028A0038B504460D46074B1B6823B94FF4C871054800F041FD034BFF
:4015C0001B682C2202FB0434A56238BD607802084CC6081070B582B000230193044620B940F2D111284800F02BFD236923B94FF4E971254800F024FD636923B940F2D311CF
:40160000214800F01DFD236A23B94FF4EA711E4800F016FD6369DD682A0C20D012041A601B682069194B1B68D3F8B430C358002B15DA01A9FFF76CFD60B9019803681E0CD9
:40164000DBB2E269934206D2226A52F8233013B1984700E0002631462069FFF71DFDADB275B16369ADB21D601B68636A1BB198470023636202E0A36A03B198470023A3614A
:4016800063691B6802B070BD4CC608107C42030810B50446074B1B6823B940F2B111064800F0CEFC034B1B682C2000FB0430FFF791FF10BD607802084CC6081010B5044693
:4016C000104B1B6823B940F22B210F4800F0B8FC0C4B1B682C2202FB0434B4F90C30002B0DDB5A0903F01F03012101FA03F32032064941F82230BFF34F8FBFF36F8F002047
:4017000010BD00BF607802084CC6081000E100E010B504460D4B1B6823B940F24B210C4800F08EFC094B1B682C2202FB0434B4F90C30002B08DB590903F01F03012202FA37
:4017400003F3044A42F82130002010BD607802084CC6081000E100E010B4D0F8003303F00F03072B06D900230DE0D0F84043CC54013300E000239342F7D306E0D0F8404389
:4017800021F8134001339342F8D35DF8044B704710B51446D0F80833C3F308039A4200D31C462246FFF7D8FF204610BD036813F4006F01D0802200E04022D0F80832C3F3E4
:4017C0000803934203D0C0F84012012070470020704700BF10B4D0F8003203F00F03072B06D900230DE0CC5CC0F84042013300E000239342F7D306E031F81340C0F8404206
:4018000001339342F8D35DF8044B704710B51446036813F4006F01D0802200E04022D0F80832C3F30803D31AA34200D81C462246FFF7D0FF204610BD2DE9F84305460C46A7
:40184000036813F4006F02D04FF0800801E04FF04008D5F8007207F00F07A26A012A19D9D4F82490E262561EB9F1000F00D026B940F27351254800F0E3FB324649462846CB
:40188000FFF7C4FFA36A1B1AA362072F00D9400048446062D5F80832C3F30803984533D0A36A012B30D10023A362072F02D8636A1E7801E0636A1E8800F02FFCC5F8406240
:4018C0004FF40073C5F8803FD5F8803F00F029FCD5F8883F23F4007222F0010242F4007623F4EE6323F0030323B140F23641084800F0A6FBC5F8886F236843F0020323605E
:40190000236B0BB101209847BDE8F8838CC60810CCC608102DE9F04105460C46036813F4006F01D0802600E040267608A769D4F81C8017B1B8F1000F04D14FF499613148A6
:4019400000F07EFB424639462846FFF721FF236A03442362E3691B1AE36173BBA368FBB1E3689E4201D8013E00E05E1E2B6813F4006F01D0802300E040239E4204D34FF417
:401980002371214800F05CFBD5F8043323F0FF03F6B21E43C5F804630123C5F8C83F02E00023C5F8C83F636823F001036360236B33B304209847BDE8F081A169D5F80023C0
:4019C00002F00F02072A00D940000844A0619E4216D95C1E2B6813F4006F01D0802300E040239C4204D34FF42371074800F028FBD5F8043323F0FF02E3B21343C5F804335F
:401A0000BDE8F0818CC60810CCC60810002800F0A48170B50546002900F0A18116460C460B78022B03D93F21A24800F009FB637B023BDBB2062B03D940219E4800F000FB35
:401A4000A37B3BB1022B05D0032B03D04121994800F0F6FA94F82130012B03D94221954800F0EEFA94F82830012B03D94321914800F0E6FA2378012B06D86368083B082B5A
:401A800094BF0023012307E0A37F2BB16368013B062B94BF002301231BB14521854800F0CFFAA368053B042B03D94621814800F0C7FA6369FF2B03D947217E4800F0C0FA3C
:401AC000A369FF2B03D948217A4800F0B9FAA37C6BB1237833B9A368092B05D1A37B2BB1012304E0012302E0012300E000231BB14A21704800F0A4FA636B23F4366323F0F2
:401B00000D031BB14C216B4800F09AFAE36B23F4EE6323F003031BB14D21664800F090FA2378022B01D1A37F13B16268013A00E00022237F13B14FF4803100E00021A36807
:401B4000082B02D84FF4006300E000230B4302F00F02134343F000732B60226B2B6813F4006F01D0802300E040239A4203D36221504800F065FAA26B2B6813F4006F01D087
:401B8000802300E040239A4203D36321494800F057FA626A2B6813F4006F01D0802300E040239A4203D36421424800F049FA23781B0603F040732B64637F0BB1402200E0E6
:401BC0000022A37C13B14FF4806300E000231343227C12B14FF4807200E000221343627C12B14FF4007200E000221A43E36A013B1B0403F470231343627B013A02F0070223
:401C00001343A27B120102F030021343AB64237B13B14FF4807200E00022E37B23B92378022B03D1012302E0012300E0002313B14FF4007300E000231A43A368013B03F0E5
:401C40000F031343C5F80033227DA3691B0403F47F031343C5F81033E26AD5F8003303F00F0303339A4201D3102A03D97A21114800F0E6F9E37F23B12378012B03D0002370
:401C800002E0002300E0012313B14FF4807200E00022637B013B03F007031A43A37B1B0103F0300313436B64237B2BB14FF4807203E000BF10C708100022A368013B03F08B
:401CC0000F0313432278012A02D14FF4803200E000221343C5F8003294F83030C5F8043394F8203013B14FF0007200E0002294F82130012B02D14FF0807300E0002313430E
:401D000094F82820012A02D14FF4803200E00022134394F8242013432B6594F83830C5F80432636B23F4926323F002031B051B0DC5F8C83FE36B23F08C035B055B0DC5F874
:401D4000883F76B1002070603060B060F0603062F0623063044B736370BD04487047034870BD002070BD00BFEFCDAB000160AA000B694A69934202D34869181A7047CA6836
:401D80004869101A184470472DE9F04107460D46036813F4006F02D04FF0800801E04FF040084FEA5808D7F80863C6F308062C6926E00134EB689C4200D100246B699C422A
:401DC0000FD12B6B0BB1082098476B699C4208D10023C7F8C83F0CB1013C13E0EC68013C10E0D7F84023D7F8003303F00F03072B02D8AB681A5502E0AB6823F81420013E7E
:401E0000002ED6D12C61EC6829463846FFF7B0FF201A804519D908B1441E00E000243B6813F4006F01D0802300E040239C4204D34FF42371064800F003F9D7F8040320F0CE
:401E4000FF03E0B21843C7F80403BDE8F08100BFCCC6081038B504460D46D0F8003E13F0080F35D0D0F8CC3F13F448730AD04A681A434A60C0F8C03FD0F8C03F0B6B0BB1A7
:401E800010209847D4F8CC3F13F4006F09D06B6843F400636B604FF40063C4F8C03FD4F8C03FD4F8CC3F13F0010F11D0EB6923B129462046FFF72EFD05E0AB681BB129466D
:401EC0002046FFF761FF0123C4F8C03FD4F8C03FD4F8003E13F0040F2ED0D4F88C3F13F4A0630AD02A681A432A60C4F8803FD4F8803F2B6B0BB120209847D4F88C3F13F059
:401F0000010F08D029462046FFF796FC0123C4F8803FD4F8803FD4F88C3F13F4007F0BD00022C4F8882F2B6823F001032B60EA622B6B0BB10220984738BD00BF38B50D4BD8
:401F40009A680D4B9A420FD10D46044621B940F237110A4800F074F804F11003064A52F8230042F8235038BD1030054B53F8200038BD00BF00ED00E00040020850C7081050
:401F80000000081048B338B504460D464368072B03D93221134800F053F8B4F900306268002B08DB5201D2B203F1604303F5614383F8002305E003F00F035201D2B20A4971
:401FC000CA540A4B9A680A4B9A4208D12946B4F90000FFF7B3FF002038BD06487047002038BD00BF50C7081014ED00E000ED00E0004002080100560010B5044605E0084BEB
:40200000186800F081F8A4F50044B4F5004FF6D8044B186800FB04F000F076F810BD00BFA8420208A442020808B5034B1B7800FB03F000F069F808BDA042020801BEFEE756
:4020400038B50D46044C18220146204607F042FFA5610020FFF7F2FFF04C0208FEE700BF08B50268254BDA6142681A6282685A62C2689A620269DA6242691A6382695A637F
:40208000C2699A631E4A916AD963D16A1964516A5964516B9964926BDA64F1EE103A13F0900F27D0026A154B1A65426A5A65826A9A65C26ADA65026B1A66426B5A66826B20
:4020C0009A66C26BDA66026C1A67426C5A67826C9A67C26CDA67026DC3F88020426DC3F88420826DC3F88820C26DC3F88C20026EC3F89020FFF7B2FF08BD00BFF04C0208AB
:4021000000ED00E0000000000230800803D001300238FCD100BF00BF7047EFF3108072B6704780F31088704710B30246C3680BB303680BB330B40579114B03EB85035C68B0
:402140002346002103E0934205D019465B69002BF9D1012000E0002080B124B9084B03EB85056A6000E04A6111610023536105E000207047002070470020704730BC70478B
:402180006478020850B310B402460479164B03EB840359680B4602E0934204D05B69002BFAD1002000E00120D0B18A420ED14B6933B10D4A02EB8404636000221A610FE080
:4021C000094B03EB84040023636009E01A69596951615A6922B11B69136101E0002070475DF8044B704700BF64780208014B1860704700BF7C42030810B5012902D0082914
:4022000029D02EE01A4B1B78012B2CD00320FFF767F8184B984228D0FFF77FFF164B186002200BF0E3F904460BF0EBF9022C05D1032805D0052805D1002404E00F4C02E00F
:40224000002400E00D4C0D4B9C420FD10A4B1868FFF767FF0AE0084B1868FFF762FF002404E0064C02E0054C00E0044C204610BD8442030801018800A0780208FF004200F8
:4022800008B502291CD0082914D001291ED1124B1B78012B1CD0FFF740FF104B586002200BF0A4F9022815D00C4B5868FFF739FF0B4808BD094B5868FFF733FF002008BD85
:4022C000064B5868FFF72DFF054808BD044808BD034808BD002008BD84420308A0780208FF00420010B5044C2046FFF74BFF04F11800FFF747FF10BDA0440208002831D077
:4023000010B5194A9060C36A03B1D3600024174B1C70174B1C70174B1C60174B1C605C609C60DC601C824FF6FF72144B1A8044222146134806F0FCFF07E004EB04129300DC
:402340000F4A1344FF221A640134002CF5D000240C4B1C7000F072F90B4B1C700B4B1C70204610BD0A487047A0780208B4420308B842030814430308BC4203088042030826
:40238000D0420308B542030882420308884203080100160070B59AB0424D15AC28686968AA68EB680FC4286920604C22002102A806F0BEFF3C4B029315AB049342F6101320
:4023C000ADF8143005238DF81630384B9B681B69069341F2960307931B23ADF82030ADF8223003238DF8243004238DF8253006238DF8263010238DF827308DF828308DF859
:4024000029307223ADF84C3001238DF85030284C2046FFF789FE04F11800FFF785FE0BF0E1F808A80BF038F90346002836D1214B03931E4B9B68996B89B10B460DF12A0238
:4024400020311E685D689C68D868166055609460D060103310328B42F3D11B88138002A80BF0E2F80346B0B90122134B1A700023124A1370124A13700C4B9B681A6A009254
:402480009B6ADB88ADF804300923ADF80630684614F070F8034600210A4A116018461AB070BD00BF04C90810993B0810A0780208A0440208844D020884420308904203080D
:4024C000834203081443030818B1034A1061002070470248704700BFA07802080100160008B5044B1B689847034B1B6803B1984708BD00BFC4780208B078020808B510B107
:40250000034A52689047034B1B6803B1984708BDC4780208B078020870B5C0B006460C4615464FF480720849684606F0F6FE05E016F8012B6A401DF80250013C002CF7D10F
:40254000284640B070BD00BF18C9081008B50022FFF7E2FF08BD00BF08B5FFF7DEFD08BD08B5FFF7DEFD08BD08B50120FFF7D0F808BD00BF08B50120FFF7A0F808BD00BF28
:4025800008B5094B58601960012208491046FEF7E3FF034628B9002205490120FEF7DCFF0346184608BD00BFC4780208FD240810E124081038B515460B46024601210020C3
:4025C000FEF778FF044618B129460120FEF7ECFF204638BD704700BF704700BF00207047004870471100160000487047110016000048704711001600004870471100160036
:402600000048704711001600004870471100160000487047110016000048704711001600004870471100160000487047110016000048704711001600704700BF08B500233A
:4026400035E003EBC3014A001C498A5AAAB903EB0312910020311A4A11440022C1F80620C1F80A20C1F80E204A8203EBC3014A0012490A444FF4C051918003EBC3014A0062
:402680000E490A44D2888AB903EB03118A0002F130010B4A0A4400215160118103EBC3014A0006490A4441F6010151810133002BC7D0044802F094F908BD00BFBC4203082F
:4026C000D04203087C430208F8B502284FD82A4B1B78002B4DD1294B1970D0B9284F3C68A36801EB4105AA009D18E668162303FB01F31E44B6882E81A5681544E468E45AB0
:402700006C803C68A5682A44E46823445B8893801CE001281AD11A4F3C68A36801EB4105AA009D18E668162303FB01F31E44B6892E81A5681544E4681C4424896C803C6814
:40274000A5682A44E46823445B8993800D4B18700B4B1B68986801EB41018B0018440FF0BBFB034630B90121034A117002E0064B00E0064B1846F8BD83420308914203086A
:40278000A8780208B542030801001600FF00160008B5074B1B78022B07D10FF0CBFB034620B90321024A117000E0024B184608BD83420308FF00160010B50A4B1B78032B32
:4027C0000DD10FF027FB0446074B5B7813B106480CF002F924B90222024B1A7000E0034C204610BD844203088C420308FF00160030B585B00546002422E0144B33F8143010
:40280000ADF804309DF8053013B9114AD35C00E00023012B13D90023029303930B4B13F814308DF80F3002A810F00CFF38B90622294602A806F062FD08B9012003E0013497
:40284000002CDAD0002005B030BD00BF804203089042030870B504460D46FFF7C9FF002859D1002C59D00022134606E02D49C95C012901D90132D2B20133002BF6D0012A29
:402880004DD0294B1968886805EB4502930018444688264A1680868856808079107388680344DB791371C868162303FB05F52844C389D381CB682B441B8A1382CB682B44C2
:4028C0005B8A5382CB681D44AB8A93820023D3824FF6FF7111831E21154A517004E0E15C124A1A4451710133052BF8D9A2790F4BDA720F480CF050F8044640B90B480FF05D
:402900009BFA044660B903220A4B1A7008E008480CF062F804E0084C02E0084C00E0084C204670BD90420308A8780208944203088C42030884420308FF001600010016001A
:402940000200160070B5044613F02EFE054620BB134B1968086A228902EB82029300143B03445A6812F0007F17D0E67B1B695A68CB69D21A06EB4606B318A28821680948E8
:40298000184406F0CAFCE37B074AD35C012B04D1064A137843F002031370284670BD00BFA8780208B0420308884203088242030830B587B002891A4B1B685B699B889A4213
:4029C00029D1044601AB07C883E807000022ADF81020A289ADF8122040228DF814201846FFF7B0FF054680B923681B7803F002039BB22BB10B4B1B6821460B48984704E076
:402A0000084B1B68214609489847094A137803F0FE03137000E00025284607B030BD00BFA8780208AC7802080500010006000100B44203084288531E9BB20C2B1AD841782E
:402A4000D1B910B40F4B1868046A02EB82029300143B23445A6812F0007F0FD01B695A68C369D31A01EB41011944074B5B5A1380002004E0012070470120704700205DF837
:402A8000044B7047A8780208B042030810B483B0ADF804000023FF2110E003EB031082001F480244126CFF2A07D01E4810F812009DF80420904200D1194601330BB9FF290D
:402AC000EBD0FF2923D11EE002EB02108300144803441B6CFF2B14D10FE0124810F813409DF80400844206D102EB021081000C4801440B641146013300E000230BB9FF296A
:402B0000EBD0013200E000220AB9FF29DCD0FF2901D0002000E0044803B05DF8044B7047D0420308804203080300160070B582B0ADF80400C5B2FF2D1AD122E004EB041322
:402B4000244A02EB83031A6C234B13F812309D420CD104EB04161F4B03EB860644220021304606F0E5FBFF2333642146013401E00024FF210CB9FF29E0D0FF2914D0002074
:402B800013E044220021134806F0D2FB002307E003EB03110F4A02EB8102FF2111640133002BF5D0002000E00C4800230EE00A4A12F813109DF80420914206D1064AFF2136
:402BC00002F8131002EB430251700133002BEED002B070BDD0420308804203080700160082B0ADF80400012000230EE003EB03118A0008490A44116C074A12F811109DF8FC
:402C00000420914200D1184601330BB90128EDD002B07047D04203088042030830B587B0ADF80400C0F3072010B9284B1B5C00E00023022B01D0072B17D10198FFF726FF1C
:402C400005460198FFF7CCFF044600220AE002EB420104EBC4035B0003EB410300201C4958500132022AF2D900E01A4D5DBBBDF80430ADF8143004EB0413174A02EB830384
:402C800001225A874FF6FF729A87D3F83A000490FFF7D4FC04A811F0E5FE054698B9BDF804301B0A03D10321084AD15405E023B940F286310948FFF7C3F904EB041401225A
:402CC000054B03F82420284607B030BD90420308BC420308FF001600D042030818CA081070B504460088FFF77BFF237E012B37D100EB001293001B4A13445A6802EB4202A6
:402D0000510000EBC00253000B44174A13449A8841F601039A4223D1228942F605239A4219D100EB001293000E4A1344DB8E6BB9E688114603011D18AA0015460A44D686C4
:402D400022792B460B4483F8342004E0074B1B68214607489847074A137803F0FE03137070BD00BFD0420308BC420308AC7802080D000100B442030810B504460088FFF7AC
:402D80002FFF00EB00129300114A13445B68012B1DD1A28842F602139A4213D100EB001293000B4A13441B8F3BB9628800EB0010830007490B441A8704E0064B1B682146EE
:402DC00005489847054A137803F0FE03137010BDD0420308AC7802080E000100B442030810B504460068FFF7FBFE00EB00129300174A13445B68012B29D1A3683BB102019D
:402E000002449300124A13449A6801329A6000EB001293000E4A13449B689BB90201024493000B4A1344DA8E013262805A6802EB4202510000EBC00043000B44054A134415
:402E40005B88A380044A137803F0FE03137010BDD0420308BC420308B442030810B50446C068FFF7BDFE90B900EB00139A00084B1A44D28E23899A4209D1064B1B68214691
:402E800005489847054A137803F0FE03137010BDD0420308AC78020807000100B442030810B504460088FFF79BFE237E012B40F0BE8000EB001293005D4A13445B68002B97
:402EC00040F0B580238942F60322934257D008D842F60122934228D03CD8B3F5285F0FD0A0E042F6A622934273D042F6C922934200F0848042F60422934240F0938053E011
:402F000000EB001293004A4A1344DB8C3BB9E28800EB0010830046490B44DA8482E0454B1B682146444898477CE000EB001293003F4A13441B8D3BB9E28800EB0010830000
:402F40003B490B441A856DE03A4B1B6821463A48984767E000EB00129300354A13445B8D3BB9E28800EB0010830031490B445A8558E0304B1B6821462F48984752E000EB99
:402F8000001293002A4A13449B8D3BB9E28800EB0010830026490B449A8543E0254B1B682146254898473DE000EB00129300204A1344DB8D3BB9E28800EB001083001C49E0
:402FC0000B44DA852EE01B4B1B6821461A48984728E000EB00129300154A13441B8E3BB9E28800EB0010830011490B441A8619E0104B1B6821461048984713E000EB001203
:4030000093000B4A13445B8E3BB9E28800EB0010830007490B445A8604E0064B1B68214605489847054A137803F0FE03137010BDD0420308AC7802080D000100B44203084A
:4030400030B583B004460378032B4FD14378807843EA0020FFF7C4FD0546002846D100EB00129300294AD35C002B3FD0B4F80130ADF800309DF8013013B9254AD35C00E0B6
:403080000023033B032B1AD8DFE803F002080E14204B1B68611C2048984710E01D4B1B68611C1E4898470AE01A4B1B68611C1C48984704E0174B1B68611C1A48984705EB51
:4030C0000515AB000021114AD154B4F80130ADF804309DF805301BB902210D4AD15405E023B940F286311048FEF7AAFF2378042B0AD10E4B1A78E3789A4205D10C4B1B7850
:40310000032B01D1FFF758FB03B030BDD042030890420308AC78020808000100090001000A0001000B00010018CA08108C4203088442030800B583B00023ADF804308389C0
:40314000ADF800300389ADF8023012238DF80430084B1B7813F0010F09D129B18DF80510684612F04BFB02E0C06812F067FB03B05DF804FBB442030810B4044688B100230C
:40318000194606E0104A52F82320944200D1012101330D4A1279934206D20029F2D0002003E00021094800E0002050B949B9064B1B792BB9044A42F823400133137100E0A0
:4031C00003485DF8044B704718430308010016000300160070B506460D460020044606E0084B53F824302946304698470134054B1B799C4204D2044B1B7813F0010FEFD147
:4032000070BD00BF18430308B442030883792BB100207047C25C32B9013300E00023052BF8D9002070470120704700BF2DE9F04385B0054600230193029303930389ADF801
:4032400004308068FFF7CCFC04462B89ADF80030C3F3072313B9574AD35C00E00023032B40F0A480002C40F0A18004EB0413524A12F82330002B00F09980AF88062F02D0B2
:40328000142F40F08D80B5F8068000267FE04B4A137843F0010313702B689A190292995B04EB0413444A02EB83035B8F99425FD304EB041302EB83039B8F99425AD8062F4B
:4032C0004DD143E001238DF80C3009EB490304EBC402520002EB4303394A13449888029B9A8890422FD109EB490004EBC40E4FEA4E0E0EEB4000DFF8C8E03EF8000058B911
:4033000009EB490204EBC401490001EB420219684EF80210012116E0B9F1010F0DD809F1010303EB430004EBC4035B0003EB4003234803449B889A4205D0224B1B6801A900
:4033400021489847012109F1010902E04FF000094946B9F1020F0ED80029B3D00BE002238DF80C3001A91948FFF734FF002102E0002100E0002149B9104B1B7813F0010FAC
:4033800004D0104B1B6801A9114898473E444645FFF47DAF094A137803F0FE03137005E0084B1B6805F108010A48984705B0BDE8F08300BF90420308D0420308B442030886
:4033C000BC420308AC7802080C0001002F01010012000100080001002DE9F04F8BB007468068FFF7FDFB002840F0F280064600EB0013794A12F82330002B00F0E980BD888C
:40340000B7F806903C683B89ADF80430C3F3072313B9724AD35C00E00023052B4DD13B89ADF80C30002640E06D4A137843F0010313702378627843EA0223ADF80E30A37872
:403440008DF81030E378227943EA0223ADF81230671D152D0DD102238DF8243005AF234653F8050F59689A68DB680FC704F115070BE0072D09D101238DF824306379A27960
:4034800043EA0223ADF81430E71D152D01D0072D09D103A8FFF704FD03A8FFF721FC03A95048FFF797FE2E443C464E45BCD34C4A137803F0FE0313708AE03B89ADF80830C4
:4034C000C3F3072313B9454AD35C00E00023042B7ED13B89ADF80C304FF0000BD8466DE03F4A137843F0010313702378627843EA0223ADF80E30A378E27843EA0223ADF8A3
:4035000010302379627943EA0223ADF8123004F1060A062D1AD13B89ADF8003002238DF82430684611F03EFB06EB06142A4B03EB84040C340DF10C0EBEE80F000FC49EE89D
:40354000070003C422804FF0010B31E0082D2FD101238DF82430A379E07943EA0020ADF8140004F1080A002120E001EB410306EBC602520002EB43031B4A13449B88834298
:4035800013D101EB410306EBC602520002EB4303154AD35A4BB901EB410106EBC6035B0003EB41010498505002E001310229DCD903A90E48FFF70EFEA8445446C84502D21B
:4035C000BBF1000F8CD0064A137803F0FE0313700BB0BDE8F08F00BFD042030890420308B442030831010100BC42030830010100F0B589B004468068FFF7F2FA0023ADF8A1
:403600000A302389ADF80430C3F3072313B9284AD35C00E00023062B48D1002846D100EB0010244B13F82030002B3FD0A688A37A8DF81C302289ADF80820012B01D1042736
:4036400000E012272468002529E01B4A137843F0010313702378627843EA0223ADF80A309DF81C30022B0BD10DF10C0E234653F8020F59689A68DB68AEE80F00123406E089
:40368000A378E27843EA0223ADF80C30043402A8FFF772FB02A90948FFF79CFD3D44B542D3D3054A137803F0FE03137009B0F0BD90420308D0420308B4420308320101008E
:4036C00030B589B0ADF804000D460198FFF788FA0446002305930693BDF80430ADF814300795464A137843F0010313700023ADF81630ADF8183045B904EB0413404A02EB48
:40370000830300225A609A60012505A8FFF768FB05A93C48FFF75EFDBDF8163013B1BDF818305BB904EB0413354A02EB83035A6801325A6000229A60079201E001230793B3
:40374000BDF8161004EB04132D4A02EB83035B8F99420DD904EB0412294800EB8202928F914205D8BDF81820934201D8914207D904EB0413224A02EB83035B68022BB0D971
:4037800004EB04131E4A02EB83035B68022B16D8DDF816000390BDF80430ADF8103003A811F0F4F838B3184B1B6801A91748984704EB0414A3000021114AD1541BE0BDF8B2
:4037C0000430ADF80C30C3F307231BB90721104AD15405E023B940F286310E48FEF730FC094B1B6801A90C48984704EB0414A4000022034B1A5509B030BD00BFB442030894
:40380000D042030833010100AC7802080B0001009042030818CA08101300010030B589B0ADF804000D460198FFF7DAF9044645B100EB00133E4A02EB83035A6801325A60AD
:403840000EE000EB00133A4A02EB830300225A6006E004EB0412364901EB82020133536004EB0413324A02EB83035B68022B17D803EB430204EBC401490001EB42022D491E
:40388000885A04EB04122A4901EB8202528F9042DFD304EB041201EB8202928F9042D8D8022B23D800220392049205920692079203EB430304EBC402520002EB43031D4AAF
:4038C000D0580290BDF80430ADF81D3002A811F081F850B3184B1B6801A91848984704EB0414A3000021124AD1541EE0144B1B7813F0100F04D0104B1B6801A9114898474B
:40390000BDF80430ADF80830C3F307231BB906210D4AD15405E023B940F286310B48FEF78FFB00210198FFF7CBFE09B030BD00BFD0420308BC420308AC7802080A000100B1
:40394000B4420308110001009042030818CA081030B589B0ADF804000D460198FFF740F9044645B100EB00133E4A02EB83035A6801325A600FE000EB00133A4A02EB8303AF
:4039800000225A60DA8106E004EB0412354901EB82020133536004EB0413324A02EB83035B68022B17D803EB430204EBC401490001EB42022C49885A04EB0412294901EB22
:4039C0008202528F9042DFD304EB041201EB8202928F9042D8D8022B23D800220392049205920692079203EB430304EBC402520002EB43031C4AD0580290BDF80430ADF86D
:403A00001D3002A811F076F850B3184B1B6801A91748984704EB0414A3000021114AD1541EE0144B1B7813F0100F04D00F4B1B6801A911489847BDF80430ADF80830C3F3E3
:403A400007231BB905210D4AD15405E023B940F286310B48FEF7F4FA00210198FFF7DEFE09B030BDD0420308BC420308AC78020809000100B4420308100001009042030847
:403A800018CA081000B585B0ADF804000198FFF7A7F800285AD100EB00132E4A12F82330002B53D0BDF80430ADF80830C3F3072313B9294AD35C00E00023033B032B45D837
:403AC000DFE803F00227313B244B1B7813F0100F04D0234B1B6801A922489847BDF80430ADF80C30C3F307231BB904211A4AD15405E023B940F286311B48FEF7A1FA0021B1
:403B00000198FFF725FF154A137803F0FE0313701CE001210198FFF71BFF104A137803F0FE03137012E001210198FFF777FE0B4A137803F0FE03137008E001210198FFF746
:403B4000BFFD064A137803F0FE03137005B05DF804FB00BFD042030890420308B4420308AC7802080F00010018CA081010B504460088FFF735F858B900EB00139A00054B89
:403B80009B5C2BB163790A2B02D12088FFF77AFF10BD00BFD042030870B58EB004460D46CA4A137843F00103137045F20303984200F0958371D8B0F5804F00F09A8336D83E
:403BC00041F20403984200F05A8417D841F20103984200F0528105D8B0F5805F00F0C78000F052BC41F20203984200F04E8141F20303984200F0998100F046BC43F2010371
:403C0000984200F0FE8006D842F20403984200F00A8100F039BC43F21203984200F0F18043F21903984200F09C8000F02DBC44F20B03984200F04F8218D844F2070398426B
:403C400000F0FE8106D844F20403984200F0808100F01ABC44F20803984200F0388244F20A03984200F0E98100F00EBCB0F5A04F00F0A18306D844F21003984200F0E08139
:403C800000F002BC45F20103984200F0628245F20203984200F0F182F6E345F20F03984200F062832ED845F20A03984200F0758316D845F20603984200F06B8305D845F21D
:403CC0000503984200F06183DEE345F20703984200F06D8345F20903984200F08A83D3E345F20C03984200F00783C0F0858345F20D03984200F0838345F20E03984200F007
:403D00003083C1E345F21403984200F0338311D845F21103984200F07583C0F0288345F21203984200F04F8345F21303984200F04D83A9E345F21703984200F01E8305D819
:403D400045F21603984200F060839DE345F21803984200F0258346F20103984200F0F68192E35A4A137803F0FE0313708CE3584B1E683046FFF74AFA18B130460FF04CF8A0
:403D80002DE0544B1A68936A1B791BB34FF0B05191F8043603F03F0391F8050600F03F0043EA801391F8030600F01F0043EA003391F8001601F07F0143EA4143126B1370F9
:403DC000444A1168096BC3F3072048701268126B1B0C93703F4B1B68186B0FF01DF83D4B1B68986A02300FF045FC3B4A07AB1068516803C307A80FF033F80222374B1A7038
:403E000042E30023354A1370354A1370354A13700A20FEF7F1F843F212039C4240F03483FEF760FA30E3304B1B6813F0010F40F02B830023ADF81C308DF81E30254E3368D7
:403E40009B6A93F900308DF81C3007A80FF022F833689B6A93F901308DF81C3001238DF81D30FF238DF81E3007A80FF013F81E4A136843F00103136006E30846FFF7E0F884
:403E800029462046FFF7A6F9FEE24978174B1B88ADF81C30002330E0154A32F81320ADF810209DF8112012B91248825C00E00022012A21D90E4A12F8132091421CD10C4AA2
:403EC00032F81330ADF81C3019E000BFB4420308D0440208A878020850CA08108442030883420308DC7802081443030858CA081080420308904203080133002BCCD09DF85C
:403F00001D30FF2B05D104D140F2CA31A948FEF797F8BDF81C30ADF82830ADF82430C3F307232978A44AD154AEE20B78002B40F0AB820B7A33B9A14B0022DA809A80A04ABA
:403F40001A604B609F4A137803F0FE0313709BE249799D4B1B88ADF81C30002319E09B4A32F81320ADF814209DF8152012B99848825C00E00022012A0AD9944A12F81320C1
:403F8000914205D1914A32F81330ADF81C3002E00133002BE3D09DF81D30FF2B05D104D140F2CA318348FEF74BF8BDF81C30ADF82C30ADF81C30C3F307236978854AD1549C
:403FC000EB78002B40F0608269797F4B1B88ADF81C30002319E07D4A32F81320ADF818209DF8192012B97A48825C00E00022012A0AD9764A12F81320914205D1734A32F8EE
:404000001330ADF81C3002E00133002BE3D09DF81D30FF2B05D104D140F2CA316548FEF70FF8BDF81C30ADF83030ADF81C30C3F307230121684AD15426E2FFF7CBF823E235
:40404000AB7E002B3FD1654B5B7813B163480AF0C3FCE97E5C4B1B88ADF81830002319E05A4A32F81320ADF81C209DF81D2012B95748825C00E00022012A0AD9534A12F8C4
:404080001320914205D1514A32F81330ADF8183002E00133002BE3D09DF81930FF2B05D104D140F2CA314348FDF7CAFFBDF81830ADF83430ADF81830C3F30723FF2B02D044
:4040C000297E474AD1540222464B1A70DCE10222444B1A70D8E1FFF77DF83A4B1B7813F0010F00F0D181404B1B78012B03D102223D4B1A70C8E1032B03D100223A4B1A7069
:40410000C2E1022B40F0C0810022374B1A70374B1B68DA68364B1978162303FB01239A79002A00F0B1819B88002B00F0AD81314B1B78002B40F0A8810120FEF7C5FA002801
:4041400040F0A2810122284B1A709DE1FFF742F89AE10B88ADF800309DF8013013B91C4AD35C00E00023012B13D129786B78174A12F8132091420CD11BB90721144AD154B0
:4041800045E0002B43D140F286310A48FDF758FF3DE02B78687843EA0020FEF7C7FC2B88ADF804309DF8053033BB0221084AD15428E000BF18CA0810B8420308E478020866
:4041C00094760208B442030858CA0810804203089042030888420308DC7802088C420308E07802088442030883420308A878020891420308B542030823B940F28631AB48F5
:40420000FDF71EFF6A782988A94B23F812106B780021A84AD15403EB4302A74E9119A74B1B6818692B7803EB430303F584531033034433F8060F9B7890538B70687800EB9A
:40424000400002213044FEF781F96B7803EB430333449B7898420BD0994B1B680021994898476B7803EB4303981900229A53827029462046FEF7AEFF06E10B88ADF80830C3
:404280009DF8093013B9904AD25C00E00022072A0BD11BB901218C4AD15417E0B3B940F286318248FDF7CCFE10E01BB90021864AD15405E023B940F286317C48FDF7C0FE8E
:4042C0002B78687843EA0020FEF730FC6B7800217E4AD15429462046FEF77CFFD4E00B88ADF81C301723ADF81E3007A811F092FACAE0FEF76FFFC7E00846FEF759FB014664
:4043000020B929462046FEF765FF01462846FEF711FF6F4B1B7813F0110F04D0684B1B682946204698472A89694B1B7813F0010F11D0531E9BB20C2B0DD912238DF82030BB
:40434000ADF81E20AB89ADF81C3001238DF8213007A811F053FA5E4A137803F0FE03137092E0FEF737FF8FE0FEF734FF8CE0FEF731FF89E0FEF72EFF86E00846FEF75AFB46
:4043800029462046FEF726FF7EE00846FEF74EFF7AE00846FFF720F876E0FEF71BFF73E00B78487843EA0020FFF76CFB6CE00846FFF71EF968E00846FFF7D8FB29462046EA
:4043C000FEF708FF60E0FEF705FF5DE00846FEF745FD29462046FEF7FDFE3D4B1B7813F0010F51D1AB890EA820F81C3D10F0C2FA4AE0FEF7EFFE47E0FEF7ECFE44E0FEF76F
:40440000E9FE41E0FEF7E6FE3EE00B78487843EA0020FEF7E5FB06462B88ADF80C309DF80D3013B9284AD35C00E00023042B2BD156BB06EB0613274A12F8233023B306EB1B
:404440000612244B03EB82031B8AADF81C302B88ADF81E3007A810F097FB50B1184B1B6829461D489847442303FB06F60022194B9A55174A137803F0FE03137004E0174AAD
:40448000137843F001031370114B1B7813F0110F09D00F4A137803F0FE031370084B1B682946204698470EB070BD00BF18CA081080420308B8420308B0420308A87802084A
:4044C000AC7802080400010090420308DC780208B4420308D04203080900010082420308F8B504460068FEF77BFB00EB00129300234A13445D68022D40D1023DA3683BB1FE
:404500000201024493001E4A13449A6801329A6000271EE0D9681301194491F80AE0BEF1000F0FD031F8102001326280154A126812681644F268134403EB40035B88A380C7
:40454000012706E000EB00118B000D490B4401329A6000EB00129300094A13449A68094B1B681B682E013344597A8A4201D2002FD0D0054A137803F0FE031370F8BD00BF92
:40458000D0420308F0780208B44203082DE9F04F83B082460088FEF723FB00EB001293004E4A13445B68022B40F095800746A3F1020B4B4B03EB80035A6872B1484B03EB71
:4045C00080039B689B4503D1BAF80230013B1380434B03EB870300225A600025019553E09AF81860022E0FD1E36803EB05131A7A022A0CD110220AF10801586804F07EFE90
:4046000040B14FF0000907E04FF0000904E04FF0000901E04FF00109012E0ED1E36803EB05131A7A012A08D102220AF10801586804F064FE08B94FF00109B9F1000F22D0D2
:40464000E2682B011A4432F81710E1B9BAF8061022F81710224A106801684144C96819449AF8044039444C7201688844D8F80C100B4403EB4703023302EB87025360C2F841
:4046800008B0012301930135154B1B681C684FEA0B184444637A9D4202D2019B002B9FD00F4B03EB8703596881B107EB071293000A4A13445A6802EB4202500007EBC70732
:4046C0007B000344074A13445B880B80064A137803F0FE03137003B0BDE8F08FD0420308F0780208BC420308B44203082DE9F04F83B080460088FEF773FA00EB0012930058
:404700002F4A13445B68022B57D18246A3F1020900EB001293002A4A1344D3F808B0002301931D463BE098F81460022E10D1E16805EB450293000B441A7A022A0AD11022D3
:4047400008F10401586804F0D9FD28B1002704E0002702E0002700E00127012E0FD1E16805EB450293000B441A7A012A07D1022208F10401586804F0C1FD00B901276FB1F8
:40478000E16805EB450293000B4433F81A202AB9B8F8022023F81A20012301930135094B1B681B6803EB0913DC6804EB0B14A37A9D4202D2019B002BB5D003B0BDE8F08F91
:4047C000D0420308F07802082DE9F04105460068FEF706FA07460024264644E0244B1B681B6803EB04131A7A022A3BD1D5F80480102208F10401586804F080FD90BBA31C38
:4048000003EB4302510007EBC70042000A4419498A5A12BBB8F8008008465E00F2184FEA420EFA0002EB070C4FEA4C018C46714420F801806968B1F802E0334459006346B4
:404840000B440344A3F802E03A013A4493000A4A13445A6801325A600126084A137803F0FE03137001340CB9002EB7D0BDE8F081F0780208BC420308D0420308B4420308A6
:4048800070B590B00C46B0F5803F1BD3A0F58030A0F22F10042800F29380DFE800F00391070B0F000846FFF78FFF89E00846FFF76DFE85E00846FFF719FF81E00846FFF7EC
:4048C0000FFE7DE080B245F20903984203D045F20B03984274D12389ADF800300098FEF77FF90546BDF80030ADF80430C3F3072313B9354AD35C00E00023042B60D1002D4F
:404900005ED105EB0513314A02EB8303DB89002B56D0002302930493BDF80030ADF8083005AB039305EB051602EB860633690593A288216806A804F0F0FC02A8FFF744FF6A
:40494000F289013292B2ADF81420736803EB430105EBC5035B0003EB41031D490B445B88ADF816309A421BD800230B930C930D930E930F93059B0A932389ADF83D300AA8D8
:4049800010F0B8F880B1134B1B6804F108011248984705EB05139B0000210C4AD15403E00121A068FEF7D4FF0C4A137803F0FE03137005EB0515054B03EB85050023EB8131
:4049C000002010B070BD00BF90420308D0420308BC420308AC78020809000100B44203082DE9F041002873D03C4A10603C48FEF7C3FB8046002168E00EF1020707EB47035D
:404A00005A0001EBC10463001344364AD35A4BB332E0DA6835012A44002322F811300AE0D06803EB430C4FEA8C0202444FF0000C22F811C00133294A126812682244D268B3
:404A40002A4492F80AC06345EAD307EB47035A0001EBC10463001344224A134400229A80013600E000261D4B1B681B684FEA0E1423445A7A9642CCD3184B1B681B6803EB00
:404A80000E131A7A012A0CD15B681D8807EB47077A0001EBC10463001344124A13449D800AE007EB47077A0001EBC104630013440C4A134400229A800EF1010E01E04FF0B6
:404AC000000EBEF1000F97D001310029F7D001E0DFF814804046BDE8F08100BFF078020881480810BC4203080100160000F1080343604FF0FF328260C36003610023036049
:404B0000704700BF00230361704700BF43684B609A688A609A68516099600861036801330360704730B40D68B5F1FF3F01D1026907E000F1080200E01A4653681C68A54230
:404B4000FAD253684B6099608A605160086103680133036030BC704703694268816891608268416851605A68904201D182685A60002202611A68013A1A601868704700BF71
:404B800010B5044601F096FAA26BE36B9A4201D1012400E0002401F0AFFA204610BD00BF10B5044601F086FAA36B0BB9012400E0002401F0A1FA204610BD00BF70B504463F
:404BC0001646856B026CFAB166B9806804F0A5FBA268236C1344A3606268934214D32368A36011E0C06804F098FB236C5B42E2681A44E26021688A4202D262681344E3606B
:404C0000022E01D105B1013D0135A563002070BD026C72B110B50346C4681444C4604068844201D31868D8600846D96804F075FB10BD704738B5054601F03CFA95F84540CA
:404C400064B20AE06B6A53B105F1240000F04EFF08B100F0D9FF013C64B2002CF2DCFF2385F8453001F048FA01F024FA95F8444064B20AE02B6953B105F1100000F036FF0C
:404C800008B100F0C1FF013C64B2002CF2DCFF2385F8443001F030FA38BD00BF38B540B94FF0200383F31188BFF36F8FBFF34F8FFEE704460D4601F0FDF92168E26B236CF7
:404CC00003FB021060600020A063A160013A02FB0313E360FF2384F8443084F845307DB92369ABB104F1100000F000FF80B14FF08052094B1A60BFF34F8FBFF36F8F07E0E3
:404D000004F11000FFF7F2FE04F12400FFF7EEFE01F0F2F9012038BD04ED00E010B5029B0C4609B91B6000E01A60D8631C6401211846FFF7B3FF10BD40B94FF0200383F3FE
:404D40001188BFF36F8FBFF34F8FFEE7F0B583B0034611B101FB00F000E000201D4617460C46483001F04EFB064638B100903B4600F1480221462846FFF7D0FF304603B09E
:404D8000F0BD00BFF0B585B0019240B94FF0200383F31188BFF36F8FBFF34F8FFEE7044619B9026C1AB9012202E0012200E0002242B94FF0200383F31188BFF36F8FBFF336
:404DC0004F8FFEE7022B03D1E26B012A02D102E0012200E0002242B94FF0200383F31188BFF36F8FBFF34F8FFEE71D460E4600F013FF18B9019B1BB9012302E0012300E008
:404E0000002343B94FF0200383F31188BFF36F8FBFF34F8FFEE7002701F04CF9A26BE36B9A4201D3022D21D12A4631462046FFF7C5FE636A6BB104F1240000F057FE88B1AE
:404E40004FF08052324B1A60BFF34F8FBFF36F8F08E038B14FF080522D4B1A60BFF34F8FBFF36F8F01F048F901204EE0019B1BB901F042F9002048E01FB902A800F07AFE87
:404E8000012701F039F900F067FC01F013F994F844305BB2B3F1FF3F02D1002384F8443094F845305BB2B3F1FF3F02D1002384F8453001F021F901A902A800F065FEF0B950
:404EC0002046FFF75DFEA0B1019904F1100000F0D5FD2046FFF7AEFE00F0CCFC00289BD14FF080520A4B1A60BFF34F8FBFF36F8F92E72046FFF79EFE00F0BCFC8CE72046E3
:404F0000FFF798FE00F0B6FC002005B0F0BD00BF04ED00E02DE9F84340B94FF0200383F31188BFF36F8FBFF34F8FFEE7044619B9006C18B9012002E0012000E0002040B9DB
:404F40004FF0200383F31188BFF36F8FBFF34F8FFEE7022B03D1E06B012802D102E0012000E0002040B94FF0200383F31188BFF36F8FBFF34F8FFEE71F469046894601F0C6
:404F8000ABF9EFF311864FF0200383F31188BFF36F8FBFF34F8FA26BE36B9A4201D3022F1ED194F845506DB23A4649462046FFF705FEB5F1FF3F0DD1636A9BB104F1240056
:404FC00000F094FD80B1B8F1000F0FD00120C8F800000CE06B1C5BB284F84530012006E0002004E0012002E0012000E0012086F31188BDE8F88300BF40B94FF0200383F324
:405000001188BFF36F8FBFF34F8FFEE770B50446036C43B14FF0200383F31188BFF36F8FBFF34F8FFEE703681BB943681BB9012302E0012300E0002343B94FF0200383F38B
:405040001188BFF36F8FBFF34F8FFEE70E4601F043F9EFF311854FF0200383F31188BFF36F8FBFF34F8FA26BE36B9A4218D294F845305BB20132A263B3F1FF3F0AD1636AD7
:4050800083B104F1240000F031FD68B176B1012030600CE001335BB284F84530012006E0002004E0012002E0012000E0012085F3118870BDF0B585B0019240B94FF0200340
:4050C00083F31188BFF36F8FBFF34F8FFEE7044619B9036C1BB9012302E0012300E0002343B94FF0200383F31188BFF36F8FBFF34F8FFEE70E4600F08FFD18B9019B1BB94D
:40510000012302E0012300E0002343B94FF0200383F31188BFF36F8FBFF34F8FFEE7002700F0C8FFA56BC5B131462046FFF770FD013DA563236963B104F1100000F0D6FC5F
:4051400038B14FF08052304B1A60BFF34F8FBFF36F8F00F0D1FF012053E0019B1BB900F0CBFF00204DE01FB902A800F003FD012700F0C2FF00F0F0FA00F09CFF94F84430C5
:405180005BB2B3F1FF3F02D1002384F8443094F845305BB2B3F1FF3F02D1002384F8453000F0AAFF01A902A800F0EEFCF0B92046FFF7F6FCA0B1019904F1240000F05EFC37
:4051C0002046FFF737FD00F055FB0028A8D14FF080520D4B1A60BFF34F8FBFF36F8F9FE72046FFF727FD00F045FB99E72046FFF721FD00F03FFB2046FFF7D2FC00288FD010
:40520000002005B0F0BD00BF04ED00E030B585B0019140B94FF0200383F31188BFF36F8FBFF34F8FFEE70446036C43B14FF0200383F31188BFF36F8FBFF34F8FFEE700F0EE
:40524000EBFC18B9019B1BB9012302E0012300E0002343B94FF0200383F31188BFF36F8FBFF34F8FFEE7002500F024FFA36BA3B1013BA363236963B104F1100000F036FCA4
:4052800038B14FF08052304B1A60BFF34F8FBFF36F8F00F031FF012053E0019B1BB900F02BFF00204DE01DB902A800F063FC012500F022FF00F050FA00F0FCFE94F844304A
:4052C0005BB2B3F1FF3F02D1002384F8443094F845305BB2B3F1FF3F02D1002384F8453000F00AFF01A902A800F04EFCF0B92046FFF756FCA0B1019904F1240000F0BEFB77
:405300002046FFF797FC00F0B5FA0028ACD14FF080520D4B1A60BFF34F8FBFF36F8FA3E72046FFF787FC00F0A5FA9DE72046FFF781FC00F09FFA2046FFF732FC002893D024
:40534000002005B030BD00BF04ED00E000230BE0074A52F8332032B9054A42F8331002EBC303586070470133092BF1D9704700BF2043030870B504460D46164600F09AFE4A
:4053800094F844305BB2B3F1FF3F02D1002384F8443094F845305BB2B3F1FF3F02D1002384F8453000F0A8FEA36B2BB93246294604F1240000F07CFB2046FFF73BFC70BD92
:4053C000094B9B6A1B680BB9012300E0002323B14FF0FF32044BDA627047034B9A6AD268D2685268DA627047FC78020810B50446006B01F08DF8204601F08AF810BD00BF1A
:405400002DE9F0478246894615469846089F099E0A9C9200A521206B03F08AFF236B05F18042013A03EB820525F00705002308E019F80310E21882F8341019F8032012B107
:4054400001330F2BF4D9002384F84330062F00D90627E762201DFFF755FB04F11800FFF751FB2461C7F10703A3616462002306E003F1100204EB8202002151600133042BC1
:40548000F6D90023A36584F85C3042465146284600F0E4FD206006B13460BDE8F08700BF70B5002407E004EB8402930010481844FFF71CFB0134062CF5D90E4C04F1BC06A7
:4054C0003046FFF713FB04F1D0052846FFF70EFB04F11400FFF70AFB04F1E400FFF706FB2046FFF703FBA662C4F8F85070BD00BF2C790208FC78020838B5044600F0DAFDAA
:40550000264BD3F8FC200132C3F8FC20D3F800314BB9224BC3F80041D3F8FC30012B10D1FFF7BEFF0DE01D4BD3F804314BB91B4BD3F80031DA6AE36A9A4202D8174BC3F8CA
:405540000041164AD2F808310133C2F80831E36AD2F80C21934202D9104AC2F80C310F4D05F1300003EB83039A00211D1044FFF7CDFA00F0C1FDD5F804316BB1D5F8003172
:40558000DA6AE36A9A4207D24FF08052044B1A60BFF34F8FBFF36F8F38BD00BFFC78020804ED00E038B517E000F084FD0D4CD4F8F030DD68281DFFF7CFFAD4F8FC30013B71
:4055C000C4F8FC30D4F81031013BC4F8103100F093FD2846FFF70AFF024BD3F81031002BE2D138BDFC78020808B5FFF7DBFF064B1B6B012BF9D94FF08052044B1A60BFF3F8
:405600004F8FBFF36F8FF0E7FC78020804ED00E070B504460E46174BD3F81451D3F800010430FFF799FAB4F1FF3F07D136B11148D0F800110431FFF769FA70BD2C440D4B81
:40564000D3F800315C60A54208D90A4BD3F8F800D3F800110431FFF765FA70BD054DA86AD5F800110431FFF75DFAEB6A9C4200D2EC6270BDFC7802082DE9F04385B0064673
:405680000F4615469846900000F0BCFE60B18146602000F0B7FE044610B1C0F8309004E0484600F035FF00E000248CB10023039302940D9B01930C9B009343462A4639468E
:4056C0003046FFF79DFE2046FFF716FF012001E04FF0FF3005B0BDE8F08300BF00B583B0194B019300230093802218491848FFF7C3FF012801D100F0F5FA012814D14FF05E
:40570000200383F31188BFF36F8FBFF34F8F114B4FF0FF32DA620122C3F804210022C3F8142100F069FD0BE0B0F1FF3F08D14FF0200383F31188BFF36F8FBFF34F8FFEE74B
:4057400003B05DF804FB00BF187A02085CCA0810E9550810FC780208034AD2F818310133C2F81831704700BFFC780208014BD3F814017047FC7802082DE9F0413C4BD3F830
:405780001831002B65D13A4BD3F814410134C3F81441CCB99B6A1B6843B14FF0200383F31188BFF36F8FBFF34F8FFEE7304B9A6AD3F8F8109962C3F8F820D3F8202101325F
:4057C000C3F82021FFF7FCFD294BDB6A9C4203D2002645E0012600E00026254B9B6A1B680BB9012300E0002323B14FF0FF32204BDA6235E01E4B9B6ADB68DD686B689C4250
:4058000002D21B4AD3622BE005F104084046FFF7A3F9AB6A1BB105F11800FFF79DF9EB6A134AD2F80C21934202D9114AC2F80C310F4F07F1300003EB83039A004146104440
:40584000FFF764F9EA6AD7F80031DB6A9A42C1D2C3E7074AD2F824310133C2F824310026034BD3F8283103B101263046BDE8F081FC780208394BD3F8183143B94FF02003FD
:4058800083F31188BFF36F8FBFF34F8FFEE770B500F010FC314BD3F81821013AC3F81821D3F81831002B52D12C4BD3F8FC303BBB00244FE0294D2B6ADC6804F11800FFF779
:4058C0004BF9261D3046FFF747F9E36AD5F80C21934201D9C5F80C31204D05F1300003EB83039A0031461044FFF710F9E26AD5F80031DB6A9A4204D30122C5F8282100E0CF
:405900000024164B5B69002BD4D10CB1FFF758FD124BD3F8244164B1FFF72EFF18B101220E4BC3F82821013CF6D100220B4BC3F824210A4BD3F828315BB14FF08052084BD3
:405940001A60BFF34F8FBFF36F8F012402E0002400E0002400F0D0FB204670BDFC78020804ED00E010B5B0B10446104BD3F8183143B14FF0200383F31188BFF36F8FBFF3FB
:405980004F8FFEE7FFF7E8FE00212046FFF740FEFFF770FF00E0002038B94FF08052044B1A60BFF34F8FBFF36F8F10BDFC78020804ED00E0304BD3F8183123B101222E4B02
:4059C000C3F82821704710B52B4B0022C3F82821D3F800311B6B1A68B2F1A53F0BD15A68B2F1A53F07D19A68B2F1A53F03D1DB68B3F1A53F07D0204BD3F80001D3F80011F1
:405A0000343100F095FC1C4BD3F80C310AE043B94FF0200383F31188BFF36F8FBFF34F8FFEE7013B03EB83018A0013490A44126B002AECD008469900CC18A2000244546BDE
:405A400064685463303019448A0008320244944206D1606803EB83018A0007490A445063054903EB830082000A44526BD268C1F80021C1F80C3110BDFC78020840B94FF041
:405A8000200383F31188BFF36F8FBFF34F8FFEE710B50C46054BD3F800111831FFF742F801212046FFF7B4FD10BD00BFFC78020838B540B94FF0200383F31188BFF36F8F93
:405AC000BFF34F8FFEE70C461546074AD2F800111831FFF71BF80DB14FF0FF3429462046FFF796FD38BD00BFFC78020838B5C368DC6844B94FF0200383F31188BFF36F8FCC
:405B0000BFF34F8FFEE704F118052846FFF724F8154BD3F81831ABB9251D2846FFF71CF8E36A114AD2F80C21934202D90E4AC2F80C3103EB83039A0029460C481044FEF714
:405B4000E5FF03E029460A48FEF7E0FFE26A064BD3F80031DB6A9A4204D90120024BC3F8280138BD002038BDFC7802082C79020810790208034BD3F820210260D3F814314A
:405B800043607047FC780208F8B540B94FF0200383F31188BFF36F8FBFF34F8FFEE7054641B94FF0200383F31188BFF36F8FBFF34F8FFEE70C4600F07DFA124BD3F8140100
:405BC0006968421A2368B3F1FF3F14D02F680D4ED6F82061B74201D088420ED29A4206D29B1A23602846FFF7C5FF002406E000232360012402E0002400E0012400F07CFA18
:405C00002046F8BDFC7802080122024BC3F82821704700BFFC780208064BD3F804312BB1044BD3F818311BB9022070470120704700207047FC780208064B1A681368B3FAFE
:405C400083F35B09036013B9D368186870470020704700BF287A020808B54160006191420AD8D21A83699A4211D2011D0A4B5868FEF758FF002008BD9A4201D2994208D294
:405C8000011D054B1868FEF74DFF002008BD012008BD012008BD00BF287A020870B500F009FA0E4B9B68B3B90C4C04F10C063046FEF71CFF04F120052846FEF717FF2660BB
:405CC000656000220C210A20FFF736F8A06010B10349FFF73BFB00F00FFA70BD287A020864CA081000B583B0FFF7D8FF0D4B9B6853B10D4B019303230093002380220B491F
:405D00000B48FFF7B9FC00E0002040B94FF0200383F31188BFF36F8FBFF34F8FFEE703B05DF804FB287A02085C7A02086CCA0810C95F081040B94FF0200383F31188BFF399
:405D40006F8FBFF34F8FFEE730B585B015460446124A9068F0B11A46019102950394052913DCFFF759FF022807D10023089A01A90A488068FFF706F80DE000231A4601A9B8
:405D800006488068FEF7FEFF05E0002301A9FFF7C1F800E0002005B030BD00BF287A020870B582B029E0DB681E68DC68251D2846FEF7D2FE636A20469847E369012B1CD1F4
:405DC000A36933449E4207D2636024612946104B1868FEF7A7FE10E0002100910B4632462046FFF7A7FF40B94FF0200383F31188BFF36F8FBFF34F8FFEE7054B1B681A68EA
:405E0000002AD0D1024A51681160536002B070BD287A020838B50546FFF7A8FC0446074B9B6B984204D2FFF7BBFF01232B6001E000232B60014B9C63204638BD287A02087F
:405E400070B582B005460E46134B1B68DB68DC68201DFEF781FEE369012B18D1A1692B46324629442046FFF7F7FE80B1002100910B462A462046FFF75DFF40B94FF020034A
:405E800083F31188BFF36F8FBFF34F8FFEE7636A2046984702B070BD287A020870B582B006460C46FFF758FC01A8FFF7B3FF019B1BBB054644B9B04206D3FFF7DBFC2946C0
:405EC0003046FFF7BDFF1AE02CB10E4B5B681C68B4FA84F464092246711B0A4B9868FFF749FAFFF7C7FC50B94FF08052064B1A60BFF34F8FBFF36F8F01E0FFF7BBFC02B0D0
:405F000070BD00BF287A020804ED00E030B587B04DE0039B002B4ADB059C636913B1201DFEF71AFE02A8FFF775FF039B092B3ED8DFE803F00505053D273A05053D270499D8
:405F4000A5690B46024629442046FFF785FE70B3636A20469847E369012B28D1A269002100910B46049802442046FFF7E3FEF0B94FF0200383F31188BFF36F8FBFF34F8F01
:405F8000FEE70499A16141B94FF0200383F31188BFF36F8FBFF34F8FFEE70346024601442046FFF759FE02E0204600F0B1FA002203A9044B9868FFF77DF80028A9D107B080
:405FC00030BD00BF287A020800B583B001A8FFF733FE0199FFF762FFFFF798FFF6E700BF82B0002301930D4B1B68B3F1FF3F08D04FF0200383F31188BFF36F8FBFF34F8F48
:40600000FEE74FF0200383F31188BFF36F8FBFF34F8F019B002BFCD002B07047D444020808480068006880F308884FF0000080F3148862B661B6BFF34F8FBFF36F8F00DFED
:4060400000BF000008ED00E0DFF80C00016841F4700101607047000088ED00E04FF0807340F8043C21F0010140F8081C054B40F80C3C40F8202C6FF0020340F8243C443848
:40608000704700BFE15F08100000000000000000074B19680868B0E8F04F80F30988BFF36F8F4FF0000080F311887047AFF30080FC7902084FF0200383F31188BFF36F8F80
:4060C000BFF34F8F0A4A136801331360012B0DD1084B1B6813F0FF0F08D04FF0200383F31188BFF36F8FBFF34F8FFEE7704700BFD444020804ED00E0094B1B6843B94FF0C0
:40610000200383F31188BFF36F8FBFF34F8FFEE7013B034A13600BB983F31188704700BFD4440208000000000000000000000000EFF30980BFF36F8F154B1A681EF0100F77
:4061400008BF20ED108A20E9F04F10602DE909004FF0200080F31188BFF34F8FBFF36F8FFFF728FC4FF0000080F3118809BC19680868B0E8F04F1EF0100F08BFB0EC108A13
:4061800080F30988BFF36F8F704700BFAFF30080FC79020808B54FF0200383F31188BFF36F8FBFF34F8FFFF7E7FA18B14FF08052024B1A60002383F3118808BD04ED00E066
:4061C000084A0023136008490B60084B1B680849A1FB03139B09013B06490B6007231360704700BF10E000E018E000E098420208D34D621014E000E010B582B0314B1A787E
:40620000D2B20192FF221A701B78DBB28DF803309DF803302C4A03F0200313700723536009E0294A5368013B53609DF803305B00DBB28DF803309DF8033013F0800FF0D187
:40624000214B5B68C3F10702032A08D04FF0200383F31188BFF36F8FBFF34F8FFEE7032A08D04FF0200383F31188BFF36F8FBFF34F8FFEE71B0203F4E063134A5360019BF9
:40628000DBB2104A1370114B1A6842F47F021A601A6842F07F421A60FFF792FF00240C4B1C60FFF7D1FE0B4A136843F040431360FFF7B6FEFFF77EFBFFF792FE204602B083
:4062C00010BD00BF00E400E0647A020820ED00E0D444020834EF00E0EFF305830F2B0FD9104A9B5CDBB2104A1278934208D24FF0200383F31188BFF36F8FBFF34F8FFEE7C1
:406300000A4B1B6803F4E063074A5268934208D94FF0200383F31188BFF36F8FBFF34F8FFEE77047F0E300E0647A02080CED00E008B54FF0200383F31188BFF36F8FBFF339
:406340004F8F4FF441710248FBF77AFEFEE700BF74CA0810134A12F0070F07D0D11D21F00701C1F5404313440A4601E04FF440430D49C1F858250020C1F85C051344083B62
:4063800023F00703C1F8603558601860981A50601360C1F86405C1F868054FF00043C1F86C3570476C7A020814350308134B00E013461A688242FBD310B45C68191988421F
:4063C00003D14168214459601846446801198A420DD10B49D1F860158A4206D05268224442601A681268026002E0016000E00260984200D018605DF8044B70476C3A03082D
:406400001435030870B50446FFF7A6F93F4BD3F860350BB9FFF79EFF3C4BD3F86C351C425CD194B1083414F0070F0ED024F00704083404F0070343B14FF0200383F311880E
:40644000BFF36F8FBFF34F8FFEE7002C48D02F4BD3F868359C4245D82C4BD3F8585503F5AB6301E02B4615466A68944202D92A68002AF7D1254AD2F86025954234D01E680E
:4064800008362A681A606B681B1B102B10D9281910F0070F08D04FF0200383F31188BFF36F8FBFF34F8FFEE743606C60FFF77EFF6A681649D1F868359B1AC1F86835D1F853
:4064C00064158B4202D21149C1F864350F4BD3F86C351A436A6000232B6006E0002604E0002602E0002600E00026FFF7C3F916F0070F08D04FF0200383F31188BFF36F8F50
:40650000BFF34F8FFEE7304670BD00BF14350308B8B338B50346A0F1080550F8042C1949D1F86C1512EA010408D14FF0200383F31188BFF36F8FBFF34F8FFEE750F8080C01
:4065400040B14FF0200383F31188BFF36F8FBFF34F8FFEE7A4B198B91C4622EA010243F8042CFFF7F9F854F8043C064AD2F868150B44C2F868352846FFF718FFFFF77AF97E
:4065800038BD70471435030870B539B900240AE015F8010BFAF702FC013402E016460D460024B442F4DB204670BD00BF70B561B900240FE0FAF7FEFBC0B2287001340A2800
:4065C00008D00D2806D0013502E016460D460024B442EFDB204670BD08B502490248FBF739FC08BD704303080000664008B5114B1B785BB9104A11491148FBF707FA1149BE
:406600001148FBF7BFFC01220A4B1A700E4BB3F90030002B08DB590903F01F03012202FA03F30A4A42F82130054A136843F00043136008BD843A030870430308C4CA0810FF
:4066400000006640D9650810CCC2081000E100E008B5074B1B7833B900F012FA00F07EFA0122034B1A7000F059F800F0FDFE08BD853A030810B5FFF7EBFF044610B900F067
:40668000FBFD044614B900F077FD044614B900F087FC044600F014FC0028FBD100F0E8FA00F0AAFA204610BD70B5194D0026344629E063090433174A52F8233004F01F021C
:4066C000D34013F0010F1CD0EB7E012B02D0022B09D011E0284600F0A5F806462946204600F094F90DE0284600F080F806462946204600F0F3F804E04FF4B8710648FBF742
:406700009FFC2C350134022CD3D9304670BD00BF68CB0810A843030804CB081070B500230AE01D4A191D02EB8100002444604FF0FF3042F821000133002BF2D0174C03234C
:4067400025E06668A27E144B2B4400211976012A03D0D2B1032A07D917E02069A8B1228BF17902F0E5FD10E023690BB1F2791A706168002307E003F1080201EB42024FF6E3
:40678000FF7050800133002BF5D02C342B465D1E002BD6D170BD00BFA843030868CB081010B582B004460846638802A921F8083D1346228A02F06AF9BDF8003063809DF8F1
:4067C000023023719DF8033063719DF80430A37102B010BD30B40B884A889C1A0025CD800079844200DDCC8030BC70472DE9F0418468038B456890F81A8000270BE0424635
:406800002146284600F042FA074621462846FFF7E1FF0A3433465E1E002BF0D13846BDE8F08100BF2DE9F04780468468476890F81AA0466A0025A94616E03246398A208860
:4068400002F04CF92A4631463846FFF7A9FF0C3652462146384600F019FA814621463846FFF7B8FF0A340135B8F818309D42E4D34846BDE8F08700BFF0B50C8B8D684F6870
:406880000A69012324E010EA030403D17E88B979314402E07988BE79891BEE88B14201D3002100E01946A14202D01678013E1670A14201D014783CB920EA0300084309B909
:4068C000F97900E0012111705B000A350132744604F1FF3E002CD6D1F0BD00BF38B504468A7E154B03441D7E012A04D12846FFF7C3FF054604E04FF438711048FBF7A0FB04
:406900000D4B23441D76620904F01F04012303FA04F445B90432084B03EB8202536823EA0404546038BD0432034B03EB820253681C43546038BD00BFA843030830CB081077
:40694000F0B583B00B8B8A684D68D1F810E0844618B96F88A879074402E06888AF79C71B0024012009E0D3889F4201D3002300E003461C430A32400033465E1E002BF2D127
:4069800054B19EF8003013B1013B8EF800309EF8003023B1644602E0EB798EF800305CB10E466A88AB790F8BD21A3946B06801F067FF034610B923E0002321E0B27E022A96
:4069C0001ED100233A46316A01A801F0C5FF034600220AE002A901EB420131F8040C02F1080105EB4101488001329342F2D807E003F1080205EB42024FF6FF715180013309
:406A0000002BF5D0204603B0F0BD00BF38B504468A7E194B03441D7E012A03D062B1032A05D909E02846FFF727FF054609E02846FFF786FF054604E040F226410F48FBF79F
:406A4000FFFA0D4B23441D76620904F01F04012303FA04F445B90432074B03EB8202536823EA0404546038BD0432034B03EB820253681C43546038BDA843030830CB0810FD
:406A800070B51C4CA4220021204602F051FC45F23A2323804FF41063638041F66A03A3800823A3830123A377E377134E203406F18C050FCD0FC40FCD0FC40FCD0FC495E876
:406AC000030084E80300304606F1080403230CE0A268238B04E010F8013B53720A320B46591E002BF7D12C342B465D1E002BEFD170BD00BFA843030860CB081002280DD892
:406B000000F01F02012303FA02F24009031D044800EB83035B6802EA0300704700207047A8430308022810D82C230B4A03FB002393F82230023BDBB2012B09D82C22064BA9
:406B400002FB0030C368588A70474FF6FF7070474FF6FF70704700BF60CB08100023024AD380024A13607047A8430308D03A0308C9B2062902D083180021197130F81210FD
:406B800000EB42035980024400231372704700BF70B506460D46012305E0224629463046FFF7E6FF23465C1E002BF6D170BD00BF08B52C23054A03FB0023986801EB8101C8
:406BC0004A00997E1044FFF7E3FF08BD68CB081038B505462C23074A03FB00231B8B04E021462846FFF7E4FF23465C1E002BF7D138BD00BF68CB081010B5032303E02046BE
:406C0000FFF7E6FF23465C1E002BF8D110BD00BFF8B505462C230F4A03FB00235E681B8B14E02C230B4A03FB05239F6804EB8402500004EB44018A00596A0A44DB7E012B0B
:406C400003D1318A385A01F03DFF23465C1E002BE7D1F8BD68CB081010B5032303E02046FFF7D6FF23465C1E002BF8D110BD00BF08B5FFF7F1FF08BD00FA03F3C2F580709F
:406C800001FB00F102FB0310000A70472DE9F04106460D461746012342E035F8140005EB44035988884207D3431A2A194FF0000E82F808E0012201E00B1A002292B996F81D
:406CC00005E073450ED92B191B7A327A934205D3224639462846FFF74BFF20E02A19013313721CE096F804E0734504D996F805E0734514D89AB9FBB2062B10D005EB040826
:406D000098F804E0082301224EEA0121FFF7B4FFC0F30F2205EB44035A8088F8040023465C1E002BB9D10020BDE8F08110B52C23064A03FB0020846801EB81014B00827E20
:406D4000E1184068FFF7A2FF10BD00BF68CB081070B506462C23084A03FB00231B8B002505E021463046FFF7E1FF054323465C1E002BF6D1284670BD68CB081038B5002559
:406D8000032304E02046FFF7E3FF054323465C1E002BF7D1284638BD30B49F280ED940F2FE3399420AD9244CA1FB04454B1B05EB53035B0AC3EB832399422FD09F280DD916
:406DC000B1F5FF7F0AD91D4CA1FB04454B1B05EB53031B0AC3EB4323994221D09F280CD97E290AD9164CA1FB04454B1B05EB53039B09C3EBC313994214D09F2814D93E2962
:406E000014D9104CA1FB04454B1B05EB53035B09C3EB831399420BD000200AE0042008E0032006E0022004E0002002E0002000E0012030BC704700BF05104000214080003A
:406E400011080402054110044A1E032A01D8102300E0002379B183B1642202FB03F3B3FBF0F3002001E001305B00092BFBD90A2B04D9013802E0002000E00020C0B2704782
:406E800008B501F09BFC08BD08B50A4B1A689169094B5B1ADB09526902EB03135A6822F0F8525A60054A136823F00103136000F02FFF08BD7C42030880033240A8023640E2
:406EC000024BD86800F08000704700BFA8430308034B0340034AD0681843D060704700BF80000100A8430308034B0340034AD06820EA0300D060704780000100A84303081A
:406F000010B5164BDB6813F4803F0ED102280ED843090433114A52F8233000F01F02D34013F0010F05D1012404E0112402E0012400E0002484B92C23094A03FB0023DB7E09
:406F4000022B02D101F04CFC06E0012B02D100F0F1FE01E04FF0FF34204610BDA843030868CB081008B50C4BDB6813F4803F0DD10A4B1B78012B05D0022B09D101F0FEFA79
:406F8000002008BD00F026FE002008BD112008BD4FF0FF3008BD00BFA8430308D43A0308124BDB6813F0800F1AD110B500244FF0FF3312E02046FFF7A3FF034660B9012C06
:406FC00003D801220A4B5A7002E00022084B5A70FFF7C8FF034606E00134022CEAD902E0112318467047184610BD00BFA8430308D43A0308124B1B78834220D010B5044669
:40700000012B02D1FFF740FF03E0022B01D1FFF737FF012C05D100F053FC0122084B1A7010BD022C05D101F0F5F80222044B1A7010BD032C02D00022014B1A7010BD7047D6
:40704000D43A030830B583B00025074C08E02179002300930E222068F9F7A2FF08340135082DF4D903B030BD24CC081038B51B4A93780133DBB293709078FFF741FF044621
:4070800050B9164B9B78DBB2022B02D10022134B5A70FFF767FF1EE0104B9B78DBB2022B10D10F4D2B8901332B818020FFF71CFFEB6823F07F43EB60EB6843EA0464EC60D1
:4070C000002408E0064BDA6822F07F42DA60DA6842EA0062DA60002CC9D138BDD43A0308A843030810B50146124BB3F90030002B0DDB5A0903F01F03012404FA03F32032D5
:407100000D4840F82230BFF34F8FBFF36F8F094C2046FAF737FFB4F90030002B08DB590903F01F03012202FA03F3034A42F8213010BD00BFC4C2081000E100E070B50228C5
:4071400001D8002500E001258DB904462C23094A03FB0023DE7E022E02D1282101F00AF9012E04D15521204600F0B4FE0546284670BD00BF68CB081038B50024254604E04A
:407180002046FFF7DBFF05430134022CF8D9284638BD00BF70B5002519E02C230D4A03FB0523DB7E012B11D12C2303FB05F3D658002404E006EBC40000F054FD01342C2390
:4071C000044A03FB05231B7E9C42F3D30135022DE3D970BD68CB08102C23034A03FB002043685889704700BF68CB08102C23034A03FB002043685981704700BF68CB08103E
:40720000C0EB0032012303FA01F101398A4205D9C0EB0020814203D30520704706207047002070472DE9F04180460E46FFF7D4FF07460022318800F00DFC01463846FFF780
