:020000041000EA
:4000000000400208310100100D000000950100100000000000000000000000000000000000000000000000000000000091010010000000000000000091010010910100109B
:4000400091010010A5040010910100109101001091010010910100109101001091010010910100109101001091010010910100109101001091010010910100109101001049
:400080009101001091010010910100109101001091010010910100109101001091010010910100109101001091010010910100109101001091010010910100109101001020
:4000C00010B5064C2378002B07D1054B002B02D0044800E000BF0123237010BD540400080000000070280010084B10B5002B03D00749084800E000BF07480368002B00D17C
:4001000010BD064B002BFBD09847F9E7000000005804000870280010EC000008000000007047EFF3108072B6704780F310887047FFF7F6FF72B6104C104DAC4209DA2168FC
:400140006268A368043B02DBC858D050FAE70C34F3E70B490B4A0020521A02DD043A8850FCDC094809490860BFF34F8F00F000F900F01EF8FEE70000742800108C28001072
:4001800054040008200600080000000808ED00E0FEE7FEE700B504207146084202D0EFF3098001E0EFF30880043001F0A5FAFEE710B562B6014800F04FF9FEE700000810A4
:4001C00070B56249E0239B00CB580F2213401A00D0329200525807210A40032A05D0042A06D0002A12D15A4814E05A4A106811E01A00C0329200554952581F210A40112ABF
:4002000006D0132A04D0FA20C00103E0524801E080200002002B36D14C4BB222D2009A5801211140B125ED005A59120F032422405B591B0F1C4207D0444C63591B0F032458
:400240002340012B02D102E0012300E00023002B01D0002901D1032A4BD13C4BB022D2009D58AD03AD0B3D495958C904C90C9C58240E01231C40013401F0FCFA68432100E4
:4002800001F0F8FA35E0012B33D1304BC822D2009A5801251540C024E4001A59120F03210A401B591B0F194207D028490B591B0F03210B40012B02D102E0012300E0002362
:4002C000002B01D0002D01D1032A12D11F4DC022D200AB587F210B40A958090A1F263140AC58240C3440584301F0C4FA210001F0C1FAE0239B00154AD3581B090322134098
:40030000D840144C6060164B1D692D0AFC32154001351969090E013101F0ACFAA060290001F0A8FA0500E06020610E4BC0180E4901F0A0FA20750D4BE818FA21890001F035
:4003400099FAA061C003E06170BDC0460000264000127A00C000000800366E0184050000000021403F420F0040420F00E703000010B5234BB021C9005A58520052085A5089
:40038000E02080001A583024A2431A50802252045A501C491C4A9950A021890104329950FF211A4A995081315A58920092088020C00502435A505A588020000602435A5050
:4003C0005A58012082435A5000F0C0F9FFF7F8FE00F070F800F078F801F030F8B0235B055B78002B04D0B0235B055B78DBB200E02123212B03D1064B0022DA605A6010BD45
:400400000000264001000200840500008C050000E00023408023024AD3580320184070470000214010B5FFF77CFE084980228C58074B2340074C23438B508823034AD358D1
:40044000DB06FAD5FFF771FE10BDC04600002140FCFF00000100FA0570B50500FFF761FE0400FFF7D7FF032801D1FFF7DBFF0A4AB0239B00D55080215058084B0340084806
:40048000034353508823044AD358DB06FAD52000FFF74BFE70BDC04600002140FCFF00000300FA0510B5024800F09AFD10BDC0467004000810B5034A60328021042000F051
:4004C0007FFB10BD7005000810B501F07EF90400044800F035FC044800F09CFC200001F078F910BD70040008EC190010FEE7C046F0B50025002711E0BB00C658F3B2FF227A
:40050000964308E06A008A181478A419527822700135013BDBB2002BF4D10137022FEBD9F0BDC04670B586B0674BA021C9005A58032082435A50654990240A5964480240EC
:400540000A510A691202120A8024640422430A610A6910400861E022920099580F20814399509958213081439950995880200006014399500021012000F094FD002102205B
:4005800000F090FD0021032000F08CFD0021042000F088FD0021002000F084FD01A84D4903000A0032CA32C312CA12C300F0A2FD002802D00420FFF799FF4349464A8B586D
:4005C0008020000603438B50444800F04DFE002802D00420FFF78AFF3B4C414BE158414A0A40E250E158404A0A40E250E25880252D062A43E250043BE1583C4A0A40E25013
:40060000E1583B4A0A40802189010A43E250E258802109020A43E250364A1168364B0B40802149000B431360002001F009F9334AA3581D43A550A3580125AB432B43A350E3
:400640006421002001F070F82D4B00212D4A9950802000011A581E490A40C024A40022431A508022D200284898509858022427481C50274C185908408C26B601304318513A
:40068000244898509858402423481C50902424011E5922483040224E30431851214898509858C52000011D501F481C582140B0242401214319501D4999509A581C4A9D501B
:4006C0001C4A9D5006B070BD0000264000002140FF00FFFF201A0010087F0000400D030004050000FEFCFFFFFFFF00FFFFF0FFFFFF8FFFFF00002740FFFCFFFF0C050000F7
:40070000000001400C0C000000FF0080140C00000808000002FF00804C0C0000FF0000FF004FC30040FF00800408000001FF0080540C0000580C000010B50A00002101F0D8
:400740002EF910BD10B501F021F910BD70B58AB09621002000F0E8FF00F0BEFF002801D100F0AAFF012000F029FF514A516C514B0B40E82189010B435364536C1B0AFF2286
:4007800013403A2B07D14A4A516C4B4B0B40E82189010B435364002300224849484801F01BF8002300224749474801F015F8FFF7B9FE464A464B1A6000240CE0620012192E
:4007C0005300444AD318198B9A8AD88A00041043FFF7B2FF01340B2CF0D900240AE06200121993003B4AD3185A6E196ED86DFFF7A9FF0134112CF2D9374D29003431280089
:400800005030FFF775FE0F22344B1A60344A354B1A60354B354A1360354A1360354A1368832149000B43136001AC22002B005C3323CB23C223CB23C223CB23C221002E4888
:4008400000F006FE2D4D23002A0043CA43C343CA43C343CA43C32100294800F0F9FD22002B00243343CB43C243CB43C243CB43C22100244800F0ECFD22002B00483343CBF3
:4008800043C243CB43C243CB43C221001E4800F0DFFD22002B006C3323CB23C223CB23C223CB23C22100194800F0D2FD0AB070BD00002740FF00FFFFFFC5FFDF0E0E0040CB
:4008C000110E000000020040290200000300FA05F0012140201A0010201B00100000644007010100000264401020020060013840A00138400079344000003240A01B0010E2
:400900008000324080023240000332408006324010B583089A00801AC000FF228240D44381400A40072B32D89B001949CB589F46184B196A0C4022431A6228E0154B596A9C
:400940000C4022435A6222E0124B996A0C4022439A621CE00F4BD96A0C402243DA6216E00C4B196B0C4022431A6310E0094B596B0C4022435A630AE0064B996B0C40224310
:400980009A6304E0034BD96B0C402243DA6310BD602500100000214083089A00801AC100FF228A40072B2BD89B001748C3589F46164B186A1040C84023E0144B586A1040CA
:4009C000C8401EE0114B986A1040C84019E00F4BD86A1040C84014E00C4B186B1040C8400FE00A4B586B1040C8400AE0074B986B1040C84005E0054BD86B1040C84000E082
:400A00000020C0B27047C046802500100000214070B504000D000B4B9A680B4B9A420BD1002903D1FC21094800F038FE1034064BA400E058E55003E01034A400044BE0582C
:400A400070BDC04600ED00E000000008A025001000000010F0B583B0041E019150D04368032B03D93621294800F018FE0023E05E002802DBA178FFF74BFF0023E25E63686D
:400A8000002A12DB9008224EC0308000875903210A40D200FF25290091408F4399012B000B4093403B43835117E092B20F21114008398908063189001648844661444E6891
:400AC00003200240D200FF2738009040864398013B000340934033434B600E4B9A680E4B9A420FD1019B002B03D14521074800F0D5FD0023E05E0199FFF78AFF002002E0BF
:400B0000064800E0002003B0F0BDC046A025001000E100E000ED00E0000000080100560070B504000D000369002B0ADA0B0C03D00549064800F0B2FD2D042D0C656000201A
:400B400000E0034870BDC046A7020000E425001001008A0070B505000C000368002B01DA002300E0084B002B0BD1EA60230C03D00649074800F092FD2404240CAC600020D9
:400B800000E0014870BDC04601008A008E020000E425001070B505000C1E03D19921064800F07CFD2B69002B03DAEB682360002000E0024870BDC0462426001001008A0038
:400BC000F8B504000E0015000F283FD8002A10D100290ED10F2804D99E21FF31214800F05DFD6401204B9C466444204B1C60002037E0002D2CD0002E2CD0F3062CD10F2C0E
:400C000004D99E21FF31174800F048FD6401164B9C466444154F3C607E60BD60F2080021280000F0BCFE00212000FFF779FF3A0001CA0021FFF78EFF00280FD10B4B1868E6
:400C40000021FFF76DFF00280AD10AE0084808E0074806E0064804E0054802E0054800E00448F8BD64260010000023400006000803018A0001018A00F0B583B00D001C4B97
:400C80001B68DC68236883422DD947097B01C01A012383401E00002903D100F096FD019001E000230193124B18680368002B01DA002300E00F4B002B0ED16368BF00DF198C
:400CC0003B68334203D0B3433B60002400E00A4C0021FFF725FF00E0084C002D04D1019800F077FD00E0064C200003B0F0BDC0460006000801008A00020188000301880048
:400D000004018A000A4B1B68DA68136883420BD943095901401A0121814052689B009B580B4203D0034802E0034800E003487047000600080101880004018A000001880091
:400D4000034B1B68002B01D1014B18607047C0460C060008F0B5474680B404000F0090461E00072803D9B421254800F097FC254B1B682C2060431C18FF2215003540256087
:400D8000330A13406360330CA3600F2D04D99E21FF311D4800F082FC6B011C4A94466344236165680F2D04D9DC214900164800F075FC6D01164B9C4665446561A668330C94
:400DC00004D0EB214900104800F068FC330C04D0D821FF310C4800F061FC3604330C1E43AE604346E36127620023A361069B002B02D000229B5EA38104BC9046F0BDC046B6
:400E0000A42600100C060008642600100000234000102340F0B58FB0041E03D150212E4800F03CFC6368032B03D952212A4800F035FCE36A002B03D15621274800F02EFC3E
:400E4000E368072B03D95721234800F027FC236A072B03D95821204800F020FC236B002B03D159211C4800F019FC07AA1300210061C961C321C921C302AD290023001433E8
:400E8000C1CBC1C141CB41C10821535E0CAE3380079B1933B370089B0D930B9B0A980096A26AE16AFFF756FF2B69E868002200920021FFF74FFF216B3000FFF7CBFD002361
:400EC000F25E002A05DB1F231A401E3B9340034A13600FB0F0BDC046A426001000E100E0F8B505000F0016001C00002A03D1FC21244800F0D3FB072D03D9FD21214800F044
:400F0000CDFB072F03D9FE211E4800F0C7FB1E4B1B682C2128004843181879435918012213004D68AB401B044568AA4015000269002A20D08F69002F1FD11268002A01DA9B
:400F4000002200E0114A002A19D132681204120C134333600369DE6001238B614C6204692B0C03D00A490B4800F098FB2A04120CA260002004E0084802E0084800E007483E
:400F8000F8BDC046A42600100C06000801008A008E0200006426001004028A0007028A0070B505000C001600072804D96021FF31084800F073FB084B1B682C2068431818F6
:400FC000C369B34204D9036AB6009C51002000E0024870BDA42600100C0600080A028A0070B582B0040000230193002804D1D92149002B4800F052FB2369002B04D1B4217F
:40100000FF31274800F04AFB6369002B04D1DA214900234800F042FB236A002B04D1B621FF311F4800F03AFB6269D5682B0C1FD01B041360136820690369002B18DA01A91D
:40104000FFF7A8FD00280ED1019803681E0CFF221340E269934207D29B00226AD358002B02D0984700E0002631002069FFF758FD2D042D0C0FD063691D601B68636A002BED
:4010800003D098470023636203E0A36A002B00D098470023A36163691B6802B070BDC046A426001004281DD8042904D94B1EFF3B9BB2132B18D8FF290CD91F2319400B4A51
:4010C0000300C0339B009950D03080000423835000200AE007231940D0308000034BC150002002E0024800E0014870470000264001004A0070B5041E04D1EF2149004C48AA
:4011000000F0CCFAB023DB004A4AD358002B01DB002500E0484D002D00D086E0474B22689A4204D9EE21FF31414800F0B7FA23689B03990BE3791B068022520413400B4367
:40114000B022D2003B498B50A2883D4B9A4204D9FA214900364800F0A1FA2289394B9A4204D9F621FF31324800F098FAA388DB04D90C23891B04344A13400B43334A2D499D
:401180008B50A37A0F2B04D9FC21FF31284800F085FAE37A0F2B04D9FE214900244800F07DFAA289264B9A4204D9FE21FF31204800F074FAA37A0F211940E27A1201FF23A4
:4011C00013400B43A289120221490A401343A27B1207C02189050A401343B122D20015498B50A379072B03D91A49114800F056FA228A144B9A4203D917490D4800F04EFA0C
:401200000C4816494658164B1E40A3791B02E022D2001340334343504658124B1E40238A1B04094A134033434350280070BDC046E42600100000264003004A00FFFF030038
:40124000FF1F0000FF0100000000FF018405000000FF1F0005020000060200008C050000FFF8FFFFFFFF00FE70B505002D492E4A8B588020000603438B502C0003E0012026
:4012800000F000FA013CB223DB00264AD3585B0701D4002CF3D12349B122D2008858234B03408020800503438B50002D02D00ED0002C0CD01B49B022D2008B588020000637
:4012C00003438B5003E0012000F0DCF9013CB223DB00144AD358DB0701D4002CF3D1002D0ED0002C0CD10F4AB021C90053585B005B0853500C4953585B005B0853500BE088
:40130000084B0221B222D2009950B121C9005A58C020800502435A50002C01D1044800E0002070BD000026408C050000FFFFFFCF02004A00214B984230D00ED8402831D0EC
:4013400004D800281FD010282AD031E080282BD080235B00984229D02AE0194B984229D007D8A0231B0698420DD0164B984212D01EE0154B98420AD0144B984209D0144B68
:40138000984215D101E0002016E0124814E0124812E0124810E0A020C0030DE007480BE00F4809E00F4807E00F4805E0034803E00E4801E0A420C0037047C046060052002D
:4013C000010000F0090000A0040000F0050000F0030000F0010052000200520003005200010050000200500005005200FF00520010B50C4B1B69002B11DB0B4B1868FFF7AD
:4014000099FF0121094B0A4AD150084B084AD358002BFAD1074BD358002BF6D100E0064810BDC04600002340100600080C040000000025408C0400000200500010B5022232
:4014400002490020FFF7ACFD10BDC0463501000870B505000C00002848D0002948D0FF230A689A4303D08D21224800F017F9FF2322699A4303D08E211E4800F00FF9A368C9
:401480005B0D03D08F211B4800F008F963685B0A03D09021174800F001F9E3695B0F03D09121144800F0FAF8236A5B0F03D09221104800F0F3F8104BEB18DB090F4A944652
:4014C00063441B0122682A60E268AA622269EA6262692A63A2686A626268AA61A2696A63E2691A60226A5A60002002E0044800E0034870BD6C2700100000CEBF0010030415
:4015000001005A00034A9369802149040B4393617047C04600F02540024A9169024B0B409361704700F02540FFFFFFFE10B5074A074813580F24A34302210B4313500438F3
:401540001358A3431943115010BDC0460000214004F0000010B5074A074813580F24A34303210B43135004381358A3431943115010BDC0460000214004F000000449054A69
:401580008858054B0340C020C00103438B5070470000214004F00000FF8FFFFF0449054A8858054B03408020C00103438B5070470000214004F00000FF8FFFFF70B505000B
:4015C000012803D92A492B4800F068F800F0FDF80400294B294AD3581F221340E822D200B02149058A5CD31A5A1E9341DBB29D4239D0002D14D1FFF785FFFFF797FF1F4813
:401600001D4943581F229343143A13434350FFF7B5FFE823DB00B0225205D35CDAB211E01648154943581F229343143A13434350092000F027F8FFF7B1FF114BB0225205EE
:40164000D35CDAB20D4E0C4831581F23994313400B433350012D06D1092000F013F8FFF779FFFFF759FF200000F0B3F870BDC046ED060000EC2700101CFF000000002640CB
:401680004107000010B5034B1B78584300F094F810BDC046D400000801BEFEE770B50D00044C18220100200000F081F9A5610020FFF7F2FF18040008054B802212069A6452
:4016C0009B6C002B01DB002000E002487047C0460000274003004600054B8022120198585B68FF221A4202D08023DB021843704700002640FEE7C04610B50A4B0268DA617C
:4017000042681A6282685A62C2689A620269DA6242691A6382695A63C2699A63FFF7EAFF10BDC04618040008F0B5002801D0192200E064228A42924152421C4BE8256D00EF
:401740005C590327BC433A4014435C515C59184E34405C51D03D5C59BC4322435A515A5916405E51002805D010290DD921290DD8012014E01D290BD93A290BD957290BD913
:4017800078290BD803200AE0002008E0022006E0002004E0012002E0022000E00420054A13680F218B4303431360F0BD00002140FFFCFFFF000025400230800803D00130B0
:4017C0000238FCD1C046C0467047EFF3108072B6704780F310887047F8B506000C0015001F00012B03D936211248FFF757FF32006240F0231B01134019D1220A0F210A402E
:40180000D20170310C401419A4000B4A94466444FF221640002D01D00133FF3333437F028026B60037403B432360002000E00348F8BDC0462C280010002001400100CE0000
:40184000042805D1094A116804230B4313600CE00006C0239B04184090239B00044AD050024A136804218B431360704710E000E000002140002243088B4274D303098B42BB
:401880005FD3030A8B4244D3030B8B4228D3030C8B420DD3FF22090212BA030C8B4202D31212090265D0030B8B4219D300E0090AC30B8B4201D3CB03C01A5241830B8B42A7
:4018C00001D38B03C01A5241430B8B4201D34B03C01A5241030B8B4201D30B03C01A5241C30A8B4201D3CB02C01A5241830A8B4201D38B02C01A5241430A8B4201D34B023A
:40190000C01A5241030A8B4201D30B02C01A5241CDD2C3098B4201D3CB01C01A524183098B4201D38B01C01A524143098B4201D34B01C01A524103098B4201D30B01C01A6E
:401940005241C3088B4201D3CB00C01A524183088B4201D38B00C01A524143088B4201D34B00C01A5241411A00D20146524110467047FFE701B5002000F006F802BDC046E5
:401980000029F7D076E770477047C046002310B59A4203D0CC5CC4540133F9E710BD03008218934202D019700133FAE77047030030B5002A0DD00C7801335D1E013A2C701C
:4019C0000131002CF5D19A189A4202D01C700133FAE730BDF8B5C046F8BC08BC9E467047F8B5C046F8BC08BC9E4670470300000001000000010000000000000005036000DC
:401A0000040000000100000000000000010000000604600008000000E0050008A5040010F4010000140004010A000905080000006301000000203440740080203440740066
:401A4000002234407400802234407400002434407400802434407400002634407400802634407400002834407400802834407400002A34407400802A3440740000213440C5
:401A8000301C00109000000000233440C01C00109000000000253440501D00109000000000273440E01D00109000000000293440701E001090000000002B3440001F0010B0
:401AC0009000000000603440901F00107C000000806034400C2000107C00000000613440882000107C00000080613440042100107C00000000623440802100107C00000029
:401B000080623440FC2100107C00000000633440782200107C00000080633440F42200107C00000000643440702300107C00000080643440EC2300107C00000000653440ED
:401B4000682400107C00000080653440E42400107C0000008C039001B202B401B820BAC0BE14DC24E008E3012880680CAC1500000A20344002703440017134401C00000084
:401B8000000000000000000000660A000000000000000000000000000000080300000000020000000000000000000000600000000000000000000000000000000003000045
:401BC00000000000030000000000000000000000680000000000000000000000000000001212000000000000130000000000000000000000CC0006BA0000000000000000B7
:401C0000000000001313000008001D1D800000000000000000000000000000600000000000000000000000000000000000000003000000000000000000000000FFFFFFFF5D
:401C4000FFFFFFFFFFFFFFFFFFFFFFFFFFFFFFFFFF000000FF2FF7FFFFFFFFFFFFFFFFFFFFFFFFFFFFFFFFF3FF000000001F0000000000000000000000000000F00000035C
:401C80000300F000FFFFFFFFFFFFFFFFFFFFFFFF111111111111141111111111111111111111311111311D11111111111111111111111111111111111111111111111D11B2
:401CC000000000000000000000000000FFFFFFFFFFFFFFFFFFFFFFFFFFFFFFFFFFFFFFFFFF000000FFFFFFFFFFFFFFFFFFFFFFFFFFFFFFFFFFFFFFFFFF000000000000000E
:401D00000000000000000009000000000000000000000000FFFFFFFFFFFFFFFFFFFFFFFF111111111111111111111111111111111111111111111111111111111111111186
:401D400011111111111111111111111111111111000000000000000000000000FFFFFFFFFFFFFFFFFFFFFFFFFFFFFFFFFFFFFFFFFF000000FFFFFFFFFFFFFFFFFFFFFFFF74
:401D8000FFFFFFFFFFFFFFFFFF000000000000000000000000000000000000000000000000000000FFFFFFFFFFFFFFFFFFFFFFFF1111111111111111111111111111111128
:401DC0001111111111111111111111111111111111111111111111111111111111111111000000000000000000000000FFFFFFFFFFFFFFFFFFFFFFFFFFFFFFFFFFFFFFFFD7
:401E0000FF000000FFFFFFFFFFFFFFFFFFFFFFFFFFFFFFFFFFFFFFFFFF000000000000000000000000000000000000000000000000000000FFFFFFFFFFFFFFFFFFFFFFFFC4
:401E4000111111111111111111111111111111111111111111111111111111111111111111111111111111111111111111111111000000000000000000000000FFFFFFFF36
:401E8000FFFFFFFFFFFFFFFFFFFFFFFFFFFFFFFFFF000000FFFFFFFFFFFFFFFFFFFFFFFFFFFFFFFFFFFFFFFFFF000000000000000000000000000000000000000000000048
:401EC00000000000FFFFFFFFFFFFFFFFFFFFFFFF111111111111111111111111111111111111111111111111111111111111111111111111111111111111111111111111BE
:401F0000000000000000000000000000FFFFFFFFFFFFFFFFFFFFFFFFFFFFFFFFFFFFFFFFFF000000FFFFFFFFFFFFFFFFFFFFFFFFFFFFFFFFFFFFFFFFFF00000000000000CB
:401F40000000000000000000000000000000000000000000FFFFFFFFFFFFFFFFFFFFFFFF11111111111111111111111111111111111111111111111111111111111111114D
:401F80001111111111111111111111111111111100000000000000001F1F1F1F1F1F1F1F1F1F1F1F1F1F1F1F1F1F001F1F1F1F1F1F1F1F1F1F1F1F1F000C00000000000044
:401FC00000000000000000002000000F00003000FFFFFFFFFFFFFFFFFFFFFFFF11D1111111111111111111111111111111111111511111111111111111111111111111112A
:4020000011111111111111111111111100000000000000001F1F1F1F1F1F1F1F1F1F1F1F1F1F1F1F1F1F1F021F1F1F1F1F1F1F1F1F1F1F1F00000000000000000000001FF2
:40204000000000000000000000000000FFFFFFFFFFFFFFFFFFFFFFFF111111111111111111111111111E111111111111111111111111111F111111111111111111111111A9
:40208000111111111111111100000000000000001F1F1F1F1F1F1F1F1F1F1F1F1F1F1F1F1F1F1F1F1F1F1F1F1F1F1F1F1F1F1F1F00000000000000000000000000000000B8
:4020C0000000000000000000FFFFFFFFFFFFFFFFFFFFFFFF1111111111111111111111111111111111111111111111111111111311111111111111111111111111111111FE
:402100001111111100000000000000001F1F1F1F1F1F1F1F1F1F1F1F1F1F1F1F1F1F1F1F1F1F1F1F1F1F1F1F1F1F1F1F00000000000000000000000000000000000000007B
:4021400000000000FFFFFFFFFFFFFFFFFFFFFFFF1111111111111111111111111111111111111111111111111111111111111111111111111111111111111111111111113B
:4021800000000000000000001F1F1F1F1F1F1F1F1F1F1F1F1F1F1F1F1F1F1F1F1F1F1F1F1F1F1F1F1F1F1F1F0000000000000000000000000000000000000000000000003F
:4021C000FFFFFFFFFFFFFFFFFFFFFFFF11111111111111111111111111111111111111111111111111111111111111111111111111111111111111111111111100000000BB
:40220000000000001F1F1F1F1F1F1F1F1F1F1F1F1F1F1F1F1F1F1F1F1F1F1F1F1F1F1F1F1F1F1F1F000000000000000000000000000000000000000000000000FFFFFFFFC2
:40224000FFFFFFFFFFFFFFFF111111111111111111111111111111111111111111111111111111111111111111111111111111111111111111111111000000000000000036
:402280001F1F1F1F1F1F1F1F1F1F1F1F1F1F1F1F1F1F1F1F041F1F1F151F1F1F1F1F1F1F001F0000000000000000000000000000000000000F000000FFFFFFFFFFFFFFFF3D
:4022C000FFFFFFFF1111111111111111111111111111111111111111111111111111111ED11111111111111111111111111111111111111100000000000000001F1F1F1F69
:402300001F1F1F1F1F1F1F1F1F1F1F1F1F1F1F1F1F1F1F1F1F1F1F1F1F1F1F1F000000000000000000000000000000000000000000000000FFFFFFFFFFFFFFFFFFFFFFFF45
:4023400011111111111111111111111111111111111111111111111111111111111111111111111111111111111111111111111100000000000000001F1F1F1F1F1F1F1F35
:402380001F1F1F1F1F1F1F1F1F1F1F1F1F1F1F1F1F1F1F1F1F1F1F1F000000000000000000000000000000000000000000000000FFFFFFFFFFFFFFFFFFFFFFFF11111111FD
:4023C000111111111111111111111111111111111111111111111111111111111111111111111111111111111111111100000000000000001F1F1F1F1F1F1F1F1F1F1F1F7D
:402400001F1F1F1F1F1F1F1F1F1F1F1F1F1F1F1F1F1F1F1F000000000000000000000000000000000000000000000000FFFFFFFFFFFFFFFFFFFFFFFF1111111111111111B4
:402440001111111111111111111111111111111111111111111111111111111111111111111111111111111100000000000000001F1F1F1F1F1F1F1F1F1F1F1F1F1F1F1FC4
:402480001F1F1F1F1F1F1F1F1F1F1F1F1F1F1F1F000000000000000000000000000000000000000000000000FFFFFFFFFFFFFFFFFFFFFFFF1111111111111111111111116C
:4024C00011111111111111111111111111111111111111111111111111111111111111111111111100000000000000001F1F1F1F1F1F1F1F1F1F1F1F1F1F1F1F1F1F1F1F0C
:402500001F1F1F1F1F1F1F1F1F1F1F1F000000000000000000000000000000000000000000000000FFFFFFFFFFFFFFFFFFFFFFFF1111111111111111111111111111111123
:402540001111111111111111111111111111111111111111111111111111111111111111300900103C0900104809001054090010600900106C0900107809001084090010A3
:40258000B0090010BA090010C4090010CE090010D8090010E2090010EC090010F609001047656E6572617465645F536F757263655C50536F43365C70646C5C647269766563
:4025C00072735C7065726970686572616C5C737973696E745C63795F737973696E742E630000000047656E6572617465645F536F757263655C50536F43365C70646C5C64F4
:402600007269766572735C7065726970686572616C5C6970635C63795F6970635F6472762E68000047656E6572617465645F536F757263655C50536F43365C70646C5C6429
:402640007269766572735C7065726970686572616C5C6970635C63795F6970635F6472762E63000047656E6572617465645F536F757263655C50536F43365C70646C5C64EE
:402680007269766572732F7065726970686572616C2F6970632F63795F6970635F6472762E68000047656E6572617465645F536F757263655C50536F43365C70646C5C6430
:4026C0007269766572735C7065726970686572616C5C6970635C63795F6970635F706970652E630047656E6572617465645F536F757263655C50536F43365C70646C5C640C
:402700007269766572735C7065726970686572616C5C737973636C6B5C63795F737973636C6B2E630000000047656E6572617465645F536F757263655C50536F43365C70AE
:40274000646C5C647269766572735C7065726970686572616C5C737973636C6B5C63795F737973636C6B2E680000000047656E6572617465645F536F757263655C50536F1E
:4027800043365C70646C5C647269766572735C7065726970686572616C5C6770696F5C63795F6770696F2E630000000047656E6572617465645F536F757263655C50536F72
:4027C00043365C70646C5C647269766572735C7065726970686572616C5C6770696F5C63795F6770696F2E680000000047656E6572617465645F536F757263655C50536F2D
:4028000043365C70646C5C647269766572735C7065726970686572616C5C737973706D5C63795F737973706D2E63000047656E6572617465645F536F757263655C50536FD7
:4028400043365C70646C5C647269766572735C7065726970686572616C5C747269676D75785C63795F747269676D75782E630000000000000000001000000008C0000000E4
:4028800094280010C00000085803000054040008CC0100000048E80100127A0000093D0000093D0000093D0004000000A00F00000000D00702FF0000E9000010C100001018
:4028C000000000000004400B12D03E22094B1A60094A0A4B1A600A4B0621A322D2009950084A98509B58074B054AD358002BFADA7047C046040126401E1F0000080126408F
:40290000000026401C05000010B54378FF2B0DD100F034F9064BDB685A68116801230B4313601368DB07FCD400F050F910BDC04680002340F0B583B006000F0000F016F9AF
:402940000500032824D12B4B1B69002B22DB002000F02CF9284B98421ED00023274A0021012000F01BF9002803D0254C17E0013400E00024002000F019F91F4B984202D0F2
:40298000204B9C42F3D91F4B9C4207D91C4C06E0002404E01A4C02E0194C00E00024002C24D100F0EBF80190174A0121174800F015F900280ED1002E04D13800FFF782FFB5
:4029C000134C08E0114B1B69002BFBDB00F0DEF8040000E00A4C032D05D10121002000F0EDF80028F9D1019800F0F0F8200003B0F0BDC046C000234001018800E000000814
:402A000005005200EF49020010060008000023400100500070B5304B1B68002BFBDA2E4BD96802220A43DA60DB68DB071FD52A4EF2681204150C294B1A69120A1204FF243D
:402A400024042240110090241A59120A12060A432A43F2601969224A114090252D012943196119590A402A431A511A691B591A4B00225A605B681B4A116904230B431361F5
:402A8000012801D030BF00E020BF134B1B68002BFBDA114BDB68DB0715D510480269104B1A4014000C4DEA68120C1202FF2109020A4022430261902142581340EA68120E6C
:402AC000120213434350044BDA6802218A43DA6000225A6070BDC046E000234000002140FF00FFFF00ED00E0164A116904230B431361012801D030BF00E020BF124B1B6856
:402B0000002BFBDA86235B00104AD358002B14D10F4A104B1A6006220F4B1A6038320F4B1A6006320E4B1A600D4B1B68002BFBDA0C4986235B00054AD1500022024B5A60BC
:402B40007047C04600ED00E0E0002340000025401E1F00000801264018052640040126401C052640AAAAAAAA0000000001B40248844601BC604700BF1504001001B4024846
:402B8000844601BC604700BFCB17001001B40248844601BC604700BFF113001001B40248844601BC604700BFE10E001001B40248844601BC604700BF050D001001B402483E
:402BC000844601BC604700BF790C001001B40248844601BC604700BFD317001001B40248844601BC604700BF550B0010000000000000000000000000000000000000000011
:0200000490303A
:02000000F69D6B
:0200000490501A
:0C0000000005E20721002101E214179D19
:00000001FF