:020000041000EA
:4000000000400208230100100D00000085010010000000000000000000000000000000000000000000000000000000008101001000000000000000008101001081010010E9
:400040008101001081010010810100108101001081010010810100108101001081010010810100108101001081010010810100108101001081010010810100108101001060
:400080008101001081010010810100108101001081010010810100108101001081010010810100108101001081010010810100108101001081010010810100108101001020
:4000C00010B5064C2378002B07D1054B002B02D0044800E000BF0123237010BD3C06000800000000CC350010084B10B5002B03D00749084800E000BF07480368002B00D129
:4001000010BD064B002BFBD09847F9E70000000040060008CC350010E8000008000000007047FFF7FDFF72B60F4C104DAC4209DA21686268A368043B02DBC858D050FAE7A8
:400140000C34F3E70A490B4A0020521A02DD043A8850FCDC084809490860BFF34F8F00F005F900F01DF8FEE7D0350010E83500103C060008140800080000000808ED00E065
:40018000FEE7FEE700B504207146084202D0EFF3098001E0EFF30880043001F0EBFFFEE710B562B6014800F067F9FEE70000081010B5002001F02AF910BDC04670B5624910
:4001C000E0239B00CB580F2213401A00D0329200525807210A40032A05D0042A06D0002A12D15A4814E05A4A106811E01A00C0329200554952581F210A40112A06D0132A7C
:4002000004D0FA20C00103E0524801E080200002002B36D14C4BB222D2009A5801211140B125ED005A59120F032422405B591B0F1C4207D0444C63591B0F03242340012BDC
:4002400002D102E0012300E00023002B01D0002901D1032A4BD13C4BB022D2009D58AD03AD0B3D495958C904C90C9C58240E01231C40013402F0C2F86843210002F0BEF806
:4002800035E0012B33D1304BC822D2009A5801251540C024E4001A59120F03210A401B591B0F194207D028490B591B0F03210B40012B02D102E0012300E00023002B01D049
:4002C000002D01D1032A12D11F4DC022D200AB587F210B40A958090A1F263140AC58240C3440584302F08AF8210002F087F8E0239B00154AD3581B0903221340D840144C92
:400300006060164B1D692D0AFC32154001351969090E013102F072F8A060290002F06EF80500E06020610E4BC0180E4902F066F820750D4BE818FA21890002F05FF8A06105
:40034000C003E06170BDC0460000264000127A00C000000800366E0184050000000021403F420F0040420F00E703000010B5284802F03EF8274CB022D200A3585B005B08C5
:40038000A350E0218900635830208343635080235B04A350204A214BE250A02292010433E250FF221E4BE25001F0A0F9C0225200A35801218B43A35000F016FBFFF7FEFE36
:4003C000B0235B055B78002B04D0B0235B055B78DBB200E02123212B03D1124B0022DA605A60114C22008021042000F0B5FD2000103000F049FE0D4B1A685123D35C002B89
:4004000002D00B4800F0B6FE01F030FA10BDC046143500100000264001000200840500008C050000E00023405806000810080008742500108023024AD3580320184070476B
:400440000000214010B501F028FF084980228C58074B2340074C23438B508823034AD358DB06FAD501F01DFF10BDC04600002140FCFF00000100FA0570B50500830504D089
:40048000E821FF310F4801F047FE01F006FF0400FFF7D0FF032801D1FFF7D4FF0A4AB0239B00D55080215058084B03400848034353508823044AD358DB06FAD5200001F00D
:4004C000F0FE70BDA825001000002140FCFF00000300FA05FEE7C046F0B50025002711E0BB00C658F3B2FF22964308E06A008A181478A419527822700135013BDBB2002B9E
:40050000F4D10137022FEBD9F0BDC0460323064A1360064A136080225201054B1A60054A054B1A607047C04608203140102031409402364001001180000E1F4110B50A00C0
:40054000002101F0F0FF10BD10B501F0E3FF10BD30B587B04A4A116808230B431360494C03E0012001F0CCFD013C454B1B695B0701D4002CF5D1002C01D1434B00E00023D7
:40058000002B02D00520FFF7A5FF4048A021C900435803229343023A134343503C4A116808688823CB58C31818683A49084018601368186884241B59C01803681B021B0A3B
:4005C00080256D042B430360106805680359EB1818680140196013683E229A5C002A06D02A48E02189004258753CA24342503E229A5C002A06D02548E021890042583024CC
:40060000A24342503E229B5C002B07D01F49E02292008B588020000603438B500021012000F00CFF0021022000F008FF0021032000F004FF0021042000F000FF0021002021
:4006400000F0FCFE01A8144903000A0032CA32C312CA12C300F020FF002802D00420FFF739FF0A490D4A8B588020000603438B500B4800F0CDFF002814D00420FFF72AFFCE
:400680000000274020A1070002004A000000264010080008FF00FFFFC0250010087F0000400D0300BC4CBD4BE158BD4A0A40E250E158BC4A0A40E250E25880252D062A436A
:4006C000E250043BE158B84A0A40E250E158B74A0A40802189010A43E250E258802109020A43E250B24A1168B24B0B401360002001F046FEB04BE2582A43E250E15801228A
:4007000091430A43E2506421002001F04BFDAB4B1B683F229A5C022A06D970229A5C02210A40A749986842509A6874215B5AD2189168A44B0B40A021C9000B4393609F4B18
:400740001B6873229A5C0321914070229A5C7220185C140084402143022002400A43802109060A438021C900986842509A6852583F229A5C032A06D970229A5C01210A40FF
:400780009149986842509A6874215B5AD21851688C4B0B40C02189000B435360874B1B6873229A5C0321914070229A5C7220185C140084402143012002400A438021090652
:4007C0000A438021C900986842509A6852583F229A5C052A06D970229A5C04210A407B49986842509A6874215B5AD2181169754B0B408C2189010B431361704B1B687322CB
:400800009A5C0321914070229A5C7220185C140084402143042002400A43802109060A438021C900986842509A6852583F229A5C132A0AD97122985C703A8240110003220B
:4008400082400A406249986842509A6876215B5AD21811685F4B0B405F490B431360574B1B6873229A5C0324210091400A007021585C0231595C8840104371229A5C01215A
:400880009140944022000A400243802109060A438021C900986842509A6852583F229A5C142A07D970229A5C03210A40C5210901986842509A6874215B5AD218D168414B55
:4008C0000B40B02109010B43D3603C4B1B6873229A5C03200400944070229A5C7221595C15008D402900214302400A43802109060A438021C900986842509A6852583F22ED
:400900009A5C152A06D970229A5C03210A403349986842503F229A5C1C2A07D970229A5C03210A40C7210901986842503F229A5C252A06D970229A5C03210A4028499868BC
:4009400042503F229A5C332A03D90021254A986881509A6874215B5AD2181168194B0B40FE2109020B431360144B1A687323D15C703B8B4019007023D35C7220105C8340F5
:400980000B43802109060B438021C9009068435093685B5807B030BD0000264004050000FEFCFFFFFFFF00FFFFF0FFFFFF8FFFFF00002740FFFCFFFF0C0500001008000836
:4009C000080C0000FF00FFFF0C0C0000140C00004C0C0000FF0000FF004FC300540C0000940C0000CC0C000070B58EB09621002001F0D8FB01F0AEFB002814D101F09AFB43
:400A0000C0235B007B4AD358DB0705D411007A4A8B585B005B088B507649774A8B588020000603438B50012001F002FB734A516C734B0B40E82189010B435364536C1B0A44
:400A4000FF2213403A2B07D16C4A516C6D4B0B40E82189010B435364002300226A496B4801F022FC0023002269496A4801F01CFC3422002101A801F056FD674C01AA002168
:400A8000200000F0FBFE3422002101A801F04BFD01AA0121200000F0F1FEFFF759FD5F4A5F4B1A6000240CE06200121953005D4AD318198B9A8AD88A00041043FFF73EFDBB
:400AC00001340B2CF0D900240AE0620012199300544AD3185A6E196ED86DFFF735FD0134112CF2D9504D2900343128005430FFF7F3FC0F224D4B1A604D4B4E490B604E49E1
:400B00000A604E4A13604E4B4E4A13604E4A13604E4A1368832149000B43136001AC22002B00603323CB23C223CB23C223CB23C22100394801F03CF8454D22002B1D43CBF9
:400B400043C243CB43C243CB43C22100414801F02FF822002B00283343CB43C243CB43C243CB43C221003C4801F022F822002B004C3343CB43C243CB43C243CB43C22100D1
:400B8000364801F015F824220021200001F0CBFC862301932100324801F00AF822002B00703323CB23C223CB23C223CB23C221002C4800F0FDFF2C4D22002B00143343CBAA
:400BC00043C243CB43C243CB43C22100274800F0EFFF22002B00383323CB23C223CB23C223CB23C22100224800F0E2FFFFF78EFC0EB070BD000026400C0500000000274086
:400C0000FF00FFFFFFC5FFDF0E0E0040110E00000003004029030000000032400300FA05F0012140C0250010C02600100000634007010100000263400000644000026440DF
:400C400010200200A00339406001394000793440402700108000324080023240000332408003324000043240C0270010800432408006324070B505000C001A4B1B682822D5
:400C80009A5C012A15D1820807211000884327D19200AD1AED00FF20A8401B6820339A181168AC4023004B40184004004C40146016E03A229B5EDBB2994203D176210A48F4
:400CC00001F02AFA074B1B681B68072215408022120615438022920194466444A400E55070BDC046100800084C31001070B504000D000B4B9A680B4B9A420CD1002904D1EC
:400D00003821FF31084801F007FA1034054BA400E058E55003E01034A400044BE05870BD00ED00E0000000084C31001000000010F0B5474680B482B0061E01914AD043683F
:400D4000032B03D93221264801F0E6F90023F05E002804DBB178FFF78DFF002400E0214C0023F15E7368002912DB88081E4FC0308000C55903221140C900FC3290468A4049
:400D800095439A01434613408B402B43C35116E089B20F220A40083A92080632920013481018476803221140C900FF252A008A4097439A012B0013408B403B4343600B4B87
:400DC0009A680B4B9A4206D10023F05E0199FFF78DFF00E0034C200002B004BC9046F0BD4C3100100100560000E100E000ED00E00000000870B504000D000A4B1A68B423B9
:400E0000D3581B181B68002B0ADA0B0C03D00649064801F081F92D042D0C6560002000E0034870BD10080008D50200009031001001008A0070B505000C000368002B01DA2F
:400E4000002300E0084B002B0BD1EA60230C03D00649074801F060F92404240CAC60002000E0014870BDC04601008A00BB0200009031001070B505000C1E03D199210848B6
:400E800001F04AF9074B1A68B423D3585B191B68002B03DAEB682360002000E0024870BDD03100101008000801008A0070B504000D00234B1A683123D35C834236D900297A
:400EC00036D00B68DB0635D13123D35C984204D3C421FF311B4801F01FF9194B1B681A6AB0215B5A5C431419174E34602B68DA080021686801F017FB00212000FFF77AFF0E
:400F00003468002D03D111490E4801F005F92A0000212000FFF78EFF00280DD10A4B18680021FFF767FF002808D108E0084806E0074804E0064802E0064800E0054870BD05
:400F40001008000890310010E80700089303000003018A0001018A0010B50400002A17D1002915D1124B1A683123D35C984204D3C421FF310F4801F0CFF80D4B1B681A6A59
:400F8000B0215B5A5C4314190B4B1C6000200EE0002A09D0002909D0074B59609A60191D2000FFF783FF02E0044800E0034810BD1008000890310010E807000803018A008B
:400FC000F0B583B00D001C4B1B68DC68236883422DD947097B01C01A012383401E00002903D101F05AF9019001E000230193124B18680368002B01DA002300E00F4B002B9D
:401000000ED16368BF00DF193B68334203D0B3433B60002400E00A4C0021FFF7EBFE00E0084C002D04D1019801F03BF900E0064C200003B0F0BDC046E807000801008A004B
:40104000020188000301880004018A000A4B1B68DA68136883420BD943095901401A0121814052689B009B580B4203D0034802E0034800E003487047E80700080101880066
:4010800004018A0000018800034B1B68002B01D1014B18607047C046F4070008F0B5474680B404000F0090461E002D4B1B68002B03D1B5212B4801F02FF8294B1B682C20BB
:4010C00060431C18FF22150035402560330A13406360360CA660244B1A683123D35C9D4204D3C421FF31214801F016F81E4B1A68B023D35A6B43116A8C46634423616668C8
:401100003223D35C9E4204D3E021FF31174801F003F8154B1B681D6A80367601AD196561A668330C04D0FF214900104800F0F4FF330C03D00E490D4800F0EEFF3604330CFC
:401140001E43AE604346E36127620023A361069B002B02D000229B5EA38104BC9046F0BDF4070008103200101008000890310010FF010000F0B58FB0041E03D1522129485F
:4011800000F0CAFF6368032B03D95421254800F0C3FFE36A002B03D15821224800F0BCFF236B002B03D159211E4800F0B5FF07AA1300210061C961C321C921C302AD290049
:4011C00023001433C1CBC1C141CB41C10821535E0CAE3380144B1B6836215B5E07998C466344B370089B0D930B9B0A980096A26AE16AFFF753FF2B69E8680022009200217B
:40120000FFF74CFF216B3000FFF792FD0023F25E002A05DB1F231A401E3B9340034A13600FB0F0BD103200101008000800E100E0F8B505000F0016001C00002A03D1FD2179
:40124000224800F069FF224B1B68002B03D1FE211E4800F061FF1E4B1B682C2128004843181879435918012213004D68AB401B044568AA4015000269002A20D08F69002F52
:401280001FD11268002A01DA002200E0114A002A19D132681204120C134333600369DE6001238B614C6204692B0C03D00A490B4800F032FF2A04120CA260002004E008484F
:4012C00002E0084800E00748F8BDC04610320010F407000801008A00BB0200009031001004028A0007028A0070B504000D0016000F4B1B68002B04D1AF2149000D4800F0BA
:401300000BFF0B4B1B682C2060431C18236A002B04D1B1214900074800F0FEFEE369B34204D9236AB6009D51002000E0024870BDF4070008103200100A028A0070B582B0BC
:40134000040000230193002804D1D221FF312D4800F0E2FE2369002B04D1E9214900294800F0DAFE6369002B04D1D421FF31254800F0D2FE236A002B04D1EA2149002148CD
:4013800000F0CAFE6269D5682B0C24D01B041360136820691C4B1A68B423D358C3181B68002B18DA01A9FFF765FD00280ED1019803681E0CFF221340E269934207D29B0007
:4013C000226AD358002B02D0984700E0002631002069FFF70FFD2D042D0C0FD063691D601B68636A002B03D098470023636203E0A36A002B00D098470023A36163691B68B1
:4014000002B070BD103200101008000810B50400084B1B68002B04D1B221FF31064800F07BFE044B1B682C2060431818FFF786FF10BDC046F407000810320010134B1A688E
:401440003C23D35C83421DD9042904D94B1EFF3B9BB2132B18D8FF290CD91F2319400C4A0300C0339B009950D03080000423835000200AE007231940D0308000044BC1509C
:40148000002002E0034800E002487047100800080000264001004A0070B5041E03D14A494A4800F039FEB023DB00494AD358002B00DA87E0474B22689A4203D94649434800
:4014C00000F02AFE23689B039B0BE279002A02D08022520400E000221343B022D2003C498B50A2883D4B9A4204D98C218900374800F012FE22893A4B9A4203D93949334855
:4015000000F00AFEA388DB04D90C23891B04364A13400B43354A2E498B50A37A0F2B04D98E218900294800F0F7FDE37A0F2B03D92F49264800F0F0FDA289284B9A4203D9BA
:401540002C49224800F0E8FDA37A0F211940E27A1201FF2313400B43A289120226490A401343A27B1207C02189050A401343B122D20017498B50A379042B03D91F49134882
:4015800000F0CAFD228A164B9A4204D9912189000E4800F0C1FD0E4819494558194B1D40A3791B02E022D20013402B4343504558154B1D40238A1B040B4A13402B43435029
:4015C000002000E0114870BD1F0200005032001000002640FFFF030029020000FF1F0000FF010000310200000000FF0184050000390200003A02000000FF1F00430200006C
:401600008C050000FFF8FFFFFFFF00FE03004A0070B505003149324A8B588020000603438B502C0003E0012000F06AFD013CB223DB002A4AD3585B0701D4002CF3D1274967
:40164000B122D2008858274B03408020800503438B50002D01D0002C0CD02049B022D2008B588020000603438B5003E0012000F047FD013CB223DB00184AD358DB0701D4C4
:40168000002CF3D1002D01D0002C08D01349B122D2008B58C020800503438B5013E00F4BB121C90058580F4A02408020800502435A5008395A58520052085A5008495A583B
:4016C000520052085A50002D03D0002C03D0002002E0002000E0044870BDC046000026408C050000FFFFFFCF02004A000749C02252008B589B009B088020C00503438B50DA
:401700008B588020000603438B50704700002640214B984230D00ED8402831D004D800281FD010282AD031E080282BD080235B00984229D02AE0194B984229D007D8A023C0
:401740001B0698420DD0164B984212D01EE0154B98420AD0144B984209D0144B984215D101E0002016E0124814E0124812E0124810E0A020C0030DE007480BE00F4809E06C
:401780000F4807E00F4805E0034803E00E4801E0A420C0037047C04606005200010000F0090000A0040000F0050000F0030000F001005200020052000300520001005000EB
:4017C0000200500005005200FF00520070B5124B1A683123D35C002B04D1C421FF310F4800F09AFC0C4B1D682C00B423EB582A6A944663441B68002B0BDB094B1868FFF7E1
:4018000087FF6B6801229A6063689B68002BFBD100E0044870BDC04610080008D8320010F80700080200500010B50D4B1861002805D002230370FD33437000234380094B33
:401840001B6850229A5C002A08D051229B5C002B04D04F3A04490020FFF746FD10BDC046F8070008100800086101000810B502481430FFF7D9FF10BDF8070008F8B54F4648
:401880004646C0B406000D001400002800D16FE1002A00D16EE1072903D94521B84800F03BFC2368012B03D94621B54800F034FC0F2362689A4303D04721B14800F02CFC99
:4018C000237A1F22934303D04821AD4800F024FCE368032B03D94921A94800F01DFC2369012B03D94A21A64800F016FC6369012B03D94B21A24800F00FFCA369012B03D912
:401900004C219F4800F008FCE369032B03D94D219B4800F001FC236A012B03D94E21984800F0FAFB636A012B03D94F21944800F0F3FBA36A012B03D95021914800F0ECFBCD
:40194000E36A032B03D951218D4800F0E5FB236B072B03D952218A4800F0DEFB2768072D03D98849884800F0D7FB012F04D9CA218900854800F0D0FB002F03D10123AB4032
:40198000736002E00123AB40B3606768072D04D9F12189007C4800F0BFFB0F233A009A4303D07A49784800F0B7FBA900784B1A687D23D35C9B191A6890460F2291468A408B
:4019C000404690430200484607408F4017431F60277A072D04D9A22189006B4800F09CFB1F233A009A4303D06A49674800F094FB674B1A689369F31ADB0952691B01D318E7
:401A0000032D0AD81968E8001F22824091431F22174087400F431F600AE02A1F5968D2001F20904081431F20074097400F435F60E768082D04D9DD21C900534800F06CFB03
:401A4000032F03D95449504800F066FB6900504B1A687C23D35C9B191A689046032291468A40404690430200484607408F4017431F602769082D03D94849434800F04CFBE0
:401A8000012F03D94649404800F046FBB36901221100A9408B431740AF401F43B76163699846072D03D93F49374800F035FB4346012B03D93C49344800F02EFB34487E2362
:401AC0000268D35C9B191A6801273900A9408C468A43110042463A40AA400A431A606B0010229046984403210B00424693406246134399467F2203689A5C9446B444634637
:401B00001A684B469A43A3693B40AB401A43E3691940434699400A4363461A6002688023D35CF6183368FF22944693431800236A1F40636A5A00022313403B43A26A9100FB
:401B4000042739400B431F00E36AD900182319403B000B43226B520161460A401343AD00FE2292001540AB4003433360002002E00E4800E00D480CBC90469946F8BDC046AD
:401B8000183300102703000058330010C50300001008000889020000E9060000690600006A060000030400000404000001005A0070B505000C0000285DD000295DD0FF2357
:401BC0000A689A4303D099212D4800F0A5FAFF2322699A4303D09A21294800F09DFAA3685B0D03D09B21264800F096FA63685B0A03D09C21224800F08FFAE3695B0F03D0D9
:401C00009D211F4800F088FA236A5B0F03D09E211B4800F081FA1B4A11688B69EB1ADB0949691B01CB18216829607D211068415C6918E06808607E211068415C6918206996
:401C400008607F211068415C6918606908607C211068415C6918A06808606168A961116880228A5CAD18A2692A60E2691A60226A5A60002002E0044800E0034870BDC0460D
:401C8000183300101008000801005A0010B5B0235B059B899BB2002B04D0B0235B059B899BB201E080235B0080225200934215D1184C23681968683A9B58C9180B680F202C
:401CC0008343963A13430B6021680C689C23CB58E318196881430A431A6019E00D4C2368196898229B58C918B02040050A4BC2580A4B13400A681343C022920013430B6092
:401D0000226811689C23D358CB18054A82581A6010BDC0461008000848180000FFFCFFFF4418000030B5B0235B059B899BB2002B04D0B0235B059B899BB201E080235B007D
:401D400080225200934215D1184C23681968683A9B58C9180B680F208343953A13430B6021680C689C23CB58E318196881430A431A6019E00D4D2B68196898229B58C918FB
:401D8000B0246405C12040012258094B13400A681343C022920013430B602A6811689C23D358CB1822581A6030BDC04610080008FFFCFFFFB0235B059B899BB2002B04D02B
:401DC000B0235B059B899BB201E080235B008022520093420DD1104B1B681A6898215B58D21811680D4B0B40C021C9010B43136011E0094B1B68196898229B58C918084B51
:401E0000B0225205D258074B13400A681343C022920013430B60704710080008FF8FFFFF18180000FFFCFFFF30B5B0235B059B899BB2002B04D0B0235B059B899BB201E014
:401E400080235B008022520093420DD1134B1B681A6898215B58D2181168114B0B408021C9010B43136018E00C4D2B68196898229B58C918B02464050A4822580A4B134014
:401E80000A681343C022920013430B602A6811689C23D358CB1822581A6030BD10080008FF8FFFFF4C180000FFFCFFFF10B5B0235B059B899BB2002B04D0B0235B059B89A4
:401EC0009BB201E080235B0080225200934217D1002000F073FAB0235B055B78002B04D0B0235B055B78DBB200E02123222B03D8002803D1013004E0012002E0002000E090
:401F0000012010BDF8B50700012803D93D493E4800F002F9B0235B055B78002B04D0B0235B055B78DBB200E021239DB2B0235B059B899BB2002B04D0B0235B059E89B6B293
:401F400001E080267600002000F038FA002814D180235B009E4212D1222D12D82B4B1B685C682B4821582B4B19403B068022520413400B432350002404E0274C02E0264C87
:401F800000E0254C80235B009E4201D1222D03D880235B009E4232D01C4B1A683123D35C002B04D1C421FF311C4800F0B5F8174B1B681D6A80235B009E4203D1002F05D072
:401FC000174A06E0002F03D0164A02E0164A00E0164A01212800FEF72DFF00280FD10B4B1A68B423D3585B191B68002BF7DBEB681B0E1B06A0221206934200D10024200014
:40200000F8BDC0464C0A0000983300101008000818F00000FFFFFFFE04004200D8320010010100300300000C010000300100000CF8B50500012804D982210901294800F0EC
:402040006BF8FFF733FF002849D000F026F90700002D11D10021244B244AD150E823DB00B0225205D65CF6B20120FFF74BFF041E19D1FFF70BFE16E0B02252051C4BD0584D
:402080001A4B194958501B49565CF6B21A481A581F218A4314390A431A50032000F030F8FFF7C2FE0024002C15D11049124A8B581F20834306401E438E50002D02D1FFF7CF
:4020C00079FE08E0072000F01BF8FFF72BFE0020FFF718FF0400380000F0E3F800E0074C2000F8BD98330010307F00000000264010180000410700001CFF0000030042003C
:4021000010B5034B1B78584300F0BEF810BDC046D400000801BEFEE770B50D00044C18220100200000F007FAA5610020FFF7F2FF00060008054B802212069A649B6C002B42
:4021400001DB002000E002487047C0460000274003004600054B8022120198585B68FF221A4202D08023DB021843704700002640FEE7C04610B50A4B0268DA6142681A62FD
:4021800082685A62C2689A620269DA6242691A6382695A63C2699A63FFF7EAFF10BDC04600060008F0B5474680B4002801D0192300E064238B429B415B42304D2C68226811
:4021C000A826A45BA41822680327BA433B401A4322602C682268A45BA2181668284CA046264016602C682668AA229446A25A96193268BA43134333602A6813686546525B68
:40220000D3181A68444614401C60002805D010291BD921291BD8012024E0184B1B6855229A5C914215D956229A5C914213D957229A5C914211D958229A5C91420FD9592238
:402240009B5C99420DD804200CE000200AE0022008E0002006E0012004E0022002E0032000E00520054A1268526813680F218B430343136004BC9046F0BDC046100800082E
:40228000FFFCFFFF000000000230800803D001300238FCD1C046C0467047EFF3108072B6704780F310887047F0B54F464646C0B483B006000D0000921F00012B03D95B21D5
:4022C0002B48FFF729FF330B03D05C212848FFF723FF284B1A686E23D35A9B08013B264A13432A009A4301D16B0003D45D212048FFF712FF32006A40F0231B011A40141E40
:402300002FD1FFF7CAFF01901A4B18686C23C15A83689C4661446E23C35A9A08013A2A40920090466A22825A15402D0A5D432A00424455182A68920A9202FF231E40009B61
:40234000002B01D00134FF3426437F0280239B001F403E4316432E600198FFF7A2FF002000E0064803B00CBC90469946F0BDC046D833001010080008000F00400100CE0050
:40238000042805D10B4A116804230B4313600FE0094B1A681168A023D358CB180006C022920410401860034A136804218B4313607047C04610E000E01008000810B504006C
:4023C000094B1B689B6CC340DB0703D4BE210748FFF7A2FE044B1B681B691034A402E3580F20184010BDC046100800081C340010014B18607047C04610080008002243081C
:402400008B4274D303098B425FD3030A8B4244D3030B8B4228D3030C8B420DD3FF22090212BA030C8B4202D31212090265D0030B8B4219D300E0090AC30B8B4201D3CB03F6
:40244000C01A5241830B8B4201D38B03C01A5241430B8B4201D34B03C01A5241030B8B4201D30B03C01A5241C30A8B4201D3CB02C01A5241830A8B4201D38B02C01A524121
:40248000430A8B4201D34B02C01A5241030A8B4201D30B02C01A5241CDD2C3098B4201D3CB01C01A524183098B4201D38B01C01A524143098B4201D34B01C01A524103092F
:4024C0008B4201D30B01C01A5241C3088B4201D3CB00C01A524183088B4201D38B00C01A524143088B4201D34B00C01A5241411A00D20146524110467047FFE701B5002086
:4025000000F006F802BDC0460029F7D076E770477047C046002310B59A4203D0CC5CC4540133F9E710BD03008218934202D019700133FAE77047030030B5002A0DD00C7863
:4025400001335D1E013A2C700131002CF5D19A189A4202D01C700133FAE730BDF8B5C046F8BC08BC9E467047F8B5C046F8BC08BC9E46704703000000010000000100000032
:402580000000000005036000040000000100000000000000010000000604600008000000C8070008B101001073797374656D5F70736F63365F636D30706C75732E630000FF
:4025C000F4010000140004010A00090508000000630100000020344074008020344074000022344074008022344074000024344074008024344074000026344074008026D9
:4026000034407400002834407400802834407400002A34407400802A34407400002134401C2800109000000000233440AC28001090000000002534403C290010900000004C
:4026400000273440CC29001090000000002934405C2A001090000000002B3440EC2A001090000000006034407C2B00107C00000080603440F82B00107C0000000061344033
:40268000742C00107C00000080613440F02C00107C000000006234406C2D00107C00000080623440E82D00107C00000000633440642E00107C00000080633440E02E001095
:4026C0007C000000006434405C2F00107C00000080643440D82F00107C00000000653440543000107C00000080653440D03000107C00000088038C018E029001B202B40114
:40270000B828BAC0BE14DC24E008E32128406851ACC000000C20344002703440017134401C000000000000000000000000660A0000000000000000000000000000000903F0
:402740000000000023000000000000000000000060006000000000000000000000000000000300000000000003000000000000000000000068000000000000000000000008
:40278000000000001212000000000000130000000000000000000000CC0006BA0000000000000000000000001313000009001D1DFE000000000000000000000000000000EF
:4027C0000000000000000000000000000004040000000000030000000000000000000000CC000000000000000000000000000000131300000000000080000000000000005C
:4028000000000000000000600000000000000000000000000000000000000003000000000000000000000000FFFFFFFFFFFFFFFFFFFFFFFFFFFFFFFFFFFFFFFFFF0000004A
:40284000FF22F7FFFFFFFFFFFFFFFFFFFFFFFFFFFFFFFFFFF4000000000000000000001F00000000000000000003000FF300F000FFFFFFFFFFFFFFFFFFFFFFFF1111111111
:402880001111111111111111111111111131D1113131111111111111111111D111111111111111111111111111111D11000000000000000000000000FFFFFFFFFFFFFFFF48
:4028C000FFFFFFFFFFFFFFFFFFFFFFFFFF000000FFFFFFFFFFFFFFFFFFFFFFFFFFFFFFFFFFFFFFFFFF00000000000000000000000000000000000A000000000000000000F0
:40290000FFFFFFFFFFFFFFFFFFFFFFFF1111111111111111111111111111111111111111111111111111111111111111111111111111111111111111111111110000000073
:402940000000000000000000FFFFFFFFFFFFFFFFFFFFFFFFFFFFFFFFFFFFFFFFFF000000FFFFFFFFFFFFFFFFFFFFFFFFFFFFFFFFFFFFFFFFFF000000000000000000000081
:4029800000000000000000000000000000000000FFFFFFFFFFFFFFFFFFFFFFFF111111111111111111111111111111111111111111111111111111111111111111111111BF
:4029C000111111111111111111111111000000000000000000000000FFFFFFFFFFFFFFFFFFFFFFFFFFFFFFFFFFFFFFFFFF000000FFFFFFFFFFFFFFFFFFFFFFFFFFFFFFFF30
:402A0000FFFFFFFFFF000000000000000000000000000000000000000000000000000000FFFFFFFFFFFFFFFFFFFFFFFF111111111111111111111111111111111111111153
:402A400011111111111111111111111111111111111111111111111111111111000000000000000000000000FFFFFFFFFFFFFFFFFFFFFFFFFFFFFFFFFFFFFFFFFF0000008F
:402A8000FFFFFFFFFFFFFFFFFFFFFFFFFFFFFFFFFFFFFFFFFF000000000000000000000000000000000000000000000000000000FFFFFFFFFFFFFFFFFFFFFFFF11111111F3
:402AC0001111111111111111111111111111111111111111111111111111111111111111111111111111111111111111000000000000000000000000FFFFFFFFFFFFFFFFF2
:402B0000FFFFFFFFFFFFFFFFFFFFFFFFFF000000FFFFFFFFFFFFFFFFFFFFFFFFFFFFFFFFFFFFFFFFFF000000000000000000000000000000000000000000000000000000B7
:402B4000FFFFFFFFFFFFFFFFFFFFFFFF1111111111111111111111111111111111111111111111111111111111111111111111111111111111111111111111110000000031
:402B8000000000001F1F1F1F1F1F1F1F1F1F1F1F1F1F1F1F1F061F1F1F1F1F1F1F1F1F1F1F1F1F1F000000000000000F0000000000000000000F000400003000FFFFFFFF00
:402BC000FFFFFFFFFFFFFFFF111111111111111111111111111111111111111151111111111113111111111111111111111111111111111111111D1100000000000000005F
:402C00001F1F1F1F1F1F1F1F1F1F1F1F1F1F1F1F0A1F1F1F1F1F1F1F1F1F1F1F1F1F1F1F00000000000000000000000000001F000000000000000000FFFFFFFFFFFFFFFFB2
:402C4000FFFFFFFF11111111111111111111111111111111111111E11111111111111111111111111111111111111111111111111111115100000000000000001F1F1F1F9C
:402C80001F1F1F1F1F1F1F1F1F1F1F1F1F1F1F1F1F1F1F1F1F1F1F1F1F1F1F1F000000000000000000000000000000000000000000000000FFFFFFFFFFFFFFFFFFFFFFFFBC
:402CC00011111111111111111111111111111111111111111111111111111111111111111111111111111111111111111111111100000000000000001F1F1F1F1F1F1F1FAC
:402D00001F1F1F1F1F1F1F1F1F1F1F1F1F1F1F1F1F1F1F1F1F1F1F1F000000000000000000000000000000000000000000000000FFFFFFFFFFFFFFFFFFFFFFFF1111111173
:402D4000111111111111111111111111111111111111111111111111111111111111111111111111111111111111111100000000000000001F1F1F1F1F1F1F1F1F1F1F1FF3
:402D80001F1F1F1F1F1F1F1F1F1F1F1F1F1F1F1F1F1F1F1F000000000000000000000000000000000000000000000000FFFFFFFFFFFFFFFFFFFFFFFF11111111111111112B
:402DC0001111111111111111111111111111111111111111111111111111111111111111111111111111111100000000000000001F1F1F1F1F1F1F1F1F1F1F1F1F1F1F1F3B
:402E00001F1F1F1F1F1F1F1F1F1F1F1F1F1F1F1F000000000000000000000000000000000000000000000000FFFFFFFFFFFFFFFFFFFFFFFF111111111111111111111111E2
:402E400011111111111111111111111111111111111111111111111111111111111111111111111100000000000000001F1F1F1F1F1F1F1F1F1F1F1F1F1F1F1F1F1F1F1F82
:402E80001F1F1F07151F1F1F1F1F1F1F000000000000001F0000000000000000000000000F000000FFFFFFFFFFFFFFFFFFFFFFFF111111111111111111111111111111118E
:402EC000111111111111111111111111D11111111111111111111111E11111111111111100000000000000001F1F1F1F1F1F1F1F1F1F1F1F1F1F1F1F1F1F1F1F1F1F1F1F3A
:402F00001F1F1F1F1F1F1F1F000000000000000000000000000000000000000000000000FFFFFFFFFFFFFFFFFFFFFFFF111111111111111111111111111111111111111151
:402F40001111111111111111111111111111111111111111111111111111111100000000000000001F1F1F1F1F1F1F1F1F1F1F1F1F1F1F1F1F1F1F1F1F1F1F1F1F1F1F1F11
:402F80001F1F1F1F000000000000000000000000000000000000000000000000FFFFFFFFFFFFFFFFFFFFFFFF11111111111111111111111111111111111111111111111109
:402FC00011111111111111111111111111111111111111111111111100000000000000001F1F1F1F1F1F1F1F1F1F1F1F1F1F1F1F1F1F1F1F1F1F1F1F1F1F1F1F1F1F1F1F59
:40300000000000000000000000000000000000000000000000000000FFFFFFFFFFFFFFFFFFFFFFFF11111111111111111111111111111111111111111111111111111111C0
:40304000111111111111111111111111111111111111111100000000000000001F1F1F1F1F1F1F1F1F1F1F1F1F1F1F1F1F1F1F1F1F1F1F1F1F1F1F1F1F1F1F1F000000001C
:403080000000000000000000000000000000000000000000FFFFFFFFFFFFFFFFFFFFFFFF1111111111111111111111111111111111111111111111111111111111111111FC
:4030C0001111111111111111111111111111111100000000000000001F1F1F1F1F1F1F1F1F1F1F1F1F1F1F1F1F1F1F1F1F1F1F1F1F1F1F1F1F1F1F1F0000000000000000E0
:4031000000000000000000000000000000000000FFFFFFFFFFFFFFFFFFFFFFFF11111111111111111111111111111111111111111111111111111111111111111111111137
:4031400011111111111111111111111147656E6572617465645F536F757263655C50536F43365C70646C5C647269766572735C7065726970686572616C5C737973696E74B8
:403180005C63795F737973696E742E630000000047656E6572617465645F536F757263655C50536F43365C70646C5C647269766572735C7065726970686572616C5C697043
:4031C000635C63795F6970635F6472762E68000047656E6572617465645F536F757263655C50536F43365C70646C5C647269766572735C7065726970686572616C5C69705E
:40320000635C63795F6970635F6472762E63000047656E6572617465645F536F757263655C50536F43365C70646C5C647269766572735C7065726970686572616C5C697022
:40324000635C63795F6970635F706970652E630047656E6572617465645F536F757263655C50536F43365C70646C5C647269766572735C7065726970686572616C5C73796D
:4032800073636C6B5C63795F737973636C6B2E630000000047656E6572617465645F536F757263655C50536F43365C70646C5C647269766572735C70657269706865726147
:4032C0006C5C737973636C6B5C63795F737973636C6B2E680000000047656E6572617465645F536F757263655C50536F43365C70646C5C647269766572732F70657269701B
:40330000686572616C2F6970632F63795F6970635F6472762E68000047656E6572617465645F536F757263655C50536F43365C70646C5C647269766572735C706572697076
:40334000686572616C5C6770696F5C63795F6770696F2E630000000047656E6572617465645F536F757263655C50536F43365C70646C5C647269766572735C7065726970A6
:40338000686572616C5C6770696F5C63795F6770696F2E680000000047656E6572617465645F536F757263655C50536F43365C70646C5C647269766572735C706572697061
:4033C000686572616C5C737973706D5C63795F737973706D2E63000047656E6572617465645F536F757263655C50536F43365C70646C5C647269766572735C70657269700C
:40340000686572616C5C747269676D75785C63795F747269676D75782E63000047656E6572617465645F536F757263655C50536F43365C70646C5C647269766572735C70D3
:4034400065726970686572616C5C70726F745C63795F70726F742E63000000000000204000002440000000400000000000002340000030400000314000009F4000002240F9
:403480000000104002020202020202020210101D800017007500FF030602063604102000000000007FC0000000040000000000000019324B647D00804000080B100000004A
:4034C0000000FF012002001F00800004FF081018001000140018001C4044484C50000000081000000800000004000000041000000012000004210000002100000016000072
:4035000040114002C41300138013A013200000001C0000000000214000002540000001400000344000002440000031400000324000001F41000023400000114001010101B2
:403540000101010101101010800019005500F0000501053B04101C01010000000FC000000004000001010101011D3A57789600082000101208000000001F00000010000F9C
:40358000002000023F06080E00080009000A000B24282C3034000000100000009000000088000000080000008000000004F0000000F00000400200002005A000D00100011F
:4035C0008001A0012000000010000000000000000000001000000008C0000000F0350010C0000008400500003C060008D80100000048E80100127A0000093D0000093D00F3
:4036000000093D0004000000A00F00000000D007E9000010C10000100000000010B50004400B27D0144B1A68146AB023D15ACA00531AE3181B68002BF4DA3E220F4B1A60A6
:403640000F4A104B1A60104B0621A322D20099500E4A98509B58084B1A68106AB023D15ACA00531AC31800225A60084B064AD358002BFADA10BDC046100800080401264081
:403680001E1F000008012640000026401C05000010B54378FF2B20D100F032FA04000F4B1A683123D35C042B04D8C421FF310C4800F0F6F9094B1A68116AB023D35A9B007E
:4036C000CB18DB685A68116801230B4313601368DB07FCD4200000F003FA10BD10080008D8320010F0B585B001900291544B1A683123D35C002B04D1C421FF31514800F003
:40370000CFF94F4B1B681E6AB4229A58971950229B5C002B77D000F0D3F9050003283CD1474B1A683123D35C062B04D8C421FF31444800F0B5F9424B1968B023CB5A5A008D
:40374000D21853000A6A94466344B4228A58D3181B68002B23DB002000F0DAF93A4B98421FD03A4B1A6900230021012000F0B0F9002803D0364C17E0013400E000240020C4
:4037800000F0C6F9304B984202D0324B9C42F3D9304B9C4207D92E4C06E0002404E02C4C02E02B4C00E00024002C46D100F0A8F90390294B294AD358002B13DA234A012176
:4037C000300000F075F900280ED10298FFF726FF019B002B0AD03B68002BFCDB00F088F9040004E01A4C02E0194C00E01C4C032D05D10121002000F093F90028F9D103989A
:4038000000F06EF919E000F07BF905000F4A0121300000F04DF9002809D1019B002B08D03B68002BFCDB00F063F9040002E0084C00E00B4C280000F053F9200005B0F0BD05
:4038400010080008D832001001018800F807000805005200EF4902001C0500000000264001005000F0B54F464646C0B4824B1A685468B0235B055B78002B04D0B0235B0597
:403880005B78DBB200E02123212B67D1B023D15ACB005B1A116A8C46634419680029F5DADD6802212943D960B023D15ACB005B1A116A8C466344D968C9073ED5D9680904A4
:4038C000090C8C4684271168D559A84641440968090A0904FF26360431400D0088261168894691598846C14449460968090A0906294365462943D9601168D359C9180A6825
:403900005E4B98461A4090252D012A430A605A4B99461A6813689C46925962441368414619400B002B4313604B461A681568D15969180B689359EB181B684F4B1A68B021A4
:40394000555AEB005B1B156AAC46634400255D60156A515ACA00531AEB185B68484A116904230B431361012801D030BF00E020BF414B1A68B023D15ACB005B1A116A8C46E0
:40398000634419680029F3DAB02149054978002904D0B02149054978C9B200E02121212932D1D968C90722D510688421525880180468324A1440DB681B0C1B02FF210902ED
:4039C0000B40234303602C4B19688823C8580B689C46604403681A400D6AB023CC5AE1000B1BEB18DB681B0E1B021A430260224B1A68106AB023D15ACA00531AC318DA68B5
:403A000002218A43DA6028E086235B00E358002B23D11C4807681C4BA321C9005E581B4A904615681A4A0260062058503E21424611600631174A9950164B134AD358002B40
:403A4000FADA154A86235B00E2500E4B1F60A323DB000D4AD6500D4B1D60074B1A68106AB023D15ACA00531AC31800225A600CBC90469946F0BDC04610080008FF00FFFF8B
:403A800000ED00E00801264000002640040126401E1F00001C050000AAAAAAAA0000000001B40248844601BC604700BF1921001001B40248844601BC604700BF350E00107E
:403AC00001B40248844601BC604700BF3504001001B40248844601BC604700BF3112001001B40248844601BC604700BFA322001001B40248844601BC604700BFCD170010B1
:403B000001B40248844601BC604700BF9B22001001B40248844601BC604700BF4D10001001B40248844601BC604700BFC10F001000000000000000000000000000000000A7
:403B40000000000000000000000000000000000000000000000000000000000000000000000000000000000000000000000000000000000000000000000000000000000045
:403B80000000000000000000000000000000000000000000000000000000000000000000000000000000000000000000000000000000000000000000000000000000000005
:403BC00000000000000000000000000000000000000000000000000000000000000000000000000000000000000000000000000000000000000000000000000000000000C5
:0200000490303A
:0200000093CD9E
:0200000490501A
:0C0000000005E20721002101E218B4CD48
:00000001FF