:020000041008E2
:4000000000780408EB0208100D0000005103081051030810510308105103081000000000000000000000000000000000715308104D030810000000001154081075540810D8
:400040004D0308104D0308104D0308104D0308104D0308104D0308104D0308104D0308104D0308104D0308104D0308104D0308104D0308104D0308104D0308104D03081000
:400080004D0308104D0308104D0308104D0308104D0308104D0308104D0308104D0308104D0308104D0308104D0308104D0308104D0308104D0308104D0308104D030810C0
:4000C0004D0308104D0308104D0308104D0308104D0308104D0308104D0308104D0308104D0308104D0308104D0308104D0308104D0308104D0308104D0308104D03081080
:400100004D0308104D0308104D0308104D0308104D0308104D0308104D0308104D0308104D0308104D0308104D0308104D0308104D0308104D0308104D0308104D0308103F
:400140004D0308104D0308104D0308104D0308104D0308104D0308104D0308104D0308104D0308104D0308104D0308104D0308104D0308104D0308104D0308104D030810FF
:400180004D0308104D0308104D0308104D0308104D0308104D0308104D0308104D0308104D0308104D0308104D0308104D0308104D0308104D0308104D0308104D030810BF
:4001C0004D0308104D0308104D0308104D0308104D0308104D0308104D0308104D0308104D0308104D0308104D0308104D0308104D0308104D0308104D0308104D0308107F
:400200004D0308104D0308104D0308104D0308104D0308104D0308104D0308104D0308104D0308104D0308104D0308104D0308104D0308104D0308104D0308104D0308103E
:400240004D0308104D0308104D0308104D0308104D0308104D0308104D0308104D0308104D0308104D0308104D0308104D0308104D0308104D0308104D0308104D030810FE
:400280004D0308104D0308104D03081010B5054C237833B9044B13B10448AFF300800123237010BDFC49020800000000FCC00810084B10B51BB108490848AFF3008008484A
:4002C000036803B910BD074B002BFBD0BDE81040184700BF00000000004A0208FCC00810CC430208000000007047FFF7FDFF72B6104C114DAC4209DA21686268A368043B75
:40030000A2BFC858D050FAE70C34F3E70B490C4A00209142BCBF41F8040BFAE709480A490860BFF34F8F00F075FD00F04FFD00F01DF8FEE700C1081018C10810FC490208A3
:40034000A01103080040020808ED00E0FEE7FEE700B504207146084202D0EFF3098001E0EFF30880043003F005FAFEE700B583B062B600220821042003F09AFC244B18608C
:4003800000220821042003F093FC224B186003F067FA214B1860002401940225009523464FF4C8721D491E4804F050F901940123009323464FF4C8721A491B4804F046F9A0
:4003C0000194009523464FF4C8721849184804F03DF90194009523464FF4C8721549164804F034F90194009523464FF4C8721349134804F02BF90194009523464FF4C87226
:400400001049114804F022F904F052F9FEE700BF9C0E0308080F0308040F0308FCB10810C104081008B208106907081014B208108508081020B20810590908102CB208104A
:40044000C50908103CB20810790B081000B583B0164B0022C3F8C82F0422C3F8C02FD3F8C03F134BB3F90030002B09DB5A0903F01F03012101FA03F360320E4941F82230F5
:4004800002A9002341F8043D0B4B186803F070FD019B43B13BB14FF08052084B1A60BFF34F8FBFF36F8F03B05DF804FB0000664070B5081000E100E0184A020804ED00E03C
:4004C00030B583B000F0DEFC944B1868002302221946406808F04CFD914D284608F0A2FC904808F09FFC904C204608F00DFD284608F098FC8D4808F095FC204608F004FDE4
:40050000284608F08FFC8A4808F08CFC204608F0FBFC03220021012003F0CAFB854B1860854C8649204600F09DFDB4F90030002B08DB590903F01F03012202FA03F3804AEB
:4005400042F8213004227F4BC3F8C82F4FF0FF31784B186803F016FED3E0704B186842685368013B5360002B04DA416808F0D4FCC0B204E042681368591C116018783F3871
:40058000382800F2BE80DFE800F0B3BCBCBCBCBCBCBCBCBCBCBCBCBCBCBCBCBCBCBCBCBCBCBCBCBCBCBCBCBCBCBCBCBCBCBCBCBC4FBCBCBCBCBC8F7FBCBC6F602D1DA0BC1F
:4005C000BCBC3E00564808F02DFC5F4808F02AFC554808F099FC5D4B0022C3F84C21C3F88C238EE04E4808F01DFC594808F01AFC4D4808F089FC554B4FF47A72C3F84C216E
:40060000C3F88C237DE0464808F00CFC514808F009FC454808F078FC4C4B40F2DC52C3F84C21C3F88C236CE03D4808F0FBFB4A4808F0F8FB3C4808F067FC444B4FF4FA6204
:40064000C3F84C21C3F88C235BE001238DF800308DF801300A23019300231A4669463F48006803F04BFB4CE001238DF800308DF801306FF00903019300231A466946374898
:40068000006803F03BFB3CE002238DF8003001238DF801300A23019300231A4669462F48006803F02BFB2CE002238DF8003001238DF801306FF00903019300231A466946FD
:4006C0002648006803F01AFB1BE0154808F0AAFB012000F0C7F80446022000F0C3F8024621461F4808F09EFB0F4808F00DFC08E00B4808F097FB1B4808F094FB0A4808F048
:4007000003FC104BD3F80833C3F30803002B7FF424AF04220B4BC3F8C82F17E78843020850B208105CB2081068B208106CB2081080B20810184A020870B508104D04081022
:4007400000E100E000006640A8B2081000003940B0B20810BCB20810C8B208109C0E0308D4B20810F0B20810F8B500F0D3FB2B4E304608F057FB2A4808F054FB294D284647
:4007800008F0C2FB00F01AFC07F09AF9304608F049FB254808F046FB284608F0B5FB5F22224BC3F84C21224E304608F03BFB214808F038FB284608F0A7FB304608F032FB25
:4007C0001D4F384608F02EFB284608F09DFB304608F028FB19491A4808F024FB284608F093FB304608F01EFB384608F01BFB284608F08AFB631CDBB20C4AC2F88C41013375
:40080000104A82FB0321DA17C2EB6112642101FB1232D4B20A2004F08FF8EBE700B3081010B3081068B208102CB308100000384050B208104CB3081060B3081088B30810F4
:40084000A0B308101F85EB51642303FB00F0044B83FB0023C017C0EBA3106438704700BFD34D621008B5012801D1012300E00A239B0103F1804303F56413D3F80C01FFF776
:40088000E3FF08BD70B582B000F02EFB00F0AEFB294808F0C7FA294808F0C4FA284808F033FB00252E464FF0FF326946254B186803F0BCFB9DF80030012B04D0022B04D188
:4008C0000A25214E01E001251F4E9DF80130012B0CD106EB8513D3F80C01FFF7B5FF019A841800D50024642C02DC02E0019C00E06424114808F096FA22469DF8001013483E
:4009000008F090FA0E4808F0FFFA4FF47A7202FB04F20F4B83FB0213D217C2EB631202F57A7206EB8513C3F80C210321094B186803F02EF8B7E700BFB4B30810C8B3081000
:4009400068B208109C0E030800003940E0B308101F85EB51040F030800B585B000F0FCFA124808F05FFA124808F05CFA114808F0CBFA114B00930023022203A90F4802F00A
:40098000E9F80120FFF76EFF8DF80C000220FFF769FF8DF80D000A4B18684FF0FF33009300230122114602F069FFEAE7F4B3081004B4081068B20810440F030800006440CB
:4009C000040F030830B583B004F09CFE05F042FB2C4808F027FA2C4808F024FA2B4808F093FA012505F0C6FA002846D104F0A8FE022005F0F1F804464FF6FE7398421BDC6D
:400A0000204808F00FFA22462946214808F00AFA1E4808F079FA8DF80050019400231A4669461C48006803F069F900231A4669461948006803F062F9002005F0B9F848B17B
:400A4000104808F0EFF9154808F0ECF90F4808F05BFA0125012005F0ABF848B1094808F0E1F90F4808F0DEF9084808F04DFA022505F0DEF905F0EEFAB4E7322003F05CFFA5
:400A8000B0E700BF1CB408102CB4081068B2081044B408109C0E0308080F030854B4081068B40810024A136818431060704700BF1C4A020810B5002413E00B4B53F834204A
:400AC0000A4B1B681A420BD0094808F0ABF9064B03EBC403586808F0A5F9064808F014FA0134012CE9DD10BD8C4202081C4A02087CB4081068B2081000B587B00C238DF8F3
:400B000000308DF801008DF802100D238DF8033008238DF80830CDF80CD00523049300238DF814300E4A13600E4A02A90E4801F0A3FC0C490C4801F09DFC10F4803FF8D1D9
:400B40000A4808F06FF9064B1968094808F06AF9084808F0D9F9FFF7ADFF07B05DF804FB1C4A0208E8100308000063407CB4081094B4081068B2081070B582B006F0C2FF80
:400B8000224808F04FF9224808F04CF9214808F0BBF9214A214B5A6400252E464FF0FF3269461F4B186803F041FA9DF80030012B04D0022B04D10A251A4E01E00125194E9E
:400BC0009DF80130012B0CD106EB8513D3F80C01FFF73AFE019C041900D50024642C02DC02E0019C00E06424084808F01BF922469DF800100C4808F015F9064808F084F909
:400C0000E1B29DF80000FFF777FFC7E77CB40810BCB4081068B20810A50A0810E8100308080F030800003940E4B4081008B5012000F038FD08BD00BF704700BF5C4AD2F8EE
:400C4000803303F00F0303F1D00152F8212002F00702032A04D0042A05D092B9554914E0554A116811E003F1C002514951F8222002F01F02112A06D0132A04D04FF4FA41F9
:400C800003E04E4901E04FF400418BBB484BD3F8902502F00100D3F88825C2F30172D3F8883513F0405F07D0414BD3F88835C3F30173012B02D102E0012300E0002303B16E
:400CC00008B9032A46D13A48D0F88025C2F31103D0F88425C2F30C02D0F88005C0F300600130B1FBF2F202FB03F2B2FBF0F131E0012B2FD12E4BD3F8402602F00100D3F8BD
:400D00000026C2F30172D3F8003613F0405F07D0274BD3F80036C3F30173012B02D102E0012300E0002303B108B9032A12D12048D0F8002602F07F02D0F80036C3F304231D
:400D4000D0F80006C0F3044002FB01F2B2FBF3F2B2FBF0F1164BD3F88033C3F3011321FA03F215494A601648D0F89030C3F3072301330069000E0130B2FBF0F08860B2FB19
:400D8000F3F3CB600B6103F5742202F23F220D48A0FB0202C2F387420A7503F2E7330A4AA2FB03239B098B61DB03CB61704700BF0000264000127A009C42020800366E012D
:400DC0000000214083DE1B43D34D621008B50D4802F032FDFFF730FFFFF730FF00221146042000F027FA084800F0BAFA074B1B6893F8513013B1064800F022FB02F01AFC1A
:400E000008BD00BF64BB0810204A0208800F030834B5081008B502F008FD074AD2F8883043F47003C2F88830BFF34F8FBFF36F8F02F0FFFC08BD00BF00ED00E010B50446B8
:400E40002146034800F024FD0028F9D010BD00BF00006140054BD3F80833C3F30803002BF8D0024BD3F84003704700BF0000614008B50249024802F0A5FA08BD0C0F030847
:400E80000000664008B5114B1B785BB9104A1149114802F073F81149114800F0E3F801220A4B1A700E4BB3F90030002B08DB590903F01F03012202FA03F30A4A42F8213034
:400EC000054A136843F00043136008BDA04B02080C0F030888B5081000006640710E081070B5081000E100E008B5074B1B783BB9064A0121064800F0EBFB0122024B1A70A9
:400F00000222034B9A6008BDA14B0208C8B508100000394008B5084B1B783BB9074A0221074800F0D5FB0122034B1A70044B04229A609A6108BD00BFA24B02082CB6081088
:400F40000000384008B50249024801F0C3FE08BD440F03080000644008B5114B1B785BB9104A1149114801F02BFE1149114800F079F801220A4B1A700E4BB3F90030002BD1
:400F800008DB590903F01F03012202FA03F30A4A42F82130054A136843F00043136008BDA34B0208440F030890B6081000006440450F081078B5081000E100E008B5084B91
:400FC0001B783BB9074A0021074800F081FB0122034B1A70044B01229A609A6108BD00BFA44B020898B608100000384008B5084B1B783BB9074A0A21074800F069FB0122A7
:40100000034B1A704FF48062034B9A6008BD00BFA54B0208FCB608100000394038B50D4B9A680D4B9A420FD10D46044621B940F237110A4802F08EFB04F11003064A52F8EF
:40104000230042F8235038BD1030054B53F8200038BD00BF00ED00E00040020860B708100000081048B338B504460D464368072B03D93221134802F06DFBB4F900306268B1
:40108000002B08DB5201D2B203F1604303F5614383F8002305E003F00F035201D2B20A49CA540A4B9A680A4B9A4208D12946B4F90000FFF7B3FF002038BD064870470020E9
:4010C00038BD00BF60B7081014ED00E000ED00E0004002080100560038B50B4B1B68D3F8B4301B58002B0DDA0D4604460B0C1B0423B140F2D521054802F02CFBA9B2616073
:40110000002038BD024838BD800F0308A4B7081001008A0038B50368002B01DA002300E0094B73B90D460446C2600B0C1B0423B140F2BB21054802F00DFBA9B2A160002048
:4011400038BD014838BD00BF01008A00A4B7081038B504460D4619B99921084802F0FAFA074B1B68D3F8B4301B59002B03DAE3682B60002038BD034838BD00BFE4B7081096
:40118000800F030801008A00254B1B6893F8313083423AD900293AD00B6813F01F0F38D170B50D4604461E4B1B6893F83130984204D340F2C3111B4802F0CCFA184B1B6821
:4011C000186AB3F8B03004FB0304174E34602A68D2080021686807F0ACF900212046FFF77BFF346825B940F293310E4802F0B2FA2A4600212046FFF78DFF60B900210A4B87
:401200001868FFF769FF40B970BD084870470748704706487047064870BD054870BD00BF800F0308A4B70810A84B020803018A0001018A0010B504461346B2B9A9B9124B2E
:401240001B6893F83130984204D340F2C3110F4802F080FA0C4B1B681A6AB3F8B03004FB03240B4B1C60002010BD43B149B1084A51609360111D2046FFF786FF10BD0548AA
:4012800010BD044810BD00BF800F0308A4B70810A84B020803018A002DE9F0411B4B1B68DC68236883422CD90D464609A0EB4610012303FA00F819B902F0B7FA074600E0EA
:4012C0000027124B18680368002B01DA002300E00F4B83B9626852F8263018EA030F05D023EA080342F82630002400E0094C0021FFF7F2FE00E0084C25B9384602F099FA70
:4013000000E0064C2046BDE8F08100BFA84B020801008A00020188000301880004018A000B4B1B68DB681A6882420CD94109A0EB4110012202FA00F05B6853F821301842DD
:4013400003D004487047044870470448704700BFA84B02080101880004018A0000018800024B1B680BB9014B18607047B44B02082DE9F8430446884691461D46089F2C4B5A
:401380001B681BB9B5212B4802F0E4F9284B1B682C2000FB04F01C18EEB21E50C5F3072363602D0CA560244B1B6893F831309E4204D340F2C311214802F0CCF91E4B1B68C1
:4013C000196AB3F8B02006FB02162661666893F832309E4204D340F2DF11184802F0BAF9154B1B681D6A803605EB46156561A668330C1B0423B14FF4FF71104802F0AAF9A5
:40140000330C1B0423B140F2FF110C4802F0A2F9B3B243EA0646AE60C4F81C90C4F820800023A36117B1B7F90030A381BDE8F883B44B020824B80810800F0308A4B708108A
:40144000F0B58FB0044618B95221274802F082F9A369072B03D95621234802F07BF9E36A1BB95821204802F075F9236B1BB959211D4802F06FF907AD04F114060FCE0FC54B
:4014800037682F6002AD26460FCE0FC533682B60164B1B68B3F93620079B1344ADF83030089B0D93A26AE16A0CAD00953B460A98FFF75EFF00210091069B0A460598FFF794
:4014C00057FF216B2846FFF7CDFDBDF93030002B08DB590903F01F03012202FA03F3044A42F821300FB0F0BD24B80810800F030800E100E0F8B506460F461D4614461AB9BA
:40150000FD211F4802F026F91E4B1B681BB9FE211B4802F01FF91B4B1B682C2101FB063001FB07314B68012202FA03F31B04466802FA06F60269EAB18F69EFB91268002A56
:4015400001DA002200E0104AC2B92288134323600369DC6001238B614D620469330C1B0423B140F2BB21094802F0F4F8B2B2A2600020F8BD0648F8BD0648F8BD0548F8BDB0
:4015800024B80810B44B020801008A00A4B7081004028A0007028A00F8B505460F4616460E4B1B6823B94FF4AF710D4802F0D2F80A4B1B682C2404FB0534236A23B94FF42C
:4015C000B171074802F0C6F8E369B34204D9236A43F826700020F8BD0248F8BDB44B020824B808100A028A0070B582B000230193044620B940F2D111284802F0ABF8236911
:4016000023B94FF4E971254802F0A4F8636923B940F2D311214802F09DF8236A23B94FF4EA711E4802F096F86369DD682A0C20D012041A601B682069194B1B68D3F8B43032
:40164000C358002B15DA01A9FFF782FD60B9019803681E0CDBB2E269934206D2226A52F8233013B1984700E0002631462069FFF733FDADB275B16369ADB21D601B68636AD5
:401680001BB198470023636202E0A36A03B198470023A36163691B6802B070BD24B80810800F030810B50446074B1B6823B940F2B111064802F04EF8034B1B682C2000FBE0
:4016C0000430FFF791FF10BDB44B020824B80810002800F0AC8070B40446002A00F0A98092F828300BB1012500E00025137F0BB1022300E000231D431669B60406F48026F9
:4017000045EA060395682D0405F440351D431668300600F0E0602843136B556B43EA45031B0503F440130343906B43EA8000052E03D1D3681B029BB202E053681B029BB268
:401740000343081D800123501368062B08D104EB81130120C3F808013F20C3F828011DE0936843B904EB81130020C3F808013120C3F8280112E0012B08D1506904EB811317
:40178000C3F808011C20C3F8280107E004EB81130120C3F808011220C3F82801106A04EB8113C3F80C01506AC3F810015069C3F814019069C3F81801136EB3F1FF3F17D0F5
:4017C000106C00F00F00966C360206F470663043156D2D0405F470250543906D000380B228431B01DBB2034304EB8110C0F82031D36B03F00303566C360106F03006334381
:40180000D56C2D0205F440752B43506D8001C0B21843D36D9B0003F00C03034304EB8114C4F82431D36AC4F83831002002E002487047014870BC70470100B60010B4D0F885
:40184000003303F00F03072B06D900230DE0D0F84043CC54013300E000239342F7D306E0D0F8404321F8134001339342F8D35DF8044B704710B51446D0F80833C3F308031F
:401880009A4200D31C462246FFF7D8FF204610BD036813F4006F01D0802200E04022D0F80832C3F30803934203D0C0F84012012070470020704700BF10B4D0F8003203F085
:4018C0000F03072B06D900230DE0CC5CC0F84042013300E000239342F7D306E031F81340C0F8404201339342F8D35DF8044B704710B51446036813F4006F01D0802200E05F
:401900004022D0F80832C3F30803D31AA34200D81C462246FFF7D0FF204610BD02E0C0F84012013A002AFAD1704700BF10B51446036813F4006F01D0802200E04022D0F807
:401940000832C3F30803D31AA34200D81C462246FFF7E4FF204610BD10B5546841F201039C4236D1D0F80833C3F30803DBB1137893B1136A43F040031362D0F8043343F492
:401980008033C0F80433D0F8043323F48033C0F80433D0F8043306E029B9136A43F040031362D0F84033136A43F020031362136A23F010031362036E23F42043036600238C
:4019C000C0F8C83F0123C0F8C03FD0F8C03F202121E0D0F80832C3F30801D0F80832C3F3C0330B44116BC91A5163116A11F0080F05D1D16A1944D162916ACB1A9362136AF0
:401A000043F004031362136A23F0010313620023C0F8883F1021D0F84C4F40F201131C420DD0036823F00043036000238366C366036843F000430360036841F040014FF07E
:401A400080535360536C0BB10846984710BD00BFD0F80C3F13F0020F1DD00222C0F8002FD0F8002FD0F8002F12F0040F02D04FF4001001E04FF480108A6802438A604A68DE
:401A8000B2F5B81F07D00A7B12B14FF4C01201E04FF4B0124A6013F4807F03D08A6842F400028A6013F0010F03D08A6842F480028A6040F21112134202D04FF4C0134B6040
:401AC000704700BF0023C0F8C83FC0F8883F836E23B140F21713C0F8083F704740F21313C0F8083F182383664FF4B8134B60704738B5D0F80C4F036E23F480730366002336
:401B0000C0F8C83FC0F8883FC0F8083F40F21713C0F8003FD0F8003F8B6823F480338B604B7B13B18B69CB610BE08D69D0F80822C2F30802D0F80832C3F3C0331344EB1A23
:401B4000CB6140F201131C421BD0036E9B0F032B05D114F4827F14BF0123002300E001235BB1036823F00043036000238366C366036843F00043036003684FF080534B6093
:401B80001BE00B7893B1D0F8043343F48033C0F80433D0F8043323F48033C0F80433D0F804330123C0F8C03FD0F8C03F0B7B0BB10B4B01E04FF080534B604A6C72B14B7B5D
:401BC00013B14FF4802001E04FF400308B6813F0F87301D04FF400231843904738BD00BF0000101070B505460C4691F8243013F0FF0F0ED1CB6A63B94B6C0BB108209847F2
:401C0000E36AB3FA83F35B0984F824300123C5F8883F94F8243013F0FF0F16D063783BB12B6813F4006F01D0802202E0402200E00122FF212846FFF779FE236B184420638F
:401C4000236A43F00803236270BDE26A012A11D963780BB1013A00E00122A16A2846FFF747FE236B03442363E36A1B1AE362A36A1844A062D5F80832C3F30803802B23D00A
:401C8000E36A012B20D101F0D0FDA36A1B78C5F840324026C5F8806FD5F8803F01F0C9FD236B013323630023E362A36A0133A362C5F8886F63783BB1236A43F0020323621D
:401CC000636C0BB10420984770BD00BF38B54B68B3F5A81F03D14FF4C0134B6038BD4B68B3F5A01F4DD10C4605464A69012A11D94B780BB1013A00E0012221692846FFF789
:401D0000F7FDA3690344A36163691B1A6361236903442361D5F80832C3F30803802B14D06369012B11D101F080FD23691B78C5F840324023C5F8803FD5F8803F01F079FD7D
:401D4000A3690133A361002363616369CBB9237B33B14023C5F8883F4FF4A813636005E00023C5F8883F4FF4B0136360637843B1A36843F40033A360636C13B14FF480309C
:401D8000984738BD70B504460D468A6C82B3036813F4803F06D0D0F84C3F13F0400F03D0022002E0002000E00020236E13F4006F06D1D4F84C3F13F0800300D001231843B5
:401DC000C0B190470123C4F8C03FD4F8C03F024648B91023C4F8403FD4F8403F40F2D113C4F8483F07E040F2C113C4F8483F02E0002200E00022D4F8043243F48033C4F8B8
:401E00000432D4F8043223F48033C4F80432D4F804320AB9012300E00223E366002A59D1666E06F010066B6C23B10EB1012000E0022098477EB141F202036B602B6A43F0DD
:401E400001032B626B6B2B63002385F824300123C4F8883F70BD41F201036B602B6A43F010032B620123C4F8C83F2B78BBB1EB6BBBB1236E43F400532366ED6B802D05D9FC
:401E8000A5F18003802B0ED8813D0DE0013D236E43F4004323660023C4F8C83F04E0002502E0002500E03F25236813F4006F01D0802300E040239D4204D34FF4237106482E
:401EC00001F048FCD4F8043323F0FF03EDB21D43C4F8045370BD00BF64B8081038B54B68B3F5881F03D0B3F5901F1AD038BD0B69D0F840231A708B6901338B614B69013B3E
:401F00004B612BB10B6901330B610423836638BD0B7B13B14FF4C01301E04FF4B0134B6038BD0C4605464A690969FFF7A3FCA3690344A36163691B1A636122691044206146
:401F4000012B24D82B6E23F480732B666369012B16D12B6813F4006F01D0802300E0402323B94FF42371184801F0F4FBD5F8043323F0FF03C5F804334FF48813636038BDD0
:401F80000023C5F8C83F4FF4B013636038BD402B01D89C1E00E03F242B6813F4006F01D0802300E040239C4204D34FF42371064801F0D0FBD5F8043323F0FF02E3B21343E2
:401FC000C5F8043338BD00BF64B8081038B5CB6B002B50D00B78002B3FD00C460546D0F80423D2B20132896BFFF744FC236C03442364E36B1B1AE363A26B1044A063802B38
:4020000006D9A3F18002802A0FD8A3F181040DE02B6E43F400432B66E36B0BB15C1E00E000240023C5F8C83F00E03F242B6813F4006F01D0802300E040239C4204D34FF406
:402040002371104801F086FBD5F8043323F0FF02E3B21343C5F8043338BD0123C3668A6B0B6CD0F84003D0540B6C01330B64CB6B013BCB6338BD0223C3660023C0F8C83F4F
:4020800038BD00BF64B80810F8B50B78012B03D00C7A1CB9002702E0002700E00127002800F0A780002900F0A680002A00F0A58016460C460546013BDBB2022B03D950217D
:4020C0004F4801F047FB637803B163791BB151214B4801F03FFB94F90330002B03DA5221474801F037FB237913F0010F03D05321434801F02FFB2369102B03D95421404886
:4021000001F028FBE368102B03D955213C4801F021FB637913B14FF4803100E00021E27912B14FF4807300E000230B4343F400632B60A37913B94FF4006300E000232269A7
:40214000013A02F00F021A43E368013B1B01DBB21343227843EA82732B6617B140F2073301E040F20713C5F800330FB1254B00E0254B2B6763780BB17F2300E00023C5F895
:402180000433E3785B00DBB2227943EA0243C5F810331E4BC5F80032A3780BB1402300E00123C5F804320023C5F8C83EC5F8883EC5F8C83FC5F8883FC5F8083F2378022B92
:4021C00002D040F2D11300E00023C5F8483F63783370A37873704FF0805373600020B060B06130623064F0633063F0627064B064F8BD0748F8BD0648F8BD0548F8BD00BF4B
:40220000A8B8081003002A0013102A00070101000120AA0038B505460C4621B94FF43171194801F097FA2B6E9B0F012B17D1174B2344174A93421ED9A4F5BD13A3F5D66325
:4022400002F5611202F56162934216D9A4F57104A4F533440F4B9C4211D80F4838BD84B1286EC0F303102B6E03F00F0318440230B4FBF0F038BD094838BD094838BD0020FE
:4022800038BD002038BD00BFA8B8081020AD88FF405B730040555C0440420F00801A0600A08601002DE9F84307468846914622B940F21321624801F04DFA08F1FF34614BF0
:4022C0009C4204D94FF405715D4801F043FA3B6E9B0F012B0DD149463846FFF79BFF0546D7F8003323F40073C7F80033564B3B67A2E0544B9C421FD8544B984509D8A9F5A0
:40230000BD13A3F5D663524A934218D90021012328E0504B984507D84F4B4B444F4A934213D9002101231DE04D4B4B444D4A934212D90021012315E00021012312E0002121
:4023400041F288352E460B460CE000214FF461754FF4C8660B4605E001214FF4BE754FF41B760023002B66D13F4BB3FBF9F3B6FBF3F404FB03F2964200D90134102C00D93F
:4023800010240F2C8CBF00220122B5FBF3F606FB03F39D4200D90136102E00D91026A519B9FBF5F50FE022B10F2C09D80134002206E00F2E04D801360F2C8CBF00220122C0
:4023C000A519B9FBF5F5454502D9A3191F2BEAD941B1D7F8003343F40073C7F80033234B3B6707E0D7F8003323F40073C7F80033154B3B67E31F092B04D940F28D511C48C5
:4024000001F0A8F93B6E23F0F003013C2401E4B223433B66731F0B2B04D940F2AA51144801F098F93B6E23F00F03013E06F00F061E433E6600E000252846BDE8F88300BF3D
:40244000A8B808103F420F0013102A00A0860100502D1900801A060020AD88FFA0432100807E25FFC02BAF0000CA9A3B03002A00E8B8081088687047F8B5044615460E46C5
:4024800021B94FF4B7614B4801F064F9B36833B1736823B940F2B951464801F05BF996F90030002B04DA40F2BA51424801F052F90023C4F8483F6B6813F0805F73D0377869
:4024C0007F00FFB24FF48033AB6073682B61B3686B610023AB61EB61327B2A736B7340F21713C4F8003FD4F8003FD4F8043243F48033C4F80432D4F8043223F48033C4F8F2
:402500000432D4F804326B68B3F1805F09D1C4F840724023C4F8803FD4F8803F0223A36617E0636E13F0200F01D0092300E00123A3666B695BB901F078F9C4F8407240230F
:40254000C4F8803FD4F8803F01F073F901E0C4F840724FF4A0136B606B780BB1402500E00125236813F4006F01D0802300E040239D4204D34FF43D710F4801F0EBF8D4F888
:40258000043223F0FF032B43C4F8043201F04DF90123C4F8883F40F21313C4F8083F01F048F9002000E0054840F2D113C4F8483FF8BD00BFA8B8081064B808100220AA0073
:4025C000F8B504460E46D0F88C3E13F0010F07D04FF480534B600123C0F8803ED0F8803ED4F84C5F40F201131D420FD0336A15F4807F02D04FF4807200E08022134333621F
:402600000023C4F8C83F45F010050EE015F0100F0BD0D4F80833C3F3080333B1F36B23B10123C4F8C43FC4F8C83FD4F8CC3F13F0010F17D0236813F4803F07D0062001F0E9
:402640007DF8D4F84C7FC7F3801700E0002757B931462046FFF7BAFC0123C4F8C03FD4F8C03F00E0002715F0100F0BD0324639462046FFF771F91023C4F8403FD4F8403F37
:40268000D4F84C5F15F0C00F0DD031462046FFF779FB0123C4F8803ED4F8803EC023C4F8403FD4F8403FD4F88C3F13F0410F08D031462046FFF796FA0123C4F8803FD4F88A
:4026C000803FF8BD70B506460D46D0F8004E14F0020F0AD0836E2BB1002383668B6843F080738B604FF4C0136B6014F0010F05D029463046FFF7ACF924F0040414F0080F3F
:4027000008D029463046FFF7E9FB0123C6F8C03FD6F8C03F14F0040F08D029463046FFF7D5FA0123C6F8803FD6F8803F6B68B3F5C01F03D129463046FFF7DAF96B68B3F536
:40274000B01F03D129463046FFF7BCF970BD00BF08B54B6813F4801F02D0FFF7B3FF08BDFFF72EFF08BD00BF4B6843F020034B60D0F8043343F48033C0F80433D0F80433B3
:4027800023F48033C0F80433D0F804330023C0F8C83FC0F8883F70474B6813F0200F0BD0036823F00043036000238366C366036843F00043036003680B78DBB2062B03D16C
:4027C0000023C0F8883F06E00023C0F8C83F036E23F4204303664B6823F010034B600B7E83B10B78DBB2062B05D00A69CB689A4203D0022202E0012200E000224B6813433B
:402800004B600FE00B78DBB2062B05D04A69CB689A4203D0082202E0042200E000224B6813434B6000230B70704700BF4A7A1AB10B7A5340DB4300E0FF23D0F8102322F47F
:402840007F025B0403F47F031343C0F81033704738B504460D4601230B764B7A43B3D0F840335B080122C0F8C02FD0F8C02F0A7A934202D04A7A93420FD16A7A934201D1BF
:4028800000232B761023C4F8403FD4F8403F40F25113C4F8483F01220BE040F2DC512C4800F058FF40F24113C4F8883E022200E00122D4F8043243F48033C4F80432D4F8C1
:4028C000043223F48033C4F80432D4F80432E266012A3CD16B6843F010036B60636E13F0100F16D006232B702B7E3BB16A6A29690A44EA61AB6A5B1A2B6206E02A6B6969EB
:402900000A44EA616B6B5B1A2B620123C4F8883F38BD02232B702B7E0BB1AB6A00E06B6B2B62236813F4006F01D0802300E0402323B94FF42371064800F00CFFD4F8043356
:4029400023F0FF03C4F804330123C4F8C83F38BD64B8081038B505460C460A6A42B1C969FEF7C6FF236A1B1A2362E3691844E061236A23B98022FF212846FEF7D7FF38BDD9
:4029800038B50546802906D9A1F18003802B0ED8A1F181040CE0036E43F40043036609B14C1E00E000240023C5F8C83F00E03F242B6813F4006F01D0802300E040239C426A
:4029C00004D34FF42371064800F0C4FED5F8041321F0FF03E1B21943C5F8041338BD00BF64B8081038B505460C460B78023B032B00F28880DFE803F002025B73D0F840334E
:402A00008A7A012A0FD10A78D2B2022A07D10122C2661A02CA6003220A70002204E0CA681343012200E00122002A6BD0226A934207D2227E0AB1236100E06361E360012310
:402A400006E0237E0BB1236900E06369E3600223EB66012B56D1237E5BB1626A21690A44E261E36A994201D25B1A00E0002323620AE0226B61690A44E261A36B994201D2B5
:402A80005B1A00E000232362637A13B9236A7F2B02D80423237038BD2B6E43F400532B66216A2846FFF76CFF0523237038BDD0F840230B6A6BB10123C366CB691A700B6AB6
:402AC000013B0B62CB690133CB61CB680133CB6038BD0223C3660023C0F8C83F38BDD0F80423D2B20132C969FEF7C4FE216A091A2162E3691844E0612846FFF741FFE36855
:402B00000133E36038BD00BF70B505460C46164611F0800F04D040F21A210D4800F01AFE737A9C4204D140F21B21094800F012FE3472D5F8103323F0FF036400E4B21C439B
:402B4000C5F8104331462846FFF770FE70BD00BF28B90810F8B50F461D46069C16462AB121B940F26621074800F0F4FDAE4204D240F26721034800F0EDFD6762A662E56259
:402B8000F8BD00BF28B9081070B506460D46144611F0800F04D040F28B21084800F0DAFD237A9D4204D14FF42371044800F0D2FD657221463046FFF739FE70BD28B90810F7
:402BC000002878D070B50446002976D0002A76D016460D4691F90130002B03DA4721394800F0B8FD95F90230002B03DA4821354800F0B0FD6A78AB789A4203D14921314834
:402C000000F0A8FD2B78012B03D94A212D4800F0A1FDEB78012B03D94B212A4800F09AFD2B78012B02D14FF4803100E000212A7912B14FF4807300E000230B4343F40063F8
:402C40002360214B236640F20713C4F800330023C4F804332B7833B97372324669782046FFF752FF09E0324669782046FFF74CFF3246A9782046FFF787FF144BC4F8003260
:402C80004023C4F804320020C4F8C80EC4F8880EC4F8C80FC4F8880FC4F8080F40F25113C4F8483F70603070EB78B372B062F0623061706170BD06487047054870BD044873
:402CC00070BD00BF28B9081000080040070101000100AA0070B504460E46D0F88C3E13F0010F05D001230B70C0F8803ED0F8803ED4F84C5F40F201131D420CD03146204646
:402D0000FFF732FD40F20113C4F8403FD4F8403F45F010050BE03378DBB2052B07D115F0100F04D00123C4F8C43FC4F8C83FD4F8CC3F13F0010F08D031462046FFF752FEAA
:402D40000123C4F8C03FD4F8C03F15F0100F0AD031462046FFF720FD1023C4F8403FD4F8403FD4F84C5F15F0400F0DD031462046FFF76EFD0123C4F8803ED4F8803E402391
:402D8000C4F8403FD4F8403FD4F88C3F13F0010F08D031462046FFF7DDFD0123C4F8803FD4F8803F70BD00BF2DE9F84305460C46036813F4006F02D04FF0800801E04FF0C0
:402DC0004008D5F8007207F00F07A26A012A19D9D4F82490E262561EB9F1000F00D026B940F27351254800F0B5FC324649462846FEF77EFDA36A1B1AA362072F00D94000F7
:402E000048446062D5F80832C3F30803984533D0A36A012B30D10023A362072F02D8636A1E7801E0636A1E8800F0FFFCC5F840624FF40073C5F8803FD5F8803F00F0F9FC86
:402E4000D5F8883F23F4007222F0010242F4007623F4EE6323F0030323B140F23641084800F078FCC5F8886F236843F002032360236B0BB101209847BDE8F8836CB9081021
:402E800064B808102DE9F04105460C46036813F4006F01D0802600E040267608A769D4F81C8017B1B8F1000F04D14FF49961314800F050FC424639462846FEF7DBFC236A51
:402EC00003442362E3691B1AE36173BBA368FBB1E3689E4201D8013E00E05E1E2B6813F4006F01D0802300E040239E4204D34FF42371214800F02EFCD5F8043323F0FF03D3
:402F0000F6B21E43C5F804630123C5F8C83F02E00023C5F8C83F636823F001036360236B33B304209847BDE8F081A169D5F8002302F00F02072A00D940000844A0619E420D
:402F400016D95C1E2B6813F4006F01D0802300E040239C4204D34FF42371074800F0FAFBD5F8043323F0FF02E3B21343C5F80433BDE8F0816CB9081064B80810002800F0D2
:402F8000A48170B50546002900F0A18116460C460B78022B03D93F21A24800F0DBFB637B023BDBB2062B03D940219E4800F0D2FBA37B3BB1022B05D0032B03D041219948EE
:402FC00000F0C8FB94F82130012B03D94221954800F0C0FB94F82830012B03D94321914800F0B8FB2378012B06D86368083B082B94BF0023012307E0A37F2BB16368013B16
:40300000062B94BF002301231BB14521854800F0A1FBA368053B042B03D94621814800F099FB6369FF2B03D947217E4800F092FBA369FF2B03D948217A4800F08BFBA37CE1
:403040006BB1237833B9A368092B05D1A37B2BB1012304E0012302E0012300E000231BB14A21704800F076FB636B23F4366323F00D031BB14C216B4800F06CFBE36B23F4D0
:40308000EE6323F003031BB14D21664800F062FB2378022B01D1A37F13B16268013A00E00022237F13B14FF4803100E00021A368082B02D84FF4006300E000230B4302F08E
:4030C0000F02134343F000732B60226B2B6813F4006F01D0802300E040239A4203D36221504800F037FBA26B2B6813F4006F01D0802300E040239A4203D36321494800F078
:4031000029FB626A2B6813F4006F01D0802300E040239A4203D36421424800F01BFB23781B0603F040732B64637F0BB1402200E00022A37C13B14FF4806300E000231343C3
:40314000227C12B14FF4807200E000221343627C12B14FF4007200E000221A43E36A013B1B0403F470231343627B013A02F007021343A27B120102F030021343AB64237B64
:4031800013B14FF4807200E00022E37B23B92378022B03D1012302E0012300E0002313B14FF4007300E000231A43A368013B03F00F031343C5F80033227DA3691B0403F4E4
:4031C0007F031343C5F81033E26AD5F8003303F00F0303339A4201D3102A03D97A21114800F0B8FAE37F23B12378012B03D0002302E0002300E0012313B14FF4807200E03F
:403200000022637B013B03F007031A43A37B1B0103F0300313436B64237B2BB14FF4807203E000BFACB908100022A368013B03F00F0313432278012A02D14FF4803200E074
:4032400000221343C5F8003294F83030C5F8043394F8203013B14FF0007200E0002294F82130012B02D14FF0807300E00023134394F82820012A02D14FF4803200E0002284
:40328000134394F8242013432B6594F83830C5F80432636B23F4926323F002031B051B0DC5F8C83FE36B23F08C035B055B0DC5F8883F76B1002070603060B060F060306248
:4032C000F0623063044B736370BD04487047034870BD002070BD00BFEFCDAB000160AA000B694A69934202D34869181A7047CA684869101A184470472DE9F04107460D462C
:40330000036813F4006F02D04FF0800801E04FF040084FEA5808D7F80863C6F308062C6926E00134EB689C4200D100246B699C420FD12B6B0BB1082098476B699C4208D1A5
:403340000023C7F8C83F0CB1013C13E0EC68013C10E0D7F84023D7F8003303F00F03072B02D8AB681A5502E0AB6823F81420013E002ED6D12C61EC6829463846FFF7B0FF64
:40338000201A804519D908B1441E00E000243B6813F4006F01D0802300E040239C4204D34FF42371064800F0D5F9D7F8040320F0FF03E0B21843C7F80403BDE8F08100BF25
:4033C00064B8081038B504460D46D0F8003E13F0080F35D0D0F8CC3F13F448730AD04A681A434A60C0F8C03FD0F8C03F0B6B0BB110209847D4F8CC3F13F4006F09D06B680A
:4034000043F400636B604FF40063C4F8C03FD4F8C03FD4F8CC3F13F0010F11D0EB6923B129462046FFF72EFD05E0AB681BB129462046FFF761FF0123C4F8C03FD4F8C03F79
:40344000D4F8003E13F0040F2ED0D4F88C3F13F4A0630AD02A681A432A60C4F8803FD4F8803F2B6B0BB120209847D4F88C3F13F0010F08D029462046FFF796FC0123C4F804
:40348000803FD4F8803FD4F88C3F13F4007F0BD00022C4F8882F2B6823F001032B60EA622B6B0BB10220984738BD00BF1F4B98422DD00CD840282ED003D8E8B1102828D07E
:4034C0002FE0802829D0B0F5807F28D029E0184B984228D006D8B0F1204F0DD0154B984212D01EE0144B98420AD00133984209D0023B984215D101E0002070470F487047A0
:403500000F4870470F4870474FF4A0007047074870470D4870470D4870470D487047034870470C4870474FF4A400704706005200010000F0090000A0040000F001005200C7
:403540000200520003005200010050000200500005005200FF00520038B5124B1B6893F83130012B04D840F2C3110F4800F0F2F80C4B1D682A6AB5F8B03013442C46D5F8CC
:40358000B420D358002B0BDB084B1868FFF78EFF6B6801229A6063689B68002BFBD138BD034838BD800F0308ECB90810B84B0208020050001A4B186128B102230370FF2394
:4035C000437000234380174B1B6893F850202AB300B583B0B3F93830ADF800300023019311496846FDF73EFDBDF90030002B08DB590903F01F03012202FA03F30B4A42F8A7
:403600002130084B1B6893F8513023B1022208490120FDF7C1FF03B05DF804FB704700BFB84B0208800F03083D44020800E100E0F544020808B50248FFF7BCFF08BD00BF4A
:40364000CC4B02082DE9F04104460D46174698469DF81860072903D9D921354800F07AF837F00F0303D0DA21314800F073F8B8F1010F03D9DB212E4800F06CF836F01F039A
:4036800003D0DC212A4800F065F822680123AB4022EA030308F0010808FA05F843EA08032360244B1B6893F87D100B59A8000F22824023EA020207F00F0303FA00F71743A4
:4036C0000F51072D04D94FF422711B4800F042F836F01F0304D040F28921174800F03AF8144B1B689A69A41AE4095B6924011919032D0DD81959ED001F22AA4021EA020224
:4037000006F01F0606FA05F515431D51BDE8F081043D4A68ED001F23AB4022EA030306F01F0606FA05F51D434D60BDE8F08100BF2CBA0810800F03086CBA081008B5034BA1
:403740001B7800FB03F000F067F808BDB042020801BEFEE738B50D46044C18220146204605F0B8FCA5610020FFF7F2FF68490208FEE700BF08B50268254BDA6142681A6290
:4037800082685A62C2689A620269DA6242691A6382695A63C2699A631E4A916AD963D16A1964516A5964516B9964926BDA64F1EE103A13F0900F27D0026A154B1A65426A22
:4037C0005A65826A9A65C26ADA65026B1A66426B5A66826B9A66C26BDA66026C1A67426C5A67826C9A67C26CDA67026DC3F88020426DC3F88420826DC3F88820C26DC3F830
:403800008C20026EC3F89020FFF7B2FF08BD00BF6849020800ED00E00230800803D001300238FCD100BF00BF7047EFF3108072B6704780F310887047014B1860704700BF07
:40384000800F03081AB9084206D10020704731EA000303D000207047012070470120704710B5182001F0D8FE044620B1002340F8043B00F0DBF8204610BD00BF2DE9F843EC
:40388000089F40B94FF0BF0383F31188BFF36F8FBFF34F8FFEE7064611F07F4F08D04FF0BF0383F31188BFF36F8FBFF34F8FFEE741B94FF0BF0383F31188BFF36F8FBFF39F
:4038C0004F8FFEE7994690460D4601F0FFF910B91FB9012302E0012300E0002343B94FF0BF0383F31188BFF36F8FBFF34F8FFEE700F01CFF34684A4629462046FFF7A2FF72
:4039000038B1B8F1000F18D024EA05033360002714E09FB1B8F1000F01D1002101E04FF08071B9F1000F01D041F080613A462943301D01F0A7F8002400E0002700F084FF2B
:403940000FB338B94FF08052104B1A60BFF34F8FBFF36F8F01F0BEFA044610F0007F10D101F018FD34684A4629462046FFF76AFF28B1B8F1000F02D024EA0505356001F0B4
:403980002BFD24F07F442046BDE8F88304ED00E0F8B540B94FF0BF0383F31188BFF36F8FBFF34F8FFEE7044611F07F4F08D04FF0BF0383F31188BFF36F8FBFF34F8FFEE7B0
:4039C0000D4600F10C0600F0B1FE206921682943216000251FE04768016821F07F4211F0806F04D123681A4207D1002308E0236832EA030303D0002302E0012300E0012389
:403A000043B111F0807F00D01543216841F0007101F0C8F83846B042DDD1236823EA0503236000F011FF2068F8BD00BF00F1080343604FF0FF328260C36003610023036053
:403A4000704700BF00230361704700BF43684B609A688A609A68516099600861036801330360704730B40D68B5F1FF3F01D1026907E000F1080200E01A4653681C68A54201
:403A8000FAD253684B6099608A605160086103680133036030BC704703694268816891608268416851605A68904201D182685A60002202611A68013A1A601868704700BF42
:403AC000436A23B1036B1868C0F1070070470020704700BF10B5044601F05CFCA26BE36B9A4201D1012400E0002401F075FC204610BD00BF10B5044601F04CFCA36B0BB95A
:403B0000012400E0002401F067FC204610BD00BF70B504461646856B026C3AB9036843BB406801F037F90023636029E06EB9806804F0F4FCA268236C1344A3606268934254
:403B400019D32368A36000201AE0C06804F0E6FC236C5B42E2681A44E26021688A4202D262681344E360022E07D145B1013D002006E0002004E0002002E0002000E00020A8
:403B80000135A56370BD00BF026C72B110B50346C4681444C4604068844201D31868D8600846D96804F0BAFC10BD704738B5054601F0F0FB95F8454064B20AE06B6A53B1DE
:403BC00005F1240000F0AAFF08B101F077F8013C64B2002CF2DCFF2385F8453001F0FCFB01F0D8FB95F8444064B20AE02B6953B105F1100000F092FF08B101F05FF8013C7E
:403C000064B2002CF2DCFF2385F8443001F0E4FB38BD00BF38B540B94FF0BF0383F31188BFF36F8FBFF34F8FFEE704460D4601F0B1FB2168E26B236C03FB02106060002033
:403C4000A063A160013A02FB0313E360FF2384F8443084F845307DB92369ABB104F1100000F05CFF80B14FF08052094B1A60BFF34F8FBFF36F8F07E004F11000FFF7D6FE38
:403C800004F12400FFF7D2FE01F0A6FB012038BD04ED00E010B5029B0C4609B91B6000E01A60D8631C6401211846FFF7B3FF10BD40B94FF0BF0383F31188BFF36F8FBFF346
:403CC0004F8FFEE7F0B583B0034611B101FB00F000E000201D4617460C46483001F09CFC064638B100903B4600F1480221462846FFF7D0FF304603B0F0BD00BFF0B585B095
:403D0000019240B94FF0BF0383F31188BFF36F8FBFF34F8FFEE7044619B9026C1AB9012202E0012200E0002242B94FF0BF0383F31188BFF36F8FBFF34F8FFEE7022B03D10A
:403D4000E26B012A02D102E0012200E0002242B94FF0BF0383F31188BFF36F8FBFF34F8FFEE71D460E4600F0B1FF18B9019B1BB9012302E0012300E0002343B94FF0BF03FF
:403D800083F31188BFF36F8FBFF34F8FFEE7002701F000FBA26BE36B9A4201D3022D21D12A4631462046FFF7B3FE636A6BB104F1240000F0B3FE88B14FF08052324B1A60B8
:403DC000BFF34F8FBFF36F8F08E038B14FF080522D4B1A60BFF34F8FBFF36F8F01F0FCFA01204EE0019B1BB901F0F6FA002048E01FB902A800F018FF012701F0EDFA00F027
:403E000095FC01F0C7FA94F844305BB2B3F1FF3F02D1002384F8443094F845305BB2B3F1FF3F02D1002384F8453001F0D5FA01A902A800F003FFF0B92046FFF74BFEA0B1EE
:403E4000019904F1100000F003FE2046FFF7AEFE00F0FAFC00289BD14FF080520A4B1A60BFF34F8FBFF36F8F92E72046FFF79EFE00F0EAFC8CE72046FFF798FE00F0E4FC94
:403E8000002005B0F0BD00BF04ED00E02DE9F84340B94FF0BF0383F31188BFF36F8FBFF34F8FFEE7044619B9006C18B9012002E0012000E0002040B94FF0BF0383F31188EB
:403EC000BFF36F8FBFF34F8FFEE7022B03D1E06B012802D102E0012000E0002040B94FF0BF0383F31188BFF36F8FBFF34F8FFEE71F469046894601F051FBEFF311864FF025
:403F0000BF0383F31188BFF36F8FBFF34F8FA26BE36B9A4201D3022F1ED194F845506DB23A4649462046FFF7F3FDB5F1FF3F0DD1636A9BB104F1240000F0F0FD80B1B8F1FF
:403F4000000F0FD00120C8F800000CE06B1C5BB284F84530012006E0002004E0012002E0012000E0012086F31188BDE8F88300BF40B94FF0BF0383F31188BFF36F8FBFF375
:403F80004F8FFEE770B50446036C43B14FF0BF0383F31188BFF36F8FBFF34F8FFEE703681BB943681BB9012302E0012300E0002343B94FF0BF0383F31188BFF36F8FBFF3DE
:403FC0004F8FFEE70E4601F0E9FAEFF311854FF0BF0383F31188BFF36F8FBFF34F8FA26BE36B9A4218D294F845305BB20132A263B3F1FF3F0AD1636A83B104F1240000F0E0
:404000008DFD68B176B1012030600CE001335BB284F84530012006E0002004E0012002E0012000E0012085F3118870BDF0B585B0019240B94FF0BF0383F31188BFF36F8F53
:40404000BFF34F8FFEE7044619B9036C1BB9012302E0012300E0002343B94FF0BF0383F31188BFF36F8FBFF34F8FFEE70E4600F02DFE18B9019B1BB9012302E0012300E054
:40408000002343B94FF0BF0383F31188BFF36F8FBFF34F8FFEE7002701F07CF9A56BC5B131462046FFF770FD013DA563236963B104F1100000F032FD38B14FF08052304BDA
:4040C0001A60BFF34F8FBFF36F8F01F085F9012053E0019B1BB901F07FF900204DE01FB902A800F0A1FD012701F076F900F01EFB01F050F994F844305BB2B3F1FF3F02D180
:40410000002384F8443094F845305BB2B3F1FF3F02D1002384F8453001F05EF901A902A800F08CFDF0B92046FFF7E4FCA0B1019904F1240000F08CFC2046FFF737FD00F09F
:4041400083FB0028A8D14FF080520D4B1A60BFF34F8FBFF36F8F9FE72046FFF727FD00F073FB99E72046FFF721FD00F06DFB2046FFF7C0FC00288FD0002005B0F0BD00BF67
:4041800004ED00E070B584B0019140B94FF0BF0383F31188BFF36F8FBFF34F8FFEE70446036C43B14FF0BF0383F31188BFF36F8FBFF34F8FFEE700F089FD18B9019B1BB97C
:4041C000012302E0012300E0002343B94FF0BF0383F31188BFF36F8FBFF34F8FFEE700252E4601F0D7F8A36BCBB1013BA363236813B900F07FFE6060236963B104F1100013
:4042000000F08CFC38B14FF08052414B1A60BFF34F8FBFF36F8F01F0DFF8012076E0019B6BB945B14FF0BF0383F31188BFF36F8FBFF34F8FFEE701F0CFF8002066E01EB9A7
:4042400002A800F0F1FC012601F0C6F800F06EFA01F0A0F894F844305BB2B3F1FF3F02D1002384F8443094F845305BB2B3F1FF3F02D1002384F8453001F0AEF801A902A869
:4042800000F0DCFC40BB2046FFF734FCF0B123683BB901F07FF8606800F028FD054601F09BF8019904F1240000F0D2FB2046FFF77DFC00F0C9FA002893D14FF08052144B87
:4042C0001A60BFF34F8FBFF36F8F8AE72046FFF76DFC00F0B9FA84E72046FFF767FC00F0B3FA2046FFF706FC00283FF47AAF65B101F050F82046FFF7E3FB0146606800F0FA
:4043000093FD01F069F8002000E0002004B070BD04ED00E000230BE0074A52F8332032B9054A42F8331002EBC303586070470133092BF1D9704700BF840F030870B504463F
:404340000D46164601F026F894F844305BB2B3F1FF3F02D1002384F8443094F845305BB2B3F1FF3F02D1002384F8453001F034F8A36B2BB93246294604F1240000F0B0FB29
:404380002046FFF713FC70BD094B9B6A1B680BB9012300E0002323B14FF0FF32044BDA627047034B9A6AD268D2685268DA6270470C4C020810B50446006B01F05DF920461C
:4043C00001F05AF910BD00BF2DE9F04780460D4616469946DDF820A0099F0A9C9200A521206B04F0A6F8236B06F18042013A03EB820626F00706002306E0E95CE21882F817
:404400003410EA5C12B101330F2BF6D9002384F84330BAF1060F01D94FF0060AC4F82CA0C4F844A00025A564201DFFF70BFB04F11800FFF707FB2461CAF10703A36164624F
:404440002B4606E003F1120204EB8202002151600133042BF6D90023236684F864304A464146304600F068FF206007B13C60BDE8F08700BF70B5002407E004EB84029300DF
:4044800010481844FFF7D2FA0134062CF5D90E4C04F1BC063046FFF7C9FA04F1D0052846FFF7C4FA04F11400FFF7C0FA04F1E400FFF7BCFA2046FFF7B9FAA662C4F8F850CC
:4044C00070BD00BF3C4C02080C4C020838B5044600F060FF264BD3F8FC200132C3F8FC20D3F800314BB9224BC3F80041D3F8FC30012B10D1FFF7BEFF0DE01D4BD3F804317F
:404500004BB91B4BD3F80031DA6AE36A9A4202D8174BC3F80041164AD2F808310133C2F80831E36AD2F80C21934202D9104AC2F80C310F4D05F1300003EB83039A00211DD3
:404540001044FFF783FA00F047FFD5F804316BB1D5F80031DA6AE36A9A4207D24FF08052044B1A60BFF34F8FBFF36F8F38BD00BF0C4C020804ED00E038B517E000F00AFFFE
:404580000D4CD4F8F030DD68281DFFF785FAD4F8FC30013BC4F8FC30D4F81031013BC4F8103100F019FF2846FFF704FF024BD3F81031002BE2D138BD0C4C020808B5FFF7A5
:4045C000DBFF064B1B6B012BF9D94FF08052044B1A60BFF34F8FBFF36F8FF0E70C4C020804ED00E070B504460E46174BD3F81451D3F800010430FFF74FFAB4F1FF3F07D199
:4046000036B11148D0F800110431FFF71FFA70BD2C440D4BD3F800315C60A54208D90A4BD3F8F800D3F800110431FFF71BFA70BD054DA86AD5F800110431FFF713FAEB6A78
:404640009C4200D2EC6270BD0C4C02082DE9F04385B006460F4615469846900000F0DCFF60B18146682000F0D7FF044610B1C0F8309004E0484600F0FFFF00E000248CB1B0
:404680000023039302940D9B01930C9B009343462A4639463046FFF797FE2046FFF716FF012001E04FF0FF3005B0BDE8F08300BF00B583B0194B01930023009380221849B6
:4046C0001848FFF7C3FF012801D100F079FC012814D14FF0BF0383F31188BFF36F8FBFF34F8F114B4FF0FF32DA620122C3F804210022C3F8142100F0EFFE0BE0B0F1FF3F20
:4047000008D14FF0BF0383F31188BFF36F8FBFF34F8FFEE703B05DF804FB00BF284D02081CBC0810BD4508100C4C0208034AD2F818310133C2F81831704700BF0C4C02084B
:40474000014BD3F8140170470C4C02082DE9F0413C4BD3F81831002B65D13A4BD3F814410134C3F81441CCB99B6A1B6843B14FF0BF0383F31188BFF36F8FBFF34F8FFEE791
:40478000304B9A6AD3F8F8109962C3F8F820D3F820210132C3F82021FFF7F6FD294BDB6A9C4203D2002645E0012600E00026254B9B6A1B680BB9012300E0002323B14FF0DB
:4047C000FF32204BDA6235E01E4B9B6ADB68DD686B689C4202D21B4AD3622BE005F104084046FFF759F9AB6A1BB105F11800FFF753F9EB6A134AD2F80C21934202D9114AF7
:40480000C2F80C310F4F07F1300003EB83039A0041461044FFF71AF9EA6AD7F80031DB6A9A42C1D2C3E7074AD2F824310133C2F824310026034BD3F8283103B101263046BB
:40484000BDE8F0810C4C0208394BD3F8183143B94FF0BF0383F31188BFF36F8FBFF34F8FFEE770B500F096FD314BD3F81821013AC3F81821D3F81831002B52D12C4BD3F8FC
:40488000FC303BBB00244FE0294D2B6ADC6804F11800FFF701F9261D3046FFF7FDF8E36AD5F80C21934201D9C5F80C31204D05F1300003EB83039A0031461044FFF7C6F883
:4048C000E26AD5F80031DB6A9A4204D30122C5F8282100E00024164B5B69002BD4D10CB1FFF752FD124BD3F8244164B1FFF72EFF18B101220E4BC3F82821013CF6D100221E
:404900000B4BC3F824210A4BD3F828315BB14FF08052084B1A60BFF34F8FBFF36F8F012402E0002400E0002400F056FD204670BD0C4C020804ED00E010B5B0B10446104B7B
:40494000D3F8183143B14FF0BF0383F31188BFF36F8FBFF34F8FFEE7FFF7E8FE00212046FFF740FEFFF770FF00E0002038B94FF08052044B1A60BFF34F8FBFF36F8F10BD26
:404980000C4C020804ED00E0304BD3F8183123B101222E4BC3F82821704710B52B4B0022C3F82821D3F800311B6B1A68B2F1A53F0BD15A68B2F1A53F07D19A68B2F1A53F98
:4049C00003D1DB68B3F1A53F07D0204BD3F80001D3F80011343100F00DFE1C4BD3F80C310AE043B94FF0BF0383F31188BFF36F8FBFF34F8FFEE7013B03EB83018A001349B0
:404A00000A44126B002AECD008469900CC18A2000244546B64685463303019448A0008320244944206D1606803EB83018A0007490A445063054903EB830082000A44526BFB
:404A4000D268C1F80021C1F80C3110BD0C4C020840B94FF0BF0383F31188BFF36F8FBFF34F8FFEE710B50C46054BD3F800111831FEF7F8FF01212046FFF7B4FD10BD00BF9C
:404A80000C4C020840B94FF0BF0383F31188BFF36F8FBFF34F8FFEE703461048D0F8180140B94FF0BF0383F31188BFF36F8FBFF34F8FFEE710B5184614460B46074AD2F8CD
:404AC000001143F000438B61D2F800111831FEF7BDFF01212046FFF785FD10BD0C4C020838B540B94FF0BF0383F31188BFF36F8FBFF34F8FFEE70C461546074AD2F800114B
:404B00001831FEF7A3FF0DB14FF0FF3429462046FFF768FD38BD00BF0C4C020838B5C368DC6844B94FF0BF0383F31188BFF36F8FBFF34F8FFEE704F118052846FEF7ACFF71
:404B4000154BD3F81831ABB9251D2846FEF7A4FFE36A114AD2F80C21934202D90E4AC2F80C3103EB83039A0029460C481044FEF76DFF03E029460A48FEF768FFE26A064B54
:404B8000D3F80031DB6A9A4204D90120024BC3F8280138BD002038BD0C4C02083C4C0208204C02081F4BD3F8183143B94FF0BF0383F31188BFF36F8FBFF34F8FFEE770B561
:404BC00041F000430360C46844B94FF0BF0383F31188BFF36F8FBFF34F8FFEE7FEF75CFF261D3046FEF758FFE36A0E4AD2F80C21934202D90B4AC2F80C310A4D05F1300016
:404C000003EB83039A0031461044FEF71FFFE26AD5F80031DB6A9A4202D90122C5F8282170BD00BF0C4C0208034BD3F820210260D3F81431436070470C4C0208F8B540B99D
:404C40004FF0BF0383F31188BFF36F8FBFF34F8FFEE7054641B94FF0BF0383F31188BFF36F8FBFF34F8FFEE70C4600F093FB124BD3F814016968421A2368B3F1FF3F14D0FA
:404C80002F680D4ED6F82061B74201D088420ED29A4206D29B1A23602846FFF7C5FF002406E000232360012402E0002400E0012400F092FB2046F8BD0C4C02080122024BE1
:404CC000C3F82821704700BF0C4C0208064BD3F804312BB1044BD3F818311BB90220704701207047002070470C4C0208002849D038B50346C26A2549D1F80011C96A8A42A0
:404D000037D28169002906DB2049D1F80011C96AC1F107018161586902EB820291001C4A1144884201D1012200E00022D2B11D461C1D2046FEF7B0FE144AD2F80031DB6A5F
:404D4000EB62D2F80C21934202D9104AC2F80C3103EB83039A0021460D481044FEF776FE012038BD094AD2F80021D26ADA62012038BD426C054BD3F80031DB6A9A4203D394
:404D8000002038BD00207047012038BD0C4C02083C4C020800283DD038B50346204AD2F80021904208D04FF0BF0383F31188BFF36F8FBFF34F8FFEE7826C42B94FF0BF0374
:404DC00083F31188BFF36F8FBFF34F8FFEE7013A8264C06A596C88421ED0FAB91C461D1D2846FEF759FE636CE362C3F10702A2610B4AD2F80C21934202D9094AC2F80C3194
:404E000003EB83039A00294606481044FEF71EFE012038BD00207047002038BD002038BD0C4C02083C4C020800284DD038B50346806C40B94FF0BF0383F31188BFF36F8F17
:404E4000BFF34F8FFEE75A6C8A4200D20A46D96A8A4238D0012836D11C48D0F80001834208D14FF0BF0383F31188BFF36F8FBFF34F8FFEE7DA629869002802DBC2F10702C4
:404E80009A61586901EB81018A0011490A44904201D1012200E00022AAB11C461D1D2846FEF7FAFDE36A094AD2F80C21934202D9064AC2F80C3103EB83039A002946044825
:404EC0001044FEF7C3FD38BD704700BF0C4C02083C4C0208064BD3F800219069D3F80021D3F80031DB6AC3F107039361704700BF0C4C0208064BD3F800312BB1044BD3F81A
:404F00000021936C01339364014BD3F8000170470C4C0208064B1A681368B3FA83F35B09036013B9D368186870470020704700BF384D020808B54160006191420AD8D21AFA
:404F400083699A4211D2011D0A4B5868FEF78AFD002008BD9A4201D2994208D2011D054B1868FEF77FFD002008BD012008BD012008BD00BF384D020870B500F00BFA0E4BBD
:404F80009B68B3B90C4C04F10C063046FEF74EFD04F120052846FEF749FD2660656000220C210A20FEF784FEA06010B10349FFF7B1F900F011FA70BD384D020824BC081013
:404FC00000B583B0FFF7D8FF0D4B9B6853B10D4B019303230093002380220B490B48FFF735FB00E0002040B94FF0BF0383F31188BFF36F8FBFF34F8FFEE703B05DF804FB31
:40500000384D02086C4D02082CBC0810A552081040B94FF0BF0383F31188BFF36F8FBFF34F8FFEE730B585B015460446124A9068F0B11A46019102950394052913DCFFF7FA
:4050400045FE022807D10023089A01A90A488068FEF754FE0DE000231A4601A906488068FEF74CFE05E0002301A9FEF70FFF00E0002005B030BD00BF384D020870B582B070
:4050800029E0DB681E68DC68251D2846FEF704FD636A20469847E369012B1CD1A36933449E4207D2636024612946104B1868FEF7D9FC10E0002100910B4632462046FFF75E
:4050C000A7FF40B94FF0BF0383F31188BFF36F8FBFF34F8FFEE7054B1B681A68002AD0D1024A51681160536002B070BD384D020838B50546FFF724FB0446074B9B6B98425C
:4051000004D2FFF7BBFF01232B6001E000232B60014B9C63204638BD384D020870B582B005460E46134B1B68DB68DC68201DFEF7B3FCE369012B18D1A1692B463246294476
:405140002046FFF7F7FE80B1002100910B462A462046FFF75DFF40B94FF0BF0383F31188BFF36F8FBFF34F8FFEE7636A2046984702B070BD384D020870B582B006460C46DF
:40518000FFF7D4FA01A8FFF7B3FF019B1BBB054644B9B04206D3FFF757FB29463046FFF7BDFF1AE02CB10E4B5B681C68B4FA84F464092246711B0A4B9868FFF7BFF8FFF780
:4051C00043FB50B94FF08052064B1A60BFF34F8FBFF36F8F01E0FFF737FB02B070BD00BF384D020804ED00E030B587B04DE0039B002B4ADB059C636913B1201DFEF74CFC63
:4052000002A8FFF775FF039B092B3ED8DFE803F00505053D273A05053D270499A5690B46024629442046FFF785FE70B3636A20469847E369012B28D1A269002100910B4659
:40524000049802442046FFF7E3FEF0B94FF0BF0383F31188BFF36F8FBFF34F8FFEE70499A16141B94FF0BF0383F31188BFF36F8FBFF34F8FFEE70346024601442046FFF731
:4052800059FE02E0204600F0F7F9002203A9044B9868FEF7CBFE0028A9D107B030BD00BF384D020800B583B001A8FFF733FE0199FFF762FFFFF798FFF6E700BF82B00023D9
:4052C00001930D4B1B68B3F1FF3F08D04FF0BF0383F31188BFF36F8FBFF34F8FFEE74FF0BF0383F31188BFF36F8FBFF34F8F019B002BFCD002B07047BC4202080848006844
:40530000006880F308884FF0000080F3148862B661B6BFF34F8FBFF36F8F00DF00BF000008ED00E0DFF80C00016841F4700101607047000088ED00E04FF0807340F8043CC9
:4053400021F0010140F8081C054B40F80C3C40F8202C6FF0020340F8243C4438704700BFBD520810000000000000000000000000074B19680868B0E8F04F80F30988BFF385
:405380006F8F4FF0000080F311887047AFF300800C4D02084FF0BF0383F31188BFF36F8FBFF34F8F0A4A136801331360012B0DD1084B1B6813F0FF0F08D04FF0BF0383F362
:4053C0001188BFF36F8FBFF34F8FFEE7704700BFBC42020804ED00E0094B1B6843B94FF0BF0383F31188BFF36F8FBFF34F8FFEE7013B034A13600BB983F31188704700BF53
:40540000BC420208000000000000000000000000EFF30980BFF36F8F154B1A681EF0100F08BF20ED108A20E9F04F10602DE909004FF0BF0080F31188BFF34F8FBFF36F8FAB
:40544000FFF7A2FA4FF0000080F3118809BC19680868B0E8F04F1EF0100F08BFB0EC108A80F30988BFF36F8F704700BFAFF300800C4D020808B54FF0BF0383F31188BFF36A
:405480006F8FBFF34F8FFFF761F918B14FF08052024B1A60002383F3118808BD04ED00E0084A0023136008490B60084B1B680849A1FB03139B09013B06490B6007231360F1
:4054C000704700BF10E000E018E000E0A8420208D34D621014E000E010B582B02A4B1A78D2B20192FF221A701B78DBB28DF803309DF80330254A03F0BF0313700723536050
:4055000009E0224A5368013B53609DF803305B00DBB28DF803309DF8033013F0800FF0D11A4B5B68042B08D04FF0BF0383F31188BFF36F8FBFF34F8FFEE71B0203F4E0632E
:40554000124A5360019BDBB20F4A1370104B1A6842F47F021A601A6842F07F421A60FFF79FFF00240B4B1C60FFF7DCFE0A4A136843F040431360FFF7C1FEFFF705FAFFF728
:405580009DFE204602B010BD00E400E0744D020820ED00E0BC42020834EF00E0EFF305830F2B0FD9104A9B5CDBB2104A1278934208D24FF0BF0383F31188BFF36F8FBFF375
:4055C0004F8FFEE70A4B1B6803F4E063074A5268934208D94FF0BF0383F31188BFF36F8FBFF34F8FFEE77047F0E300E0744D02080CED00E008B54FF0BF0383F31188BFF353
:405600006F8FBFF34F8F4FF441710248FEF7A2F8FEE700BF34BC081038B5044610F0070F02D020F007040834FFF780F8104B1B682BB90F4A02F10C0323F0070313600D4B79
:40564000D3F85C351C444BF6F772944208D8A34208D2074A15681D44064BC3F85C4502E0002500E00025FFF7EFF8284638BD00BF7C4D02082408030840B14FF0BF0383F3F6
:405680001188BFF36F8FBFF34F8FFEE7704700BF70B539B900240AE015F8010BFBF7CEFB013402E016460D460024B442F4DB204670BD00BF70B561B900240FE0FBF7CAFBB3
:4056C000C0B2287001340A2808D00D2806D0013502E016460D460024B442EFDB204670BD08B5074B1B7833B900F016FA00F090FA0122034B1A7000F05DF800F00FFF08BD0D
:40570000840D030810B5FFF7EBFF044610B900F00DFE044614B900F089FD044614B900F099FC044600F026FC0028FBD100F0FAFA00F0BCFA0CB902F0ABF9204610BD00BFCA
:4057400070B5194D0026344629E063090433174A52F8233004F01F02D34013F0010F1CD0EB7E012B02D0022B09D011E0284600F0A5F806462946204600F094F90DE02846DB
:4057800000F080F806462946204600F0F3F804E04FF4B8710648FDF7DDFF2C350134022CD3D9304670BD00BFE8BC0810D40F030884BC081070B500230AE01D4A191D02EB87
:4057C0008100002444604FF0FF3042F821000133002BF2D0174C032325E06668A27E144B2B4400211976012A03D0D2B1032A07D917E02069A8B1228BF17902F09AFE10E084
:4058000023690BB1F2791A706168002307E003F1080201EB42024FF6FF7090800133002BF5D02C342B465D1E002BD6D170BD00BFD40F0308E8BC081010B582B004460846FF
:40584000638802A921F8083D1346228A02F02EFABDF8003063809DF8023023719DF8033063719DF80430A37102B010BD30B40B884A889C1A0025CD800079844200DDCC8021
:4058800030BC70472DE9F0418468038B456890F81A8000270BE042462146284600F050FA074621462846FFF7E1FF0A3433465E1E002BF0D13846BDE8F08100BF2DE9F04755
:4058C00080468468476890F81AA0466A0025A94616E03246398A208802F010FA2A4631463846FFF7A9FF0C3652462146384600F027FA814621463846FFF7B8FF0A340135CC
:40590000B8F818309D42E4D34846BDE8F08700BFF0B50C8B8D684F680A69012324E010EA030403D17E88B979314402E07988BE79891BEE88B14201D3002100E01946A1422D
:4059400002D01678013E1670A14201D014783CB920EA0300084309B9F97900E0012111705B000A350132744604F1FF3E002CD6D1F0BD00BF38B504468A7E154B03441D7E45
:40598000012A04D12846FFF7C3FF054604E04FF438711048FDF7DEFE0D4B23441D76620904F01F04012303FA04F445B90432084B03EB8202536823EA0404546038BD0432E9
:4059C000034B03EB820253681C43546038BD00BFD40F0308B0BC0810F0B583B00B8B8A684D68D1F810E0844618B96F88A879074402E06888AF79C71B0024012009E0D388C2
:405A00009F4201D3002300E003461C430A32400033465E1E002BF2D154B19EF8003013B1013B8EF800309EF8003023B1644602E0EB798EF800305CB10E466A88AB790F8BD5
:405A4000D21A3946B06801F075FF034610B923E0002321E0B27E022A1ED100233A46316A01A801F0D3FF034600220AE002A901EB420131F8040C02F1080105EB4101888072
:405A800001329342F2D807E003F1080205EB42024FF6FF7191800133002BF5D0204603B0F0BD00BF38B504468A7E194B03441D7E012A03D062B1032A05D909E02846FFF79E
:405AC00027FF054609E02846FFF786FF054604E040F226410F48FDF73DFE0D4B23441D76620904F01F04012303FA04F445B90432074B03EB8202536823EA0404546038BDB7
:405B00000432034B03EB820253681C43546038BDD40F0308B0BC0810F8B5234F4FF486720021384602F005FD4FF41E633B804FF410637B8041F66A03BB800823BB834FF096
:405B4000010E87F81EE00423FB77184E07F1200406F18C050FCD0FC40FCD0FC40FCD0FC495E80F0007C42380C7F8FCE0562206F1CC0107F1A40002F0D1FC304606F1080444
:405B800003230CE0A268238B04E010F8013B53720A320B46591E002BF7D12C342B465D1E002BEFD1F8BD00BFD40F0308E0BC081002280DD800F01F02012303FA02F240096C
:405BC000031D044800EB83035B6802EA0300704700207047D40F0308022810D82C230B4A03FB002393F82230023BDBB2012B09D82C22064B02FB0030C368988A70474FF6FA
:405C0000FF7070474FF6FF70704700BFE0BC08100023024AD380024A13607047D40F0308D00D0308C9B2062902D083180021197130F8121000EB420359800244002313724F
:405C4000704700BF70B506460D46012305E0224629463046FFF7E6FF23465C1E002BF6D170BD00BF08B52C23054A03FB0023986801EB81014A00997E1044FFF7E3FF08BDBC
:405C8000E8BC081038B505462C23074A03FB00231B8B04E021462846FFF7E4FF23465C1E002BF7D138BD00BFE8BC081010B5032303E02046FFF7E6FF23465C1E002BF8D1CB
:405CC00010BD00BFF8B505462C230F4A03FB00235E681B8B14E02C230B4A03FB05239F6804EB8402500004EB44018A00596A0A44DB7E012B03D1318A385A01F0F3FF2346A0
:405D00005C1E002BE7D1F8BDE8BC081010B5032303E02046FFF7D6FF23465C1E002BF8D110BD00BF08B5FFF7F1FF08BD00FA03F3C2F5807001FB00F102FB0310000A704776
:405D40002DE9F04106460D461746012342E035F8140005EB44035988884207D3431A2A194FF0000E82F808E0012201E00B1A002292B996F805E073450ED92B191B7A327A21
:405D8000934205D3224639462846FFF74BFF20E02A19013313721CE096F804E0734504D996F805E0734514D89AB9FBB2062B10D005EB040898F804E0082301224EEA012162
:405DC000FFF7B4FFC0F30F2205EB44035A8088F8040023465C1E002BB9D10020BDE8F08110B52C23064A03FB0020846801EB81014B00827EE1184068FFF7A2FF10BD00BFC8
:405E0000E8BC081070B506462C23084A03FB00231B8B002505E021463046FFF7E1FF054323465C1E002BF6D1284670BDE8BC081038B50025032304E02046FFF7E3FF0543FA
:405E400023465C1E002BF7D1284638BD30B49F280ED940F2FE3399420AD9244CA1FB04454B1B05EB53035B0AC3EB832399422FD09F280DD9B1F5FF7F0AD91D4CA1FB0445A0
:405E80004B1B05EB53031B0AC3EB4323994221D09F280CD97E290AD9164CA1FB04454B1B05EB53039B09C3EBC313994214D09F2814D93E2914D9104CA1FB04454B1B05EB82
:405EC00053035B09C3EB831399420BD000200AE0042008E0032006E0022004E0002002E0002000E0012030BC704700BF051040002140800011080402054110044A1E032A00
:405F000001D8102300E0002379B183B1642202FB03F3B3FBF0F3002001E001305B00092BFBD90A2B04D9013802E0002000E00020C0B2704708B501F09BFC08BD08B50A4BC3
:405F40001A689169094B5B1ADB09526902EB03135A6822F0F8525A60054A136823F00103136000F02FFF08BD800F030880033240A8023640024BD86800F08000704700BF09
:405F8000D40F0308034B0340034AD0681843D060704700BF80000100D40F0308034B0340034AD06820EA0300D060704780000100D40F030810B5164BDB6813F4803F0ED1E6
:405FC00002280ED843090433114A52F8233000F01F02D34013F0010F05D1012404E0112402E0012400E0002484B92C23094A03FB0023DB7E022B02D101F04CFC06E0012B1C
:4060000002D100F0F1FE01E04FF0FF34204610BDD40F0308E8BC081008B50C4BDB6813F4803F0DD10A4B1B78012B05D0022B09D101F0FEFA002008BD00F026FE002008BDCC
:40604000112008BD4FF0FF3008BD00BFD40F0308D40D0308124BDB6813F0800F1AD110B500244FF0FF3312E02046FFF7A3FF034660B9012C03D801220A4B5A7002E0002247
:40608000084B5A70FFF7C8FF034606E00134022CEAD902E0112318467047184610BD00BFD40F0308D40D0308124B1B78834220D010B50446012B02D1FFF740FF03E0022BCA
:4060C00001D1FFF737FF012C05D100F053FC0122084B1A7010BD022C05D101F0F5F80222044B1A7010BD032C02D00022014B1A7010BD7047D40D030830B583B00025074CEE
:4061000008E02179002300930E222068FDF79AFA08340135082DF4D903B030BD04BE081038B51B4A93780133DBB293709078FFF741FF044650B9164B9B78DBB2022B02D146
:406140000022134B5A70FFF767FF1EE0104B9B78DBB2022B10D10F4D2B8901332B818020FFF71CFFEB6823F07F43EB60EB6843EA0464EC60002408E0064BDA6822F07F42B8
:40618000DA60DA6842EA0062DA60002CC9D138BDD40D0308D40F030810B50146124BB3F90030002B0DDB5A0903F01F03012404FA03F320320D4840F82230BFF34F8FBFF3AA
:4061C0006F8F094C2046FAF74DFFB4F90030002B08DB590903F01F03012202FA03F3034A42F8213010BD00BF68B5081000E100E070B5022801D8002500E001258DB90446F5
:406200002C23094A03FB0023DE7E022E02D1282101F00AF9012E04D15521204600F0B4FE0546284670BD00BFE8BC081038B50024254604E02046FFF7DBFF05430134022CDB
:40624000F8D9284638BD00BF70B5002519E02C230D4A03FB0523DB7E012B11D12C2303FB05F3D658002404E006EBC40000F054FD01342C23044A03FB05231B7E9C42F3D30F
:406280000135022DE3D970BDE8BC08102C23034A03FB002043685889704700BFE8BC08102C23034A03FB002043685981704700BFE8BC0810C0EB0032012303FA01F10139C1
:4062C0008A4205D9C0EB0020814203D30520704706207047002070472DE9F04180460E46FFF7D4FF07460022318800F00DFC01463846FFF7ABFD054620B931887800FFF707
:40630000D9FF054629463846FFF7F8FD04466B1FDBB2012B03D839464046FFF7C1FF2001C0B228433073BDE8F08100BFF0B58BB04FF47A73ADF8003040F65503ADF802307F
:406340004FF41663ADF80430544B9A7F4CF25033B3FBF2F3ADF80C3000F00CFB00252E4652E02C234E4A03FB0523DB7E012B44D12C2303FB05235C680C232380002323736E
:40638000BDF80C30474AA2FB03235B09274627F80A3F5521284600F0F7FD0497424B1B788DF81830414B1A884FF47A7303FB02F23F4BA3FB0213D21A03EB5203C3F3CF23AB
:4063C000ADF80E30684601F019FC3A4B984203D9062601E05B006381BDF80C10638941F2707202FB03F29142F4D8032BF2D90AAB03EB850343F80C0C05E001220AAB03EBFA
:40640000850343F80C2C0135022DAAD9002427E02C23234A03FB0423DB7E012B1FD12C2303FB04235D685521204600F0ADFD064305F10A0304930AAB03EB840353F80C3CA9
:406440000293194B1B788DF81830EB89ADF8063005F110030593684601F0F6FB28800134022CD5D9002413E02C230D4A03FB0423DB7E012B0BD12C2303FB042359682046AC
:40648000FFF72AFF5521204600F07EFD06430134022CE9D930460BB0F0BD00BFD40F0308E8BC0810F1197605C4420208C642020801011000870D0100F8B5002427E02C234C
:4064C000144A03FB04235D68DB7E012B02D0022B05D016E029462046FFF7FEFE16E02E88204601F01DFA07463146FFF7AFFC064601463846FFF702FD0001C0B23043287338
:4065000004E040F259710448FDF724F90134022CD5D9F8BDE8BC081090BE081008B5FFF7CBFFFFF7E9FD0020FFF7BEFD002008BD38B52D4D2A6893692C4CE31ADB0952691E
:4065400002EB03135A6822F0F8525A60802363602B6893F87D20135923F0704343F0C04313512A689369E31ADB0951691B01CA5822F4F852CA50022363602B6893F87D20CF
:40658000135923F0F00343F0600313512A689369E31ADB0951691B01CA5822F4F812CA50042363602B6893F87D20135923F4706343F4C06313510120FDF7C0F82B6893F82A
:4065C0007D20135923F0704313512B6893F87D20135923F0F00313512B6893F87D20135923F47063135138BD800F0308800332400F4B19782C220F4B01FB02335B680E4AFF
:40660000D2F8D02091B2188801238340013B994206D20A4B1B680A49097823F811207047064A12680649097822F81130704700BFD60D0308E8BC081000003640E0100308B2
:406640004CBE081038B5214C227821492C2302FB03125068227802FB03131A7E013A1D4B1B78DBB29A421BD91A4C23780133DBB22370164D29782C22154B01FB0233996870
:40668000237803EB83035A000A44134B1A6000F013FA2878217800F02DFB00F077FA38BD00220C4B1A704FF48030FFF777FC0B4B1B78012B02D1FFF733FD38BD8020FFF7AF
:4066C0006DFC074A13890133138138BDD60D0308E8BC0810DC0D0308E0100308D50D0308D40F030808B5074B4FF483721A601B68FFF77EFF044A1389013313810348FFF769
:406700004DFC08BDF0003640D40F03088000010010B50C4B1B782C2203FB02F30A4AD3580A4A147803EBC404094B4FF483721A601B68FFF75DFF204600F0EEFAFFF782FFE1
:4067400010BD00BFD60D0308E8BC0810DC0D0308F000364001390843014B1860704700BF000236400E4B1B6823F4F8730D4A917F0D4AB2FBF1F20D498A4204D843F0200352
:40678000074A136070470A498A4204D843F03003034A1360704743F04003014A13607047C0420208D40F030880F0FA02001BB70000366E01044A054B1A604FF0C17203F53C
:4067C00080731A60704700BF0000830100043640084A136803F07F0343F0C17343F48033136002F58072136803F07F0343F400031360704700043640074A136843F0805329
:4068000043F001031360054A054B1A604FF0C17203F580731A607047A8023640000083010004364010B40488012000FA04F4013C04EB840303FA00F00C4BA3FB00035B098A
:4068400001335818844200D220468B4201D8C91A00E00021914203D8904203D2062002E0062000E000205DF8044B70471F85EB510023164A136002F5927213600432136021
:4068800006212C3A11604FF48071083A11600121903A1160A2F580724FF48371116012680B4A136003220B4B1A604FF4FA6300E0013B094A126812F0040F01D1002BF7D1CB
:4068C00013B90822034B1A60704700BF8C013640F800364040033640F00036401E4B4FF483721A601B681D4BB3F90030002B08DB590903F01F03012202FA03F3184A42F8BC
:4069000021300023174A136030321360043213602C3A13605021983A11600121643A11600C3A13608032136843F08073136002220D4B1A604FF4FA6300E0013B0B4AD2F883
:40694000842012F0070F01D0002BF6D140F20132074B1A60704700BFF000364068B5081000E100E080023640F8003640000036404003364070B5FFF767FCFFF7D9FD4FF473
:406980008032404B1A604048036843F0805343F00103036000233D4A136002F5E07213600C32136060321360A2F5CE72136002F582721360083A1360354C2360A2F5807214
:4069C00013604FF0487102F5A8721160314D2A6892F87D60304AB15821F07041B15029688D69521BD209496901EB0212516821F0F85141F08061516028490A6842F48052AB
:406A00000A604FF48071264A1160026842F0805242F0010202604FF0807222490A6040F64130A1F58E71086001F584710B602260FFF7C0FE1C4B9B7F013BFF2B0BD8154A73
:406A400012689068B2F87410425822F47F421B029BB213434350FFF785FE144B1B6843F0004343F48053124A13600F22114B1A600022A3F588731A600A2203F590731A6031
:406A800070BD00BF04023640A8023640F400364084023640800F03088003324094023640A0023640A4023640D40F0308C0420208000036400003364038B50546FCF7B5FE52
:406AC0000D490B6823F07F020C4B1C7825446B7A13430B60FCF7ADFEFCF7A7FE08490B6823F07F02074B1B681C44637A13430B60FCF79FFE38BD00BF000436404CBE0810FE
:406B000000053640E010030830B401248C40631E40B10F2904D9A4F10A03B3FBF0F301E0B3FBF0F3053A012A00D85B080BB9012000E0184630BC704708B50C4B19782C2280
:406B40000B4B01FB02335B6859891B7B18045A1F012A01D840F00070053B012B02D8490800D10121FFF7F6FD08BD00BFD60D0308E8BC081008B5027B01884089FFF7C4FF34
:406B800080B2014B186008BD1403364008B50D4BB3F90030002B0DDB5A0903F01F03012101FA03F32032084941F82230BFF34F8FBFF36F8F0122054B1A60FFF759FEFFF760
:406BC0008DFE08BD68B5081000E100E08001364008B50448FFF7D6F91720FCF7AFFDFFF7D5FF08BD80000100F8B50546FCF71DFE06462F682C79072C04D94FF47171204879
:406C0000FCF7A8FDA4001F4B1B6893F87D00C2590F23A34022EA0301062202FA04F30B43C3512C682D79072D04D94FF422711448FCF790FD134B1A689369E31ADB095269F1
:406C40001B01D118032D0BD8D158ED001F20A84021EA00000B2101FA05F50543D5500BE0043D4B68ED001F22AA4023EA02020B2303FA05F515434D603046FCF7DAFDF8BDFF
:406C800050BE0810800F0308F8B5144F3B78144D2C2603FB06535868124C002323703B7803FB06539968237803EB83035A000A440D4B1A60FFF700FF3B7803FB06F3EB58FD
:406CC000207803EBC000094B1860FFF78DFF0848FFF762FAFFF77CFFF8BD00BFD60D0308E8BC0810DC0D0308E0100308E41003081167081008B52C2303FB00F0044B185898
:406D000000EBC100034B1860FFF76EFF08BD00BFE8BC0810E4100308F8B50646FCF785FD074634683579072D04D94FF422712348FCF710FD224B1A689369E31ADB09526961
:406D40001B01D118032D08D8D158ED001F2000FA05F521EA0505D55008E0043D4B68ED001F2202FA05F523EA05054D6035683479072C04D94FF471711048FCF7EBFCA40062
:406D80000F4B1B6893F87D0042590F23A34022EA03010E2202FA04F30B43435135683479072C04D940F281310448FCF7D3FC0123A3406B603846FCF73CFDF8BD50BE081086
:406DC000800F030808B5064B1B78012B06D1054B1868FFF7A1FF0022014B1A7008BD00BFDD0D0308E4100308F8B5114E2C2707FB00635D68C0B20F4C20700120FFF754F935
:406E0000FFF7E0FF237803FB07F3F2580A4B1A600A4BDA6822F07F02DA602178DA680A43DA602846FFF7A6FEFFF786FEF8BD00BFE8BC0810D60D0308E4100308D40F03087E
:406E400038B52C23114A03FB00235D68C9B2104C21709968237803EB83035A000A440D4B1A60FFF7C1FF2846FFF726FE20780A4A136803EBC0001060FFF7B6FE0122074BC1
:406E80001A700748FFF788F938BD00BFE8BC0810DC0D0308E0100308E4100308DD0D0308E56608102DE9F84307460D4690462E4908782C222D4B00FB02335E684FF000090A
:406EC00085F8009008782A4B1978FFF7B9FFFFF77FFC8024B94503D22B7823EA04032B7064082B7823432B703046FFF7E5FDFFF76FFE4CF6C44300E0013B1E4AD26812F04D
:406F0000800F01D0002BF7D11B4B1B68B3F80090002CDFD1144B1B782C2203FB02F3134AD358134A107803EBC000144B1860FFF7F3FE0022124B1A70FFF75EFC4A4639468A
:406F40003046FFF76FFC98F800202B789A4205D288F800300B4A1371A2F80690064B1B682A785A72BDE8F883D60D0308E8BC0810DC0D0308D40F0308E0100308E410030893
:406F8000DD0D0308C04202082DE9F04383B004460F462C233A4A03FB00235E6801258DF80450B14639F8098B05FA08F808F1FF3801FB08F3334AA2FB03384FEA5818C2B2A8
:406FC000314B1A703148FFF7E7F8314B1D71DD800025304B1D700AE001AA49464046FFF761FF05432B4A13780133DBB213702C23234A03FB04231A7F264B1B78DBB29A4236
:40700000EAD89DF8043001335B0873720022214B1A7023E02C231A4A03FB04239A681D4B1B7803EB830302EB43021B4B1A60537A717A8B420BD35B1ADBB207FB03F36333E0
:407040001049A1FB0313C3F34713537201E000235372104A13780133DBB213702C23084A03FB04231A7F0B4B1B78DBB29A42D1D80022084B1A70284603B0BDE8F08300BFED
:40708000E8BC08101F85EB51D60D0308E5660810C0420208DC0D0308E010030842890388901E10FB03F080B2704700BF08B52A4BB3F90030002B0DDB5A0903F01F03012183
:4070C00001FA03F32032254941F82230BFF34F8FBFF36F8F224B4FF483721A601B68214BD3F8D020D3F8D4309BB213FA82F31E4A128892B2934204D91B4A13889BB2538095
:4071000002E09BB2184A5380184B1B689847184BDB6813F0800F0FD1164A124B1A604FF4407203F5C6731A60134A03F51D731A601F22A3F598731A60074BB3F90030002B21
:4071400008DB590903F01F03012202FA03F3034A42F8213008BD00BF68B5081000E100E0F000364000003640E00D0308C8420208D40F030820100C80800E43013F4B1A68DE
:407180003F4B1B7813445A7A3E4B13433E4A136000233E4A53803E493E4A1160012102F5C0721160112102F5807211604FF08071043211603C3213600622374B1A60374A0A
:4071C00028331A6041F2101204331A60344AC43B1A6040F2033203F5A8731A604FF4FA6300E0013B2F4A126812F0010F01D0002BF7D12C4B1B6813F0010F03D04FF442726D
:40720000284B1A60284BDA7F284BB3FBF2F3284A934204D9274A934203D8302302E0202300E0402343F0004343F44123194A136040F20132204B1A60002320490B6001F571
