:020000041008E2
:4000000000780408EB0208100D0000005103081051030810510308105103081000000000000000000000000000000000816508104D03081000000000216608108566081072
:400040004D0308104D0308104D0308104D0308104D0308104D0308104D0308104D0308104D0308104D0308104D0308104D0308104D0308104D0308104D0308104D03081000
:400080004D0308104D0308104D0308104D0308104D0308104D0308104D0308104D0308104D0308104D0308104D0308104D0308104D0308104D0308104D0308104D030810C0
:4000C0004D0308104D0308104D0308104D0308104D0308104D0308104D0308104D0308104D0308104D0308104D0308104D0308104D0308104D0308104D0308104D03081080
:400100004D0308104D0308104D0308104D0308104D0308104D0308104D0308104D0308104D0308104D0308104D0308104D0308104D0308104D0308104D0308104D0308103F
:400140004D0308104D0308104D0308104D0308104D0308104D0308104D0308104D0308104D0308104D0308104D0308104D0308104D0308104D0308104D0308104D030810FF
:400180004D0308104D0308104D0308104D0308104D0308104D0308104D0308104D0308104D0308104D0308104D0308104D0308104D0308104D0308104D0308104D030810BF
:4001C0004D0308104D0308104D0308104D0308104D0308104D0308104D0308104D0308104D0308104D0308104D0308104D0308104D0308104D0308104D0308104D0308107F
:400200004D0308104D0308104D0308104D0308104D0308104D0308104D0308104D0308104D0308104D0308104D0308104D0308104D0308104D0308104D0308104D0308103E
:400240004D0308104D0308104D0308104D0308104D0308104D0308104D0308104D0308104D0308104D0308104D0308104D0308104D0308104D0308104D0308104D030810FE
:400280004D0308104D0308104D03081010B5054C237833B9044B13B10448AFF300800123237010BDBC76020800000000E4DC0810084B10B51BB108490848AFF30080084859
:4002C000036803B910BD074B002BFBD0BDE81040184700BF00000000C0760208E4DC081078470208000000007047FFF7FDFF72B6104C114DAC4209DA21686268A368043BD5
:40030000A2BFC858D050FAE70C34F3E70B490C4A00209142BCBF41F8040BFAE709480A490860BFF34F8F00F08FFD00F069FD00F01DF8FEE70CBE091024BE0910BC7602086E
:400340006C4603080040020808ED00E0FEE7FEE700B504207146084202D0EFF3098001E0EFF30880043003F083FBFEE700B583B062B600220821042004F0A8FD294B1860F7
:4003800000220821042004F0A1FD274B186004F075FB264B1860002401940225009523464FF4C8722249234805F05EFA01940123009323464FF4C8721F49204805F054FA42
:4003C0000194009523464FF4C8721D491D4805F04BFA0194009523464FF4C8721A491B4805F042FA0194009523464FF400621849184805F039FA0194009523464FF4C872B0
:400400001549164805F030FA01940323009323464FF480521249134805F026FA05F056FAFEE700BF38430308A4430308A04303087CC40810DD04081088C4081085070810A2
:4004400094C40810A1080810A0C4081075090810ACC40810E1090810BCC40810950B0810D0C40810110F081000B583B0164B0022C3F8C82F0422C3F8C02FD3F8C03F134B66
:40048000B3F90030002B09DB5A0903F01F03012101FA03F360320E4941F8223002A9002341F8043D0B4B186804F070FE019B43B13BB14FF08052084B1A60BFF34F8FBFF336
:4004C0006F8F03B05DF804FB0000664044C8081000E100E0D876020804ED00E030B583B000F070FD944B1868002302221946406809F080FE914D284609F0D6FD904809F0C1
:40050000D3FD904C204609F041FE284609F0CCFD8D4809F0C9FD204609F038FE284609F0C3FD8A4809F0C0FD204609F02FFE03220021012004F0CAFC854B1860854C8649D4
:40054000204600F02FFEB4F90030002B08DB590903F01F03012202FA03F3804A42F8213004227F4BC3F8C82F4FF0FF31784B186804F016FFD3E0704B186842685368013B40
:400580005360002B04DA416809F008FEC0B204E042681368591C116018783F38382800F2BE80DFE800F0B3BCBCBCBCBCBCBCBCBCBCBCBCBCBCBCBCBCBCBCBCBCBCBCBCBC19
:4005C000BCBCBCBCBCBCBCBCBCBCBCBC4FBCBCBCBCBC8F7FBCBC6F602D1DA0BCBCBC3E00564809F061FD5F4809F05EFD554809F0CDFD5D4B0022C3F84C21C3F88C238EE065
:400600004E4809F051FD594809F04EFD4D4809F0BDFD554B4FF47A72C3F84C21C3F88C237DE0464809F040FD514809F03DFD454809F0ACFD4C4B40F2DC52C3F84C21C3F859
:400640008C236CE03D4809F02FFD4A4809F02CFD3C4809F09BFD444B4FF4FA62C3F84C21C3F88C235BE001238DF800308DF801300A23019300231A4669463F48006804F0AC
:400680004BFC4CE001238DF800308DF801306FF00903019300231A4669463748006804F03BFC3CE002238DF8003001238DF801300A23019300231A4669462F48006804F05F
:4006C0002BFC2CE002238DF8003001238DF801306FF00903019300231A4669462648006804F01AFC1BE0154809F0DEFC012000F0C7F80446022000F0C3F8024621461F48DA
:4007000009F0D2FC0F4809F041FD08E00B4809F0CBFC1B4809F0C8FC0A4809F037FD104BD3F80833C3F30803002B7FF424AF04220B4BC3F8C82F17E734470208DCC40810CE
:40074000E8C40810F4C40810F8C4081010C50810D876020844C808106904081000E100E00000664038C508100000394040C508104CC5081058C508103843030864C50810EC
:4007800080C50810F8B500F065FC2B4E304609F08BFC2A4809F088FC294D284609F0F6FC00F0ACFC08F0A2FA304609F07DFC254809F07AFC284609F0E9FC5F22224BC3F8CC
:4007C0004C21224E304609F06FFC214809F06CFC284609F0DBFC304609F066FC1D4F384609F062FC284609F0D1FC304609F05CFC19491A4809F058FC284609F0C7FC30467C
:4008000009F052FC384609F04FFC284609F0BEFC631CDBB20C4AC2F88C410133104A82FB0321DA17C2EB6112642101FB1232D4B20A2005F08FF9EBE790C50810A0C50810B7
:40084000F4C40810BCC5081000003840DCC40810DCC50810F0C5081018C6081030C608101F85EB51642303FB00F0044B83FB0023C017C0EBA3106438704700BFD34D621037
:4008800008B5012801D1012300E00A239B0103F1804303F56413D3F80C01FFF7E3FF08BD70B582B000F0C0FB00F040FC294809F0FBFB294809F0F8FB284809F067FC00253C
:4008C0002E464FF0FF326946254B186804F0BCFC9DF80030012B04D0022B04D10A25214E01E001251F4E9DF80130012B0CD106EB8513D3F80C01FFF7B5FF019A841800D50A
:400900000024642C02DC02E0019C00E06424114809F0CAFB22469DF80010134809F0C4FB0E4809F033FC4FF47A7202FB04F20F4B83FB0213D217C2EB631202F57A7206EB9B
:400940008513C3F80C210321094B186804F02EF9B7E700BF44C6081058C60810F4C40810384303080000394070C608101F85EB51A043030800B585B000F08EFB124809F08E
:4009800093FB124809F090FB114809F0FFFB114B00930023022203A90F4802F0DFF90120FFF76EFF8DF80C000220FFF769FF8DF80D000A4B18684FF0FF3300930023012236
:4009C000114604F069F8EAE784C6081094C60810F4C40810E443030800006440A043030830B583B005F0A4FF06F04AFC2C4809F05BFB2C4809F058FB2B4809F0C7FB01254F
:400A000006F0CEFB002846D105F0B0FF022006F0F9F904464FF6FE7398421BDC204809F043FB22462946214809F03EFB1E4809F0ADFB8DF80050019400231A4669461C4821
:400A4000006804F069FA00231A4669461948006804F062FA002006F0C1F948B1104809F023FB154809F020FB0F4809F08FFB0125012006F0B3F948B1094809F015FB0F4856
:400A800009F012FB084809F081FB022506F0E6FA06F0F6FBB4E7322005F05CF8B0E700BFACC60810BCC60810F4C40810D4C6081038430308A4430308E4C60810F8C6081045
:400AC000024A136818431060704700BFDC76020810B5002413E00B4B53F834200A4B1B681A420BD0094809F0DFFA064B03EBC403586809F0D9FA064809F048FB0134012C11
:400B0000E9DD10BD8C420208DC7602080CC70810F4C4081000B587B00C238DF800308DF801008DF802100D238DF8033008238DF80830CDF80CD00523049300238DF814302A
:400B40000E4A13600E4A02A90E4801F099FD0C490C4801F093FD10F4803FF8D10A4809F0A3FA064B1968094809F09EFA084809F00DFBFFF7ADFF07B05DF804FBDC7602081E
:400B8000B4450308000063400CC7081024C70810F4C4081070B582B008F0CAF8274809F083FA274809F080FA264809F0EFFA264A264B5A6400252E464FF0FF326946244BE2
:400BC000186804F041FB9DF80030012B04D0022B04D10A251F4E01E001251E4E9DF80130012B0CD106EB8513D3F80C01FFF73AFE019C041900D50024642C02DC02E0019C71
:400C000000E064240D4809F04FFA22469DF80010114809F049FA0B4809F0B8FA9DF800000E4B03441B799C4202D0E1B2FFF772FF9DF80030094A13441C71BDE70CC7081017
:400C40004CC70810F4C40810C10A0810B4450308A44303080000394074C70810DC76020808B5012000F0D4FD08BD00BF704700BF5C4AD2F8803303F00F0303F1D00152F8A8
:400C8000212002F00702032A04D0042A05D092B9554914E0554A116811E003F1C002514951F8222002F01F02112A06D0132A04D04FF4FA4103E04E4901E04FF400418BBB5B
:400CC000484BD3F8902502F00100D3F88825C2F30172D3F8883513F0405F07D0414BD3F88835C3F30173012B02D102E0012300E0002303B108B9032A46D13A48D0F880255F
:400D0000C2F31103D0F88425C2F30C02D0F88005C0F300600130B1FBF2F202FB03F2B2FBF0F131E0012B2FD12E4BD3F8402602F00100D3F80026C2F30172D3F8003613F01E
:400D4000405F07D0274BD3F80036C3F30173012B02D102E0012300E0002303B108B9032A12D12048D0F8002602F07F02D0F80036C3F30423D0F80006C0F3044002FB01F27A
:400D8000B2FBF3F2B2FBF0F1164BD3F88033C3F3011321FA03F215494A601648D0F89030C3F3072301330069000E0130B2FBF0F08860B2FBF3F3CB600B6103F5742202F28F
:400DC0003F220D48A0FB0202C2F387420A7503F2E7330A4AA2FB03239B098B61DB03CB61704700BF0000264000127A009C42020800366E010000214083DE1B43D34D62103A
:400E000008B50D4802F098FEFFF730FFFFF730FF00221146042000F0ADFA084800F040FB074B1B6893F8513013B1064800F0A8FB02F004FD08BD00BF38CE0810E87602089C
:400E400020440308C4C7081008B502F06EFE074AD2F8883043F47003C2F88830BFF34F8FBFF36F8F02F065FE08BD00BF00ED00E008B544F20803984206D045F201039842AD
:400E800013D0B0F5805F1CD10E4809F00DF90E4809F00AF90D4809F079F920220C4B9A600021084603F056F808BD064809F0FCF8084809F0F9F8054809F068F92022044BC2
:400EC0005A6008BDF8C7081000C80810F4C408108000324014C8081000B583B002A9002341F8043D084B186804F050F9019B3BB14FF08052054B1A60BFF34F8FBFF36F8F23
:400F000003B05DF804FB00BFA843030804ED00E008B5134809F0C8F8124809F0C5F8124809F034F903220021012003F0CFFF0F4B18600F4807F038FF01E00DF009F80D4B0D
:400F40001B78022BF9D10C4802F042FF4FF0FF31064B186804F024FA0CF0FAFFF6E700BFF8C7081028C80810F4C40810A8430308710E081028440308D90E081010B50446BC
:400F80002146034800F088FD0028F9D010BD00BF00006640054BD3F80833C3F30803002BF8D0024BD3F84003704700BF0000664008B50249024802F009FB08BDAC4303085F
:400FC0000000664008B5114B1B785BB9104A1149114802F0D7F81149114800F0E3F801220A4B1A700E4BB3F90030002B08DB590903F01F03012202FA03F30A4A42F821308F
:40100000054A136843F00043136008BD68780208AC4303085CC8081000006640B10F081044C8081000E100E008B5074B1B783BB9064A0121064800F04FFC0122024B1A702A
:401040000222034B9A6008BD697802089CC808100000394008B5084B1B783BB9074A0221074800F039FC0122034B1A70044B04229A609A6108BD00BF6A78020800C908102A
:401080000000384008B50249024801F027FF08BDE44303080000644008B5114B1B785BB9104A1149114801F08FFE1149114800F079F801220A4B1A700E4BB3F90030002BF3
:4010C00008DB590903F01F03012202FA03F30A4A42F82130054A136843F00043136008BD6B780208E443030864C9081000006440851008104CC8081000E100E008B5084B78
:401100001B783BB9074A0021074800F0E5FB0122034B1A70044B01229A609A6108BD00BF6C7802086CC908100000384008B5084B1B783BB9074A0A21074800F0CDFB0122C1
:40114000034B1A704FF48062034B9A6008BD00BF6D780208D0C908100000394038B50D4B9A680D4B9A420FD10D46044621B940F237110A4802F06CFC04F11003064A52F8F3
:40118000230042F8235038BD1030054B53F8200038BD00BF00ED00E00040020834CA08100000081048B338B504460D464368072B03D93221134802F04BFCB4F900306268AA
:4011C000002B08DB5201D2B203F1604303F5614383F8002305E003F00F035201D2B20A49CA540A4B9A680A4B9A4208D12946B4F90000FFF7B3FF002038BD064870470020A8
:4012000038BD00BF34CA081014ED00E000ED00E0004002080100560038B50B4B1B68D3F8B4301B58002B0DDA0D4604460B0C1B0423B140F2D521054802F00AFCA9B261606B
:40124000002038BD024838BD2044030878CA081001008A0038B50368002B01DA002300E0094B73B90D460446C2600B0C1B0423B140F2BB21054802F0EBFBA9B2A16000206D
:4012800038BD014838BD00BF01008A0078CA081038B504460D4619B99921084802F0D8FB074B1B68D3F8B4301B59002B03DAE3682B60002038BD034838BD00BFB8CA0810A8
:4012C0002044030801008A00254B1B6893F8313083423AD900293AD00B6813F01F0F38D170B50D4604461E4B1B6893F83130984204D340F2C3111B4802F0AAFB184B1B682C
:40130000186AB3F8B03004FB0304174E34602A68D2080021686808F04DFA00212046FFF77BFF346825B940F293310E4802F090FB2A4600212046FFF78DFF60B900210A4BC3
:401340001868FFF769FF40B970BD084870470748704706487047064870BD054870BD00BF2044030878CA08107078020803018A0001018A0010B504461346B2B9A9B9124B3C
:401380001B6893F83130984204D340F2C3110F4802F05EFB0C4B1B681A6AB3F8B03004FB03240B4B1C60002010BD43B149B1084A51609360111D2046FFF786FF10BD05488A
:4013C00010BD044810BD00BF2044030878CA08107078020803018A002DE9F0411B4B1B68DC68236883422CD90D464609A0EB4610012303FA00F819B902F097FB074600E017
:401400000027124B18680368002B01DA002300E00F4B83B9626852F8263018EA030F05D023EA080342F82630002400E0094C0021FFF7F2FE00E0084C25B9384602F079FB4D
:4014400000E0064C2046BDE8F08100BF7078020801008A00020188000301880004018A000B4B1B68DB681A6882420CD94109A0EB4110012202FA00F05B6853F821301842A7
:4014800003D004487047044870470448704700BF707802080101880004018A0000018800024B1B680BB9014B186070477C7802082DE9F8430446884691461D46089F2C4B2F
:4014C0001B681BB9B5212B4802F0C2FA284B1B682C2000FB04F01C18EEB21E50C5F3072363602D0CA560244B1B6893F831309E4204D340F2C311214802F0AAFA1E4B1B68C2
:40150000196AB3F8B02006FB02162661666893F832309E4204D340F2DF11184802F098FA154B1B681D6A803605EB46156561A668330C1B0423B14FF4FF71104802F088FAA5
:40154000330C1B0423B140F2FF110C4802F080FAB3B243EA0646AE60C4F81C90C4F820800023A36117B1B7F90030A381BDE8F8837C780208F8CA08102044030878CA0810D3
:40158000F0B58FB0044618B95221274802F060FAA369072B03D95621234802F059FAE36A1BB95821204802F053FA236B1BB959211D4802F04DFA07AD04F114060FCE0FC58E
:4015C00037682F6002AD26460FCE0FC533682B60164B1B68B3F93620079B1344ADF83030089B0D93A26AE16A0CAD00953B460A98FFF75EFF00210091069B0A460598FFF753
:4016000057FF216B2846FFF7CDFDBDF93030002B08DB590903F01F03012202FA03F3044A42F821300FB0F0BDF8CA08102044030800E100E0F8B506460F461D4614461AB9BD
:40164000FD211F4802F004FA1E4B1B681BB9FE211B4802F0FDF91B4B1B682C2101FB063001FB07314B68012202FA03F31B04466802FA06F60269EAB18F69EFB91268002A58
:4016800001DA002200E0104AC2B92288134323600369DC6001238B614D620469330C1B0423B140F2BB21094802F0D2F9B2B2A2600020F8BD0648F8BD0648F8BD0548F8BD90
:4016C000F8CA08107C78020801008A0078CA081004028A0007028A00F8B505460F4616460E4B1B6823B94FF4AF710D4802F0B0F90A4B1B682C2404FB0534236A23B94FF44A
:40170000B171074802F0A4F9E369B34204D9236A43F826700020F8BD0248F8BD7C780208F8CA08100A028A0038B504460D46074B1B6823B94FF4C871054802F089F9034B25
:401740001B682C2202FB0434A56238BD7C780208F8CA081070B582B000230193044620B940F2D111284802F073F9236923B94FF4E971254802F06CF9636923B940F2D311F5
:40178000214802F065F9236A23B94FF4EA711E4802F05EF96369DD682A0C20D012041A601B682069194B1B68D3F8B430C358002B15DA01A9FFF76CFD60B9019803681E0CCC
:4017C000DBB2E269934206D2226A52F8233013B1984700E0002631462069FFF71DFDADB275B16369ADB21D601B68636A1BB198470023636202E0A36A03B198470023A361C9
:4018000063691B6802B070BDF8CA08102044030810B50446074B1B6823B940F2B111064802F016F9034B1B682C2000FB0430FFF791FF10BD7C780208F8CA081010B50446A8
:40184000104B1B6823B940F22B210F4802F000F90C4B1B682C2202FB0434B4F90C30002B0DDB5A0903F01F03012101FA03F32032064941F82230BFF34F8FBFF36F8F00207E
:4018800010BD00BF7C780208F8CA081000E100E010B504460D4B1B6823B940F24B210C4802F0D6F8094B1B682C2202FB0434B4F90C30002B08DB590903F01F03012202FAA4
:4018C00003F3044A42F82130002010BD7C780208F8CA081000E100E0002800F0AC8070B40446002A00F0A98092F828300BB1012500E00025137F0BB1022300E000231D43FF
:401900001669B60406F4802645EA060395682D0405F440351D431668300600F0E0602843136B556B43EA45031B0503F440130343906B43EA8000052E03D1D3681B029BB294
:4019400002E053681B029BB20343081D800123501368062B08D104EB81130120C3F808013F20C3F828011DE0936843B904EB81130020C3F808013120C3F8280112E0012B23
:4019800008D1506904EB8113C3F808011C20C3F8280107E004EB81130120C3F808011220C3F82801106A04EB8113C3F80C01506AC3F810015069C3F814019069C3F8180128
:4019C000136EB3F1FF3F17D0106C00F00F00966C360206F470663043156D2D0405F470250543906D000380B228431B01DBB2034304EB8110C0F82031D36B03F00303566C0E
:401A0000360106F030063343D56C2D0205F440752B43506D8001C0B21843D36D9B0003F00C03034304EB8114C4F82431D36AC4F83831002002E002487047014870BC7047ED
:401A40000100B60010B4D0F8003303F00F03072B06D900230DE0D0F84043CC54013300E000239342F7D306E0D0F8404321F8134001339342F8D35DF8044B704710B514469E
:401A8000D0F80833C3F308039A4200D31C462246FFF7D8FF204610BD036813F4006F01D0802200E04022D0F80832C3F30803934203D0C0F84012012070470020704700BF70
:401AC00010B4D0F8003203F00F03072B06D900230DE0CC5CC0F84042013300E000239342F7D306E031F81340C0F8404201339342F8D35DF8044B704710B51446036813F46E
:401B0000006F01D0802200E04022D0F80832C3F30803D31AA34200D81C462246FFF7D0FF204610BD02E0C0F84012013A002AFAD1704700BF10B51446036813F4006F01D0EF
:401B4000802200E04022D0F80832C3F30803D31AA34200D81C462246FFF7E4FF204610BD10B5546841F201039C4236D1D0F80833C3F30803DBB1137893B1136A43F040038F
:401B80001362D0F8043343F48033C0F80433D0F8043323F48033C0F80433D0F8043306E029B9136A43F040031362D0F84033136A43F020031362136A23F010031362036EE5
:401BC00023F4204303660023C0F8C83F0123C0F8C03FD0F8C03F202121E0D0F80832C3F30801D0F80832C3F3C0330B44116BC91A5163116A11F0080F05D1D16A1944D1623A
:401C0000916ACB1A9362136A43F004031362136A23F0010313620023C0F8883F1021D0F84C4F40F201131C420DD0036823F00043036000238366C366036843F00043036046
:401C4000036841F040014FF080535360536C0BB10846984710BD00BFD0F80C3F13F0020F1DD00222C0F8002FD0F8002FD0F8002F12F0040F02D04FF4001001E04FF4801093
:401C80008A6802438A604A68B2F5B81F07D00A7B12B14FF4C01201E04FF4B0124A6013F4807F03D08A6842F400028A6013F0010F03D08A6842F480028A6040F211121342FE
:401CC00002D04FF4C0134B60704700BF0023C0F8C83FC0F8883F836E23B140F21713C0F8083F704740F21313C0F8083F182383664FF4B8134B60704738B5D0F80C4F036E37
:401D000023F4807303660023C0F8C83FC0F8883FC0F8083F40F21713C0F8003FD0F8003F8B6823F480338B604B7B13B18B69CB610BE08D69D0F80822C2F30802D0F8083290
:401D4000C3F3C0331344EB1ACB6140F201131C421BD0036E9B0F032B05D114F4827F14BF0123002300E001235BB1036823F00043036000238366C366036843F000430360B4
:401D800003684FF080534B601BE00B7893B1D0F8043343F48033C0F80433D0F8043323F48033C0F80433D0F804330123C0F8C03FD0F8C03F0B7B0BB10B4B01E04FF080537D
:401DC0004B604A6C72B14B7B13B14FF4802001E04FF400308B6813F0F87301D04FF400231843904738BD00BF0000101070B505460C4691F8243013F0FF0F0ED1CB6A63B920
:401E00004B6C0BB108209847E36AB3FA83F35B0984F824300123C5F8883F94F8243013F0FF0F16D063783BB12B6813F4006F01D0802202E0402200E00122FF212846FFF7F7
:401E400079FE236B18442063236A43F00803236270BDE26A012A11D963780BB1013A00E00122A16A2846FFF747FE236B03442363E36A1B1AE362A36A1844A062D5F8083283
:401E8000C3F30803802B23D0E36A012B20D101F04CFEA36A1B78C5F840324026C5F8806FD5F8803F01F045FE236B013323630023E362A36A0133A362C5F8886F63783BB10C
:401EC000236A43F002032362636C0BB10420984770BD00BF38B54B68B3F5A81F03D14FF4C0134B6038BD4B68B3F5A01F4DD10C4605464A69012A11D94B780BB1013A00E04E
:401F0000012221692846FFF7F7FDA3690344A36163691B1A6361236903442361D5F80832C3F30803802B14D06369012B11D101F0FCFD23691B78C5F840324023C5F8803FE1
:401F4000D5F8803F01F0F5FDA3690133A361002363616369CBB9237B33B14023C5F8883F4FF4A813636005E00023C5F8883F4FF4B0136360637843B1A36843F40033A360B1
:401F8000636C13B14FF48030984738BD70B504460D468A6C82B3036813F4803F06D0D0F84C3F13F0400F03D0022002E0002000E00020236E13F4006F06D1D4F84C3F13F0FF
:401FC000800300D001231843C0B190470123C4F8C03FD4F8C03F024648B91023C4F8403FD4F8403F40F2D113C4F8483F07E040F2C113C4F8483F02E0002200E00022D4F8C0
:40200000043243F48033C4F80432D4F8043223F48033C4F80432D4F804320AB9012300E00223E366002A59D1666E06F010066B6C23B10EB1012000E0022098477EB141F297
:4020400002036B602B6A43F001032B626B6B2B63002385F824300123C4F8883F70BD41F201036B602B6A43F010032B620123C4F8C83F2B78BBB1EB6BBBB1236E43F40053CE
:402080002366ED6B802D05D9A5F18003802B0ED8813D0DE0013D236E43F4004323660023C4F8C83F04E0002502E0002500E03F25236813F4006F01D0802300E040239D42BC
:4020C00004D34FF42371064801F0C2FCD4F8043323F0FF03EDB21D43C4F8045370BD00BF38CB081038B54B68B3F5881F03D0B3F5901F1AD038BD0B69D0F840231A708B69EF
:4021000001338B614B69013B4B612BB10B6901330B610423836638BD0B7B13B14FF4C01301E04FF4B0134B6038BD0C4605464A690969FFF7A3FCA3690344A36163691B1A58
:402140006361226910442061012B24D82B6E23F480732B666369012B16D12B6813F4006F01D0802300E0402323B94FF42371184801F06EFCD5F8043323F0FF03C5F80433C5
:402180004FF48813636038BD0023C5F8C83F4FF4B013636038BD402B01D89C1E00E03F242B6813F4006F01D0802300E040239C4204D34FF42371064801F04AFCD5F80433CE
:4021C00023F0FF02E3B21343C5F8043338BD00BF38CB081038B5CB6B002B50D00B78002B3FD00C460546D0F80423D2B20132896BFFF744FC236C03442364E36B1B1AE3635F
:40220000A26B1044A063802B06D9A3F18002802A0FD8A3F181040DE02B6E43F400432B66E36B0BB15C1E00E000240023C5F8C83F00E03F242B6813F4006F01D0802300E050
:4022400040239C4204D34FF42371104801F000FCD5F8043323F0FF02E3B21343C5F8043338BD0123C3668A6B0B6CD0F84003D0540B6C01330B64CB6B013BCB6338BD022382
:40228000C3660023C0F8C83F38BD00BF38CB0810F8B50B78012B03D00C7A1CB9002702E0002700E00127002800F0A780002900F0A680002A00F0A58016460C460546013B90
:4022C000DBB2022B03D950214F4801F0C1FB637803B163791BB151214B4801F0B9FB94F90330002B03DA5221474801F0B1FB237913F0010F03D05321434801F0A9FB2369A9
:40230000102B03D95421404801F0A2FBE368102B03D955213C4801F09BFB637913B14FF4803100E00021E27912B14FF4807300E000230B4343F400632B60A37913B94FF48E
:40234000006300E000232269013A02F00F021A43E368013B1B01DBB21343227843EA82732B6617B140F2073301E040F20713C5F800330FB1254B00E0254B2B6763780BB104
:402380007F2300E00023C5F80433E3785B00DBB2227943EA0243C5F810331E4BC5F80032A3780BB1402300E00123C5F804320023C5F8C83EC5F8883EC5F8C83FC5F8883FFA
:4023C000C5F8083F2378022B02D040F2D11300E00023C5F8483F63783370A37873704FF0805373600020B060B06130623064F0633063F0627064B064F8BD0748F8BD0648F3
:40240000F8BD0548F8BD00BF7CCB081003002A0013102A00070101000120AA0038B505460C4621B94FF43171194801F011FB2B6E9B0F012B17D1174B2344174A93421ED985
:40244000A4F5BD13A3F5D66302F5611202F56162934216D9A4F57104A4F533440F4B9C4211D80F4838BD84B1286EC0F303102B6E03F00F0318440230B4FBF0F038BD09481D
:4024800038BD094838BD002038BD002038BD00BF7CCB081020AD88FF405B730040555C0440420F00801A0600A08601002DE9F84307468846914622B940F21321624801F0CB
:4024C000C7FA08F1FF34614B9C4204D94FF405715D4801F0BDFA3B6E9B0F012B0DD149463846FFF79BFF0546D7F8003323F40073C7F80033564B3B67A2E0544B9C421FD886
:40250000544B984509D8A9F5BD13A3F5D663524A934218D90021012328E0504B984507D84F4B4B444F4A934213D9002101231DE04D4B4B444D4A934212D90021012315E07C
:402540000021012312E0002141F288352E460B460CE000214FF461754FF4C8660B4605E001214FF4BE754FF41B760023002B66D13F4BB3FBF9F3B6FBF3F404FB03F2964208
:4025800000D90134102C00D910240F2C8CBF00220122B5FBF3F606FB03F39D4200D90136102E00D91026A519B9FBF5F50FE022B10F2C09D80134002206E00F2E04D8013666
:4025C0000F2C8CBF00220122A519B9FBF5F5454502D9A3191F2BEAD941B1D7F8003343F40073C7F80033234B3B6707E0D7F8003323F40073C7F80033154B3B67E31F092B49
:4026000004D940F28D511C4801F022FA3B6E23F0F003013C2401E4B223433B66731F0B2B04D940F2AA51144801F012FA3B6E23F00F03013E06F00F061E433E6600E0002541
:402640002846BDE8F88300BF7CCB08103F420F0013102A00A0860100502D1900801A060020AD88FFA0432100807E25FFC02BAF0000CA9A3B03002A00BCCB0810886870474E
:40268000F8B5044615460E4621B94FF4B7614B4801F0DEF9B36833B1736823B940F2B951464801F0D5F996F90030002B04DA40F2BA51424801F0CCF90023C4F8483F6B6827
:4026C00013F0805F73D037787F00FFB24FF48033AB6073682B61B3686B610023AB61EB61327B2A736B7340F21713C4F8003FD4F8003FD4F8043243F48033C4F80432D4F8D8
:40270000043223F48033C4F80432D4F804326B68B3F1805F09D1C4F840724023C4F8803FD4F8803F0223A36617E0636E13F0200F01D0092300E00123A3666B695BB901F093
:40274000F4F9C4F840724023C4F8803FD4F8803F01F0EFF901E0C4F840724FF4A0136B606B780BB1402500E00125236813F4006F01D0802300E040239D4204D34FF43D7143
:402780000F4801F065F9D4F8043223F0FF032B43C4F8043201F0C9F90123C4F8883F40F21313C4F8083F01F0C4F9002000E0054840F2D113C4F8483FF8BD00BF7CCB081020
:4027C00038CB08100220AA00F8B504460E46D0F88C3E13F0010F07D04FF480534B600123C0F8803ED0F8803ED4F84C5F40F201131D420FD0336A15F4807F02D04FF48072A3
:4028000000E08022134333620023C4F8C83F45F010050EE015F0100F0BD0D4F80833C3F3080333B1F36B23B10123C4F8C43FC4F8C83FD4F8CC3F13F0010F17D0236813F427
:40284000803F07D0062001F0F7F8D4F84C7FC7F3801700E0002757B931462046FFF7BAFC0123C4F8C03FD4F8C03F00E0002715F0100F0BD0324639462046FFF771F9102394
:40288000C4F8403FD4F8403FD4F84C5F15F0C00F0DD031462046FFF779FB0123C4F8803ED4F8803EC023C4F8403FD4F8403FD4F88C3F13F0410F08D031462046FFF796FA6D
:4028C0000123C4F8803FD4F8803FF8BD70B506460D46D0F8004E14F0020F0AD0836E2BB1002383668B6843F080738B604FF4C0136B6014F0010F05D029463046FFF7ACF909
:4029000024F0040414F0080F08D029463046FFF7E9FB0123C6F8C03FD6F8C03F14F0040F08D029463046FFF7D5FA0123C6F8803FD6F8803F6B68B3F5C01F03D12946304641
:40294000FFF7DAF96B68B3F5B01F03D129463046FFF7BCF970BD00BF08B54B6813F4801F02D0FFF7B3FF08BDFFF72EFF08BD00BF4B6843F020034B60D0F8043343F480335B
:40298000C0F80433D0F8043323F48033C0F80433D0F804330023C0F8C83FC0F8883F70474B6813F0200F0BD0036823F00043036000238366C366036843F000430360036891
:4029C0000B78DBB2062B03D10023C0F8883F06E00023C0F8C83F036E23F4204303664B6823F010034B600B7E83B10B78DBB2062B05D00A69CB689A4203D0022202E001222F
:402A000000E000224B6813434B600FE00B78DBB2062B05D04A69CB689A4203D0082202E0042200E000224B6813434B6000230B70704700BF4A7A1AB10B7A5340DB4300E0A5
:402A4000FF23D0F8102322F47F025B0403F47F031343C0F81033704738B504460D4601230B764B7A43B3D0F840335B080122C0F8C02FD0F8C02F0A7A934202D04A7A9342F5
:402A80000FD16A7A934201D100232B761023C4F8403FD4F8403F40F25113C4F8483F01220BE040F2DC512C4800F0D2FF40F24113C4F8883E022200E00122D4F8043243F44B
:402AC0008033C4F80432D4F8043223F48033C4F80432D4F80432E266012A3CD16B6843F010036B60636E13F0100F16D006232B702B7E3BB16A6A29690A44EA61AB6A5B1A52
:402B00002B6206E02A6B69690A44EA616B6B5B1A2B620123C4F8883F38BD02232B702B7E0BB1AB6A00E06B6B2B62236813F4006F01D0802300E0402323B94FF42371064878
:402B400000F086FFD4F8043323F0FF03C4F804330123C4F8C83F38BD38CB081038B505460C460A6A42B1C969FEF7C6FF236A1B1A2362E3691844E061236A23B98022FF21A6
:402B80002846FEF7D7FF38BD38B50546802906D9A1F18003802B0ED8A1F181040CE0036E43F40043036609B14C1E00E000240023C5F8C83F00E03F242B6813F4006F01D0FE
:402BC000802300E040239C4204D34FF42371064800F03EFFD5F8041321F0FF03E1B21943C5F8041338BD00BF38CB081038B505460C460B78023B032B00F28880DFE803F033
:402C000002025B73D0F840338A7A012A0FD10A78D2B2022A07D10122C2661A02CA6003220A70002204E0CA681343012200E00122002A6BD0226A934207D2227E0AB123610C
:402C400000E06361E360012306E0237E0BB1236900E06369E3600223EB66012B56D1237E5BB1626A21690A44E261E36A994201D25B1A00E0002323620AE0226B61690A44A7
:402C8000E261A36B994201D25B1A00E000232362637A13B9236A7F2B02D80423237038BD2B6E43F400532B66216A2846FFF76CFF0523237038BDD0F840230B6A6BB1012311
:402CC000C366CB691A700B6A013B0B62CB690133CB61CB680133CB6038BD0223C3660023C0F8C83F38BDD0F80423D2B20132C969FEF7C4FE216A091A2162E3691844E061E6
:402D00002846FFF741FFE3680133E36038BD00BF70B505460C46164611F0800F04D040F21A210D4800F094FE737A9C4204D140F21B21094800F08CFE3472D5F8103323F011
:402D4000FF036400E4B21C43C5F8104331462846FFF770FE70BD00BFFCCB0810F8B50F461D46069C16462AB121B940F26621074800F06EFEAE4204D240F26721034800F09D
:402D800067FE6762A662E562F8BD00BFFCCB081070B506460D46144611F0800F04D040F28B21084800F054FE237A9D4204D14FF42371044800F04CFE657221463046FFF7F9
:402DC00039FE70BDFCCB0810002878D070B50446002976D0002A76D016460D4691F90130002B03DA4721394800F032FE95F90230002B03DA4821354800F02AFE6A78AB788C
:402E00009A4203D14921314800F022FE2B78012B03D94A212D4800F01BFEEB78012B03D94B212A4800F014FE2B78012B02D14FF4803100E000212A7912B14FF4807300E0FD
:402E400000230B4343F400632360214B236640F20713C4F800330023C4F804332B7833B97372324669782046FFF752FF09E0324669782046FFF74CFF3246A9782046FFF726
:402E800087FF144BC4F800324023C4F804320020C4F8C80EC4F8880EC4F8C80FC4F8880FC4F8080F40F25113C4F8483F70603070EB78B372B062F0623061706170BD06481B
:402EC0007047054870BD044870BD00BFFCCB081000080040070101000100AA0070B504460E46D0F88C3E13F0010F05D001230B70C0F8803ED0F8803ED4F84C5F40F20113F9
:402F00001D420CD031462046FFF732FD40F20113C4F8403FD4F8403F45F010050BE03378DBB2052B07D115F0100F04D00123C4F8C43FC4F8C83FD4F8CC3F13F0010F08D0B3
:402F400031462046FFF752FE0123C4F8C03FD4F8C03F15F0100F0AD031462046FFF720FD1023C4F8403FD4F8403FD4F84C5F15F0400F0DD031462046FFF76EFD0123C4F817
:402F8000803ED4F8803E4023C4F8403FD4F8403FD4F88C3F13F0010F08D031462046FFF7DDFD0123C4F8803FD4F8803F70BD00BF2DE9F84305460C46036813F4006F02D0FA
:402FC0004FF0800801E04FF04008D5F8007207F00F07A26A012A19D9D4F82490E262561EB9F1000F00D026B940F27351254800F02FFD324649462846FEF77EFDA36A1B1AE7
:40300000A362072F00D9400048446062D5F80832C3F30803984533D0A36A012B30D10023A362072F02D8636A1E7801E0636A1E8800F07BFDC5F840624FF40073C5F8803F24
:40304000D5F8803F00F075FDD5F8883F23F4007222F0010242F4007623F4EE6323F0030323B140F23641084800F0F2FCC5F8886F236843F002032360236B0BB10120984714
:40308000BDE8F88340CC081038CB08102DE9F04105460C46036813F4006F01D0802600E040267608A769D4F81C8017B1B8F1000F04D14FF49961314800F0CAFC4246394671
:4030C0002846FEF7DBFC236A03442362E3691B1AE36173BBA368FBB1E3689E4201D8013E00E05E1E2B6813F4006F01D0802300E040239E4204D34FF42371214800F0A8FCA9
:40310000D5F8043323F0FF03F6B21E43C5F804630123C5F8C83F02E00023C5F8C83F636823F001036360236B33B304209847BDE8F081A169D5F8002302F00F02072A00D95F
:4031400040000844A0619E4216D95C1E2B6813F4006F01D0802300E040239C4204D34FF42371074800F074FCD5F8043323F0FF02E3B21343C5F80433BDE8F08140CC08104D
:4031800038CB0810002800F0A48170B50546002900F0A18116460C460B78022B03D93F21A24800F055FC637B023BDBB2062B03D940219E4800F04CFCA37B3BB1022B05D007
:4031C000032B03D04121994800F042FC94F82130012B03D94221954800F03AFC94F82830012B03D94321914800F032FC2378012B06D86368083B082B94BF0023012307E064
:40320000A37F2BB16368013B062B94BF002301231BB14521854800F01BFCA368053B042B03D94621814800F013FC6369FF2B03D947217E4800F00CFCA369FF2B03D94821C0
:403240007A4800F005FCA37C6BB1237833B9A368092B05D1A37B2BB1012304E0012302E0012300E000231BB14A21704800F0F0FB636B23F4366323F00D031BB14C216B483E
:4032800000F0E6FBE36B23F4EE6323F003031BB14D21664800F0DCFB2378022B01D1A37F13B16268013A00E00022237F13B14FF4803100E00021A368082B02D84FF400631F
:4032C00000E000230B4302F00F02134343F000732B60226B2B6813F4006F01D0802300E040239A4203D36221504800F0B1FBA26B2B6813F4006F01D0802300E040239A4294
:4033000003D36321494800F0A3FB626A2B6813F4006F01D0802300E040239A4203D36421424800F095FB23781B0603F040732B64637F0BB1402200E00022A37C13B14FF42E
:40334000806300E000231343227C12B14FF4807200E000221343627C12B14FF4007200E000221A43E36A013B1B0403F470231343627B013A02F007021343A27B120102F05B
:4033800030021343AB64237B13B14FF4807200E00022E37B23B92378022B03D1012302E0012300E0002313B14FF4007300E000231A43A368013B03F00F031343C5F800336E
:4033C000227DA3691B0403F47F031343C5F81033E26AD5F8003303F00F0303339A4201D3102A03D97A21114800F032FBE37F23B12378012B03D0002302E0002300E00123DA
:4034000013B14FF4807200E00022637B013B03F007031A43A37B1B0103F0300313436B64237B2BB14FF4807203E000BF80CC08100022A368013B03F00F0313432278012A5A
:4034400002D14FF4803200E000221343C5F8003294F83030C5F8043394F8203013B14FF0007200E0002294F82130012B02D14FF0807300E00023134394F82820012A02D1D1
:403480004FF4803200E00022134394F8242013432B6594F83830C5F80432636B23F4926323F002031B051B0DC5F8C83FE36B23F08C035B055B0DC5F8883F76B100207060D1
:4034C0003060B060F0603062F0623063044B736370BD04487047034870BD002070BD00BFEFCDAB000160AA000B694A69934202D34869181A7047CA684869101A184470478F
:403500002DE9F04107460D46036813F4006F02D04FF0800801E04FF040084FEA5808D7F80863C6F308062C6926E00134EB689C4200D100246B699C420FD12B6B0BB1082026
:4035400098476B699C4208D10023C7F8C83F0CB1013C13E0EC68013C10E0D7F84023D7F8003303F00F03072B02D8AB681A5502E0AB6823F81420013E002ED6D12C61EC688A
:4035800029463846FFF7B0FF201A804519D908B1441E00E000243B6813F4006F01D0802300E040239C4204D34FF42371064800F04FFAD7F8040320F0FF03E0B21843C7F8F2
:4035C0000403BDE8F08100BF38CB081038B504460D46D0F8003E13F0080F35D0D0F8CC3F13F448730AD04A681A434A60C0F8C03FD0F8C03F0B6B0BB110209847D4F8CC3F67
:4036000013F4006F09D06B6843F400636B604FF40063C4F8C03FD4F8C03FD4F8CC3F13F0010F11D0EB6923B129462046FFF72EFD05E0AB681BB129462046FFF761FF0123DB
:40364000C4F8C03FD4F8C03FD4F8003E13F0040F2ED0D4F88C3F13F4A0630AD02A681A432A60C4F8803FD4F8803F2B6B0BB120209847D4F88C3F13F0010F08D029462046E4
:40368000FFF796FC0123C4F8803FD4F8803FD4F88C3F13F4007F0BD00022C4F8882F2B6823F001032B60EA622B6B0BB10220984738BD00BF1F4B98422DD00CD840282ED0B8
:4036C00003D8E8B1102828D02FE0802829D0B0F5807F28D029E0184B984228D006D8B0F1204F0DD0154B984212D01EE0144B98420AD00133984209D0023B984215D101E0DF
:40370000002070470F4870470F4870470F4870474FF4A0007047074870470D4870470D4870470D487047034870470C4870474FF4A400704706005200010000F0090000A027
:40374000040000F0010052000200520003005200010050000200500005005200FF00520038B5124B1B6893F83130012B04D840F2C3110F4800F06CF90C4B1D682A6AB5F87E
:40378000B03013442C46D5F8B420D358002B0BDB084B1868FFF78EFF6B6801229A6063689B68002BFBD138BD034838BD20440308C0CC081080780208020050001A4B1861FE
:4037C00028B102230370FF23437000234380174B1B6893F850202AB300B583B0B3F93830ADF800300023019311496846FDF7DAFCBDF90030002B08DB590903F01F030122F8
:4038000002FA03F30B4A42F82130084B1B6893F8513023B1022208490120FDF75DFF03B05DF804FB704700BF8078020820440308E947020800E100E0A148020808B5024837
:40384000FFF7BCFF08BD00BF947802082DE9F04104460D46174698469DF81860072903D9D921354800F0F4F837F00F0303D0DA21314800F0EDF8B8F1010F03D9DB212E4816
:4038800000F0E6F836F01F0303D0DC212A4800F0DFF822680123AB4022EA030308F0010808FA05F843EA08032360244B1B6893F87D100B59A8000F22824023EA020207F072
:4038C0000F0303FA00F717430F51072D04D94FF422711B4800F0BCF836F01F0304D040F28921174800F0B4F8144B1B689A69A41AE4095B6924011919032D0DD81959ED0008
:403900001F22AA4021EA020206F01F0606FA05F515431D51BDE8F081043D4A68ED001F23AB4022EA030306F01F0606FA05F51D434D60BDE8F08100BF00CD081020440308F2
:4039400040CD081010B30246C3680BB303680BB330B40579114B03EB85035C682346002103E0934205D019465B69002BF9D1012000E0002080B124B9084B03EB85056A601A
:4039800000E04A6111610023536105E000207047002070470020704730BC70479878020850B310B402460479164B03EB840359680B4602E0934204D05B69002BFAD1002033
:4039C00000E00120D0B18A420ED14B6933B10D4A02EB8404636000221A610FE0094B03EB84040023636009E01A69596951615A6922B11B69136101E0002070475DF8044B6D
:403A0000704700BF9878020810B5044605E0084B186800F081F8A4F50044B4F5004FF6D8044B186800FB04F000F076F810BD00BFB8420208B442020808B5034B1B7800FBDE
:403A400003F000F069F808BDB042020801BEFEE738B50D46044C18220146204606F07CFCA5610020FFF7F2FF184D0208FEE700BF08B50268254BDA6142681A6282685A62FA
:403A8000C2689A620269DA6242691A6382695A63C2699A631E4A916AD963D16A1964516A5964516B9964926BDA64F1EE103A13F0900F27D0026A154B1A65426A5A65826A1A
:403AC0009A65C26ADA65026B1A66426B5A66826B9A66C26BDA66026C1A67426C5A67826C9A67C26CDA67026DC3F88020426DC3F88420826DC3F88820C26DC3F88C20026EBC
:403B0000C3F89020FFF7B2FF08BD00BF184D020800ED00E0000000000230800803D001300238FCD100BF00BF7047EFF3108072B6704780F310887047014B1860704700BF6C
:403B40002044030810B5012902D0082929D02EE01A4B1B78012B2CD00320FDF781FC184B984228D0FFF7E1FF164B186002200AF0F1F904460AF0F9F9022C05D1032805D005
:403B8000052805D1002404E00F4C02E0002400E00D4C0D4B9C420FD10A4B1868FFF7C9FF0AE0084B1868FFF7C4FF002404E0064C02E0054C00E0044C204610BD28440308DA
:403BC00001018800D4780208FF00420008B502291CD0082914D001291ED1124B1B78012B1CD0FFF7A2FF104B586002200AF0B2F9022815D00C4B5868FFF79BFF0B4808BD5B
:403C0000094B5868FFF795FF002008BD064B5868FFF78FFF054808BD044808BD034808BD002008BD28440308D4780208FF00420010B5044C2046FFF7B3FE04F11800FFF721
:403C4000AFFE10BDBC420208B0B110B50B4A9060C36A03B1D3600024094B1C70094B1C70094B1C60094B1C7000F06CF9084B1C70084B1C70204610BD07487047D47802080D
:403C80003C440308404403084444030841440308274403082C4403080100160070B59AB0424D15AC28686968AA68EB680FC4286920604C22002102A805F07CFD3C4B029393
:403CC00015AB049342F61013ADF8143005238DF81630384B9B681B69069341F2960307931B23ADF82030ADF8223003238DF8243004238DF8253006238DF8263010238DF847
:403D000027308DF828308DF829307223ADF84C3001238DF85030284C2046FFF713FE04F11800FFF70FFE0AF011F908A80AF068F90346002836D1214B03931E4B9B68996BA8
:403D400089B10B460DF12A0220311E685D689C68D868166055609460D060103310328B42F3D11B88138002A80AF012F90346B0B90122134B1A700023124A1370124A1370C6
:403D80000C4B9B681A6A00929B6ADB88ADF804300823ADF80630684612F0FEFE034600210A4A116018461AB070BD00BFF0CE081011430810D4780208BC420208AC4D0208BA
:403DC0002844030830440308314403084444030818B1034A1061002070470248704700BFD47802080100160008B5044B1B689847034B1B6803B1984708BD00BFF87802085F
:403E0000E478020808B510B1034A52689047034B1B6803B1984708BDF8780208E478020870B5C0B006460C4615464FF480720849684605F0B4FC05E016F8012B6A401DF872
:403E40000250013C002CF7D1284640B070BD00BF04CF081008B50022FFF7E2FF08BD00BF08B5FFF762FE08BD08B5FFF762FE08BD08B50120FDF70CFD08BD00BF08B5012063
:403E8000FDF7DCFC08BD00BF08B5094B58601960012208491046FDF71FFC034628B9002205490120FDF718FC0346184608BD00BFF8780208053E0810E93D081038B515464E
:403EC0000B46024601210020FDF7B4FB044618B129460120FDF728FC204638BD704700BF704700BF00207047004870471100160000487047110016000048704711001600F9
:403F00000048704711001600004870471100160000487047110016000048704711001600004870471100160000487047110016000048704711001600004870471100160051
:403F4000704700BF08B5024800F07AFD08BD00BFB0440208F8B5022872D8002972D10022134606E03B4CE45C012C01D90132D2B20133002BF6D0012A0CD1374B1B681C68B2
:403F800001EB8102930023445B681B79023BDBB2012B59D8314B1B78002B57D1304B1970E0B92D4F3C68236801EB8105AA009D186668C1EBC1014B001E44B1882982216849
:403FC000114449686468E45A0C8039680C682244526849680B445B8853801EE001281CD11D4F3C68236801EB8105AA009D186668C1EBC1014B001E44B1892982216811440E
:404000004D68616819440989298039680C682244526849680B445B895380124B18700E4B1B6818680E4B1B7803EB83039A0010440EF058FB034650B90121084A117006E071
:40404000094B04E0084B02E0084B00E0084B1846F8BD00BF30440308DC7802083144030826440308414403080100160002001600FF00160070B439B9144B1B681B68996859
:40408000CE7F00231D460EE0104B1B681B68D968CE7FF6E7CA5C52B10133CC5C1B2C01D0134400E00125B34201D2002DF2D05DB101338279CA54002204E0D4180134855C5F
:4040C0000D550132052AF8D970BC7047DC78020870B5044612F07AFD054620BB134B1968086A228902EB82029300143B03445A6812F0007F17D0E67B1B695A68CB69D21A55
:40410000C6EBC606B318A28821680948184405F046FBE37B074AD35C012B04D1064A137843F002031370284670BD00BFDC780208344403082C4403082744030830B587B0E4
:4041400002891A4B1B685B699B889A4229D1044601AB07C883E807000022ADF81020A289ADF8122040228DF814201846FFF7B0FF054680B923681B7803F002039BB22BB1FE
:404180000B4B1B6821460B48984704E0084B1B68214609489847094A137803F0FE03137000E00025284607B030BD00BFDC780208E078020805000100060001003C440308B9
:4041C0004288531E9BB21D2B1AD84178D1B910B40F4B1868046A02EB82029300143B23445A6812F0007F0FD01B695A68C369D31AC1EBC1011944074B5B5A1380002004E00A
:40420000012070470120704700205DF8044B7047DC7802083444030800B583B00023ADF804308389ADF800300389ADF8023012238DF80430084B1B7813F0010F09D129B1AF
:404240008DF80510684611F0EBFD02E0C06811F007FE03B05DF804FB3C44030810B4044688B10023194606E0104A52F82320944200D1012101330D4A1279934206D2002920
:40428000F2D0002003E00021094800E0002050B949B9064B1B792BB9044A42F823400133137100E003485DF8044B704748440308010016000300160070B506460D4600201F
:4042C000044606E0084B53F824302946304698470134054B1B799C4204D2044B1B7813F0010FEFD170BD00BF484403083C44030883792BB100207047C25C32B9013300E07C
:404300000023052BF8D9002070470120704700BF70B58CB004460D46BF4A137843F00103137044F20803984200F04C823CD842F20403984200F0F08019D841F2020398423A
:4043400000F0178108D8B0F5805F76D041F20103984200F00B8159E341F20303984200F0418141F20403984200F04B834EE343F2190398425BD00AD843F20103984200F03F
:40438000B98043F21203984200F0B4803EE344F20603984200F01A8200F2CD8144F20403984200F0328131E345F20C03984200F0DF821BD845F20103984200F046820AD895
:4043C00044F20A03984200F0B38144F21003984200F0B1811AE345F20203984200F0838245F20303984200F0B9820FE345F21003984200F0F8820AD845F20E03984200F079
:40440000EC8245F20F03984200F0EA82FEE245F21703984200F0ED8246F20103984200F0118245F21403984240F0F082DEE27A4A137803F0FE031370E8E2784B1E683046B3
:40444000FFF756FF60B130460FF042F9734E00213068FFF70FFE01213068FFF70BFE37E06F4B1A68936A1B791BB34FF0B05191F8043603F03F0391F8050600F03F0043EA20
:40448000801391F8030600F01F0043EA003391F8001601F07F0143EA4143126B1370604A1168096BC3F3072048701268126B1B0C93705B4E3368186B0FF00AF933680021D5
:4044C000186BFFF7D7FD33680121186BFFF7D2FD534B1B68986A02300FF010FD514A05AB1068516803C305A80FF016F902224E4B1A708BE200234C4A13704C4A13704C4A6D
:4045000013700A20FFF780FA43F212039C4240F07D82FFF78DFB79E2464B1B6813F0010F40F074820023ADF814308DF816303C4E33689B6A93F900308DF8143005A80FF0AF
:4045400005F933689B6A93F901308DF8143001238DF81530FF238DF8163005A80FF0F6F8344A136843F0010313604FE2FFF7A4FE4CE24978304B1B88ADF81430002319E024
:404580002E4A32F81320ADF808209DF8092012B92B48825C00E00022012A0AD9274A12F81320914205D1254A32F81330ADF8143002E00133002BE3D09DF81530FF2B05D185
:4045C00004D140F2CA311F48FFF742FABDF81430ADF82030ADF81C30C3F3072329781A4AD15413E20B78002B40F010820B7A33B9164B0022DA809A80154A1A604B60064A96
:40460000137803F0FE03137000E249790A4B1B88ADF81430002337E03C440308EC420208DC78020804D00810284403083144030810790208444403080CD008102444030828
:404640003044030810D008104044030818790208BC760208B04A32F81320ADF80C209DF80D2012B9AD48825C00E00022012A0AD9A94A12F81320914205D1A74A32F813308E
:40468000ADF8143002E00133002BE3D09DF81530FF2B05D104D140F2CA31A148FFF7D8F9BDF81430ADF82430ADF81430C3F3072369789C4AD154EB78002B40F0A781697922
:4046C000994B1B88ADF81430002319E0924A32F81320ADF810209DF8112012B98F48825C00E00022012A0AD98B4A12F81320914205D1894A32F81330ADF8143002E00133D0
:40470000002BE3D09DF81530FF2B05D104D140F2CA318348FFF79CF9BDF81430ADF82830ADF81430C3F307230121804AD1546DE1FFF7C2FD6AE1AB7E002B3FD12B7E012B12
:4047400002D100227A4B1A70E97E774B1B88ADF81030002319E0704A32F81320ADF814209DF8152012B96D48825C00E00022012A0AD9694A12F81320914205D1664A32F88D
:404780001330ADF8103002E00133002BE3D09DF81130FF2B05D104D140F2CA316048FFF757F9BDF81030ADF82C30ADF81030C3F30723FF2B02D0297E5E4AD15402225E4B1F
:4047C0001A7023E102225C4B1A701FE1FFF774FD5A4B1B7813F0010F00F01881544B1B78012B03D10222524B1A700FE1032B03D100224F4B1A7009E1022B40F007810022F5
:404800004B4B1A704E4B1B685B684E4A1178C1EBC10203EB42039A79002A00F0F7809B88002B00F0F380484B1B78002B40F0EE800120FFF78FFB002840F0E88001223C4B67
:404840001A70E3E0FFF738FDE0E00B88ADF800309DF801301BB90221304AD15405E023B940F286312E48FFF7F3F86A7829882A4B23F812106B780021344AD154C3EBC302DC
:40488000334E91192E4B1B6818692B78C3EBC30303F584531033034453F8060F90519A889B798A808B716878C0EBC00006213044FFF7D0FA6B78C3EBC30333449B79984201
:4048C0000CD0244B1B680021234898476B78C3EBC303981900229A51C0F8032029462046FFF7EAFC92E00B88ADF804309DF805301BB90021094AD15405E023B940F286311F
:404900000748FFF7A5F86B780021084AD15429462046FFF7D1FC79E0244403083044030810D008102C4403080CD00810107902083144030814790208284403083C44030824
:40494000DC78020826440308414403084044030834440308E0780208040001000B88ADF814301723ADF8163005A811F065FA4DE00846FFF7E3FB014620B929462046FFF773
:404980009BFC01462846FFF747FC294B1B7813F0110F04D0274B1B682946204698472A89234B1B7813F0010F11D0531E9BB21D2B0DD912238DF81830ADF81620AB89ADF881
:4049C000143001238DF8193005A811F029FA184A137803F0FE03137018E0FFF76DFC15E0FFF76AFC12E0FFF767FC0FE0FFF764FC0CE00846FFF7E4FB29462046FFF75CFCE2
:404A000004E00D4A137843F001031370084B1B7813F0110F09D0064A137803F0FE031370044B1B682946204698470CB070BD00BF3C440308E078020827440308002070475A
:404A400030B108B5034A10600348FFF707FC08BD02487047247902083D4A0810010016001AB9084206D10020704731EA000303D000207047012070470120704710B5182034
:404A800001F0E0FE044620B1002340F8043B00F0DBF8204610BD00BF2DE9F843089F40B94FF0200383F31188BFF36F8FBFF34F8FFEE7064611F07F4F08D04FF0200383F36B
:404AC0001188BFF36F8FBFF34F8FFEE741B94FF0200383F31188BFF36F8FBFF34F8FFEE7994690460D4601F0FFF910B91FB9012302E0012300E0002343B94FF0200383F3D5
:404B00001188BFF36F8FBFF34F8FFEE700F01CFF34684A4629462046FFF7A2FF38B1B8F1000F18D024EA05033360002714E09FB1B8F1000F01D1002101E04FF08071B9F111
:404B4000000F01D041F080613A462943301D01F0A7F8002400E0002700F084FF0FB338B94FF08052104B1A60BFF34F8FBFF36F8F01F0BEFA044610F0007F10D101F012FDB0
:404B800034684A4629462046FFF76AFF28B1B8F1000F02D024EA0505356001F025FD24F07F442046BDE8F88304ED00E0F8B540B94FF0200383F31188BFF36F8FBFF34F8FED
:404BC000FEE7044611F07F4F08D04FF0200383F31188BFF36F8FBFF34F8FFEE70D4600F10C0600F0B1FE206921682943216000251FE04768016821F07F4211F0806F04D182
:404C000023681A4207D1002308E0236832EA030303D0002302E0012300E0012343B111F0807F00D01543216841F0007101F0C8F83846B042DDD1236823EA0503236000F0D4
:404C400011FF2068F8BD00BF00F1080343604FF0FF328260C360036100230360704700BF00230361704700BF43684B609A688A609A685160996008610368013303607047A7
:404C800030B40D68B5F1FF3F01D1026907E000F1080200E01A4653681C68A542FAD253684B6099608A605160086103680133036030BC7047036942688168916082684168DB
:404CC00051605A68904201D182685A60002202611A68013A1A601868704700BF436A23B1036B1868C0F1070070470020704700BF10B5044601F056FCA26BE36B9A4201D178
:404D0000012400E0002401F06FFC204610BD00BF10B5044601F046FCA36B0BB9012400E0002401F061FC204610BD00BF70B504461646856B026C3AB9036843BB406801F061
:404D400037F90023636029E06EB9806804F027FDA268236C1344A3606268934219D32368A36000201AE0C06804F019FD236C5B42E2681A44E26021688A4202D26268134435
:404D8000E360022E07D145B1013D002006E0002004E0002002E0002000E000200135A56370BD00BF026C72B110B50346C4681444C4604068844201D31868D8600846D9684E
:404DC00004F0EDFC10BD704738B5054601F0EAFB95F8454064B20AE06B6A53B105F1240000F0AAFF08B101F077F8013C64B2002CF2DCFF2385F8453001F0F6FB01F0D2FB8C
:404E000095F8444064B20AE02B6953B105F1100000F092FF08B101F05FF8013C64B2002CF2DCFF2385F8443001F0DEFB38BD00BF38B540B94FF0200383F31188BFF36F8F5C
:404E4000BFF34F8FFEE704460D4601F0ABFB2168E26B236C03FB021060600020A063A160013A02FB0313E360FF2384F8443084F845307DB92369ABB104F1100000F05CFF2E
:404E800080B14FF08052094B1A60BFF34F8FBFF36F8F07E004F11000FFF7D6FE04F12400FFF7D2FE01F0A0FB012038BD04ED00E010B5029B0C4609B91B6000E01A60D86314
:404EC0001C6401211846FFF7B3FF10BD40B94FF0200383F31188BFF36F8FBFF34F8FFEE7F0B583B0034611B101FB00F000E000201D4617460C46483001F0A4FC064638B18F
:404F000000903B4600F1480221462846FFF7D0FF304603B0F0BD00BFF0B585B0019240B94FF0200383F31188BFF36F8FBFF34F8FFEE7044619B9026C1AB9012202E0012275
:404F400000E0002242B94FF0200383F31188BFF36F8FBFF34F8FFEE7022B03D1E26B012A02D102E0012200E0002242B94FF0200383F31188BFF36F8FBFF34F8FFEE71D4657
:404F80000E4600F0B1FF18B9019B1BB9012302E0012300E0002343B94FF0200383F31188BFF36F8FBFF34F8FFEE7002701F0FAFAA26BE36B9A4201D3022D21D12A463146DE
:404FC0002046FFF7B3FE636A6BB104F1240000F0B3FE88B14FF08052324B1A60BFF34F8FBFF36F8F08E038B14FF080522D4B1A60BFF34F8FBFF36F8F01F0F6FA01204EE03C
:40500000019B1BB901F0F0FA002048E01FB902A800F018FF012701F0E7FA00F095FC01F0C1FA94F844305BB2B3F1FF3F02D1002384F8443094F845305BB2B3F1FF3F02D195
:40504000002384F8453001F0CFFA01A902A800F003FFF0B92046FFF74BFEA0B1019904F1100000F003FE2046FFF7AEFE00F0FAFC00289BD14FF080520A4B1A60BFF34F8FFB
:40508000BFF36F8F92E72046FFF79EFE00F0EAFC8CE72046FFF798FE00F0E4FC002005B0F0BD00BF04ED00E02DE9F84340B94FF0200383F31188BFF36F8FBFF34F8FFEE7D2
:4050C000044619B9006C18B9012002E0012000E0002040B94FF0200383F31188BFF36F8FBFF34F8FFEE7022B03D1E06B012802D102E0012000E0002040B94FF0200383F388
:405100001188BFF36F8FBFF34F8FFEE71F469046894601F059FBEFF311864FF0200383F31188BFF36F8FBFF34F8FA26BE36B9A4201D3022F1ED194F845506DB23A464946BE
:405140002046FFF7F3FDB5F1FF3F0DD1636A9BB104F1240000F0F0FD80B1B8F1000F0FD00120C8F800000CE06B1C5BB284F84530012006E0002004E0012002E0012000E0E9
:40518000012086F31188BDE8F88300BF40B94FF0200383F31188BFF36F8FBFF34F8FFEE770B50446036C43B14FF0200383F31188BFF36F8FBFF34F8FFEE703681BB94368FC
:4051C0001BB9012302E0012300E0002343B94FF0200383F31188BFF36F8FBFF34F8FFEE70E4601F0F1FAEFF311854FF0200383F31188BFF36F8FBFF34F8FA26BE36B9A428C
:4052000018D294F845305BB20132A263B3F1FF3F0AD1636A83B104F1240000F08DFD68B176B1012030600CE001335BB284F84530012006E0002004E0012002E0012000E0CF
:40524000012085F3118870BDF0B585B0019240B94FF0200383F31188BFF36F8FBFF34F8FFEE7044619B9036C1BB9012302E0012300E0002343B94FF0200383F31188BFF328
:405280006F8FBFF34F8FFEE70E4600F02DFE18B9019B1BB9012302E0012300E0002343B94FF0200383F31188BFF36F8FBFF34F8FFEE7002701F076F9A56BC5B13146204622
:4052C000FFF770FD013DA563236963B104F1100000F032FD38B14FF08052304B1A60BFF34F8FBFF36F8F01F07FF9012053E0019B1BB901F079F900204DE01FB902A800F0C3
:40530000A1FD012701F070F900F01EFB01F04AF994F844305BB2B3F1FF3F02D1002384F8443094F845305BB2B3F1FF3F02D1002384F8453001F058F901A902A800F08CFD55
:40534000F0B92046FFF7E4FCA0B1019904F1240000F08CFC2046FFF737FD00F083FB0028A8D14FF080520D4B1A60BFF34F8FBFF36F8F9FE72046FFF727FD00F073FB99E726
:405380002046FFF721FD00F06DFB2046FFF7C0FC00288FD0002005B0F0BD00BF04ED00E070B584B0019140B94FF0200383F31188BFF36F8FBFF34F8FFEE70446036C43B143
:4053C0004FF0200383F31188BFF36F8FBFF34F8FFEE700F089FD18B9019B1BB9012302E0012300E0002343B94FF0200383F31188BFF36F8FBFF34F8FFEE700252E4601F017
:40540000D1F8A36BCBB1013BA363236813B900F07FFE6060236963B104F1100000F08CFC38B14FF08052414B1A60BFF34F8FBFF36F8F01F0D9F8012076E0019B6BB945B107
:405440004FF0200383F31188BFF36F8FBFF34F8FFEE701F0C9F8002066E01EB902A800F0F1FC012601F0C0F800F06EFA01F09AF894F844305BB2B3F1FF3F02D1002384F814
:40548000443094F845305BB2B3F1FF3F02D1002384F8453001F0A8F801A902A800F0DCFC40BB2046FFF734FCF0B123683BB901F079F8606800F028FD054601F095F80199AB
:4054C00004F1240000F0D2FB2046FFF77DFC00F0C9FA002893D14FF08052144B1A60BFF34F8FBFF36F8F8AE72046FFF76DFC00F0B9FA84E72046FFF767FC00F0B3FA204692
:40550000FFF706FC00283FF47AAF65B101F04AF82046FFF7E3FB0146606800F093FD01F063F8002000E0002004B070BD04ED00E000230BE0074A52F8332032B9054A42F84F
:40554000331002EBC303586070470133092BF1D9704700BF5044030870B504460D46164601F020F894F844305BB2B3F1FF3F02D1002384F8443094F845305BB2B3F1FF3F93
:4055800002D1002384F8453001F02EF8A36B2BB93246294604F1240000F0B0FB2046FFF713FC70BD094B9B6A1B680BB9012300E0002323B14FF0FF32044BDA627047034B2D
:4055C0009A6AD268D2685268DA6270472879020810B50446006B01F065F9204601F062F910BD00BF2DE9F04780460D4616469946DDF820A0099F0A9C9200A521206B04F079
:40560000D9F8236B06F18042013A03EB820626F00706002306E0E95CE21882F83410EA5C12B101330F2BF6D9002384F84330BAF1060F01D94FF0060AC4F82CA0C4F844A00F
:405640000025A564201DFFF70BFB04F11800FFF707FB2461CAF10703A36164622B4606E003F1120204EB8202002151600133042BF6D90023236684F864304A46414630468B
:4056800000F068FF206007B13C60BDE8F08700BF70B5002407E004EB8402930010481844FFF7D2FA0134062CF5D90E4C04F1BC063046FFF7C9FA04F1D0052846FFF7C4FAD5
:4056C00004F11400FFF7C0FA04F1E400FFF7BCFA2046FFF7B9FAA662C4F8F85070BD00BF587902082879020838B5044600F05AFF264BD3F8FC200132C3F8FC20D3F8003101
:405700004BB9224BC3F80041D3F8FC30012B10D1FFF7BEFF0DE01D4BD3F804314BB91B4BD3F80031DA6AE36A9A4202D8174BC3F80041164AD2F808310133C2F80831E36A0E
:40574000D2F80C21934202D9104AC2F80C310F4D05F1300003EB83039A00211D1044FFF783FA00F041FFD5F804316BB1D5F80031DA6AE36A9A4207D24FF08052044B1A6030
:40578000BFF34F8FBFF36F8F38BD00BF2879020804ED00E038B517E000F004FF0D4CD4F8F030DD68281DFFF785FAD4F8FC30013BC4F8FC30D4F81031013BC4F8103100F00C
:4057C00013FF2846FFF704FF024BD3F81031002BE2D138BD2879020808B5FFF7DBFF064B1B6B012BF9D94FF08052044B1A60BFF34F8FBFF36F8FF0E72879020804ED00E08A
:4058000070B504460E46174BD3F81451D3F800010430FFF74FFAB4F1FF3F07D136B11148D0F800110431FFF71FFA70BD2C440D4BD3F800315C60A54208D90A4BD3F8F8002F
:40584000D3F800110431FFF71BFA70BD054DA86AD5F800110431FFF713FAEB6A9C4200D2EC6270BD287902082DE9F04385B006460F4615469846900000F0E4FF60B18146A7
:40588000682000F0DFFF044610B1C0F8309004E0484601F007F800E000248CB10023039302940D9B01930C9B009343462A4639463046FFF797FE2046FFF716FF012001E0BB
:4058C0004FF0FF3005B0BDE8F08300BF00B583B0194B019300230093802218491848FFF7C3FF012801D100F079FC012814D14FF0200383F31188BFF36F8FBFF34F8F114B82
:405900004FF0FF32DA620122C3F804210022C3F8142100F0E9FE0BE0B0F1FF3F08D14FF0200383F31188BFF36F8FBFF34F8FFEE703B05DF804FB00BF447A020848D00810D8
:40594000D957081028790208034AD2F818310133C2F81831704700BF28790208014BD3F814017047287902082DE9F0413C4BD3F81831002B65D13A4BD3F814410134C3F816
:405980001441CCB99B6A1B6843B14FF0200383F31188BFF36F8FBFF34F8FFEE7304B9A6AD3F8F8109962C3F8F820D3F820210132C3F82021FFF7F6FD294BDB6A9C4203D24B
:4059C000002645E0012600E00026254B9B6A1B680BB9012300E0002323B14FF0FF32204BDA6235E01E4B9B6ADB68DD686B689C4202D21B4AD3622BE005F104084046FFF7AE
:405A000059F9AB6A1BB105F11800FFF753F9EB6A134AD2F80C21934202D9114AC2F80C310F4F07F1300003EB83039A0041461044FFF71AF9EA6AD7F80031DB6A9A42C1D2B8
:405A4000C3E7074AD2F824310133C2F824310026034BD3F8283103B101263046BDE8F08128790208394BD3F8183143B94FF0200383F31188BFF36F8FBFF34F8FFEE770B5D0
:405A800000F090FD314BD3F81821013AC3F81821D3F81831002B52D12C4BD3F8FC303BBB00244FE0294D2B6ADC6804F11800FFF701F9261D3046FFF7FDF8E36AD5F80C216A
:405AC000934201D9C5F80C31204D05F1300003EB83039A0031461044FFF7C6F8E26AD5F80031DB6A9A4204D30122C5F8282100E00024164B5B69002BD4D10CB1FFF752FD77
:405B0000124BD3F8244164B1FFF72EFF18B101220E4BC3F82821013CF6D100220B4BC3F824210A4BD3F828315BB14FF08052084B1A60BFF34F8FBFF36F8F012402E000240D
:405B400000E0002400F050FD204670BD2879020804ED00E010B5B0B10446104BD3F8183143B14FF0200383F31188BFF36F8FBFF34F8FFEE7FFF7E8FE00212046FFF740FED5
:405B8000FFF770FF00E0002038B94FF08052044B1A60BFF34F8FBFF36F8F10BD2879020804ED00E0304BD3F8183123B101222E4BC3F82821704710B52B4B0022C3F8282111
:405BC000D3F800311B6B1A68B2F1A53F0BD15A68B2F1A53F07D19A68B2F1A53F03D1DB68B3F1A53F07D0204BD3F80001D3F80011343100F015FE1C4BD3F80C310AE043B94E
:405C00004FF0200383F31188BFF36F8FBFF34F8FFEE7013B03EB83018A0013490A44126B002AECD008469900CC18A2000244546B64685463303019448A00083202449442F7
:405C400006D1606803EB83018A0007490A445063054903EB830082000A44526BD268C1F80021C1F80C3110BD2879020840B94FF0200383F31188BFF36F8FBFF34F8FFEE7DB
:405C800010B50C46054BD3F800111831FEF7F8FF01212046FFF7B4FD10BD00BF2879020840B94FF0200383F31188BFF36F8FBFF34F8FFEE703461048D0F8180140B94FF0BD
:405CC000200383F31188BFF36F8FBFF34F8FFEE710B5184614460B46074AD2F8001143F000438B61D2F800111831FEF7BDFF01212046FFF785FD10BD2879020838B540B9BE
:405D00004FF0200383F31188BFF36F8FBFF34F8FFEE70C461546074AD2F800111831FEF7A3FF0DB14FF0FF3429462046FFF768FD38BD00BF2879020838B5C368DC6844B9FC
:405D40004FF0200383F31188BFF36F8FBFF34F8FFEE704F118052846FEF7ACFF154BD3F81831ABB9251D2846FEF7A4FFE36A114AD2F80C21934202D90E4AC2F80C3103EBC1
:405D800083039A0029460C481044FEF76DFF03E029460A48FEF768FFE26A064BD3F80031DB6A9A4204D90120024BC3F8280138BD002038BD28790208587902083C79020813
:405DC0001F4BD3F8183143B94FF0200383F31188BFF36F8FBFF34F8FFEE770B541F000430360C46844B94FF0200383F31188BFF36F8FBFF34F8FFEE7FEF75CFF261D3046CF
:405E0000FEF758FFE36A0E4AD2F80C21934202D90B4AC2F80C310A4D05F1300003EB83039A0031461044FEF71FFFE26AD5F80031DB6A9A4202D90122C5F8282170BD00BFBA
:405E400028790208034BD3F820210260D3F814314360704728790208F8B540B94FF0200383F31188BFF36F8FBFF34F8FFEE7054641B94FF0200383F31188BFF36F8FBFF352
:405E80004F8FFEE70C4600F08DFB124BD3F814016968421A2368B3F1FF3F14D02F680D4ED6F82061B74201D088420ED29A4206D29B1A23602846FFF7C5FF002406E00023A4
:405EC0002360012402E0002400E0012400F08CFB2046F8BD287902080122024BC3F82821704700BF28790208064BD3F804312BB1044BD3F818311BB9022070470120704708
:405F00000020704728790208002849D038B50346C26A2549D1F80011C96A8A4237D28169002906DB2049D1F80011C96AC1F107018161586902EB820291001C4A114488429E
:405F400001D1012200E00022D2B11D461C1D2046FEF7B0FE144AD2F80031DB6AEB62D2F80C21934202D9104AC2F80C3103EB83039A0021460D481044FEF776FE012038BD82
:405F8000094AD2F80021D26ADA62012038BD426C054BD3F80031DB6A9A4203D3002038BD00207047012038BD287902085879020800283DD038B50346204AD2F8002190420A
:405FC00008D04FF0200383F31188BFF36F8FBFF34F8FFEE7826C42B94FF0200383F31188BFF36F8FBFF34F8FFEE7013A8264C06A596C88421ED0FAB91C461D1D2846FEF73A
:4060000059FE636CE362C3F10702A2610B4AD2F80C21934202D9094AC2F80C3103EB83039A00294606481044FEF71EFE012038BD00207047002038BD002038BD28790208FD
:406040005879020800284DD038B50346806C40B94FF0200383F31188BFF36F8FBFF34F8FFEE75A6C8A4200D20A46D96A8A4238D0012836D11C48D0F80001834208D14FF04A
:40608000200383F31188BFF36F8FBFF34F8FFEE7DA629869002802DBC2F107029A61586901EB81018A0011490A44904201D1012200E00022AAB11C461D1D2846FEF7FAFD15
:4060C000E36A094AD2F80C21934202D9064AC2F80C3103EB83039A00294604481044FEF7C3FD38BD704700BF2879020858790208064BD3F800219069D3F80021D3F8003131
:40610000DB6AC3F107039361704700BF28790208064BD3F800312BB1044BD3F80021936C01339364014BD3F80001704728790208064B1A681368B3FA83F35B09036013B93B
:40614000D368186870470020704700BF547A020808B54160006191420AD8D21A83699A4211D2011D0A4B5868FEF78AFD002008BD9A4201D2994208D2011D054B1868FEF759
:406180007FFD002008BD012008BD012008BD00BF547A020870B500F005FA0E4B9B68B3B90C4C04F10C063046FEF74EFD04F120052846FEF749FD2660656000220C210A20A3
:4061C000FEF784FEA06010B10349FFF7B1F900F00BFA70BD547A020850D0081000B583B0FFF7D8FF0D4B9B6853B10D4B019303230093002380220B490B48FFF735FB00E01E
:40620000002040B94FF0200383F31188BFF36F8FBFF34F8FFEE703B05DF804FB547A0208887A020858D00810C164081040B94FF0200383F31188BFF36F8FBFF34F8FFEE7B8
:4062400030B585B015460446124A9068F0B11A46019102950394052913DCFFF745FE022807D10023089A01A90A488068FEF754FE0DE000231A4601A906488068FEF74CFE73
:4062800005E0002301A9FEF70FFF00E0002005B030BD00BF547A020870B582B029E0DB681E68DC68251D2846FEF704FD636A20469847E369012B1CD1A36933449E4207D22A
:4062C000636024612946104B1868FEF7D9FC10E0002100910B4632462046FFF7A7FF40B94FF0200383F31188BFF36F8FBFF34F8FFEE7054B1B681A68002AD0D1024A516821
:406300001160536002B070BD547A020838B50546FFF724FB0446074B9B6B984204D2FFF7BBFF01232B6001E000232B60014B9C63204638BD547A020870B582B005460E4681
:40634000134B1B68DB68DC68201DFEF7B3FCE369012B18D1A1692B46324629442046FFF7F7FE80B1002100910B462A462046FFF75DFF40B94FF0200383F31188BFF36F8F4C
:40638000BFF34F8FFEE7636A2046984702B070BD547A020870B582B006460C46FFF7D4FA01A8FFF7B3FF019B1BBB054644B9B04206D3FFF757FB29463046FFF7BDFF1AE037
:4063C0002CB10E4B5B681C68B4FA84F464092246711B0A4B9868FFF7BFF8FFF743FB50B94FF08052064B1A60BFF34F8FBFF36F8F01E0FFF737FB02B070BD00BF547A0208BF
:4064000004ED00E030B587B04DE0039B002B4ADB059C636913B1201DFEF74CFC02A8FFF775FF039B092B3ED8DFE803F00505053D273A05053D270499A5690B460246294427
:406440002046FFF785FE70B3636A20469847E369012B28D1A269002100910B46049802442046FFF7E3FEF0B94FF0200383F31188BFF36F8FBFF34F8FFEE70499A16141B992
:406480004FF0200383F31188BFF36F8FBFF34F8FFEE70346024601442046FFF759FE02E0204600F0FFF9002203A9044B9868FEF7CBFE0028A9D107B030BD00BF547A0208D5
:4064C00000B583B001A8FFF733FE0199FFF762FFFFF798FFF6E700BF82B0002301930D4B1B68B3F1FF3F08D04FF0200383F31188BFF36F8FBFF34F8FFEE74FF0200383F3DE
:406500001188BFF36F8FBFF34F8F019B002BFCD002B07047F042020808480068006880F308884FF0000080F3148862B661B6BFF34F8FBFF36F8F00DF00BF000008ED00E0F7
:40654000DFF80C00016841F4700101607047000088ED00E04FF0807340F8043C21F0010140F8081C054B40F80C3C40F8202C6FF0020340F8243C4438704700BFD96408100C
:40658000074B19680868B0E8F04F80F30988BFF36F8F4FF0000080F311887047AFF30080287A02084FF0200383F31188BFF36F8FBFF34F8F0A4A136801331360012B0DD10C
:4065C000084B1B6813F0FF0F08D04FF0200383F31188BFF36F8FBFF34F8FFEE7704700BFF042020804ED00E0094B1B6843B94FF0200383F31188BFF36F8FBFF34F8FFEE75A
:40660000013B034A13600BB983F31188704700BFF0420208000000000000000000000000EFF30980BFF36F8F154B1A681EF0100F08BF20ED108A20E9F04F10602DE909006A
:406640004FF0200080F31188BFF34F8FBFF36F8FFFF7A8FA4FF0000080F3118809BC19680868B0E8F04F1EF0100F08BFB0EC108A80F30988BFF36F8F704700BFAFF3008089
:40668000287A020808B54FF0200383F31188BFF36F8FBFF34F8FFFF767F918B14FF08052024B1A60002383F3118808BD04ED00E0084A0023136008490B60084B1B68084936
:4066C000A1FB03139B09013B06490B6007231360704700BF10E000E018E000E0A8420208D34D621014E000E010B582B0314B1A78D2B20192FF221A701B78DBB28DF803309A
:406700009DF803302C4A03F0200313700723536009E0294A5368013B53609DF803305B00DBB28DF803309DF8033013F0800FF0D1214B5B68C3F10702032A08D04FF02003C9
:4067400083F31188BFF36F8FBFF34F8FFEE7032A08D04FF0200383F31188BFF36F8FBFF34F8FFEE71B0203F4E063134A5360019BDBB2104A1370114B1A6842F47F021A60CE
:406780001A6842F07F421A60FFF792FF00240C4B1C60FFF7D5FE0B4A136843F040431360FFF7BAFEFFF7FEF9FFF796FE204602B010BD00BF00E400E0907A020820ED00E01C
:4067C000F042020834EF00E0EFF305830F2B0FD9104A9B5CDBB2104A1278934208D24FF0200383F31188BFF36F8FBFF34F8FFEE70A4B1B6803F4E063074A5268934208D9F4
:406800004FF0200383F31188BFF36F8FBFF34F8FFEE77047F0E300E0907A02080CED00E008B54FF0200383F31188BFF36F8FBFF34F8F4FF441710248FDF70AF9FEE700BF23
:4068400060D0081038B5044610F0070F02D020F007040834FFF778F8104B1B682BB90F4A02F10C0323F0070313600D4BD3F85C351C444BF6F772944208D8A34208D2074AC3
:4068800015681D44064BC3F85C4502E0002500E00025FFF7E7F8284638BD00BF987A02084035030840B14FF0200383F31188BFF36F8FBFF34F8FFEE7704700BF70B539B99A
:4068C00000240AE015F8010BFAF758FB013402E016460D460024B442F4DB204670BD00BF70B561B900240FE0FAF754FBC0B2287001340A2808D00D2806D0013502E01646D2
:406900000D460024B442EFDB204670BD08B5074B1B7833B900F016FA00F090FA0122034B1A7000F05DF800F00FFF08BDA03A030810B5FFF7EBFF044610B900F00DFE0446A0
:4069400014B900F089FD044614B900F099FC044600F026FC0028FBD100F0FAFA00F0BCFA0CB902F0ABF9204610BD00BF70B5194D0026344629E063090433174A52F823303C
:4069800004F01F02D34013F0010F1CD0EB7E012B02D0022B09D011E0284600F0A5F806462946204600F094F90DE0284600F080F806462946204600F0F3F804E04FF4B871AA
:4069C0000648FDF745F82C350134022CD3D9304670BD00BF14D10810A0440308B0D0081070B500230AE01D4A191D02EB8100002444604FF0FF3042F821000133002BF2D0D3
:406A0000174C032325E06668A27E144B2B4400211976012A03D0D2B1032A07D917E02069A8B1228BF17902F0C5FE10E023690BB1F2791A706168002307E003F1080201EB3F
:406A400042024FF6FF7090800133002BF5D02C342B465D1E002BD6D170BD00BFA044030814D1081010B582B004460846638802A921F8083D1346228A02F04AFABDF8003051
:406A800063809DF8023023719DF8033063719DF80430A37102B010BD30B40B884A889C1A0025CD800079844200DDCC8030BC70472DE9F0418468038B456890F81A8000276D
:406AC0000BE042462146284600F050FA074621462846FFF7E1FF0A3433465E1E002BF0D13846BDE8F08100BF2DE9F04780468468476890F81AA0466A0025A94616E0324688
:406B0000398A208802F02CFA2A4631463846FFF7A9FF0C3652462146384600F027FA814621463846FFF7B8FF0A340135B8F818309D42E4D34846BDE8F08700BFF0B50C8BFF
:406B40008D684F680A69012324E010EA030403D17E88B979314402E07988BE79891BEE88B14201D3002100E01946A14202D01678013E1670A14201D014783CB920EA0300A7
:406B8000084309B9F97900E0012111705B000A350132744604F1FF3E002CD6D1F0BD00BF38B504468A7E154B03441D7E012A04D12846FFF7C3FF054604E04FF438711048C1
:406BC000FCF746FF0D4B23441D76620904F01F04012303FA04F445B90432084B03EB8202536823EA0404546038BD0432034B03EB820253681C43546038BD00BFA044030897
:406C0000DCD00810F0B583B00B8B8A684D68D1F810E0844618B96F88A879074402E06888AF79C71B0024012009E0D3889F4201D3002300E003461C430A32400033465E1E8E
:406C4000002BF2D154B19EF8003013B1013B8EF800309EF8003023B1644602E0EB798EF800305CB10E466A88AB790F8BD21A3946B06801F075FF034610B923E0002321E033
:406C8000B27E022A1ED100233A46316A01A801F0D3FF034600220AE002A901EB420131F8040C02F1080105EB4101888001329342F2D807E003F1080205EB42024FF6FF71A1
:406CC00091800133002BF5D0204603B0F0BD00BF38B504468A7E194B03441D7E012A03D062B1032A05D909E02846FFF727FF054609E02846FFF786FF054604E040F22641E1
:406D00000F48FCF7A5FE0D4B23441D76620904F01F04012303FA04F445B90432074B03EB8202536823EA0404546038BD0432034B03EB820253681C43546038BDA044030860
:406D4000DCD00810F8B5234F4FF486720021384602F030FD4FF41E633B804FF410637B8041F66A03BB800823BB834FF0010E87F81EE00423FB77184E07F1200406F18C0551
:406D80000FCD0FC40FCD0FC40FCD0FC495E80F0007C42380C7F8FCE0562206F1CC0107F1A40002F0FCFC304606F1080403230CE0A268238B04E010F8013B53720A320B46B2
:406DC000591E002BF7D12C342B465D1E002BEFD1F8BD00BFA04403080CD1081002280DD800F01F02012303FA02F24009031D044800EB83035B6802EA0300704700207047FF
:406E0000A0440308022810D82C230B4A03FB002393F82230023BDBB2012B09D82C22064B02FB0030C368988A70474FF6FF7070474FF6FF70704700BF0CD108100023024A0F
:406E4000D380024A13607047A0440308EC3A0308C9B2062902D083180021197130F8121000EB42035980024400231372704700BF70B506460D46012305E022462946304696
:406E8000FFF7E6FF23465C1E002BF6D170BD00BF08B52C23054A03FB0023986801EB81014A00997E1044FFF7E3FF08BD14D1081038B505462C23074A03FB00231B8B04E07A
:406EC00021462846FFF7E4FF23465C1E002BF7D138BD00BF14D1081010B5032303E02046FFF7E6FF23465C1E002BF8D110BD00BFF8B505462C230F4A03FB00235E681B8BBE
:406F000014E02C230B4A03FB05239F6804EB8402500004EB44018A00596A0A44DB7E012B03D1318A385A02F00FF823465C1E002BE7D1F8BD14D1081010B5032303E02046AD
:406F4000FFF7D6FF23465C1E002BF8D110BD00BF08B5FFF7F1FF08BD00FA03F3C2F5807001FB00F102FB0310000A70472DE9F04106460D461746012342E035F8140005EB6C
:406F800044035988884207D3431A2A194FF0000E82F808E0012201E00B1A002292B996F805E073450ED92B191B7A327A934205D3224639462846FFF74BFF20E02A190133D0
:406FC00013721CE096F804E0734504D996F805E0734514D89AB9FBB2062B10D005EB040898F804E0082301224EEA0121FFF7B4FFC0F30F2205EB44035A8088F8040023463E
:407000005C1E002BB9D10020BDE8F08110B52C23064A03FB0020846801EB81014B00827EE1184068FFF7A2FF10BD00BF14D1081070B506462C23084A03FB00231B8B002505
:4070400005E021463046FFF7E1FF054323465C1E002BF6D1284670BD14D1081038B50025032304E02046FFF7E3FF054323465C1E002BF7D1284638BD30B49F280ED940F224
:40708000FE3399420AD9244CA1FB04454B1B05EB53035B0AC3EB832399422FD09F280DD9B1F5FF7F0AD91D4CA1FB04454B1B05EB53031B0AC3EB4323994221D09F280CD9EE
:4070C0007E290AD9164CA1FB04454B1B05EB53039B09C3EBC313994214D09F2814D93E2914D9104CA1FB04454B1B05EB53035B09C3EB831399420BD000200AE0042008E0C3
:40710000032006E0022004E0002002E0002000E0012030BC704700BF051040002140800011080402054110044A1E032A01D8102300E0002379B183B1642202FB03F3B3FBE3
:40714000F0F3002001E001305B00092BFBD90A2B04D9013802E0002000E00020C0B2704708B501F09BFC08BD08B50A4B1A689169094B5B1ADB09526902EB03135A6822F04A
:40718000F8525A60054A136823F00103136000F02FFF08BD2044030880033240A8023640024BD86800F08000704700BFA0440308034B0340034AD0681843D060704700BF97
:4071C00080000100A0440308034B0340034AD06820EA0300D060704780000100A044030810B5164BDB6813F4803F0ED102280ED843090433114A52F8233000F01F02D340E8
:4072000013F0010F05D1012404E0112402E0012400E0002484B92C23094A03FB0023DB7E022B02D101F04CFC06E0012B02D100F0F1FE01E04FF0FF34204610BDA044030851
