:020000041000EA
:4000000000400208310100100D000000950100100000000000000000000000000000000000000000000000000000000091010010000000000000000091010010910100109B
:4000400091010010A5040010910100109101001091010010910100109101001091010010910100109101001091010010910100109101001091010010910100109101001049
:400080009101001091010010910100109101001091010010910100109101001091010010910100109101001091010010910100109101001091010010910100109101001020
:4000C00010B5064C2378002B07D1054B002B02D0044800E000BF0123237010BD540400080000000038290010084B10B5002B03D00749084800E000BF07480368002B00D1B3
:4001000010BD064B002BFBD09847F9E7000000005804000838290010EC000008000000007047EFF3108072B6704780F310887047FFF7F6FF72B6104C104DAC4209DA216833
:400140006268A368043B02DBC858D050FAE70C34F3E70B490B4A0020521A02DD043A8850FCDC094809490860BFF34F8F00F000F900F01EF8FEE700003C29001054290010E0
:4001800054040008200600080000000808ED00E0FEE7FEE700B504207146084202D0EFF3098001E0EFF30880043001F0F3FAFEE710B562B6014800F04FF9FEE70000081056
:4001C00070B56249E0239B00CB580F2213401A00D0329200525807210A40032A05D0042A06D0002A12D15A4814E05A4A106811E01A00C0329200554952581F210A40112ABF
:4002000006D0132A04D0FA20C00103E0524801E080200002002B36D14C4BB222D2009A5801211140B125ED005A59120F032422405B591B0F1C4207D0444C63591B0F032458
:400240002340012B02D102E0012300E00023002B01D0002901D1032A4BD13C4BB022D2009D58AD03AD0B3D495958C904C90C9C58240E01231C40013401F04CFB6843210093
:4002800001F048FB35E0012B33D1304BC822D2009A5801251540C024E4001A59120F03210A401B591B0F194207D028490B591B0F03210B40012B02D102E0012300E0002311
:4002C000002B01D0002D01D1032A12D11F4DC022D200AB587F210B40A958090A1F263140AC58240C3440584301F014FB210001F011FBE0239B00154AD3581B0903221340F6
:40030000D840144C6060164B1D692D0AFC32154001351969090E013101F0FCFAA060290001F0F8FA0500E06020610E4BC0180E4901F0F0FA20750D4BE818FA21890001F045
:40034000E9FAA061C003E06170BDC0460000264000127A00C000000800366E0184050000000021403F420F0040420F00E703000010B5234BB021C9005A58520052085A5039
:40038000E02080001A583024A2431A50802252045A501C491C4A9950A021890104329950FF211A4A995081315A58920092088020C00502435A505A588020000602435A5050
:4003C0005A58012082435A5000F0EEF9FFF7F8FE00F070F800F078F801F07EF8B0235B055B78002B04D0B0235B055B78DBB200E02123212B03D1064B0022DA605A6010BDC9
:400400000000264001000200840500008C050000E00023408023024AD3580320184070470000214010B5FFF77CFE084980228C58074B2340074C23438B508823034AD358D1
:40044000DB06FAD5FFF771FE10BDC04600002140FCFF00000100FA0570B50500FFF761FE0400FFF7D7FF032801D1FFF7DBFF0A4AB0239B00D55080215058084B0340084806
:40048000034353508823044AD358DB06FAD52000FFF74BFE70BDC04600002140FCFF00000300FA0510B5024800F0E8FD10BDC0467004000810B5034A60328021042000F003
:4004C000CDFB10BD7005000810B501F0CEF90400044800F083FC044800F0EAFC200001F0C8F910BD700400088C1A0010FEE7C046F0B50025002711E0BB00C658F3B2FF224F
:40050000964308E06A008A181478A419527822700135013BDBB2002BF4D10137022FEBD9F0BDC0460323064A1360064A136080225201054B1A60054A054B1A607047C04639
:4005400008203140102031409402364001001180000E1F4170B586B06F4BA021C9005A58032082435A506D4990240A596C4802400A510A691202120A8024640422430A61B5
:400580000A6910400861E022920099580F20814399509958213081439950995880200006014399500021012000F0CAFD0021022000F0C6FD0021032000F0C2FD00210420D4
:4005C00000F0BEFD0021002000F0BAFD01A8554903000A0032CA32C312CA12C300F0D8FD002802D00420FFF781FF4B494E4A8B588020000603438B504C4800F083FE002816
:4006000002D00420FFF772FF434C494BE158494A0A40E250E158484A0A40E250E25880252D062A43E250043BE158444A0A40E250E158434A0A40802189010A43E250E25884
:40064000802109020A43E2503E4A11683E4B0B40802149000B431360002001F041F93B4AA3581D43A550A3580125AB432B43A3506421002001F0A6F8354B364A9D503648A0
:400680001A5827490A40C024A40022431A508022D200324898509858032431481C50314C185908408C25AD01284318512E489850985840242D481C50902424011D592C4826
:4006C00028402C4D284318512B48985098580224C52000011C50294D58590840B02636013043585126489850985826481C501C301C5025481C50002424481C50802000019C
:400700001C582140FE24240221431950204999509B5806B070BDC0460000264000002140FF00FFFFC01A0010087F0000400D030004050000FEFCFFFFFFFF00FFFFF0FFFF31
:40074000FF8FFFFF00002740FFFCFFFF0C050000000001400C0C00000408000001FF0080140C00000C08000003FF00804C0C0000FF0000FF004FC30040FF008008080000AA
:4007800002FF0080540C0000940C0000CC0C000000FF008010B50A00002101F050F910BD10B501F043F910BD70B58AB09621002001F008F800F0DEFF002801D100F0CAFF04
:4007C000012000F049FF5E4A516C5E4B0B40E82189010B435364536C1B0AFF2213403A2B07D1574A516C584B0B40E82189010B435364002300225549554801F03DF800236D
:4008000000225449544801F037F8FFF7A3FE534A534B1A6000240CE0620012195300514AD318198B9A8AD88A00041043FFF7B2FF01340B2CF0D900240AE0620012199300F0
:40084000484AD3185A6E196ED86DFFF7A9FF0134112CF2D9444D2900343128005430FFF747FE0F22414B1A60414A424B1A60424B424A1360424A1360424A1368832149003E
:400880000B43136001AC22002B00603323CB23C223CB23C223CB23C221003B4800F026FE3A4D22002B1D43CB43C243CB43C243CB43C22100364800F019FE22002B00283341
:4008C00043CB43C243CB43C243CB43C22100314800F00CFE22002B004C3343CB43C243CB43C243CB43C221002B4800F0FFFD24220021200001F0A3F88623019321002748C6
:4009000000F0F4FD22002B00703323CB23C223CB23C223CB23C22100214800F0E7FD2200204B143323CB23C223CB23C223CB23C221001D4800F0DAFDFFF7F4FD0AB070BDA7
:4009400000002740FF00FFFFFFC5FFDF0E0E0040110E000000030040290300000300FA05F0012140C01A0010C01B001000006440070101000002644010200200A0033940BD
:40098000600139400079344000003240401C00108000324080023240000332408003324000043240C01C00108006324010B583089A00801AC000FF228240D44381400A409F
:4009C000072B32D89B001949CB589F46184B196A0C4022431A6228E0154B596A0C4022435A6222E0124B996A0C4022439A621CE00F4BD96A0C402243DA6216E00C4B196BA5
:400A00000C4022431A6310E0094B596B0C4022435A630AE0064B996B0C4022439A6304E0034BD96B0C402243DA6310BD282600100000214083089A00801AC100FF228A40CA
:400A4000072B2BD89B001748C3589F46164B186A1040C84023E0144B586A1040C8401EE0114B986A1040C84019E00F4BD86A1040C84014E00C4B186B1040C8400FE00A4B85
:400A8000586B1040C8400AE0074B986B1040C84005E0054BD86B1040C84000E00020C0B27047C046482600100000214070B504000D000B4B9A680B4B9A420BD1002903D10D
:400AC000FC21094800F038FE1034064BA400E058E55003E01034A400044BE05870BDC04600ED00E0000000086826001000000010F0B583B0041E019150D04368032B03D953
:400B00003621294800F018FE0023E05E002802DBA178FFF74BFF0023E25E6368002A12DB9008224EC0308000875903210A40D200FF25290091408F4399012B000B40934078
:400B40003B43835117E092B20F21114008398908063189001648844661444E6803200240D200FF2738009040864398013B000340934033434B600E4B9A680E4B9A420FD1A9
:400B8000019B002B03D14521074800F0D5FD0023E05E0199FFF78AFF002002E0064800E0002003B0F0BDC0466826001000E100E000ED00E0000000080100560070B504003F
:400BC0000D000369002B0ADA0B0C03D00549064800F0B2FD2D042D0C6560002000E0034870BDC046A7020000AC26001001008A0070B505000C000368002B01DA002300E0DB
:400C0000084B002B0BD1EA60230C03D00649074800F092FD2404240CAC60002000E0014870BDC04601008A008E020000AC26001070B505000C1E03D19921064800F07CFD7B
:400C40002B69002B03DAEB682360002000E0024870BDC046EC26001001008A00F8B504000E0015000F283FD8002A10D100290ED10F2804D99E21FF31214800F05DFD640188
:400C8000204B9C466444204B1C60002037E0002D2CD0002E2CD0F3062CD10F2C04D99E21FF31174800F048FD6401164B9C466444154F3C607E60BD60F2080021280000F0BF
:400CC000BEFE00212000FFF779FF3A0001CA0021FFF78EFF00280FD10B4B18680021FFF76DFF00280AD10AE0084808E0074806E0064804E0054802E0054800E00448F8BD96
:400D00002C270010000023400006000803018A0001018A00F0B583B00D001C4B1B68DC68236883422DD947097B01C01A012383401E00002903D100F098FD019001E000239A
:400D40000193124B18680368002B01DA002300E00F4B002B0ED16368BF00DF193B68334203D0B3433B60002400E00A4C0021FFF725FF00E0084C002D04D1019800F079FD62
:400D800000E0064C200003B0F0BDC0460006000801008A00020188000301880004018A000A4B1B68DA68136883420BD943095901401A0121814052689B009B580B4203D0B3
:400DC000034802E0034800E003487047000600080101880004018A0000018800034B1B68002B01D1014B18607047C0460C060008F0B5474680B404000F0090461E000728E4
:400E000003D9B421254800F097FC254B1B682C2060431C18FF22150035402560330A13406360330CA3600F2D04D99E21FF311D4800F082FC6B011C4A9446634423616568B7
:400E40000F2D04D9DC214900164800F075FC6D01164B9C4665446561A668330C04D0EB214900104800F068FC330C04D0D821FF310C4800F061FC3604330C1E43AE604346C4
:400E8000E36127620023A361069B002B02D000229B5EA38104BC9046F0BDC0466C2700100C0600082C2700100000234000102340F0B58FB0041E03D150212E4800F03CFC39
:400EC0006368032B03D952212A4800F035FCE36A002B03D15621274800F02EFCE368072B03D95721234800F027FC236A072B03D95821204800F020FC236B002B03D15921ED
:400F00001C4800F019FC07AA1300210061C961C321C921C302AD290023001433C1CBC1C141CB41C10821535E0CAE3380079B1933B370089B0D930B9B0A980096A26AE16A19
:400F4000FFF756FF2B69E868002200920021FFF74FFF216B3000FFF7CBFD0023F25E002A05DB1F231A401E3B9340034A13600FB0F0BDC0466C27001000E100E0F8B5050022
:400F80000F0016001C00002A03D1FC21244800F0D3FB072D03D9FD21214800F0CDFB072F03D9FE211E4800F0C7FB1E4B1B682C2128004843181879435918012213004D68DF
:400FC000AB401B044568AA4015000269002A20D08F69002F1FD11268002A01DA002200E0114A002A19D132681204120C134333600369DE6001238B614C6204692B0C03D019
:401000000A490B4800F098FB2A04120CA260002004E0084802E0084800E00748F8BDC0466C2700100C06000801008A008E0200002C27001004028A0007028A0070B5050041
:401040000C001600072804D96021FF31084800F073FB084B1B682C2068431818C369B34204D9036AB6009C51002000E0024870BD6C2700100C0600080A028A0070B582B0B7
:40108000040000230193002804D1D92149002B4800F052FB2369002B04D1B421FF31274800F04AFB6369002B04D1DA214900234800F042FB236A002B04D1B621FF311F48AD
:4010C00000F03AFB6269D5682B0C1FD01B041360136820690369002B18DA01A9FFF7A8FD00280ED1019803681E0CFF221340E269934207D29B00226AD358002B02D0984769
:4011000000E0002631002069FFF758FD2D042D0C0FD063691D601B68636A002B03D098470023636203E0A36A002B00D098470023A36163691B6802B070BDC0466C27001035
:4011400004281DD8042904D94B1EFF3B9BB2132B18D8FF290CD91F2319400B4A0300C0339B009950D03080000423835000200AE007231940D0308000034BC150002002E0C7
:40118000024800E0014870470000264001004A0070B5041E04D1EF2149004C4800F0CCFAB023DB004A4AD358002B01DB002500E0484D002D00D086E0474B22689A4204D94F
:4011C000EE21FF31414800F0B7FA23689B03990BE3791B068022520413400B43B022D2003B498B50A2883D4B9A4204D9FA214900364800F0A1FA2289394B9A4204D9F621C9
:40120000FF31324800F098FAA388DB04D90C23891B04344A13400B43334A2D498B50A37A0F2B04D9FC21FF31284800F085FAE37A0F2B04D9FE214900244800F07DFAA289A1
:40124000264B9A4204D9FE21FF31204800F074FAA37A0F211940E27A1201FF2313400B43A289120221490A401343A27B1207C02189050A401343B122D20015498B50A379CF
:40128000072B03D91A49114800F056FA228A144B9A4203D917490D4800F04EFA0C4816494658164B1E40A3791B02E022D2001340334343504658124B1E40238A1B04094A83
:4012C000134033434350280070BDC046AC2700100000264003004A00FFFF0300FF1F0000FF0100000000FF018405000000FF1F0005020000060200008C050000FFF8FFFF46
:40130000FFFF00FE70B505002D492E4A8B588020000603438B502C0003E0012000F000FA013CB223DB00264AD3585B0701D4002CF3D12349B122D2008858234B03408020E4
:40134000800503438B50002D02D00ED0002C0CD01B49B022D2008B588020000603438B5003E0012000F0DCF9013CB223DB00144AD358DB0701D4002CF3D1002D0ED0002C13
:401380000CD10F4AB021C90053585B005B0853500C4953585B005B0853500BE0084B0221B222D2009950B121C9005A58C020800502435A50002C01D1044800E0002070BDE8
:4013C000000026408C050000FFFFFFCF02004A00214B984230D00ED8402831D004D800281FD010282AD031E080282BD080235B00984229D02AE0194B984229D007D8A023BC
:401400001B0698420DD0164B984212D01EE0154B98420AD0144B984209D0144B984215D101E0002016E0124814E0124812E0124810E0A020C0030DE007480BE00F4809E0AF
:401440000F4807E00F4805E0034803E00E4801E0A420C0037047C04606005200010000F0090000A0040000F0050000F0030000F0010052000200520003005200010050002E
:401480000200500005005200FF00520010B50C4B1B69002B11DB0B4B1868FFF799FF0121094B0A4AD150084B084AD358002BFAD1074BD358002BF6D100E0064810BDC046F6
:4014C00000002340100600080C040000000025408C0400000200500010B5022202490020FFF7ACFD10BDC0463501000870B505000C00002848D0002948D0FF230A689A43E8
:4015000003D08D21224800F017F9FF2322699A4303D08E211E4800F00FF9A3685B0D03D08F211B4800F008F963685B0A03D09021174800F001F9E3695B0F03D09121144878
:4015400000F0FAF8236A5B0F03D09221104800F0F3F8104BEB18DB090F4A944663441B0122682A60E268AA622269EA6262692A63A2686A626268AA61A2696A63E2691A60C0
:40158000226A5A60002002E0044800E0034870BD342800100000CEBF0010030401005A00034A9369802149040B4393617047C04600F02540024A9169024B0B4093617047C0
:4015C00000F02540FFFFFFFE10B5074A074813580F24A34302210B43135004381358A3431943115010BDC0460000214004F0000010B5074A074813580F24A34303210B4311
:40160000135004381358A3431943115010BDC0460000214004F000000449054A8858054B0340C020C00103438B5070470000214004F00000FF8FFFFF0449054A8858054BA0
:4016400003408020C00103438B5070470000214004F00000FF8FFFFF70B50500012803D92A492B4800F068F800F0FFF80400294B294AD3581F221340E822D200B02149051C
:401680008A5CD31A5A1E9341DBB29D4239D0002D14D1FFF785FFFFF797FF1F481D4943581F229343143A13434350FFF7B5FFE823DB00B0225205D35CDAB211E016481549A7
:4016C00043581F229343143A13434350092000F027F8FFF7B1FF114BB0225205D35CDAB20D4E0C4831581F23994313400B433350012D06D1092000F013F8FFF779FFFFF7DC
:4017000059FF200000F0B5F870BDC046ED060000B42800101CFF0000000026404107000010B5034B1B78584300F096F810BDC046D400000801BEFEE770B50D00044C1822EB
:401740000100200000F083F9A5610020FFF7F2FF18040008054B802212069A649B6C002B01DB002000E002487047C0460000274003004600054B8022120198585B68FF2205
:401780001A4202D08023DB021843704700002640FEE7C04610B50A4B0268DA6142681A6282685A62C2689A620269DA6242691A6382695A63C2699A63FFF7EAFF10BDC04616
:4017C00018040008F0B5002801D0192200E064228A42924152421C4BE8256D005C590327BC433A4014435C515C59184E34405C51D03D5C59BC4322435A515A5916405E5151
:40180000002805D010290DD921290DD8012014E01D290BD93A290BD957290BD978290BD803200AE0002008E0022006E0002004E0012002E0022000E00420054A13680F21AB
:401840008B4303431360F0BD00002140FFFCFFFF00002540000000000230800803D001300238FCD1C046C0467047EFF3108072B6704780F310887047F8B506000C00150006
:401880001F00012B03D936211248FFF755FF32006240F0231B01134019D1220A0F210A40D20170310C401419A4000B4A94466444FF221640002D01D00133FF3333437F02E6
:4018C0008026B60037403B432360002000E00348F8BDC046F4280010002001400100CE00042805D1094A116804230B4313600CE00006C0239B04184090239B00044AD05074
:40190000024A136804218B431360704710E000E000002140002243088B4274D303098B425FD3030A8B4244D3030B8B4228D3030C8B420DD3FF22090212BA030C8B4202D3DA
:401940001212090265D0030B8B4219D300E0090AC30B8B4201D3CB03C01A5241830B8B4201D38B03C01A5241430B8B4201D34B03C01A5241030B8B4201D30B03C01A5241A1
:40198000C30A8B4201D3CB02C01A5241830A8B4201D38B02C01A5241430A8B4201D34B02C01A5241030A8B4201D30B02C01A5241CDD2C3098B4201D3CB01C01A52418309B6
:4019C0008B4201D38B01C01A524143098B4201D34B01C01A524103098B4201D30B01C01A5241C3088B4201D3CB00C01A524183088B4201D38B00C01A524143088B4201D3CD
:401A00004B00C01A5241411A00D20146524110467047FFE701B5002000F006F802BDC0460029F7D076E770477047C046002310B59A4203D0CC5CC4540133F9E710BD0300EF
:401A40008218934202D019700133FAE77047030030B5002A0DD00C7801335D1E013A2C700131002CF5D19A189A4202D01C700133FAE730BDF8B5C046F8BC08BC9E467047FF
:401A8000F8B5C046F8BC08BC9E4670470300000001000000010000000000000005036000040000000100000000000000010000000604600008000000E0050008A5040010D5
:401AC000F4010000140004010A00090508000000630100000020344074008020344074000022344074008022344074000024344074008024344074000026344074008026E4
:401B000034407400002834407400802834407400002A34407400802A3440740000213440F81C00109000000000233440881D00109000000000253440181E001090000000E5
:401B400000273440A81E00109000000000293440381F001090000000002B3440C81F00109000000000603440582000107C00000080603440D42000107C0000000061344029
:401B8000502100107C00000080613440CC2100107C00000000623440482200107C00000080623440C42200107C00000000633440402300107C00000080633440BC230010BA
:401BC0007C00000000643440382400107C00000080643440B42400107C00000000653440302500107C00000080653440AC2500107C00000088038C018E029001B202B401DB
:401C0000B828BAC0BE14DC24E008E32128406851ACC000000C20344002703440017134401C000000000000000000000000660A0000000000000000000000000000000903FB
:401C40000000000003000000000000000000000060000000000000000000000000000000000300000000000003000000000000000000000068000000000000000000000093
:401C8000000000001212000000000000130000000000000000000000CC0006BA0000000000000000000000001313000009001D1DFE000000000000000000000000000000FA
:401CC00000000000000000000000000000040400000000008000000000000000000000000000006000000000000000000000000000000000000000030000000000000000F9
:401D000000000000FFFFFFFFFFFFFFFFFFFFFFFFFFFFFFFFFFFFFFFFFF000000FF22F7FFFFFFFFFFFFFFFFFFFFFFFFFFFFFFFFFFF4000000000000000000001F000000009E
:401D4000000000000003000FF300F000FFFFFFFFFFFFFFFFFFFFFFFF111111111111111111111111111111111131D1113131111111111111111111D11111111111111111F2
:401D80001111111111111D11000000000000000000000000FFFFFFFFFFFFFFFFFFFFFFFFFFFFFFFFFFFFFFFFFF000000FFFFFFFFFFFFFFFFFFFFFFFFFFFFFFFFFFFFFFFFB8
:401DC000FF00000000000000000000000000000000000A000000000000000000FFFFFFFFFFFFFFFFFFFFFFFF1111111111111111111111111111111111111111111111114E
:401E0000111111111111111111111111111111111111111111111111000000000000000000000000FFFFFFFFFFFFFFFFFFFFFFFFFFFFFFFFFFFFFFFFFF000000FFFFFFFF23
:401E4000FFFFFFFFFFFFFFFFFFFFFFFFFFFFFFFFFF000000000000000000000000000000000000000000000000000000FFFFFFFFFFFFFFFFFFFFFFFF1111111111111111F7
:401E800011111111111111111111111111111111111111111111111111111111111111111111111111111111000000000000000000000000FFFFFFFFFFFFFFFFFFFFFFFF86
:401EC000FFFFFFFFFFFFFFFFFF000000FFFFFFFFFFFFFFFFFFFFFFFFFFFFFFFFFFFFFFFFFF000000000000000000000000000000000000000000000000000000FFFFFFFF04
:401F0000FFFFFFFFFFFFFFFF111111111111111111111111111111111111111111111111111111111111111111111111111111111111111111111111000000000000000079
:401F400000000000FFFFFFFFFFFFFFFFFFFFFFFFFFFFFFFFFFFFFFFFFF000000FFFFFFFFFFFFFFFFFFFFFFFFFFFFFFFFFFFFFFFFFF0000000000000000000000000000008B
:401F8000000000000000000000000000FFFFFFFFFFFFFFFFFFFFFFFF1111111111111111111111111111111111111111111111111111111111111111111111111111111185
:401FC0001111111111111111000000000000000000000000FFFFFFFFFFFFFFFFFFFFFFFFFFFFFFFFFFFFFFFFFF000000FFFFFFFFFFFFFFFFFFFFFFFFFFFFFFFFFFFFFFFF82
:40200000FF000000000000000000000000000000000000000000000000000000FFFFFFFFFFFFFFFFFFFFFFFF11111111111111111111111111111111111111111111111115
:4020400011111111111111111111111111111111111111111111111100000000000000001F1F1F1F1F1F1F1F1F1F1F1F1F1F1F1F1F061F1F1F1F1F1F1F1F1F1F1F1F1F1F01
:40208000000000000000000F0000000000000000000F000400003000FFFFFFFFFFFFFFFFFFFFFFFF11111111111111111111111111111111111111115111111111111311BC
:4020C0001111111111111111111111111111111111111D1100000000000000001F1F1F1F1F1F1F1F1F1F1F1F1F1F1F1F0A1F1F1F1F1F1F1F1F1F1F1F1F1F1F1F00000000B5
:40210000000000000000000000001F000000000000000000FFFFFFFFFFFFFFFFFFFFFFFF11111111111111111111111111111111111111E11111111111111111111111119C
:402140001111111111111111111111111111115100000000000000001F1F1F1F1F1F1F1F1F1F1F1F1F1F1F1F1F1F1F1F1F1F1F1F1F1F1F1F1F1F1F1F00000000000000002F
:4021800000000000000000000000000000000000FFFFFFFFFFFFFFFFFFFFFFFF111111111111111111111111111111111111111111111111111111111111111111111111C7
:4021C00011111111111111111111111100000000000000001F1F1F1F1F1F1F1F1F1F1F1F1F1F1F1F1F1F1F1F1F1F1F1F1F1F1F1F1F1F1F1F00000000000000000000000033
:40220000000000000000000000000000FFFFFFFFFFFFFFFFFFFFFFFF1111111111111111111111111111111111111111111111111111111111111111111111111111111102
:40224000111111111111111100000000000000001F1F1F1F1F1F1F1F1F1F1F1F1F1F1F1F1F1F1F1F1F1F1F1F1F1F1F1F1F1F1F1F00000000000000000000000000000000F6
:402280000000000000000000FFFFFFFFFFFFFFFFFFFFFFFF11111111111111111111111111111111111111111111111111111111111111111111111111111111111111113E
:4022C0001111111100000000000000001F1F1F1F1F1F1F1F1F1F1F1F1F1F1F1F1F1F1F1F1F1F1F1F1F1F1F1F1F1F1F1F0000000000000000000000000000000000000000BA
:4023000000000000FFFFFFFFFFFFFFFFFFFFFFFF11111111111111111111111111111111111111111111111111111111111111111111111111111111111111111111111179
:4023400000000000000000001F1F1F1F1F1F1F1F1F1F1F1F1F1F1F1F1F1F1F1F1F1F1F07151F1F1F1F1F1F1F000000000000001F0000000000000000000000000F00000071
:40238000FFFFFFFFFFFFFFFFFFFFFFFF11111111111111111111111111111111111111111111111111111111D11111111111111111111111E1111111111111110000000069
:4023C000000000001F1F1F1F1F1F1F1F1F1F1F1F1F1F1F1F1F1F1F1F1F1F1F1F1F1F1F1F1F1F1F1F000000000000000000000000000000000000000000000000FFFFFFFF01
:40240000FFFFFFFFFFFFFFFF111111111111111111111111111111111111111111111111111111111111111111111111111111111111111111111111000000000000000074
:402440001F1F1F1F1F1F1F1F1F1F1F1F1F1F1F1F1F1F1F1F1F1F1F1F1F1F1F1F1F1F1F1F000000000000000000000000000000000000000000000000FFFFFFFFFFFFFFFF84
:40248000FFFFFFFF11111111111111111111111111111111111111111111111111111111111111111111111111111111111111111111111100000000000000001F1F1F1F74
:4024C0001F1F1F1F1F1F1F1F1F1F1F1F1F1F1F1F1F1F1F1F1F1F1F1F1F1F1F1F000000000000000000000000000000000000000000000000FFFFFFFFFFFFFFFFFFFFFFFF84
:4025000011111111111111111111111111111111111111111111111111111111111111111111111111111111111111111111111100000000000000001F1F1F1F1F1F1F1F73
:402540001F1F1F1F1F1F1F1F1F1F1F1F1F1F1F1F1F1F1F1F1F1F1F1F000000000000000000000000000000000000000000000000FFFFFFFFFFFFFFFFFFFFFFFF111111113B
:40258000111111111111111111111111111111111111111111111111111111111111111111111111111111111111111100000000000000001F1F1F1F1F1F1F1F1F1F1F1FBB
:4025C0001F1F1F1F1F1F1F1F1F1F1F1F1F1F1F1F1F1F1F1F000000000000000000000000000000000000000000000000FFFFFFFFFFFFFFFFFFFFFFFF1111111111111111F3
:4026000011111111111111111111111111111111111111111111111111111111111111111111111111111111CC090010D8090010E4090010F0090010FC090010080A0010DF
:40264000140A0010200A00104C0A0010560A0010600A00106A0A0010740A00107E0A0010880A0010920A001047656E6572617465645F536F757263655C50536F43365C7098
:40268000646C5C647269766572735C7065726970686572616C5C737973696E745C63795F737973696E742E630000000047656E6572617465645F536F757263655C50536FC2
:4026C00043365C70646C5C647269766572735C7065726970686572616C5C6970635C63795F6970635F6472762E68000047656E6572617465645F536F757263655C50536F69
:4027000043365C70646C5C647269766572735C7065726970686572616C5C6970635C63795F6970635F6472762E63000047656E6572617465645F536F757263655C50536F2D
:4027400043365C70646C5C647269766572732F7065726970686572616C2F6970632F63795F6970635F6472762E68000047656E6572617465645F536F757263655C50536F6F
:4027800043365C70646C5C647269766572735C7065726970686572616C5C6970635C63795F6970635F706970652E630047656E6572617465645F536F757263655C50536F4B
:4027C00043365C70646C5C647269766572735C7065726970686572616C5C737973636C6B5C63795F737973636C6B2E630000000047656E6572617465645F536F75726365CC
:402800005C50536F43365C70646C5C647269766572735C7065726970686572616C5C737973636C6B5C63795F737973636C6B2E680000000047656E6572617465645F536FC7
:40284000757263655C50536F43365C70646C5C647269766572735C7065726970686572616C5C6770696F5C63795F6770696F2E630000000047656E6572617465645F536FB1
:40288000757263655C50536F43365C70646C5C647269766572735C7065726970686572616C5C6770696F5C63795F6770696F2E680000000047656E6572617465645F536F6C
:4028C000757263655C50536F43365C70646C5C647269766572735C7065726970686572616C5C737973706D5C63795F737973706D2E63000047656E6572617465645F536F17
:40290000757263655C50536F43365C70646C5C647269766572735C7065726970686572616C5C747269676D75785C63795F747269676D75782E6300000000000000000010CE
:4029400000000008C00000005C290010C00000085803000054040008CC0100000048E80100127A0000093D0000093D0000093D0004000000A00F00000000D00702FF000090
:40298000E9000010C1000010000000000004400B12D03E22094B1A60094A0A4B1A600A4B0621A322D2009950084A98509B58074B054AD358002BFADA7047C04604012640B0
:4029C0001E1F000008012640000026401C05000010B54378FF2B0DD100F03CF9064BDB685A68116801230B4313601368DB07FCD400F020F910BDC04680002340F0B583B07F
:402A000006000F0000F036F90500032824D12B4B1B69002B22DB002000F014F9284B98421ED00023274A0021012000F033F9002803D0254C17E0013400E00024002000F025
:402A400001F91F4B984202D0204B9C42F3D91F4B9C4207D91C4C06E0002404E01A4C02E0194C00E00024002C24D100F0F3F80190174A0121174800F005F900280ED1002E70
:402A800004D13800FFF782FF134C08E0114B1B69002BFBDB00F006F9040000E00A4C032D05D10121002000F0DDF80028F9D1019800F0C0F8200003B0F0BDC046C000234058
:402AC00001018800E000000805005200EF49020010060008000023400100500070B5304B1B68002BFBDA2E4BD96802220A43DA60DB68DB071FD52A4EF2681204150C294BE3
:402B00001A69120A1204FF2424042240110090241A59120A12060A432A43F2601969224A114090252D012943196119590A402A431A511A691B591A4B00225A605B681B4ABF
:402B4000116904230B431361012801D030BF00E020BF134B1B68002BFBDA114BDB68DB0715D510480269104B1A4014000C4DEA68120C1202FF2109020A40224302619021A7
:402B800042581340EA68120E120213434350044BDA6802218A43DA6000225A6070BDC046E000234000002140FF00FFFF00ED00E0164A116904230B431361012801D030BFD5
:402BC00000E020BF124B1B68002BFBDA86235B00104AD358002B14D10F4A104B1A6006220F4B1A6038320F4B1A6006320E4B1A600D4B1B68002BFBDA0C4986235B00054AA7
:402C0000D1500022024B5A607047C04600ED00E0E0002340000025401E1F00000801264018052640040126401C052640AAAAAAAA0000000001B40248844601BC604700BF63
:402C40007318001001B40248844601BC604700BFA10D001001B40248844601BC604700BF6B18001001B40248844601BC604700BF150D001001B40248844601BC604700BF86
:402C80001504001001B40248844601BC604700BFF10B001001B40248844601BC604700BF7D0F001001B40248844601BC604700BF8D140010000000000000000000000000CE
:402CC00000000000000000000000000000000000000000000000000000000000000000000000000000000000000000000000000000000000000000000000000000000000D4
:402D00000000000000000000000000000000000000000000000000000000000000000000000000000000000000000000000000000000000000000000000000000000000093
:402D40000000000000000000000000000000000000000000000000000000000000000000000000000000000000000000000000000000000000000000000000000000000053
:402D80000000000000000000000000000000000000000000000000000000000000000000000000000000000000000000000000000000000000000000000000000000000013
:402DC00000000000000000000000000000000000000000000000000000000000000000000000000000000000000000000000000000000000000000000000000000000000D3
:020000041008E2
:4000000000780408F90208100D0000006103081061030810610308106103081000000000000000000000000000000000613E08105D03081000000000D13E0810353F08104A
:400040005D0308105D0308105D0308105D0308105D0308105D0308105D0308105D0308105D0308105D0308105D0308105D0308105D0308105D0308105D0308105D03081000
:400080005D0308105D0308105D0308105D0308105D0308105D0308105D0308105D0308105D0308105D0308105D0308105D0308105D030810A50C08105D0308105D0308106F
:4000C0005D0308105D0308105D0308105D0308105D0308105D0308105D0308105D0308105D0308105D0308105D0308105D0308105D0308105D0308105D0308105D03081080
:400100005D0308105D0308105D0308105D0308105D0308105D0308105D0308105D0308105D0308105D0308105D0308105D0308105D0308105D0308105D0308105D0308103F
:400140005D0308105D0308105D0308105D0308105D0308105D0308105D0308105D0308105D0308105D0308105D0308105D0308105D0308105D0308105D0308105D030810FF
:400180005D0308105D0308105D0308105D0308105D0308105D0308105D0308105D0308105D0308105D0308105D0308105D0308105D0308105D0308105D0308105D030810BF
:4001C0005D0308105D0308105D0308105D0308105D0308105D0308105D0308105D0308105D0308105D0308105D0308105D0308105D0308105D0308105D0308105D0308107F
:400200005D0308105D0308105D0308105D0308105D0308105D0308105D0308105D0308105D0308105D0308105D0308105D0308105D0308105D0308105D0308105D0308103E
:400240005D0308105D0308105D0308105D0308105D0308105D0308105D0308105D0308105D0308105D0308105D0308105D0308105D0308105D0308105D0308105D030810FE
:400280005D0308105D0308105D03081010B5054C237833B9044B13B10448AFF300800123237010BDA44802080000000024A70810084B10B51BB108490848AFF30080084864
:4002C000036803B910BD074B002BFBD0BDE81040184700BF00000000A848020824A70810C0430208000000007047EFF3108072B6704780F310887047FFF7F6FF72B6114C8B
:40030000114DAC4209DA21686268A368043BA2BFC858D050FAE70C34F3E70C490C4A00209142BCBF41F8040BFAE70A480A490860BFF34F8F00F06AF900F044F900F01EF8F0
:40034000FEE7000028A7081040A70810A4480208DC0F03080040020808ED00E0FEE7FEE700B504207146084202D0EFF3098001E0EFF30880043002F0CBF9FEE700B583B0C4
:4003800062B600220821042002F020FC1C4B186002F030FA1B4B1860002401940225009523464FF4C8721849184802F0A1FF01940123009323464FF4C8721549154802F042
:4003C00097FF0194009523464FF4C8721249134802F08EFF0194009523464FF4C8721049104802F085FF0194009523464FF4C8720D490E4802F07CFF02F0ACFFFEE700BF81
:400400002C0D0308940D0308FC9A0810A9060810089B081055090810149B0810850A0810209B08106D0B08102C9B0810D90B0810704700BF5C4AD2F8803303F00F0303F1E8
:40044000D00152F8212002F00702032A04D0042A05D092B9554914E0554A116811E003F1C002514951F8222002F01F02112A06D0132A04D04FF4FA4103E04E4901E04FF40F
:4004800000418BBB484BD3F8902502F00100D3F88825C2F30172D3F8883513F0405F07D0414BD3F88835C3F30173012B02D102E0012300E0002303B108B9032A46D13A488D
:4004C000D0F88025C2F31103D0F88425C2F30C02D0F88005C0F300600130B1FBF2F202FB03F2B2FBF0F131E0012B2FD12E4BD3F8402602F00100D3F80026C2F30172D3F833
:40050000003613F0405F07D0274BD3F80036C3F30173012B02D102E0012300E0002303B108B9032A12D12048D0F8002602F07F02D0F80036C3F30423D0F80006C0F3044079
:4005400002FB01F2B2FBF3F2B2FBF0F1164BD3F88033C3F3011321FA03F215494A601648D0F89030C3F3072301330069000E0130B2FBF0F08860B2FBF3F3CB600B6103F571
:40058000742202F23F220D48A0FB0202C2F387420A7503F2E7330A4AA2FB03239B098B61DB03CB61704700BF0000264000127A008C42020800366E010000214083DE1B439A
:4005C000D34D621008B5104BD3F8802122F0404242F08042C3F88021D3F8802142F00042C3F88021D3F8802122F00102C3F88021FFF71EFFFFF71EFF00F05CFB00F062FB2E
:4006000001F0CCFF08BD00BF0000264008B5FFF76CFE074AD2F8883043F47003C2F88830BFF34F8FBFF36F8FFFF763FE08BD00BF00ED00E000B583B0164B0022C3F8C82F03
:400640000422C3F8C02FD3F8C03F134BB3F90030002B09DB5A0903F01F03012101FA03F360320E4941F8223002A9002341F8043D0B4B186802F0D0FB019B43B13BB14FF002
:400680008052084B1A60BFF34F8FBFF36F8F03B05DF804FB00006640A49D081000E100E0C048020804ED00E030B583B000F040FB954B1868002302221946406807F0D6F8FB
:4006C000924D284607F02CF8914807F029F8914C204607F097F8284607F022F88E4807F01FF8204607F08EF8284607F019F88B4807F016F8204607F085F803220021012003
:4007000002F064FA864B1860864C8749204600F0FDFBB4F90030002B08DB590903F01F03012202FA03F3814A42F821300422804BC3F8C82F00234FF0FF32194678480068A6
:4007400002F0B4FBD3E0704B186842685368013B5360002B04DA416807F05CF8C0B204E042681368591C116018783F38382800F2BE80DFE800F0B3BCBCBCBCBCBCBCBCBC9B
:40078000BCBCBCBCBCBCBCBCBCBCBCBCBCBCBCBCBCBCBCBCBCBCBCBCBCBCBCBC4FBCBCBCBCBC8F7FBCBC6F602D1DA0BCBCBC3E00564806F0B5FF5F4806F0B2FF554807F0D3
:4007C00021F85D4B0022C3F84C21C3F88C238EE04E4806F0A5FF594806F0A2FF4D4807F011F8554B4FF47A72C3F84C21C3F88C237DE0464806F094FF514806F091FF454898
:4008000007F000F84C4B40F2DC52C3F84C21C3F88C236CE03D4806F083FF4A4806F080FF3C4806F0EFFF444B4FF4FA62C3F84C21C3F88C235BE001238DF800308DF80130FE
:400840000A23019300231A4669463F48006802F0DBF94CE001238DF800308DF801306FF00903019300231A4669463748006802F0CBF93CE002238DF8003001238DF8013077
:400880000A23019300231A4669462F48006802F0BBF92CE002238DF8003001238DF801306FF00903019300231A4669462648006802F0AAF91BE0154806F032FF012000F0D4
:4008C000C7F80446022000F0C3F8024621461F4806F026FF0F4806F095FF08E00B4806F01FFF1B4806F01CFF0A4806F08BFF104BD3F80833C3F30803002B7FF424AF0422C2
:400900000B4BC3F8C82F15E77C4302083C9B0810489B0810549B0810589B08106C9B0810C0480208A49D08103506081000E100E000006640949B0810000039409C9B08109B
:40094000A89B0810B49B08102C0D0308C09B0810DC9B08102DE9F04100F032FA314F384606F0DEFE304806F0DBFE304D284606F049FF00F079FA05F067FD384606F0D0FECE
:400980002B4806F0CDFE284606F03CFF0122294BC3F84C21284F384606F0C2FE274806F0BFFE284606F02EFF384606F0B9FEDFF89C80404606F0B4FE284606F023FF3846F7
:4009C00006F0AEFE1E491F4806F0AAFE284606F019FF384606F0A4FE404606F0A1FE284606F010FF751C592E05D8621CD2B2114BC3F84C4100E02246531CDBB20D49C1F8DB
:400A00008C210133104A82FB0321DA17C2EB6112642101FB1232D4B2322002F0C5FD2E46E0E700BFEC9B0810FC9B0810549B0810189C0810000038403C9B0810389C08100A
:400A4000749C08108C9C08101F85EB514C9C0810012801D1012300E00A239B0103F1804303F56413D3F80C01642303FB00F3044880FB0320DB17C3EBA0106438704700BFA4
:400A8000D34D621070B582B000F084F900F004FA2D4806F045FE2D4806F042FE2C4806F0B1FE00252E4600234FF0FF3269462948006802F0FBF99DF80030012B04D0022BF4
:400AC00004D10A25244E01E00125234E9DF80130012B14D106EB8513D3F80C21642303FB02F31E4A82FB0312DB17C3EBA212643A019B9C1800D50024642C02DC02E0019C14
:400B000000E06424104806F00BFE22469DF80010134806F005FE0E4806F074FE4FF47A7202FB04F20F4B83FB0213D217C2EB631202F57A7206EB8513C3F80C2103210A4BF0
:400B4000186801F0D3FEAEE7A09C0810B49C0810549B08102C0D030800003940D34D6210CC9C08101F85EB51940D030800B585B000F048F9124806F0D3FD124806F0D0FD28
:400B8000114806F03FFE114B00930023022203A90F4800F0D1FF0120FFF75AFF8DF80C000220FFF755FF8DF80D000A4B18684FF0FF33009300230122114601F029FEEAE752
:400BC000E09C0810F09C0810549B0810D00D030800006440940D030830B583B003F0B4FA03F03AFF284806F09BFD284806F098FD274806F007FE012503F0D6FE00283FD111
:400C000003F0C0FA022003F009FD04464FF6FE73984214DC1C4806F083FD224629461D4806F07EFD1A4806F0EDFD8DF80050019400231A4669461848006801F0E5FF002000
:400C400003F0D8FC48B1104806F06AFD134806F067FD0F4806F0D6FD0125012003F0CAFC48B1094806F05CFD0D4806F059FD084806F0C8FD022503F0FDFD03F0EDFEBBE751
:400C8000322002F091FCB7E7089D0810189D0810549B0810309D08102C0D0308409D0810549D081008B5024800F0B4FB08BD00BFF048020808B500221146042000F0B0F9AE
:400CC00008BD00BF10B501F080FD0446044800F063FA044800F0C4FA204601F07AFD10BDC4480208689D081010B504462146034800F0C8FC0028F9D010BD00BF00006640FA
:400D0000054BD3F80833C3F30803002BF8D0024BD3F84003704700BF0000664008B50249024801F04FFB08BD980D03080000664008B5114B1B785BB9104A1149114801F0CC
:400D400017F91149114800F0E1F801220A4B1A700E4BB3F90030002B08DB590903F01F03012202FA03F30A4A42F82130054A136843F00043136008BD444A0208980D030877
:400D8000B49D0810000066401D0D0810A49D081000E100E008B5074B1B783BB9064A0121064800F08FFB0122024B1A700222034B9A6008BD454A0208F49D08100000394012
:400DC00008B5084B1B783BB9074A0221074800F079FB0122034B1A70044B04229A609A6108BD00BF464A0208589E08100000384008B50249024800F067FF08BDD00D0308D7
:400E00000000644008B5114B1B785BB9104A1149114800F0C7FE1149114800F077F801220A4B1A700E4BB3F90030002B08DB590903F01F03012202FA03F30A4A42F82130CA
:400E4000054A136843F00043136008BD474A0208D00D0308BC9E081000006440F10D0810AC9D081000E100E008B5084B1B783BB9074A0021074800F025FB0122034B1A70C6
:400E8000044B01229A609A6108BD00BF484A0208C49E08100000384008B5084B1B783BB9074A0A21074800F00DFB0122034B1A704FF48062034B9A6008BD00BF494A0208D6
:400EC000289F08100000394038B50C4B9A680C4B9A420ED10D46044619B9FC21094801F007FC04F11003064A52F8230042F8235038BD1030044B53F8200038BD00ED00E04E
:400F0000004002088C9F08100000081070B338B504460D464368072B03D93621154801F0E7FBB4F900306268002B08DB5201D2B203F1604303F5614383F8002305E003F0EA
:400F40000F035201D2B20C49CA540C4B9A680C4B9A420DD11DB94521064801F0C9FB2946B4F90000FFF7B0FF002038BD05487047002038BD8C9F081014ED00E000ED00E08C
:400F8000004002080100560038B50369002B0DDA0D4604460B0C1B0423B140F2A721044801F0A6FBA9B26160002038BD014838BDD09F081001008A0038B50368002B01DAC7
:400FC000002300E0094B73B90D460446C2600B0C1B0423B140F28E21054801F089FBA9B2A160002038BD014838BD00BF01008A00D09F081038B504460D4619B9992106481E
:4010000001F076FB2369002B03DAE3682B60002038BD024838BD00BF10A0081001008A000F2840D8F8B515460E46044682B979B90F2804D940F29D11214801F059FB600119
:4010400000F1804000F50C101E4B18600020F8BD5DB366B316F01F0F2BD10F2C04D940F29D11174801F044FB640104F1804404F50C14144F3C607E60BD60F208002128465E
:4010800005F0D5FE00212046FFF77EFF3A4652F8040B0021FFF790FF68B900213868FFF773FF50B9F8BD084870470748F8BD0648F8BD0548F8BD0548F8BD0448F8BD00BF15
:4010C00050A008104C4A020803018A0001018A002DE9F0411B4B1B68DC68236883422CD90D464609A0EB4610012303FA00F819B901F06BFB074600E00027124B1868036804
:40110000002B01DA002300E00F4B83B9626852F8263018EA030F05D023EA080342F82630002400E0094C0021FFF72EFF00E0084C25B9384601F04DFB00E0064C2046BDE872
:40114000F08100BF4C4A020801008A00020188000301880004018A000B4B1B68DB681A6882420CD94109A0EB4110012202FA00F05B6853F82130184203D004487047044817
:4011800070470448704700BF4C4A02080101880004018A0000018800024B1B680BB9014B18607047584A02082DE9F8430446884691461E46089F072803D9B421244801F031
:4011C00097FA244B1B682C2000FB04F01C18F5B21D50C6F307236360360CA6600F2D04D940F29D111C4801F083FA6D0105F1804505F50C15256165680F2D04D94FF4DC71F0
:40120000154801F075FA154B03EB45156561A668330C1B0423B14FF4EB710F4801F068FA330C1B0423B140F2D7110B4801F060FAB3B243EA0646AE60C4F81C90C4F8208060
:401240000023A36117B1B7F90030A381BDE8F88390A00810584A020850A0081000102340F0B58FB0044618B950212C4801F040FAA369072B03D95421284801F039FAE36A6D
:401280001BB95621254801F033FAE368072B03D95721224801F02CFA236A072B03D958211E4801F025FA236B1BB959211B4801F01FFA07AE04F114050FCD0FC62F6802AD79
:4012C00026460FCE0FC533682B60079B1933ADF83030089B0D93A26AE16A0CAD00953B460A98FFF761FF00210091069B0A460598FFF75AFF216B2846FFF708FEBDF93030BC
:40130000002B08DB590903F01F03012202FA03F3034A42F821300FB0F0BD00BF90A0081000E100E0F8B507460E461D4614461AB9FC21224801F0DCF9072F03D9FD211F4845
:4013400001F0D6F9072E03D9FE211C4801F0D0F91B4B1B682C2202FB073002FB06367368012202FA03F31B04476802FA07F70269EAB1B169E9B91268002A01DA002200E0C0
:40138000104AC2B92288134323600369DC600123B361756204693B0C1B0423B140F28E21094801F0A5F9BAB2A2600020F8BD0748F8BD0748F8BD0648F8BD00BF90A0081061
:4013C000584A020801008A0050A0081004028A0007028A0070B504460E461546072804D940F25F11084801F083F9084B1B682C2202FB0434E369AB4204D9236A43F8256046
:40140000002070BD024870BD90A00810584A02080A028A0070B582B000230193044620B94FF4D971264801F063F9236923B940F2B311234801F05CF9636923B94FF4DA71A0
:401440001F4801F055F9236A23B940F2B5111C4801F04EF96369DD682A0C1CD012041A601B6820690369002B15DA01A9FFF7C2FD60B9019803681E0CDBB2E269934206D249
:40148000226A52F8233013B1984700E0002631462069FFF779FDADB275B16369ADB21D601B68636A1BB198470023636202E0A36A03B198470023A36163691B6802B070BD07
:4014C00090A00810002800F0AC8070B40446002A00F0A98092F828300BB1012500E00025137F0BB1022300E000231D431669B60406F4802645EA060395682D0405F4403563
:401500001D431668300600F0E0602843136B556B43EA45031B0503F440130343906B43EA8000052E03D1D3681B029BB202E053681B029BB20343081D800123501368062B33
:4015400008D104EB81130120C3F808013F20C3F828011DE0936843B904EB81130020C3F808013120C3F8280112E0012B08D1506904EB8113C3F808011C20C3F8280107E059
:4015800004EB81130120C3F808011220C3F82801106A04EB8113C3F80C01506AC3F810015069C3F814019069C3F81801136EB3F1FF3F17D0106C00F00F00966C360206F413
:4015C00070663043156D2D0405F470250543906D000380B228431B01DBB2034304EB8110C0F82031D36B03F00303566C360106F030063343D56C2D0205F440752B43506DE9
:401600008001C0B21843D36D9B0003F00C03034304EB8114C4F82431D36AC4F83831002002E002487047014870BC70470100B60010B4D0F8003303F00F03072B06D9002364
:401640000DE0D0F84043CC54013300E000239342F7D306E0D0F8404321F8134001339342F8D35DF8044B704710B51446D0F80833C3F308039A4200D31C462246FFF7D8FF47
:40168000204610BD036813F4006F01D0802200E04022D0F80832C3F30803934203D0C0F84012012070470020704700BF10B4D0F8003203F00F03072B06D900230DE0CC5C72
:4016C000C0F84042013300E000239342F7D306E031F81340C0F8404201339342F8D35DF8044B704710B51446036813F4006F01D0802200E04022D0F80832C3F30803D31AAA
:40170000A34200D81C462246FFF7D0FF204610BD02E0C0F84012013A002AFAD1704700BF10B51446036813F4006F01D0802200E04022D0F80832C3F30803D31AA34200D876
:401740001C462246FFF7E4FF204610BD4B6843F020034B60D0F8043343F48033C0F80433D0F8043323F48033C0F80433D0F804330023C0F8C83FC0F8883F70474B6813F082
:40178000200F0BD0036823F00043036000238366C366036843F00043036003680B78DBB2062B03D10023C0F8883F06E00023C0F8C83F036E23F4204303664B6823F010036B
:4017C0004B600B7E83B10B78DBB2062B05D00A69CB689A4203D0022202E0012200E000224B6813434B600FE00B78DBB2062B05D04A69CB689A4203D0082202E0042200E08B
:4018000000224B6813434B6000230B70704700BF4A7A1AB10B7A5340DB4300E0FF23D0F8102322F47F025B0403F47F031343C0F81033704738B504460D4601230B764B7A91
:4018400043B3D0F840335B080122C0F8C02FD0F8C02F0A7A934202D04A7A93420FD16A7A934201D100232B761023C4F8403FD4F8403F40F25113C4F8483F01220BE040F28E
:40188000AE512C4800F034FF40F24113C4F8883E022200E00122D4F8043243F48033C4F80432D4F8043223F48033C4F80432D4F80432E266012A3CD16B6843F010036B6061
:4018C000636E13F0100F16D006232B702B7E3BB16A6A29690A44EA61AB6A5B1A2B6206E02A6B69690A44EA616B6B5B1A2B620123C4F8883F38BD02232B702B7E0BB1AB6A0C
:4019000000E06B6B2B62236813F4006F01D0802300E0402323B940F25E21064800F0E8FED4F8043323F0FF03C4F804330123C4F8C83F38BDD0A0081038B505460C460A6A8E
:4019400042B1C969FFF7CEFE236A1B1A2362E3691844E061236A23B98022FF212846FFF7DFFE38BD38B50546802906D9A1F18003802B0ED8A1F181040CE0036E43F400439B
:40198000036609B14C1E00E000240023C5F8C83F00E03F242B6813F4006F01D0802300E040239C4204D340F25E21064800F0A0FED5F8041321F0FF03E1B21943C5F80413B0
:4019C00038BD00BFD0A0081038B505460C460B78023B032B00F28880DFE803F002025B73D0F840338A7A012A0FD10A78D2B2022A07D10122C2661A02CA6003220A70002207
:401A000004E0CA681343012200E00122002A6BD0226A934207D2227E0AB1236100E06361E360012306E0237E0BB1236900E06369E3600223EB66012B56D1237E5BB1626A8B
:401A400021690A44E261E36A994201D25B1A00E0002323620AE0226B61690A44E261A36B994201D25B1A00E000232362637A13B9236A7F2B02D80423237038BD2B6E43F48F
:401A800000532B66216A2846FFF76CFF0523237038BDD0F840230B6A6BB10123C366CB691A700B6A013B0B62CB690133CB61CB680133CB6038BD0223C3660023C0F8C83F08
:401AC00038BDD0F80423D2B20132C969FFF7CCFD216A091A2162E3691844E0612846FFF741FFE3680133E36038BD00BF70B505460C46164611F0800F04D04FF407710D4894
:401B000000F0F6FD737A9C4204D140F21D21094800F0EEFD3472D5F8103323F0FF036400E4B21C43C5F8104331462846FFF770FE70BD00BF14A10810F8B50F461D46069C49
:401B400016462AB121B94FF41A71074800F0D0FDAE4204D240F26921034800F0C9FD6762A662E562F8BD00BF14A1081070B506460D46144611F0800F04D040F28D210848EC
:401B800000F0B6FD237A9D4204D140F28E21044800F0AEFD657221463046FFF739FE70BD14A1081000287DD070B5054600297BD0002A7BD00B7913B13E4B984278D1164670
:401BC0000C4691F90130002B03DA4F213A4800F08FFD94F90230002B03DA5021364800F087FD6278A3789A4203D15121324800F07FFD2378012B03D952212F4800F078FD49
:401C0000E378012B03D953212B4800F071FD2378012B02D14FF4803200E00022237913B14FF4807300E00023134343F400632B60224B2B6640F20713C5F800330023C5F83D
:401C40000433237833B97372324661782846FFF74DFF09E0324661782846FFF747FF3246A1782846FFF782FF154BC5F800324023C5F804320020C5F8C80EC5F8880EC5F8FE
:401C8000C80FC5F8880FC5F8080F40F25113C5F8483F70603070E378B372B062F0623061706170BD07487047064870BD054870BD044870BD0000694014A108100008004036
:401CC000070101000100AA0070B504460E46D0F88C3E13F0010F05D001230B70C0F8803ED0F8803ED4F84C5F40F201131D420CD031462046FFF72AFD40F20113C4F8403FE5
:401D0000D4F8403F45F010050BE03378DBB2052B07D115F0100F04D00123C4F8C43FC4F8C83FD4F8CC3F13F0010F08D031462046FFF74AFE0123C4F8C03FD4F8C03F15F0B9
:401D4000100F0AD031462046FFF718FD1023C4F8403FD4F8403FD4F84C5F15F0400F0DD031462046FFF766FD0123C4F8803ED4F8803E4023C4F8403FD4F8403FD4F88C3F43
:401D800013F0010F08D031462046FFF7D5FD0123C4F8803FD4F8803F70BD00BF2DE9F84305460C46036813F4006F02D04FF0800801E04FF04008D5F8007207F00F07A26A55
:401DC000012A19D9D4F82490E262561EB9F1000F00D026B940F22C51254800F089FC324649462846FFF77EFCA36A1B1AA362072F00D9400048446062D5F80832C3F3080304
:401E0000984533D0A36A012B30D10023A362072F02D8636A1E7801E0636A1E8800F0D5FCC5F840624FF40073C5F8803FD5F8803F00F0CFFCD5F8883F23F4007222F00102CE
:401E400042F4007623F4EE6323F0030323B14FF48161084800F04CFCC5F8886F236843F002032360236B0BB101209847BDE8F88358A10810D0A008102DE9F04105460C46D3
:401E8000036813F4006F01D0802600E040267608A769D4F81C8017B1B8F1000F04D14FF49061314800F024FC424639462846FFF7DBFB236A03442362E3691B1AE36173BBEF
:401EC000A368FBB1E3689E4201D8013E00E05E1E2B6813F4006F01D0802300E040239E4204D340F25E21214800F002FCD5F8043323F0FF03F6B21E43C5F804630123C5F8E6
:401F0000C83F02E00023C5F8C83F636823F001036360236B33B304209847BDE8F081A169D5F8002302F00F02072A00D940000844A0619E4216D95C1E2B6813F4006F01D0E8
:401F4000802300E040239C4204D340F25E21074800F0CEFBD5F8043323F0FF02E3B21343C5F80433BDE8F08158A10810D0A00810002800F0A98170B50546002900F0A68175
:401F80009E4B984200F0A48116460C460B78022B03D942219A4800F0ABFB637B023BDBB2062B03D94321964800F0A2FBA37B3BB1022B05D0032B03D04421914800F098FBE2
:401FC00094F82130012B03D945218D4800F090FB94F82830012B03D94621894800F088FB2378012B06D86368083B082B94BF0023012307E0A37F2BB16368013B062B94BFBF
:40200000002301231BB148217D4800F071FBA368053B042B03D94921794800F069FB6369FF2B03D94A21764800F062FBA369FF2B03D94B21724800F05BFBA37C6BB1237892
:4020400033B9A368092B05D1A37B2BB1012304E0012302E0012300E000231BB14D21684800F046FB636B23F4366323F00D031BB14F21634800F03CFBE36B23F4EE6323F09D
:4020800003031BB150215E4800F032FB2378022B01D1A37F13B163685A1E00E00022237F13B14FF4803100E00021A068082802D84FF4006300E00023194302F00F030B4391
:4020C00043F000732B60236B2A6812F4006F01D0802200E04022934203D36521484800F007FBA36B2A6812F4006F01D0802200E04022934203D36621414800F0F9FA636A7D
:402100002A6812F4006F01D0802200E04022934203D367213A4800F0EBFA23781B0603F040732B64637F0BB1402200E00022A17C11B14FF4806300E000231343227C12B1A7
:402140004FF4807200E000221343627C12B14FF4007200E000221A43E36A013B1B0403F470231343627B013A02F007021343A27B120102F030021343AB64237B13B14FF4CE
:40218000807200E00022E17B21B92378022B03D1012302E0012300E0002313B14FF4007300E000231A43A368013B03F00F031343C5F80033227DA3691B0403F47F03134327
:4021C000C5F81033E26AD5F8003303F00F0303339A4201D3102A03D97D21094800F088FAE37F23B12378012B03D0002302E0002300E0012333B14FF4807204E0000069408F
:4022000098A108100022637B013B03F007031A43A37B1B0103F0300313436B64237B13B14FF4807200E00022A368013B03F00F0313432278012A02D14FF4803200E0002268
:402240001343C5F8003294F83030C5F8043394F8203013B14FF0007100E0002194F82120012A02D14FF0807300E000230B4394F82820012A02D14FF4803200E0002213437B
:4022800094F8242013432B6594F83830C5F80432636B23F4926323F002031B051B0DC5F8C83FE36B23F08C035B055B0DC5F8883F86B1002070603060B060F0603062F0624C
:4022C0003063054B736370BD04487047034870BD024870BD002070BDEFCDAB000160AA000B694A69934202D34869181A7047CA694869101A184470472DE9F04107460D46D4
:40230000036813F4006F02D04FF0800801E04FF040084FEA5808D7F80863C6F308062C6926E00134EB689C4200D100246B699C420FD12B6B0BB1082098476B699C4208D1B5
:402340000023C7F8C83F0CB1013C13E0EC68013C10E0D7F84023D7F8003303F00F03072B02D8AB681A5502E0AB6823F81420013E002ED6D12C61EC6829463846FFF7B0FF74
:40238000201A804519D908B1441E00E000243B6813F4006F01D0802300E040239C4204D340F25E21064800F0A3F9D7F8040320F0FF03E0B21843C7F80403BDE8F08100BF8D
:4023C000D0A0081038B504460D46D0F8003E13F0080F35D0D0F8CC3F13F448730AD04A681A434A60C0F8C03FD0F8C03F0B6B0BB110209847D4F8CC3F13F4006F09D06B68C6
:4024000043F400636B604FF40063C4F8C03FD4F8C03FD4F8CC3F13F0010F11D0EB6923B129462046FFF728FD05E0AB681BB129462046FFF761FF0123C4F8C03FD4F8C03F8F
:40244000D4F8003E13F0040F2ED0D4F88C3F13F4A0630AD02A681A432A60C4F8803FD4F8803F2B6B0BB120209847D4F88C3F13F0010F08D029462046FFF790FC0123C4F81A
:40248000803FD4F8803FD4F88C3F13F4007F0BD00022C4F8882F2B6823F001032B60EA622B6B0BB10220984738BD00BF1F4B98422DD00CD840282ED003D8E8B1102828D08E
:4024C0002FE0802829D0B0F5807F28D029E0184B984228D006D8B0F1204F0DD0154B984212D01EE0144B98420AD00133984209D0023B984215D101E0002070470F487047B0
:402500000F4870470F4870474FF4A0007047074870470D4870470D4870470D487047034870470C4870474FF4A400704706005200010000F0090000A0040000F001005200D7
:402540000200520003005200010050000200500005005200FF00520008B50C4B1B69002B12DB0B4B1868FFF7A1FF0122094BC3F88C24084BD3F80C34002BFAD1054BD3F8FA
:402580008C34002BF5D108BD034808BD200023405C4A0208000025400200500000B583B05523ADF80030002301930C496846FEF7ADFCBDF90030002B08DB590903F01F03B3
:4025C000012202FA03F3064A42F82130022205490120FEF7FFFE03B05DF804FB0544020800E100E0254502082DE9F04104460D46174698469DF81860072903D9D121344831
:4026000000F076F837F00F0303D0D221304800F06FF8B8F1010F03D9D3212D4800F068F836F01F0303D0D421294800F061F822680123AB4022EA030308F0010808FA05F8AB
:4026400043EA08032360A36AA9000F228A4023EA020207F00F0303FA01F71743A762072D04D940F245211B4800F042F836F01F0304D040F24621174800F03AF804F13F4498
:4026800004F54E04E40904F1806404F544342401032D0DD82268ED001F23AB4022EA030306F01F0606FA05F51D432560BDE8F081043D6268ED001F23AB4022EA030306F06B
:4026C0001F0606FA05F51D436560BDE8F08100BFD8A1081018A2081008B5034B1B7800FB03F000F069F808BDA042020801BEFEE738B50D46044C18220146204605F068F95F
:40270000A5610020FFF7F2FF10480208FEE700BF08B50268254BDA6142681A6282685A62C2689A620269DA6242691A6382695A63C2699A631E4A916AD963D16A1964516A11
:402740005964516B9964926BDA64F1EE103A13F0900F27D0026A154B1A65426A5A65826A9A65C26ADA65026B1A66426B5A66826B9A66C26BDA66026C1A67426C5A67826CDA
:402780009A67C26CDA67026DC3F88020426DC3F88420826DC3F88820C26DC3F88C20026EC3F89020FFF7B2FF08BD00BF1048020800ED00E0000000000230800803D00130F6
:4027C0000238FCD100BF00BF7047EFF3108072B6704780F3108870471AB9084206D10020704731EA000303D000207047012070470120704710B5182001F03AFC044620B108
:40280000002340F8043B00F0B1F8204610BD00BF2DE9F843089F08B972B6FEE7064611F07F4F01D072B6FEE709B972B6FEE7994690460D4601F07AF810B91FB9012302E0D3
:40284000012300E000230BB972B6FEE700F0B2FD34684A4629462046FFF7BEFF38B1B8F1000F18D024EA05033360002714E09FB1B8F1000F01D1002101E04FF08071B9F10A
:40288000000F01D041F080613A462943301D00F05BFF002400E0002700F014FE0FB338B94FF08052104B1A60BFF34F8FBFF36F8F01F0CEF8044610F0007F10D101F0E2FA6F
:4028C00034684A4629462046FFF786FF28B1B8F1000F02D024EA0505356001F0E7FA24F07F442046BDE8F88304ED00E008B972B6FEE7F8B5044611F07F4F01D072B6FEE7DA
:402900000D4600F10C0600F055FD206921682943216000251FE04768016821F07F4211F0806F04D123681A4207D1002308E0236832EA030303D0002302E0012300E00123B6
:4029400043B111F0807F00D01543216841F0007100F06EFF3846B042DDD1236823EA0503236000F0AFFD2068F8BD00BF00F1080343604FF0FF328260C360036100230360DC
:40298000704700BF00230361704700BF43684B609A688A609A68516099600861036801330360704730B40D68B5F1FF3F01D1026907E000F1080200E01A4653681C68A542D2
:4029C000FAD253684B6099608A605160086103680133036030BC704703694268816891608268416851605A68904201D182685A6000220261186801381860704710B5044649
:402A000001F040FAA26BE36B9A4201D1012400E0002401F04BFA204610BD00BF10B5044601F030FAA36B0BB9012400E0002401F03DFA204610BD00BF70B504461646856B17
:402A4000026C3AB9036843BB406800F0C5FF0023636029E06EB9806804F0DEF9A268236C1344A3606268934219D32368A36000201AE0C06804F0D0F9236C5B42E2681A4488
:402A8000E26021688A4202D262681344E360022E07D145B1013D002006E0002004E0002002E0002000E000200135A56370BD00BF026C72B110B50346C4681444C4604068C6
:402AC000844201D31868D8600846D96804F0A4F910BD704738B5054601F0D4F995F8454064B20AE06B6A53B105F1240000F062FE08B100F013FF013C64B2002CF2DCFF236B
:402B000085F8453001F0D2F901F0BCF995F8444064B20AE02B6953B105F1100000F04AFE08B100F0FBFE013C64B2002CF2DCFF2385F8443001F0BAF938BD00BF08B972B617
:402B4000FEE738B504460D4601F09CF92168E26B236C03FB021060600020A063A160013A02FB0313E360FF2384F8443084F845307DB92369ABB104F1100000F01BFE80B116
:402B80004FF08052094B1A60BFF34F8FBFF36F8F07E004F11000FFF7E9FE04F12400FFF7E5FE01F083F9012038BD00BF04ED00E010B5029B0C4609B91B6000E01A60D863A2
:402BC0001C6401211846FFF7B9FF10BD08B972B6FEE7F0B583B0034611B101FB00F000E000201D4617460C46483001F041FA064638B100903B4600F1480221462846FFF7BB
:402C0000D7FF304603B0F0BDF0B585B0019208B972B6FEE7044619B9026C1AB9012202E0012200E000220AB972B6FEE7022B03D1E26B012A02D102E0012200E000220AB940
:402C400072B6FEE71D460E4600F070FE18B9019B1BB9012302E0012300E000230BB972B6FEE7002701F00EF9A26BE36B9A4201D3022D21D12A4631462046FFF7DDFE636ABD
:402C80006BB104F1240000F095FD88B14FF08052324B1A60BFF34F8FBFF36F8F08E038B14FF080522D4B1A60BFF34F8FBFF36F8F01F0FCF801204EE0019B1BB901F0F6F845
:402CC000002048E01FB902A800F0E8FD012701F0EDF800F06FFB01F0D5F894F844305BB2B3F1FF3F02D1002384F8443094F845305BB2B3F1FF3F02D1002384F8453001F082
:402D0000D5F801A902A800F0D7FDF0B92046FFF775FEA0B1019904F1100000F003FD2046FFF7D8FE00F0CEFB00289BD14FF080520A4B1A60BFF34F8FBFF36F8F92E72046D8
:402D4000FFF7C8FE00F0BEFB8CE72046FFF7C2FE00F0B8FB002005B0F0BD00BF04ED00E008B972B6FEE72DE9F843044619B9006C18B9012002E0012000E0002008B972B625
:402D8000FEE7022B03D1E06B012802D102E0012000E0002008B972B6FEE71F469046894601F03EF9EFF311864FF0BF0383F31188BFF36F8FBFF34F8FA26BE36B9A4201D30F
:402DC000022F1ED194F845506DB23A4649462046FFF732FEB5F1FF3F0DD1636A9BB104F1240000F0E7FC80B1B8F1000F0FD00120C8F800000CE06B1C5BB284F845300120D6
:402E000006E0002004E0012002E0012000E0012086F31188BDE8F88308B972B6FEE770B50446036C0BB172B6FEE703681BB943681BB9012302E0012300E000230BB972B605
:402E4000FEE70E4601F0ECF8EFF311854FF0BF0383F31188BFF36F8FBFF34F8FA26BE36B9A4218D294F845305BB20132A263B3F1FF3F0AD1636A83B104F1240000F09AFCB8
:402E800068B176B1012030600CE001335BB284F84530012006E0002004E0012002E0012000E0012085F3118870BD00BF2DE9F04184B0019208B972B6FEE7044619B9026C70
:402EC0001AB9012202E0012200E000220AB972B6FEE71F46884600F029FD18B9019B1BB9012302E0012300E000230BB972B6FEE7002600F0C7FFA56B85B3E668414620461E
:402F0000FFF7D6FDB7B9013DA563236813B900F0AFFD60602369EBB104F1100000F04AFCC0B14FF080523E4B1A60BFF34F8FBFF36F8F0FE0E660636A63B104F1240000F018
:402F400039FC38B14FF08052354B1A60BFF34F8FBFF36F8F00F0AAFF01205DE0019B1BB900F0A4FF002057E01EB902A800F096FC012600F09BFF00F01DFA00F083FF94F8DE
:402F800044305BB2B3F1FF3F02D1002384F8443094F845305BB2B3F1FF3F02D1002384F8453000F083FF01A902A800F085FC38BB2046FFF733FDE8B1236833B900F062FFDA
:402FC000606800F0C3FC00F071FF019904F1240000F0A8FB2046FFF77DFD00F073FA002887D14FF080520E4B1A60BFF34F8FBFF36F8F7EE72046FFF76DFD00F063FA78E706
:403000002046FFF767FD00F05DFA2046FFF706FD00283FF46EAF002004B0BDE8F08100BF04ED00E000230BE0074A52F8332032B9054A42F8331002EBC3035860704701332F
:40304000092BF1D9704700BF0C0E030870B504460D46164600F016FF94F844305BB2B3F1FF3F02D1002384F8443094F845305BB2B3F1FF3F02D1002384F8453000F016FFE3
:40308000A36B2BB93246294604F1240000F07CFB2046FFF71FFD70BD094B9B6A1B680BB9012300E0002323B14FF0FF32044BDA627047034B9A6AD268D2685268DA62704752
:4030C0009C4A020810B50446006B01F001F8204600F0FEFF10BD00BF2DE9F04780460D4616469946DDF820A0099F0A9C9200A521206B03F09CFE236B06F18042013A03EB39
:40310000820626F00706002306E0E95CE21882F83410EA5C12B101330F2BF6D9002384F84330BAF1060F01D94FF0060AC4F82CA0C4F844A00025A564201DFFF723FC04F100
:403140001800FFF71FFC2461CAF10703A36164622B4606E003F1120204EB8202002151600133042BF6D90023236684F864304A464146304600F05EFE206007B13C60BDE82E
:40318000F08700BF70B5002407E004EB8402930010481844FFF7EAFB0134062CF5D90E4C04F1BC063046FFF7E1FB04F1D0052846FFF7DCFB04F11400FFF7D8FB04F1E400D4
:4031C000FFF7D4FB2046FFF7D1FBA662C4F8F85070BD00BFCC4A02089C4A020838B5044600F050FE264BD3F8FC200132C3F8FC20D3F800314BB9224BC3F80041D3F8FC30A3
:40320000012B10D1FFF7BEFF0DE01D4BD3F804314BB91B4BD3F80031DA6AE36A9A4202D8174BC3F80041164AD2F808310133C2F80831E36AD2F80C21934202D9104AC2F8DC
:403240000C310F4D05F1300003EB83039A00211D1044FFF79BFB00F029FED5F804316BB1D5F80031DA6AE36A9A4207D24FF08052044B1A60BFF34F8FBFF36F8F38BD00BF1C
:403280009C4A020804ED00E070B504460E46174BD3F81051D3F800010430FFF79DFBB4F1FF3F07D136B11148D0F800110431FFF76DFB70BD2C440D4BD3F800315C60A54273
:4032C00008D90A4BD3F8F800D3F800110431FFF769FB70BD054DA86AD5F800110431FFF761FBEB6A9C4200D2EC6270BD9C4A02082DE9F04385B006460F461546984690001C
:4033000000F0B6FE60B18146682000F0B1FE044610B1C0F8309004E0484600F0D9FE00E000248CB10023039302940D9B01930C9B009343462A4639463046FFF7CDFE204613
:40334000FFF74CFF012001E04FF0FF3005B0BDE8F08300BF00B583B0124B019300230093802211491148FFF7C3FF012801D100F0E5FB01280DD172B60D4B4FF0FF32DA6276
:403380000122C3F804210022C3F8102100F0F6FD04E0B0F1FF3F01D172B6FEE703B05DF804FB00BFB84B020858A20810413608109C4A0208034AD2F818310133C2F818317C
:4033C000704700BF9C4A0208014BD3F8100170479C4A02082DE9F041394BD3F81831002B5ED1374BD3F810410134C3F8104194B99B6A1B680BB172B6FEE7314B9A6AD3F897
:40340000F8109962C3F8F820D3F820210132C3F82021FFF741FE2A4BDB6A9C4203D2002645E0012600E00026254B9B6A1B680BB9012300E0002323B14FF0FF32204BDA6293
:4034400035E01F4B9B6ADB68DD686B689C4202D21B4AD3622BE005F104084046FFF7BCFAAB6A1BB105F11800FFF7B6FAEB6A144AD2F80C21934202D9114AC2F80C31104F42
:4034800007F1300003EB83039A0041461044FFF77DFAEA6AD7F80031DB6A9A42C1D2C3E7074AD2F824310133C2F824310026044BD3F8283103B101263046BDE8F08100BF6A
:4034C0009C4A0208364BD3F818310BB972B6FEE770B500F0D7FC324BD3F81821013AC3F81821D3F81831002B52D12D4BD3F8FC303BBB00244FE02A4D2B6ADC6804F1180067
:40350000FFF76AFA261D3046FFF766FAE36AD5F80C21934201D9C5F80C31214D05F1300003EB83039A0031461044FFF72FFAE26AD5F80031DB6A9A4204D30122C5F828213B
:4035400000E00024164B5B69002BD4D10CB1FFF7A3FD134BD3F8244164B1FFF73BFF18B101220F4BC3F82821013CF6D100220C4BC3F824210A4BD3F828315BB14FF08052CF
:40358000084B1A60BFF34F8FBFF36F8F012402E0002400E0002400F089FC204670BD00BF9C4A020804ED00E010B578B104460D4BD3F818310BB172B6FEE7FFF7FBFE0021CA
:4035C0002046FFF761FEFFF77DFF00E0002038B94FF08052044B1A60BFF34F8FBFF36F8F10BD00BF9C4A020804ED00E038B51FE0FFF7E0FE114BD3F8E440FFF763FFBCB176
:4036000000F040FC0D4CD4F8F030DD68281DFFF7E3F9D4F8FC30013BC4F8FC30D4F81431013BC4F8143100F041FC2846FFF74AFD024BD3F81431002BDAD138BD9C4A020863
:4036400008B5FFF7D3FF064B1B6B012BF9D94FF08052044B1A60BFF34F8FBFF36F8FF0E79C4A020804ED00E02D4BD3F8183123B101222B4BC3F82821704710B5284B002230
:40368000C3F82821D3F800311B6B1A68B2F1A53F0BD15A68B2F1A53F07D19A68B2F1A53F03D1DB68B3F1A53F07D01D4BD3F80001D3F80011343100F0D1FC194BD3F80C31E1
:4036C00003E00BB972B6FEE7013B03EB83018A0013490A44126B002AF3D008469900CC18A2000244546B64685463303019448A0008320244944206D1606803EB83018A009D
:4037000007490A445063064903EB830082000A44526BD268C1F80021C1F80C3110BD00BF9C4A020808B972B6FEE710B50C46054BD3F800111831FFF735F901212046FFF769
:40374000A3FD10BD9C4A020808B972B6FEE703460C48D0F8180108B972B6FEE710B5184614460B46074AD2F8001143F000438B61D2F800111831FFF709F901212046FFF7DC
:4037800083FD10BD9C4A020808B972B6FEE738B50C461546064AD2F800111831FFF7F6F80DB14FF0FF3429462046FFF76DFD38BD9C4A020838B5C368DC680CB972B6FEE794
:4037C00004F118052846FFF707F9164BD3F81831ABB9251D2846FFF7FFF8E36A114AD2F80C21934202D90F4AC2F80C3103EB83039A0029460C481044FFF7C8F803E0294611
:403800000A48FFF7C3F8E26A064BD3F80031DB6A9A4204D90120034BC3F8280138BD002038BD00BF9C4A0208CC4A0208B04A0208194BD3F818310BB972B6FEE770B541F01F
:4038400000430360C4680CB972B6FEE7FFF7C4F8261D3046FFF7C0F8E36A0F4AD2F80C21934202D90C4AC2F80C310B4D05F1300003EB83039A0031461044FFF787F8E26AD9
:40388000D5F80031DB6A9A4203D90120C5F8280170BD002070BD00BF9C4A020808B972B6FEE7044AD2F820110160D2F810214260704700BF9C4A020808B972B6FEE738B5A7
:4038C000044609B972B6FEE70D4600F0DBFA124BD3F810112A68B2F1FF3F13D02068D3F82031984202D0636899420DD26368C81A82420BD95B1A13442B602046FFF7CEFF4E
:40390000002404E0002402E0012400E0012400F0CDFA204638BD00BF9C4A02080122024BC3F82821704700BF9C4A0208064BD3F804312BB1044BD3F818311BB90220704777
:4039400001207047002070479C4A020800283ED038B50246C36A1E49D1F80011C96A8B4234D28169002906DB1949D1F80011C96AC1F107018161506903EB83039900154BA4
:403980001944884201D1012300E00023CBB11546141D2046FFF720F80D4AD2F80031DB6AEB62D2F80C21934202D9094AC2F80C3103EB83039A00214606481044FEF7E6FFA5
:4039C00038BD034BD3F80031DB6AD36238BD70479C4A0208CC4A020878B338B503461A4AD2F80021904201D072B6FEE7826C0AB972B6FEE7013A8264C06A596C88421ED06C
:403A0000FAB91C461D1D2846FEF7E6FF636CE362C3F10702A2610C4AD2F80C21934202D9094AC2F80C3103EB83039A00294607481044FEF7ABFF012038BD00207047002008
:403A400038BD002038BD00BF9C4A0208CC4A0208064BD3F800219069D3F80021D3F80031DB6AC3F107039361704700BF9C4A0208064BD3F800312BB1044BD3F80021936C8F
:403A800001339364014BD3F8000170479C4A0208064B1A681368B3FA83F35B09036013B9D368186870470020704700BFC84B020808B54160006191420AD8D21A83699A42CB
:403AC00011D2011D0A4B5868FEF76CFF002008BD9A4201D2994208D2011D054B1868FEF761FF002008BD012008BD012008BD00BFC84B020870B500F0C5F90E4B9B68B3B99C
:403B00000C4C04F10C063046FEF730FF04F120052846FEF72BFF2660656000220C210A20FFF754F8A06010B10349FFF77BFA00F0BDF970BDC84B020860A2081000B583B075
:403B4000FFF7D8FF0A4B9B6853B10A4B0193032300930023802208490848FFF7C9FB00E0002008B972B6FEE703B05DF804FB00BFC84B0208FC4B020868A20810D13D081010
:403B800008B972B6FEE730B585B015460446124A9068F0B11A46019102950394052913DCFFF7C4FE022807D10023089A01A90A488068FFF729F80DE000231A4601A9064864
:403BC0008068FFF721F805E0002301A9FFF7C8F800E0002005B030BDC84B020870B582B022E0DB681E68DC68251D2846FEF7F4FE636A20469847E369012B15D1A3693344B7
:403C00009E4207D26360246129460D4B1868FEF7C9FE09E0002100910B4632462046FFF7AFFF08B972B6FEE7054B1B681A68002AD7D1034A51681160536002B070BD00BF55
:403C4000C84B020838B50546FFF7BEFB0446074B9B6B984204D2FFF7C1FF01232B6001E000232B60014B9C63204638BDC84B020870B582B005460E46104B1B68DB68DC68DC
:403C8000201DFEF7A9FEE369012B11D1A1692B46324629442046FFF70BFF48B1002100910B462A462046FFF76BFF08B972B6FEE7636A2046984702B070BD00BFC84B02083E
:403CC00070B582B006460C46FFF774FB01A8FFF7B9FF019B1BBB054644B9B04206D3FFF7F1FB29463046FFF7C3FF1AE02CB10E4B5B681C68B4FA84F464092246711B0A4BBC
:403D00009868FFF7A3F9FFF7DDFB50B94FF08052064B1A60BFF34F8FBFF36F8F01E0FFF7D1FB02B070BD00BFC84B020804ED00E030B587B03FE0039B002B3CDB059C636947
:403D400013B1201DFEF748FE02A8FFF77BFF039B092B30D8DFE803F00505052F202C05052F200499A5690B46024629442046FFF79FFE00B3636A20469847E369012B1AD1A4
:403D8000A269002100910B46049802442046FFF7F7FE80B972B6FEE70499A16109B972B6FEE70346024601442046FFF781FE02E0204600F08DF900231A4603A9034880683D
:403DC000FFF774F80028B6D107B030BDC84B020800B583B001A8FFF75BFE0199FFF770FFFFF7A6FFF6E700BF044B1B68B3F1FF3F01D072B6FEE772B6FEE700BFB042020881
:403E000006480068006880F3088862B661B6BFF34F8FBFF36F8F00DF00BF000008ED00E0DFF80C00016841F4700101607047000088ED00E04FF0807340F8043C21F0010163
:403E400040F8081C054B40F80C3C40F8202C6FF0020340F8243C4438704700BFE93D0810074B19680868B0E8F04F80F30988BFF36F8F4FF0000080F311887047AFF3008074
:403E80009C4B020872B6074A136801331360012B06D1054B1B6813F0FF0F01D072B6FEE7704700BFB042020804ED00E0054B1B680BB972B6FEE7013B024A136003B962B6FB
:403EC000704700BFB04202080000000000000000EFF30980BFF36F8F154B1A681EF0100F08BF20ED108A20E9F04F10604DF8043D4FF0BF0080F31188BFF34F8FBFF36F8F30
:403F0000FFF7B2FB4FF0000080F3118808BC19680868B0E8F04F1EF0100F08BFB0EC108A80F30988BFF36F8F704700BFAFF300809C4B020808B572B6FFF74CFA18B14FF077
:403F40008052024B1A6062B608BD00BF04ED00E0064B1B68064AA2FB03239B09013B054A13600722044B1A60704700BF98420208D34D621014E000E010E000E000B583B048
:403F8000224B1A78D2B20192FF221A701B78DBB28DF803309DF803301D4A03F0BF0313700723536009E01A4A5368013B53609DF803305B00DBB28DF803309DF8033013F0FA
:403FC000800FF0D1124A53681B0203F4E0635360019BDBB20D4A13700E4B1A6842F47F021A601A6842F07F421A60FFF7B1FF0022094B1A60FFF714FF084A136843F0404330
:404000001360FFF7FDFEFFF7EFFE00BF00E400E0044C020820ED00E0B042020834EF00E0EFF305830F2B08D9094A9B5CDBB2094A1278934201D272B6FEE7074B1B6803F4B6
:40404000E063044A5268934201D972B6FEE77047F0E300E0044C02080CED00E008B572B640F20B310148FEF743FBFEE770A2081038B5044610F0070F02D020F00704083448
:40408000FFF798F9104B1B682BB90F4A02F10C0323F0070313600D4BD3F85C351C444BF6F772944208D8A34208D2074A15681D44064BC3F85C4502E0002500E00025FFF7BB
:4040C00001FA284638BD00BF0C4C0208B406030808B172B6FEE7704770B539B900240AE015F8010BFCF700FE013402E016460D460024B442F4DB204670BD00BF70B551B9A0
:4041000000240DE0FCF7FCFDC0B2287001340A2806D0013502E016460D460024B442F1DB204670BD08B5074B1B7833B900F016FA00F090FA0122034B1A7000F05DF800F0C3
:40414000F1FE08BD140C030810B5FFF7EBFF044610B900F0EFFD044614B900F06BFD044614B900F079FC044600F01EFC0028FBD100F0FAFA00F0BCFA0CB902F04DF92046AC
:4041800010BD00BF70B5194D0026344629E063090433174A52F8233004F01F02D34013F0010F1CD0EB7E012B02D0022B09D011E0284600F0A5F806462946204600F094F980
:4041C0000DE0284600F080F806462946204600F0F3F804E04FF4B7710648FEF789FA2C350134022CD3D9304670BD00BF24A308105C0E0308C0A2081070B500230AE01D4AB2
:40420000191D02EB8100002444604FF0FF3042F821000133002BF2D0174C032325E06668A27E144B2B4400211976012A03D0D2B1032A07D917E02069A8B1228BF17902F0BE
:40424000F6FD10E023690BB1F2791A706168002307E003F1080201EB42024FF6FF7090800133002BF5D02C342B465D1E002BD6D170BD00BF5C0E030824A3081010B582B0E0
:4042800004460846638802A921F8083D1346228A02F08AF9BDF8003063809DF8023023719DF8033063719DF80430A37102B010BD30B40B884A889C1A0025CD80007984422D
:4042C00000DDCC8030BC70472DE9F0418468038B456890F81A8000270BE042462146284600F050FA074621462846FFF7E1FF0A3433465E1E002BF0D13846BDE8F08100BF4F
:404300002DE9F04780468468476890F81AA0466A0025A94616E03246398A208802F06CF92A4631463846FFF7A9FF0C3652462146384600F027FA814621463846FFF7B8FF6D
:404340000A340135B8F818309D42E4D34846BDE8F08700BFF0B50C8B8D684F680A69012324E010EA030403D17E88B979314402E07988BE79891BEE88B14201D3002100E0D1
:404380001946A14202D01678013E1670A14201D014783CB920EA0300084309B9F97900E0012111705B000A350132744604F1FF3E002CD6D1F0BD00BF38B504468A7E154BBB
:4043C00003441D7E012A04D12846FFF7C3FF054604E04FF438711048FEF78AF90D4B23441D76620904F01F04012303FA04F445B90432084B03EB8202536823EA0404546060
